:100000000C94D6030C940E040C940E040C940E0461
:100010000C940E040C940E040C940E040C940E0418
:100020000C940E040C940E040C94D2160C94FF2025
:100030000C941F2D0C940E040C940E040C940E04BE
:100040000C940E040C940E040C940E040C940E04E8
:100050000C940E040C94AB170C940E040C940E0428
:100060000C940E040C940E040C940E040C940E04C8
:100070000C940E040C940E040C940E040C940E04B8
:100080000C940E040C940E040C940E040C940E04A8
:100090000C940E040C940E040C940E040C940E0498
:1000A0000C940E040C940E040C940E040501090229
:1000B000A10185020901A1000509190129081500FE
:1000C0002501950875018102050109300931158165
:1000D000257F95027508810609381581257F9501D0
:1000E00075088106050C0A38021581257F95017572
:1000F000088106C0C005010980A101850319012AF4
:10010000B700150126B700950175108100C0050CD8
:100110000901A101850419012AA002150126A002E6
:10012000950175108100C005010906A1018506052C
:100130000719E029E71500250195087501810205D9
:1001400007190029EF1500250195F07501810205B9
:10015000081901290595057501910295017503910D
:1001600001C00660FF0961A1010962150026FF00B8
:100170009520750881020963150026FF00952075FA
:10018000089102C005010906A101050719E029E748
:1001900015002501950875018102950175088101F9
:1001A0000507190029FF150026FF0095067508812F
:1001B000000508190129059505750191029501753C
:1001C000039101C0000000000000000000000000DA
:1001D000000000000000000000000000000000001F
:1001E00000000000000000007E0F00D4FFFFFFC7EA
:1001F0000000007800000000000000002A2B28000A
:1002000000000000000000000000000000000029C5
:10021000000000002C1E3420212224342627252E05
:10022000362D3738271E1F2021222324252633333D
:10023000362E37381F0405060708090A0B0C0D0E69
:100240000F101112131415161718191A1B1C1D2F35
:100250003130232D350405060708090A0B0C0D0E55
:100260000F101112131415161718191A1B1C1D2F15
:100270003130354C0001010101010101010102028F
:100280000202020202020203030303030303030444
:10029000040404040404050505050506060606060F
:1002A000070707070708080808090909090A0A0AC9
:1002B0000B0B0B0C0C0C0D0D0D0E0E0E0F0F0F106B
:1002C00010111111121213131414151516161717F5
:1002D000181819191A1A1B1B1C1D1D1E1E1F202061
:1002E000212222232424252626272829292A2B2CAB
:1002F0002D2D2E2F30313232333435363738393ACE
:100300003B3C3D3E3F404142434445464748494AC5
:100310004C4D4E4F50515354555658595A5B5D5E93
:100320005F616264656668696B6C6D6F707273752E
:1003300077787A7B7D7E8082838587888A8C8E8F92
:1003400091939596989A9C9EA0A2A3A5A7A9ABADC0
:10035000AFB1B3B5B7BABCBEC0C2C4C6C9CBCDCFAE
:10036000D1D4D6D8DBDDDFE2E4E7E9EBEEF0F3F55C
:10037000F8FAFDFF4400C103BCE0420B34C1C412D3
:10038000ACA1461A2482C8219C624A291443CC306D
:100390008C234E380404D03F50308104C810030C25
:1003A00040F18413B8D1061B30B28822A8920A2AE1
:1003B00038D00003B0B0820A28910412A0718619C7
:1003C0001852082190328A2808130C3080F38D3798
:1003D000F8D30F3F5C604105D440C30C4C21451459
:1003E000C401C71B3CE24823B4C2CA2A2CA0400265
:1003F000A480C2091C6144119441C6180C224820F3
:100400008402CA27FCE24B2F74C3CD36ECA34F3EC7
:1004100068900106E070830D58510515D031871C96
:10042000C0F28A2B207080011031841088110618C8
:1004300000F2871F78D20927F0B28B2E68930D3611
:10044000E0738F3D74C0C106ECA0430E6481C515F6
:10045000DC61471D5442C924CC224B2C1440C000FF
:100460008C2042080401C40FE482CB2D6484D14562
:1004700088141248ACA4524AD034934CF4C4D34EDE
:100480004C24514470B491469444D248B8D4124B91
:10049000DC64534D00F5934F2485D4514815155411
:1004A0006CA55556585411457CE45147A0749249A7
:1004B000C404D34BE894134E0C255450165C1E0014
:1004C0001F00200021002200230024002500260018
:1004D00027002D002E002A004A002B0014001A00CD
:1004E0000800150017001C0018000C001200130073
:1004F0002F00300031004B003900040016000700C7
:1005000009000A000B000D000E000F00330034003C
:10051000280000004E00E10000001D001B00060046
:100520001900050011001000360037003800E50002
:1005300052004D00E000E300E20000000000000077
:100540002C000000000000000151E40050005100A8
:100550004F00165C3A003B003C003D003E003F006F
:100560004000410042004300440045004C004A0066
:100570000100C25CC35CC55CC65CC75CC85CC95C8E
:10058000CA5C0100460047004800005C4B0039008F
:10059000CB5CCC5C01000100010001000100010006
:1005A000010001000100010000004E00E100000018
:1005B00001000100010001000100145C01000100C4
:1005C000010001000100A900A800010001000100D4
:1005D0000000000000000100000000000000010019
:1005E0000100AC00AA00AB00010001000100010005
:1005F00001000100010001000100010001000100F3
:1006000001000100010001000100010001000100E2
:1006100001000100010001000100010001000100D2
:1006200001000100010001000100010001000100C2
:1006300001000100010001000100010001000000B3
:1006400001000100000001000100010001000100A3
:100650000100010001000100010001000100010092
:100660000100010001000000000000000100000086
:100670000000000001000100010001000100010074
:100680000100010001000100010001000100010062
:100690000100010001000100010001000100010052
:1006A0000100010001000100010001000100010042
:1006B0000100010001000100010001000100010032
:1006C0000100010001000100010001000100010022
:1006D0000100010000000100010000000100010014
:1006E0000100010001000100010001000100010002
:1006F00001000100010001000100010000000000F4
:1007000000000100000000000000010001000100E5
:100710000100010009025B00030100A0FA090400C6
:10072000000103010100092111010001224000071D
:10073000058103080001090401000203000000090B
:100740002111010001222200070582032000010778
:100750000503032000010904020001030000000951
:10076000211101000122B6000705840320000112B7
:10077000010002000000084B5412000100010200B9
:10078000011A0350006F0072007400690063006F6B
:1007900000360038002000760032000000080354C4
:1007A000004B0043000000040309040011241FBE95
:1007B000CFEFDAE0DEBFCDBF04B603FE18C08091F4
:1007C000610790916207A0916307B0916407873039
:1007D000904BA740B04B59F41092610710926207FA
:1007E0001092630710926407E0E0F8E3099527E0B0
:1007F000A4EDB2E001C01D92A136B207E1F712E00C
:10080000A0E0B1E0E0EBFBE602C005900D92A43D54
:10081000B107D9F70E94462D0C9443350C94000083
:10082000E8EDF0E080818E7F80831092E2001092EC
:10083000DA001092E100A0EEB0E08C9181608C9320
:1008400080818F77808319BCA7EDB0E08C918E7F7B
:100850008C9380818F7E80831092FA060895209178
:10086000E4003091E50095E6A9012091EC00822F8B
:10087000817020FF06C08091E80080FF06C080E004
:1008800008952091E80022FD1AC080911F07882357
:1008900089F0853089F08091EB0085FD0FC02091B3
:1008A000E4003091E50042175307F9F29150E1F668
:1008B00084E0089582E0089583E0089581E008953A
:1008C000EF92FF920F931F93CF937C018B010E94B5
:1008D0002F04C82F811117C08091E80085FD0BC03F
:1008E0008091E8008E778093E8000E942F0488238F
:1008F00099F3C82F08C0F70181917F018093F1001F
:100900000150110949F78C2FCF911F910F91FF9042
:10091000EF9008958091210787FF13C08091E80030
:1009200082FF06C08091E8008B778093E80004C0C6
:1009300080911F078111F2CF089580911F078823AE
:10094000D9F38091E80080FFF8CF8091E8008E779E
:10095000ECCF982F9093E900242F762F50E0891741
:1009600031F07091EC002091ED005091F00021FDEC
:1009700007C09F5F973071F78093E90081E0089589
:100980003091EB003E7F3093EB003091ED003D7FE6
:100990003093ED003091EB0031603093EB007093B9
:1009A000EC002093ED005093F0002091EE0027FD25
:1009B000E0CF80E00895B0E0A0E0E1EEF4E00C9438
:1009C000B933C8EDD0E088818F7E8883E7EDF0E011
:1009D00080818160808384E082BF81E08093FA0619
:1009E00088818E7F888302EE10E0F80110821092D9
:1009F000DA0081EEC82ED12CF601108288818F7723
:100A0000888388818068888388818F7D888319BCEA
:100A100010921F071092200710921E0710921D07B8
:100A200090EEE92EF12CF70180818B7F8083888105
:100A30008160888342E060E080E00E94A904F601C2
:100A400080818E7F8083F8018081816080838081B6
:100A500088608083F70180818E7F808388818061B8
:100A60008883CDB7DEB7E8E00C94D533FC018091E4
:100A700027079091280786179707A0F06115710541
:100A800029F49091E8009E779093E80090E061153A
:100A9000710551F4911108C08091E80082FF34C0C3
:100AA00080E00895BC01F2CF80911F078823C1F137
:100AB0008530C1F18091E80083FD30C08091E8006D
:100AC00082FDEACF8091E80080FFE1CF8091F300C2
:100AD0002091F200382F6115710519F02830310589
:100AE00058F091E02830310509F090E02091E800BD
:100AF0002E772093E800CBCF81918093F100615055
:100B000071092F5F3F4FE7CF80911F07882341F086
:100B1000853041F08091E80083FFBECF81E00895E9
:100B200082E0089583E0089508958091FC06089579
:100B30002FB7F8946091F1067091F2068091F30658
:100B40009091F4062FBF089520911B012223C9F034
:100B50002091F50627FF15C0E62FE695E695E69568
:100B6000EE31D8F4E80FF92FF11D677021E030E085
:100B700001C0220F6A95EAF72095828128232283FB
:100B80000895FC01329608962191621303C0DF019B
:100B900011971C92E817F907B9F7089520911B01E6
:100BA0002223C1F02091F50627FF14C0E62FE69519
:100BB000E695E695EE31F8F4E80FF92FF11D677030
:100BC00021E030E001C0220F6A95EAF78281822B92
:100BD00082830895FC0132962FEF30E04191641733
:100BE00051F02F3F19F4411101C0232F3F5F3630E0
:100BF000A9F72F3F09F40895820F911D27FD9A95BB
:100C0000FC01628308952091EE063091EF062817CB
:100C1000390771F09093EF068093EE06E091EC06B1
:100C2000F091ED06309721F00084F185E02D0995D3
:100C300008952091EA063091EB062817390771F0E4
:100C40009093EB068093EA06E091EC06F091ED06B6
:100C5000309721F00680F781E02D09950895E09105
:100C6000EC06F091ED06309729F00190F081E02D2F
:100C70000995089580E00895FA01811101C0FB01F2
:100C800009950895EBE5F7E0248130E1231B08F492
:100C900020E0248380915A07816080935A07089549
:100CA000EBE5F7E0248130E1230F08F42FEF2483F4
:100CB00080915A07816080935A07089590915B074D
:100CC000937071F080935C0760935D07403B08F080
:100CD0004FEA40935E0780915A07822B80935A0710
:100CE0000895EBE5F7E0438120E1421B08F440E082
:100CF000818121E0628190E00E945E060895EBE52B
:100D0000F7E0438120E1420F08F44FEF818121E0B9
:100D1000628190E00E945E060895EBE5F7E0628153
:100D200020E1621B08F460E0818121E0438190E0D2
:100D30000E945E060895EBE5F7E0628120E1620F14
:100D400008F46FEF818121E0438190E00E945E060C
:100D50000895EBE5F7E0818121E0438162818850CD
:100D6000990B0E945E060895EBE5F7E0818190E023
:100D700021E04381628108960E945E060895909169
:100D80005B07937061F081110BC0946090935B07D7
:100D900010921A0180915A07862B80935A07089562
:100DA0008B3210F0986AF2CF880F880F982BEECF15
:100DB00080915B0786958695815009F48AE261E00F
:100DC0000E94BF06089580915B07869586958F5F88
:100DD0008B3208F081E061E00E94BF060895EF9237
:100DE000FF920F939701201B31092F3F310519F016
:100DF00010F02FEF30E02095382F320F08F43FEF3E
:100E0000832F0F91FF90EF900895EF92FF920F9331
:100E10009701201B31092F3F310519F010F02FEFFA
:100E200030E0322F3095482F430F08F44FEF842FD6
:100E3000620F0F91FF90EF900895EF92FF920F9342
:100E4000972F093438F4B701601B71096F3F7105A2
:100E500019F010F06FEF70E0485F5F4F41315105BE
:100E600040F0A901485F5F4F4131510510F06FEF2D
:100E700070E06095482F460F08F44FEF842F37FF3E
:100E800002C02D5F3F4F3595279535952795609189
:100E90005C07620F792F0F91FF90EF900895EF920A
:100EA000FF920F931F930E0D1F2D111DF90137FF98
:100EB00003C0F195E195F10924E0EE0FFF1F2A959B
:100EC000E1F7EF3FF10519F014F0EFEFF0E09A01D0
:100ED00057FF03C031952195310994E0220F331F4C
:100EE0009A95E1F72E173F070CF4F901E00FF11F77
:100EF000EF3FF10519F010F0EFEFF0E0E095282F4B
:100F00003E2F230F08F42FEF822F1F910F91FF9098
:100F1000EF900895EF92FF920F93970195E0099F4C
:100F2000200D311D11242F3F310519F010F02FEF46
:100F300030E02095382F320F08F43FEF832F0F91C8
:100F4000FF90EF90089522E8241B08F420E0620F40
:100F500008954095282F429F412D1124842F0895F4
:100F6000E42FF0E0EE0FFF1FE352FE4F9081921B43
:100F700097FD9195292F38E1239F212D1124620F90
:100F800008950F931F9310E0F801EE0FFF1FE35237
:100F9000FE4F9081945797FD9195000F111FF80116
:100FA000E252FE4F00810052110B2003F001219FFD
:100FB000F00D112408E310E0091B110997FD1395AA
:100FC00040039001419F300D1124E20FF31F9F0158
:100FD000220F331F2E0F3F1F37FF02C021583F4FF4
:100FE000220F232F221F330B620F1F910F910895A1
:100FF0000F931F93522F10E0F801EE0FFF1FE252E4
:10100000FE4FA081A052BB0B9D015203F001539FE4
:10101000F00D1124000F111FD801A352BE4F0C91E7
:101020000457110B40039001419F300D11242E0FE6
:101030003F1F37FF02C0215C3F4F96E03595279553
:101040009A95E1F7620F1F910F9108950F931F93E7
:10105000522F10E0F801EE0FFF1FE252FE4FA08169
:10106000A052BB0B9D015203F001539FF00D1124C0
:10107000000F111FD801A352BE4F0C910457110B42
:1010800040039001419F300D11242E0F3F1F37FF69
:1010900002C021583F4F220F232F221F330B620F14
:1010A0001F910F910895EF920F93972F23E0029FC6
:1010B000B0011124759567956E0D792F0F91EF9002
:1010C0000895322F50E0FA01EE0FFF1FE252FE4F5B
:1010D0009081905297FD9195440F551FFA01E3526C
:1010E000FE4F2081231B330B290F311D97FD3A95AD
:1010F000620F0895E42FF0E0EE0FFF1FE252FE4F63
:101100006081621B0895E42FF0E0EE0FFF1FE352B1
:10111000FE4F6081621B0895622F0895E42FF0E076
:10112000EE0FFF1FE352FE4F408134EE439F412DEF
:101130001124E82FF0E050E0445E5F4FDA01A21B7B
:10114000B1099D01B7FF03C031952195310993E0A5
:10115000220F331F9A95E1F7AF01421B530B9A01FF
:1011600057FD20E0582F259F212D1124822F08950F
:10117000E42FF0E0EE0FFF1FE352FE4F408134EE0C
:10118000439F412D1124E72FF0E050E0445E5F4F74
:10119000DA01A21BB1099D01B7FF03C0319521956A
:1011A000310993E0220F331F9A95E1F7AF01421BFB
:1011B000530B9A0157FD20E0279F212D1124722FF8
:1011C00008950E94211408950E94B7130895FC0108
:1011D0009B01009729F480E077FF2BC080E80895F9
:1011E000AC0197FF04C044275527481B590BB90190
:1011F000640F751F37FD10C0241B350BC901A5E016
:10120000880F991FAA95E1F70E94F23380E2861BAE
:10121000F7FF0FC081950895CB0165E0880F991FF6
:101220006A95E1F7BA01621B730B0E94F23380E604
:10123000EECF0895EF920F93CF93DF93D72FC82F60
:10124000C9010E19BA010E94E708602F681B7D2FA3
:101250008C2FDF91CF910F91EF9008950F93CF9343
:10126000DF93D72FC82FC901BA010E94E708682F62
:10127000600F7D2F8C2FDF91CF910F910895EF920A
:101280000F931F93CF93DF93D62FC72F182FC9012A
:101290000E19010FBA010E94E708081B202F219F99
:1012A000212D1124822F6D2F7C2FDF91CF911F9143
:1012B0000F91EF900895EF920F931F93CF93DF93C9
:1012C000D62F172FC82FC9010E19070FBA010E9478
:1012D000E708702F781B719F712D11246D2F8C2FB3
:1012E000DF91CF911F910F91EF9008950F931F936E
:1012F000CF93DF93D62FC72F182FC901212F201B83
:10130000022FBA010E94E708982F990F990F891BA5
:10131000800F282F219F212D1124822F6D2F7C2FAC
:10132000DF91CF911F910F9108950F931F93CF934A
:10133000DF93D62F172FC82FC901272F201B022F6D
:10134000BA010E94E708982F990F990F782F791BFF
:10135000700F719F712D11246D2F8C2FDF91CF9104
:101360001F910F910895E82F86FDE0952E2F2F7085
:1013700086FD2F5FE695E695E695E670F0E0E55888
:10138000FE4F9181929F902D212D112492959F7057
:101390002295207F922B2081920F87FD919580E8E6
:1013A000890F08950F931F93CF93DF938B01D82F4D
:1013B000C42F822F0E94B309EC2FF0E0EE0FFF1F25
:1013C000E352FE4F90819058890F87FD8195880FD9
:1013D000682F2CE0629F612D1124600F712F8D2FDB
:1013E000DF91CF911F910F91089540911601509177
:1013F000170125E038E0429FC001439F900D529FA6
:10140000900D1124875E994C9093170180931601DB
:10141000890F0895AC018230910508F408959FEF7B
:10142000413E8EE1580740F49A0195E036952795A4
:101430009A95E1F798E0920F61E0E62FE90FFF2718
:10144000FF1F9F0135952795822F229FF001239F33
:10145000F00DF00D11244E175F0738F49FEF920F37
:10146000961758F78FEF860F08952F3FE9F361E045
:10147000620FF6CF0F93CF93DF93D72FC82F47FD7F
:1014800041958AE390E0841B910947FD9395889FDD
:10149000B001899F700D700D1124229FC001239F00
:1014A000900D900D1124860F971F0E940A0A982F05
:1014B000990F890F682F600F7D2F8C2FDF91CF91AF
:1014C0000F91089530E020E0869F212D969F200DFA
:1014D000311D1124C9010895AF92BF92CF92DF92BE
:1014E000FF920F931F93CF93DF93362F472FE82F51
:1014F000F0E0EC58FD4F71110FC0E4918E2F2E2FAC
:101500006E2F722FDF91CF911F910F91FF90DF907F
:10151000CF90BF90AF900895C72FD0E02491F22EC6
:10152000022F10E056E0659FC0011124EFEFF0E0BC
:10153000BF010E949B33832F90E0880F991F35E5F0
:10154000369FD001379FB00D11248A1B9B0B982F1B
:10155000990F980F6F01CC1ADD0AC09ED001C19E71
:10156000B00DD09EB00D11248B2F499FA0011124E6
:10157000452F55276F01C41AD50AC09EA001C19EF0
:10158000500DD09E500D11245F01A91AB108AC9ED8
:101590006001AD9ED00CBC9ED00C1124CD2CDD245E
:1015A000EC19FD09E09FE001E19FD00DF09FD00D07
:1015B0001124ED2F62307105A1F050F46115710511
:1015C00009F49ECF6130710581F0EB2F852F98CF04
:1015D0006430710569F080F06630710509F490CFD0
:1015E000F4CFE22F2B2F8D2F8BCFE22F252F88CFFB
:1015F000EB2F822F2D2F84CF2B2F8F2DE52F80CFF8
:10160000B0E0A0E0E6E0FBE00C94BA338C01FC0112
:10161000EF57FD4F8081682349F1D0905D07D0914D
:101620005E07C0915C07EC2EF12C0E94F509282F73
:10163000C7018C549F4F68E671E00E94F2338E1907
:101640009F0997FD039695958795959587952370A6
:101650006C2F289F600D11247D2D8D2F0E946C0A08
:10166000462F282F672FC8010E94E408CDB7DEB7A8
:10167000E7E00C94D6332F923F925F926F927F9265
:101680008F929F92AF92BF92CF92DF92EF92FF9292
:101690000F931F93CF93DF93CDB7DEB72A970FB683
:1016A000F894DEBF0FBECDBF8B837E836D83209108
:1016B000300181E1289F802D11248F838F5E8983E3
:1016C0008A83833510F032E53A8380912D078C832D
:1016D000FF81EF2FF0E0FA87E987CF01880F991F8C
:1016E0009C0123523E4F69013B81832F90E0FC0116
:1016F0003196F887EF838A8199859817E8F081E021
:10170000E981E23508F080E02A960FB6F894DEBF52
:101710000FBECDBFDF91CF911F910F91FF90EF9042
:10172000DF90CF90BF90AF909F908F907F906F9001
:101730005F903F902F900895E985FA85EF57FD4F10
:101740008081909131018923F1F020905C073090E5
:101750005D072F813885235D384F39015B8010E0AC
:10176000FC815F16D0F020915E07129F112D11248D
:10177000B101812F0E946C0A462F282F672F89857F
:101780009A850E94E40829853A852F5F3F4F3A8762
:10179000298732E0C30ED11CAECFF30181913F0106
:1017A000F601A080A81ABB088180F3018781881AFE
:1017B0009908AA9C9001AB9C300D300D1124889C97
:1017C000C001899C900D900D1124820F931F0E94DF
:1017D0000A0A082F60915F0721E0620F08F46FEF9B
:1017E000F301EE0FFF1FED52F740858996890E94A5
:1017F000620A7C019401A501B101812FED81FE8176
:1018000009951B015394182FABCFB0E0A0E0EBE09B
:10181000FCE00C94B9338C01C091300181E1C89F88
:10182000C02D112421E1D22EDC0ECD2C22E52D1568
:1018300010F492E5C92E20915F0731E0230F08F4E0
:101840002FEF30E050E040E06FEF7FEF80E090E07E
:101850000E94E0347901D0E02C2FCC1550F081E0CB
:10186000F1E5FD1508F480E0CDB7DEB7E8E00C94B3
:10187000D533FE01EF57FD4F8081909131018923CF
:1018800011F140912D074150042E000C550B47FFDC
:101890001CC0C70160915F0721E0620F08F46FEF81
:1018A0000E94620AAC0160915C0770915D078091B3
:1018B0005E07F80109950E946C0A462F282F672FB2
:1018C000CE010E94E4082196C7CFFA01E35DF84FEC
:1018D000818982130AC0FA01EE0FFF1FE35DF84F02
:1018E000818D928D8E159F05A8F241505109CFCF61
:1018F000B0E0A0E0EEE7FCE00C94BA337C01C091CC
:10190000300181E1C89FC02D112411E11C0F012F6E
:10191000133508F002E560915F076695669521E052
:10192000620F08F46FEF8091290790912A070E94B7
:10193000620AD82ED0E0C01748F081E0123508F0D6
:1019400080E0CDB7DEB7E7E00C94D633FE01EF5769
:10195000FD4F808190913101892391F060915C0766
:1019600070915D0780915E072D2D4C2FF701099531
:101970000E946C0A462F282F672FCE010E94E40890
:101980002196D9CFB0E0A0E0E8ECFCE00C94B633AF
:101990006C01C091300181E1C89FC02D112411E17B
:1019A0001C0FB12E133510F032E5B32E60915F0796
:1019B000669566958091290790912A070E94620A90
:1019C000F82E80E48F0D0E94B30990E8A92EA80E8E
:1019D0008F2D0E94B30920E8922E980ED0E0CB15EF
:1019E00048F081E0123508F080E0CDB7DEB7EBE0DB
:1019F0000C94D233FE01EF57FD4F8081909131015D
:101A00008923A1F060915C0770915D0780915E076A
:101A1000EF2C0C2F292D4A2DF60109950E946C0AF6
:101A2000462F282F672FCE010E94E4082196D7CF9A
:101A3000B0E0A0E0EEE1FDE00C94B4335C01C091B5
:101A4000300181E1C89FC02D112411E11C0FF12E3E
:101A5000133510F032E5F32E60915F0766958091A3
:101A6000290790912A070E94620A782ED0E0CF15AC
:101A700048F081E0123508F080E0CDB7DEB7EDE048
:101A80000C94D033FE01EF57FD4F808190913101CE
:101A90008923C9F1CE01880F991F8E569E4FFC01F4
:101AA000E55BFF4F2081422F4457550B6A01845B51
:101AB0009F4FFC018081282F2052330B4901449F06
:101AC0009001459F300D300D1124889CC001899CE8
:101AD000900D900D1124820F931F0E940A0A082F67
:101AE00060915C0770915D0780915E07E72C94011F
:101AF000A601F50109950E946C0A462F282F672F31
:101B0000CE010E94E4082196B2CFB0E0A0E0EBE85D
:101B1000FDE00C94B9337C01C091300181E1C89F94
:101B2000C02D112411E11C0FD12E133510F032E518
:101B3000D32E60915F0766958091290790912A07BF
:101B40000E94620AC82ED0E0CD1548F081E012351F
:101B500008F080E0CDB7DEB7E8E00C94D533FE01A5
:101B6000EF57FD4F808190913101892311F1CE0112
:101B7000880F991F8E569E4FFC01E45BFF4F20811A
:101B80002052330B855B9F4FFC0140814457550B1E
:101B900060915C0770915D0780915E070C2DF701E5
:101BA00009950E946C0A462F282F672FCE010E94AC
:101BB000E4082196C9CF4091A203803F59F4809157
:101BC000A30387FF0DC01092A30341110BC0109215
:101BD0009A0308C0813F81F48091A30318169CF3F7
:101BE000442381F08091A4039091A503892B09F0EF
:101BF0005AC0109299030895823F49F447FFF0CFED
:101C00001092A2038091A3038111ECCFE0CF833F18
:101C100019F41416ACF3E4CF9091A403893F29F48E
:101C20001916F4F61092A403DBCF8A3F19F497FF3C
:101C3000D7CFF8CF9091A5038B3F29F497FFD0CF52
:101C40001092A503CDCF8C3F19F41916CCF3C8CF51
:101C50009CE0980F953090F4845F990B21E030E080
:101C6000B90102C0660F771F8A95E2F7CB01809514
:101C70009091A10389238093A103B2CF8D3F31F4CA
:101C800080919B038E7F80939B03AACF8E3F21F48C
:101C900080919B038D7FF7CF8F3F09F0A1CF80917B
:101CA0009B038B7FF0CF089580919B0380FF0CC036
:101CB0006091150170E0759567957595679561154B
:101CC000710549F1862F089581FF06C060911501C5
:101CD00070E075956795F3CF6091150182FD0BC09B
:101CE000909199039923A1F06091140180911501BD
:101CF000961738F0682F70E06038710500F38FE7B1
:101D00000895899FC001112470E00E94F233F4CF3E
:101D100061E070E0D7CF81E0089580919B0380FF60
:101D20000DC06091130170E0660F771F6038710578
:101D300070F56115710569F1862F089581FF07C05F
:101D40006091130184E0689FB0011124EFCF82FFFE
:101D500004C06091130188E0F6CF80919A03882334
:101D600099F020911201609113018217A0F7869FCC
:101D7000C001112433E0880F991F3A95E1F7622FD3
:101D800070E00E94F233D2CF68E070E0D5CF8FE7E9
:101D9000089581E00895803F31F40E948D0E819571
:101DA0008093A3030895813F19F40E948D0EF8CF0C
:101DB000823F31F40E948D0E81958093A203089595
:101DC000833F19F40E948D0EF8CF893F29F40E94B9
:101DD000540E8093A40308958A3F21F40E94540E68
:101DE0008195F7CF8B3F31F40E94540E81958093FB
:101DF000A50308958C3F19F40E94540EF8CF9CE07F
:101E0000980F953070F4845F990B21E030E001C0A9
:101E1000220F8A95EAF78091A103822B8093A10378
:101E200008958D3F31F480919B03816080939B03E3
:101E300008958E3F21F480919B038260F7CF8F3FFE
:101E4000B9F780919B038460F1CF80E00895F89406
:101E5000E82FE295EF70F0E031A1282F2F7081E09C
:101E600090E001C0880F2A95EAF7982F9095932368
:101E700091A392A1892B82A3789408959091F5065D
:101E800092FF06C0282F28712830F9F4877F8460DC
:101E900093FF06C0282F28712831F1F4877E8461D2
:101EA0002091F60620FF06C0382F38713830D9F45B
:101EB000877F816021FF06C0282F28712831D1F447
:101EC000877E816194FD877E0895282F24712430B8
:101ED000F9F68B7F8860DCCF282F2471243101F73D
:101EE0008B7E8861DDCF382F3171313019F78E7FCD
:101EF0008860E0CF282F2171213121F78E7E886103
:101F0000E1CFCF93DF93EC0182389105B1F108F076
:101F100040C08133910509F49DC048F5893291058F
:101F200009F48DC08A9709F49CC0C11521E5D20738
:101F300008F0C3C0C11530E5D30708F01EC1C83E84
:101F4000D10508F0A3C0C03ED10588F5C83AD10537
:101F500008F08EC0C53AD10508F007C1C130D105DF
:101F600031F1209721F1C430D10508F545C0853302
:101F7000910509F45FC0C997C1F68091F506837099
:101F800009F043C18091F60683FF11C0C9E2D0E099
:101F90000EC0833E910599F170F4803E910501F1E8
:101FA000823E910511F68091F50682FD21C0CE0199
:101FB000DF91CF910895863E910561F1873E9105AD
:101FC00071F1843E910509F0B0CF8091F60681FF52
:101FD000EECF8091F506C7EED0E084FD0DC0E7CFCF
:101FE0008091F50680FD33C09091F60690FFDFCF1B
:101FF000C3EED0E084FFDBCFD0E0C0E0D8CF80914B
:10200000F50682FDFFC09091F60690FDFEC084FFAC
:10201000CECFF2CF8091F50683FDDDCFC8CF809182
:10202000F50683FDF5C09091F60691FFF0CFC4EE62
:10203000D0E0BDCF8091F50685FFB9CFA7CF8091C5
:10204000F50685FDE8C08091F60683FFB0CFC9E3B1
:10205000D0E0ADCF8091F50686FFA9CFCAE2D0E0EF
:10206000A6CF8091F50686FFA2CFC1E3D0E09FCF37
:10207000CF3BD10508F6C85AD0E0CC0FDD1FC75CB6
:10208000DE4F0990D881C02DD46491CFC11540E2B4
:10209000D40758F4C11581E0D80708F088CFC03FB5
:1020A000D10508F4A9CFD06582CFC11520E4D207AD
:1020B00008F4A2CFDF70D06A7ACFC11535E5D30717
:1020C00018F5C11544E5D40708F084C0C11583E5AF
:1020D000D80708F06BC0C11522E5D20708F461C02B
:1020E000CE018370992721E030E002C0220F331F18
:1020F0008A95E2F7C695C69580E2C89FE001112453
:10210000C22BD32BDC6853CFC11539E5D307A8F414
:10211000C11548E5D40708F062C0C11586E5D807A7
:1021200008F06ACF8C2F0E943E0FC82FD0E0DC2F22
:10213000CC27CC27DF71D0623ACFC1152AE5D20770
:1021400008F452C0CE0190568115904208F054CF49
:102150008D2F8F710E943E0F90E0982F882788273F
:102160009F719C012C2BE901E6CFC55AD0E0CA5CD7
:10217000DE4FC881D0E0D0641ACFCE01837099279A
:1021800021E030E002C0220F331F8A95E2F7C695A6
:10219000C69540E2C49FE0011124C22BD32BDD6819
:1021A00006CFDC2FCC27C16FD06A01CFCE01837060
:1021B000992721E030E002C0220F331F8A95E2F711
:1021C000C695C69540E2C49FE0011124C22BD32BD3
:1021D000DA68EDCEDC2FCC27C46FD06AE8CEDC2FD6
:1021E000CC27C06FD06AE3CE8C2F8F700E943E0F39
:1021F00034E0D695C7953A95E1F7CF709C2FEC0166
:10220000D069D5CEC2EED0E0D2CEC0EED0E0CFCEF7
:10221000C6EED0E0CCCEC5E3D0E0C9CE809173034A
:102220008111109273030895809590917203982301
:1022300090937203089580914F0390911E03981319
:1022400001C008958F5F8770FACF292F953078F5F8
:102250008F3068F590E03FE0239F800D911D1124A1
:10226000682F677023E0969587952A95E1F7FC0122
:10227000EE0FFF1FE80FF91FE650FD4F50E040E062
:1022800080E0219130E0062E02C0369527950A9411
:10229000E2F721703327042E01C0220F0A94EAF7D7
:1022A000822B4F5F5F4F4330510559F7089580E00F
:1022B0000895292F953098F58F3088F590E03FE00C
:1022C000239F800D911D1124282F277041E001C00C
:1022D000440F2A95EAF723E0969587952A95E1F72A
:1022E000FC01EE0FFF1FE80FF91FE650FD4F30E035
:1022F00020E070E05191DF011197CB01022E02C066
:10230000969587950A94E2F78170819585278423B5
:1023100085278C932F5F3F4F2330310559F7089560
:10232000ECE1F1E08083618324E630E042E050E0BC
:10233000BF0180E60E947A3308958093F706709378
:10234000F9066093F80680911F078430F9F48093B2
:10235000E9008FEF9091E800815095FD06C095ED62
:102360009A95F1F700008111F5CF8091E80085FF83
:102370000DC050E040E063E070E087EF96E00E941F
:1023800060048091E8008E778093E8000895BC0196
:1023900084E00E949D110895BC0183E00E949D117C
:1023A00008959C0184E08093E9009FEF8091E8000C
:1023B000915085FD06C085ED8A95F1F700009111D9
:1023C000F5CF8091E80085FF0CC050E040E066E06A
:1023D00070E0C9010E9460048091E8008E778093CC
:1023E000E8000895CF93DF93EC0180911B018823CF
:1023F000B1F18091F50687FF32C060E284E08093FE
:10240000E9008FEF9091E800815095FD06C095EDB1
:102410009A95F1F700008111F5CF8091E80085FFD2
:102420001BC080911B0170E050E040E0811104C0AE
:1024300050E040E068E070E0CE010E9460048091CE
:10244000E8008E778093E80080E2FE01ADEFB6E011
:1024500001900D928A95E1F7DF91CF91089568E0A0
:1024600081E0CDCF81E08093E00080E28093D800CE
:102470001092C9008FE19EE40197F1F700C00000BF
:1024800087E090EBDC018093610790936207A09353
:102490006307B093640788E19CE00FB6F894A895B1
:1024A000809360000FBE90936000FFCFCF93DF93C7
:1024B000CFE7D2E060E0CE010E94BC342196C11586
:1024C00084E0D807B9F7DF91CF9108951F93CF9398
:1024D000DF93122F8430E0F46530D0F44F30C0F435
:1024E000C42FD0E0CC0FDD1F9EE1699FC00DD11D30
:1024F000112496E9899FC00DD11D1124632FCE01AF
:1025000087960E94BC34612FCE0188960E94BC340D
:10251000DF91CF911F910895AF92BF92CF92DF923A
:10252000EF92FF921F93CF93DF938CEBC82E84E042
:10253000D82ED0E07601C0E014C0F5012591349189
:10254000412F6C2F8D2F0E94661282E0A80EB11CC5
:102550001F5F1F3091F78EE1E80EF11CCF5FC53091
:1025600019F0570110E0E9CFDF5F86E9C80ED11CF2
:10257000D43001F7DF91CF911F91FF90EF90DF9062
:10258000CF90BF90AF900895CF93C82F6FEF811178
:1025900062E283E290E00E94BC346FEFC11169E017
:1025A00084E290E00E94BC346FEFC11161E285E2E9
:1025B00090E00E94BC34CF91089580E00E94C41244
:1025C00060E086E290E00E94BC340E948C120E947F
:1025D000561281E00E94C41208950F931F93CF9367
:1025E000DF93843030F5653020F54F3010F5C42F7F
:1025F000D0E0CC0FDD1F2EE1629FC00DD11D112454
:1026000036E9839FC00DD11D1124CE0187960E940B
:102610009E34082F10E0102F0027CE0188960E94CC
:102620009E349801282BC901DF91CF911F910F9102
:10263000089590E080E0F8CF462F843040F4753064
:1026400030F46F3020F4672F0E94ED12089590E06F
:1026500080E00895CF92DF92FF920F931F93CF9364
:10266000DF936C010091590780917403082BC7E038
:10267000D0E010E0FC2EC8010C2E02C09595879585
:102680000A94E2F780FD0CC02197A0F7F12C8F2D62
:10269000DF91CF911F910F91FF90DF90CF90089520
:1026A000B6018C2F0E941C130E94810F019761F3C9
:1026B000EECFCF93DF93EC010E942A13BE010E945C
:1026C0001C130E94810FDF91CF910895FC0183813B
:1026D0009481892B29F08081918189238F3F51F446
:1026E00080E00895843FE1F717C0883EA8F0813F5D
:1026F000B9F712C0808191810E94591392959F7001
:10270000963099F358F4925F9F70923048F7803F6B
:1027100019F040F7883E20F781E008959A5FF4CFE2
:1027200083E290E00E949E34823289F484E290E059
:102730000E949E34893059F485E290E00E949E34D4
:1027400091E0813209F090E0892F8170089580E056
:10275000FCCFCF9384E090E00E949E34C82F82E2A9
:1027600090E00E949E34982F8C2FCF910895A4E082
:10277000B0E0EDEBF3E10C94BC33F62E042F122FF6
:102780008235910508F059C0880F991F880F991F4D
:10279000BC016C587C4F44E050E0CE0101960E9491
:1027A0006F348981282F237030E0869586954A8181
:1027B000942F9295990F990F907C692F682B842FF5
:1027C00086958695782F7370EFE5F1E02E9FC00116
:1027D0002F9F900D3E9F900D112487579A4F680FA1
:1027E000791FFB01F082542F52955F704B81E42FCB
:1027F000E295E07F6E2F652B542F52955F70752FF9
:102800007370680F791FFB010083429546954695CA
:1028100043705C81E52FEE0FEE0F6E2F642B752F4A
:102820007295769576957370860F971FFC011083CD
:1028300028573A4F81E0F90180832496E5E00C9413
:10284000D833FF920F931F93CF93DF93182F062F48
:10285000F42ED0E0C0E02F2D402F612FCE010E943A
:10286000B7132196C235D105B1F7CDB7DEB7E5E094
:102870000C94D8330F931F93CF93DF9380918805E7
:10288000882309F441C065EC8EEF0E94901160E04E
:102890008DEF0E949011D0E0C0E004EB10E0CE017B
:1028A000B8010E94F23380931C0182E1FE01E757D8
:1028B000FA4FADE1B1E001900D928A95E1F724E67F
:1028C00030E043E150E06CE171E080E60E947A3351
:1028D000892BD1F46296C63581E0D807E1F482EA0B
:1028E00080931C0189E0EFEDF6E0ADE1B1E00190ED
:1028F0000D928A95E1F724E630E04AE050E06CE181
:1029000071E080E60E947A3310928805DF91CF91C2
:102910001F910F910895C43BD10509F665EC8EEF28
:102920000E94901161E08DEF0E949011B8CFA4E059
:10293000B0E0EDE9F4E10C94B7330E94DA3265ECD3
:102940008EEF0E94901164E08DEF0E94901161E083
:1029500080E00E9490116FEF81E00E94901167E784
:1029600082E00E9490118FE39CE90197F1F700C08B
:10297000000004E713E02CEBE22E24E0F22E3FE50A
:10298000C32EDD24D394BB24BA94AA24A39444E098
:1029900050E0B801CE0101960E946F348981282F42
:1029A000237030E0869586954A81942F9295990FF1
:1029B000990F907C692F682B842F86958695782FA8
:1029C00073702C9DC0012D9D900D3C9D900D112488
:1029D000885D9B4F680F791FFB01B082542F529581
:1029E0005F704B81E42FE295E07F6E2F652B542FB3
:1029F00052955F70752F7370680F791FFB01B0825D
:102A000042954695469543705C81E52FEE0FEE0F9B
:102A10006E2F642B752F7295769576957370860F51
:102A2000971FFC01B08229573A4FF901A0820C5F31
:102A30001F4FE016F10609F0AACF65EC8EEF0E9459
:102A4000901162E08DEF0E94901198E2E92E94E0DF
:102A5000F92E10E0F70161917F01812F0E94901102
:102A60001F5F143BB9F765EC8EEF0E94901163E095
:102A70008DEF0E9490118CEDE82E84E0F82E10E08E
:102A8000F70161917F01812F0E9490111F5F1B3A16
:102A9000B9F7109287052496EAE00C94D3331F937C
:102AA000CF93DF93EC01FC01EF57FD4F808168234A
:102AB000B1F00E945F34182F0E945F348F77782F17
:102AC00020E8720F08F47FEF612F80915E070E946B
:102AD0006C0A462F282F672FCE010E94E408DF9151
:102AE000CF911F91089546E050E06CE170E08BE5D6
:102AF00097E00E94AC3410925A070895CF93FC01DE
:102B0000C081C830B9F1C93009F455C0C73009F0E7
:102B100055C081818138C9F020F4803861F0CF91AF
:102B20000895823819F18338D1F7828120E04091ED
:102B30005E07638106C080915C0720E0428160915E
:102B40005D0790E00E945E06EACF8281811108C095
:102B50001092600780915A07816080935A07DFCFF7
:102B600060E00E94BF06C0936007F4CF828180932B
:102B70005F07D5CF8181813891F030F4803879F6C4
:102B800080915E078283CBCF823891F0833839F60B
:102B900080915C07828380915D078383C0CF8091A1
:102BA0006007882379F380915B0786958695EACF45
:102BB00080915F07E7CF0E947315B1CF8FEF8083BD
:102BC000AECFEBE5F7E085E3808380913301909110
:102BD0003401A091350181839283A3838FE784839D
:102BE0008FEF85830E9473150895809172039091F1
:102BF0007103892B8093D602909173039923A1F0DE
:102C0000892B8093D60280911B018823E1F180916A
:102C1000F50687FF38C08EE1E8EDF2E090E08150E4
:102C2000A0F591110E940E1140E250E061E573E0C1
:102C300086ED92E00E947834892B21F180E2E6ED66
:102C4000F2E0A1E5B3E001900D928A95E1F7E09101
:102C5000EC06F091ED063097A9F080911B018823D6
:102C600059F08091F50687FF07C08091D6028093C6
:102C7000D70286E08093D6020280F381E02D86EDB4
:102C800092E00995089586E0C7CF2191222339F279
:102C90009F5FC5CF882321F00E9414110E94F51573
:102CA0000895882339F090917203982B90937203C2
:102CB0000E94F515089590E080E00E94A634883EB9
:102CC0009E4F19F40E949013089580E0089568EED5
:102CD0007EEF90E080E00E94DA3460E082E090E0F5
:102CE0000E94BC3460E083E090E00E94BC3410920B
:102CF000740360E084E090E00E94BC3464E082E20F
:102D000090E00E94BC3460E085E090E00E94BC341A
:102D100060E086E090E00E94BC346FEF87E090E0D6
:102D20000E94BC3440E050E0BA0188E090E00E948C
:102D3000CE3460E08DE090E00E94BC3440E050E092
:102D4000BA0188E190E00E94CE3460E087E190E033
:102D50000E94BC3440E050E0BA018CE190E00E9457
:102D6000CE3470E060E080E290E00E94DA3440E02F
:102D700050E0BA0188E190E00E94CE3480E00E94E9
:102D8000C4120E94DD1240E050E0BA018FE090E0F2
:102D90000E94CE3440E050E0BA0183E190E00E940E
:102DA000CE3408951F920F920FB60F9211242F93D5
:102DB0003F934F935F936F937F938F939F93AF93C3
:102DC000BF93EF93FF938091E10082FF09C0809150
:102DD000E20082FF05C08091E1008B7F8093E100DB
:102DE0008091DA0080FF24C08091D80080FF20C04D
:102DF0008091DA008E7F8093DA008091D90080FF85
:102E00009DC080E189BD82E189BD09B400FEFDCF8E
:102E100081E080931F078091FA06811109C00E940A
:102E200010040E94DB048091E20084608093E20041
:102E30008091E10080FF17C08091E20080FF13C005
:102E40008091E2008E7F8093E2008091E2008061B9
:102E50008093E2008091D80080628093D80019BCF2
:102E600085E080931F078091E10084FF2BC0809153
:102E7000E20084FF27C080E189BD82E189BD89B578
:102E8000982F917080FFFBCF8091D8008F7D809329
:102E9000D8008091E1008F7E8093E1008091E20074
:102EA0008F7E8093E2008091E20081608093E20057
:102EB00080912007882309F447C084E080931F078E
:102EC00080911F078091E10083FF27C08091E2007D
:102ED00083FF23C08091E100877F8093E10082E03F
:102EE00080931F07109220078091E1008E7F8093CE
:102EF000E1008091E2008E7F8093E2008091E20009
:102F000080618093E20042E060E080E00E94A904DA
:102F10008091F00088608093F000FF91EF91BF9165
:102F2000AF919F918F917F916F915F914F913F9161
:102F30002F910F900FBE0F901F90189519BC1092F3
:102F40001F071092FA0674CF8091E30087FD93E08B
:102F500090931F07B5CF78941F921FB61F9211242C
:102F60008F939F93AF93BF938091F1069091F20658
:102F7000A091F306B091F4060196A11DB11D8093B6
:102F8000F1069093F206A093F306B093F406BF9176
:102F9000AF919F918F911F901FBE1F9018959C011C
:102FA0004FB7F8948091F1069091F206A091F30644
:102FB000B091F4064FBF821B930B08952FB7F8947E
:102FC0008091F1069091F206A091F306B091F4067B
:102FD0002FBF0895B0E0A0E0E0EFF7E10C94B2332A
:102FE000182F80911901811323C090915B07937072
:102FF0002091180130E081E09217130609F480E077
:10300000817080933201809160079091310198170F
:1030100039F08093310140E060E080E00E94E108F7
:103020001B3260F4E12FF0E0EB5BFA4C0C940634B9
:1030300081E0E6CF80913201811102C0C0E0D4C1AD
:1030400040E060E080E00E94E108F8CFC0913001EC
:1030500081E1C89FC02D112401E10C0FF02E033532
:1030600010F062E5F62E60915C0770915D0780912B
:103070005E070E946C0AE62ED72EC82ED0E0CF1530
:1030800028F0C1E0023508F4AFC1D8CFFE01EF57F8
:10309000FD4F808190913101892331F02C2D4E2DEF
:1030A0006D2DCE010E94E4082196E9CFC091300138
:1030B00081E1C89FC02D112401E10C0FF02E0335D2
:1030C00010F052E5F52ED0905D07E0905E07D091AC
:1030D0005C076D2F7D2D8E2D0E946C0AC62EB72E9B
:1030E000A82E60915F076D0F7D2D8E2D0E946C0ABA
:1030F000E62ED72E982ED0E0CF1518F6FE01EF570A
:10310000FD4F908180913101892359F0292D4E2D59
:103110006D2D90FD03C02A2D4C2D6B2DCE010E94EC
:10312000E4082196E9CFC091300181E1C89FC02D0C
:10313000112401E10C0FE02E033510F042E5E42EDE
:10314000D0905D07C0905E0720915F0730E4F32EBA
:103150003F2D329F312D1124F32ED0E0CE1508F0F3
:1031600090CFFE01EF57FD4F80819091310189236F
:10317000B9F0FE01EE0FFF1FE252FE4F80818295F3
:103180008F7060915C078F9D600D11247D2D8C2DBB
:103190000E946C0A462F282F672FCE010E94E40858
:1031A0002196DCCFC091300181E1C89FC02D112450
:1031B00001E10C0FE02E033510F082E5E82ED090EF
:1031C0005D07C0905E0720915F07D0E4FD2E3F2D84
:1031D000329F312D1124F32ED0E0CE1508F051CFBF
:1031E000FE01EF57FD4F8081909131018923D9F085
:1031F000FE01EE0FFF1FE352FE4F6081F69EB0010D
:103200001124B5E075956795BA95E1F780915C0753
:10321000680F7D2D8C2D0E946C0A462F282F672F5A
:10322000CE010E94E4082196D8CFC091300181E1FF
:10323000C89FC02D112401E10C0FF02E033510F0B2
:1032400072E5F72EE0905C07D0915D07D0905E07A5
:1032500060915F07669566956695809129079091C4
:103260002A070E94620A0E94B309805887FD81954F
:10327000880F282F3D2D239F212D1124822F6E2D65
:103280007D2F0E946C0AE62ED72EC82ED0E0CF15D7
:1032900008F0F7CEFE01EF57FD4F8081909131018C
:1032A000892331F02C2D4E2D6D2DCE010E94E40886
:1032B0002196EDCF88EB98E00E94780C07C08EE84D
:1032C00098E0FACF85E999E00E94850DC82F8CC05F
:1032D00086E799E0F9CF8BE599E00E94180DF6CFCB
:1032E0008FE399E0FACF8CE898E0E6CF83E898E0A6
:1032F000E3CF8AE798E0E0CF81E698E0DDCF83E591
:1033000098E0EBCF8AE39AE0DFCF8EE299E0DCCF62
:103310008AE199E0E2CF86E298E00E94C20CD6CF23
:1033200088EF97E0FACF81EC97E0F7CFC0913001BA
:1033300081E1C89FC02D112401E10C0F8091320161
:1033400081111FC060915F0720E1620F08F46FEFE9
:103350008091290790912A070E94620A6AE070E032
:103360000E949B33892B09F08CCE0E94F50962E5FF
:103370000E94E63360913101892F90E00E94000B9A
:1033800080CE802F033508F082E5D0E0E82EF12CC6
:10339000CE15DF050CF075CE60913101CE010E9493
:1033A000000B2196F5CFC0913201C11135C060915B
:1033B0005F0720E1620F08F46FEF80912907909179
:1033C0002A070E94620A65E070E00E949B33892B05
:1033D00009F034CE0E945F3462E570E00E94F2335F
:1033E000609131010E944F15809130018F5F809371
:1033F0003001C1110CC082E080931A01809132012A
:10340000811105C0111103C083E080931A01CDB76B
:10341000DEB7EFE00C94CE33C091300181E1C89F5C
:10342000C02D112401E10C0F802F033508F082E537
:10343000D0E0E82EF12CCE15DF050CF022CE609105
:103440003101CE010E944F152196F5CFC091300178
:1034500081E1C89FC02D112401E10C0FF02E03352E
:1034600010F062E5F62ED0905D07E0905E07D091F7
:103470005C0760915F076695669566958091290760
:1034800090912A070E94620A0E94B309805887FD22
:103490008195880F682F2CE0629F612D11246D0F9C
:1034A0007D2D8E2D0E946C0AE62ED72EC82ED0E0E0
:1034B000CF1508F0E6CDFE01EF57FD4F80819091CA
:1034C0003101892331F02C2D4E2D6D2DCE010E941E
:1034D000E4082196EDCF82ED99E0EECE80EB97E007
:1034E000EBCE8091300101E1809F000D11244091CD
:1034F000290750912A0760912B0770912C07809122
:10350000A6039091A703A091A803B091A9038417E3
:103510009507A607B70708F0B4CD0E94F509F82E65
:103520000E94F50992E5891BF0F7890FC82FD0E0BA
:10353000FE01EF57FD4F809131019081892309F4FD
:10354000A0CD20E040E060E0F1FC13C00E94F5094E
:10355000F82E0E94F509782F76952FE7720F08F460
:103560007FEF6F2D80915E070E946C0A462F282FF7
:10357000672FCE010E94E40820915F0730E1230FFE
:1035800008F42FEF60E1822F90E00E94620ABC01F4
:1035900084EF91E00E949B338091290790912A0744
:1035A000A0912B07B0912C07860F971FA11DB11D6D
:1035B0008093A6039093A703A093A803B093A903B5
:1035C00060CDB090300181E1B89EB02C112451E162
:1035D000A52EAB0C8A2CA2E5AA1510F442E5842E88
:1035E00080913201882361F040E060E080E00E9439
:1035F000E108EFEAF3E08BE4DF011D928A95E9F739
:1036000080913001811115C08091AB039091AC0382
:103610000E94CF1721E08931910508F420E0209322
:10362000AA03499730F00E94DE179093AC03809371
:10363000AB03C12C912CD12C9FE0692E25E5522E95
:103640003AEA732E05C0A0E1A91508F453C0D12CA5
:103650002D2D30E06C9CE0011124FE01EE56FE4F52
:10366000E20FF31FE080EB1408F43CC0E81408F00C
:1036700039C09394F12CF701EF57FD4F8081909161
:103680003101892309F42EC0C155DC4FC20FD31F6D
:103690000881302F252D321B08F430E070915D0732
:1036A000272D200F08F42FEF40915E07822F880FFF
:1036B000820F8E5F282F249F212D1124822F672DAA
:1036C000631B0E946C0A462F282F672FC7010E9498
:1036D000E4088091AA03882329F031E0031B08F451
:1036E00000E00883D3948FE0D812B2CFC39495E062
:1036F000C912A9CFC1E0B1E5BA1508F075CE9ECCCC
:1037000000915E07E3E00E9FE0011124D695C79576
:10371000D695C7955C2EA02EB12C8FEF90E0B50109
:103720000E94F233762E80913201882371F040E0BE
:1037300060E080E00E94E108EFEAF3E08BE4DF0163
:103740001D928A95E9F71092AE038091AD038F5FC9
:103750008093AD03F12CE12CAC1ABD0A6701612CFA
:10376000D701A155BC4F4D018091AE03862909F0C8
:1037700045C00E945F34853595400CF03FC0F40190
:103780000083F601EE56FE4FE081EF3FD1F0D60107
:10379000A155BC4F2C91F0E0521608F040C030E02B
:1037A0002C1B3D0B2C9FC0012D9F900D3C9F900D1D
:1037B0001124B5010E949B33262F402FCF010E9478
:1037C000E4086394FFE0CF0ED11C25E06212CCCF59
:1037D0003FEFE31AF30A8FE0E816F10409F0BECFD9
:1037E0008091AD03781202C01092AD038091AE03B8
:1037F0008F5F8D31F0F48093AE0320CCF601E1555C
:10380000FC4F8081882309F4BCCF801708F0B9CF22
:103810009091AD037912B5CF81508083B2CF029FD2
:10382000C0011124BE010E949B33462F20E060E0BE
:10383000C5CF1092AE032CED33E084E04EEB53E0A5
:103840009FEF900FAFEAB3E0F901843041F4DC96CA
:103850006C91DC97061303C0DC969C93DC97608127
:10386000601710F090830787119631964A175B070F
:1038700061F781502F5031098111E4CFDFCB89EA04
:1038800097E00E94050C22CD83EA97E0FACF809161
:103890002D0721E0382F321B08F430E0832F6AE82F
:1038A00077E00E943B0B12CD6AE877E080E0F9CF29
:1038B00080912D0721E0382F321B08F430E0832F50
:1038C0006FE477E0EECF6FE477E0F0CF80912D07E3
:1038D00021E0382F321B08F430E0832F6DE177E0D0
:1038E000E0CF6DE177E0E2CF80912D0721E0382F26
:1038F000321B08F430E0832F65E077E0D2CF65E03B
:1039000077E0D4CF80912D0721E0382F321B08F4C7
:1039100030E0832F6FEE76E0C4CF6FEE76E0C6CF57
:103920004F925F926F927F928F929F92AF92BF92CF
:10393000CF92DF92EF92FF92CF93C0902304D0906A
:103940002404E0902504F09026048FB7F89440906A
:10395000F1065090F2066090F3067090F4068FBF67
:10396000530142018C189D08AE08BF080E949805BB
:103970006093230470932404809325049093260479
:10398000A091FA03EAEFF3E02A2F30E04FEFC40EE4
:10399000D41EE11CF11CC418D508E608F708A313CF
:1039A0002AC02093FA0320912704C0E0211108C007
:1039B00020915B07C22FC37019F0C22FC695C69520
:1039C00020911A01213009F440C0222339F122301C
:1039D00009F468C0233009F470C0CF91FF90EF90D4
:1039E000DF90CF90BF90AF909F908F907F906F901F
:1039F0005F904F900895418D528D2A01712C612C5A
:103A0000C414D504E604F70420F421503F5F329635
:103A1000C6CF480D591D528F418FF8CF10923001FB
:103A20006093290770932A0780932B0790932C07A4
:103A300089E2EAEFF3E0ADE2B7E001900D928A95FA
:103A4000E1F781E080931A01C8CF8C2F0E94EA171A
:103A5000CC2319F20E942F0681FF10C0F12CE12C1B
:103A60002FEF4FEF6FEFC7010E94E4088FEFE81AC6
:103A7000F80A42E5E416F10499F7AFCF80916007A8
:103A80008111ABCFF12CE12C20E040E060E0C701D8
:103A90000E94E4088FEFE81AF80A42E5E416F10400
:103AA00099F79BCFC093190180915B078370809336
:103AB00018010E943A1483E0C5CF80915A07811102
:103AC0000E9473154091290750912A0760912B0796
:103AD00070912C072FB7F8948091F1069091F2061F
:103AE000A091F306B091F4062FBF841B950BA60B93
:103AF000B70B4097A105B10508F46FCF10921A01DA
:103B00006CCF0E94DE179C019091A2038091A303C9
:103B1000982B21F030939F0320939E039091A40350
:103B20008091A503982B21F030939D0320939C0353
:103B3000E091EC06F091ED06309749F082E0809339
:103B4000A0030480F581E02D80EA93E009950895B3
:103B500090E080E00E94190690E080E00E94030659
:103B6000109271030E94F51586E0E0EAF3E0DF01B0
:103B70001D928A95E9F710929A0310929903109278
:103B80009B030E94811D0895809359070E94A81DE0
:103B9000089580915907982F9670963021F4886087
:103BA0000E94C41D0895877FFBCF21E030E001C053
:103BB000220F8A95EAF720958091590782230E9467
:103BC000C41D0895909150038095892380935003DC
:103BD000282F277091F4282F082E000C330B9217F2
:103BE000130659F09091F60692FF07C085958595CA
:103BF00085950E94D51D109250030895CF93C091D2
:103C0000F606C2FB992790F9981791F080FBC2F94C
:103C1000C093F6066091F50684E090E00E94BC3403
:103C20006C2F82E290E00E94BC3482E00E94E21D90
:103C3000CF91089521E030E001C0220F8A95EAF784
:103C400080915907822B0E94C41D089580937403AC
:103C50000E94A81D08951092720380911B01E8ED47
:103C6000F2E0882361F08091F50687FF08C08EE1BD
:103C7000DF011D928A95E9F70E94A81D089586E04C
:103C8000F7CFAAE2B0E0E7E4FEE10C94BE3381E2B4
:103C900097E02091F100DC012D93CD01B7E089324E
:103CA0009B07B9F780912207833009F472C0B8F4FA
:103CB000813009F449C0823009F4B3C08091E80032
:103CC00083FF8BC280912107909122079A3008F0E0
:103CD00084C2E92FF0E0E059FA4C0C9406348A30A3
:103CE00009F48EC08B3009F471C0893039F78091A6
:103CF0002107813219F780912507909126070097B7
:103D000011F00297D9F68091E800877F8093E80050
:103D10008091E80082FF38C09091F3008091F2001A
:103D2000029731F48091F100813011F0863021F456
:103D30008091F1008093FC068091E8008B7780935E
:103D4000E8000E948A04BACF80912107813A09F0E5
:103D5000B5CF8091E800877F8093E80080912507A8
:103D600090912607892B61F460E28DEF96E070E078
:103D70000E9436058091E8008B778093E8009ECF03
:103D800060E090E080E0F3CF80911F078111C0CF09
:103D900095CF80912107813A09F090CF8091250736
:103DA00090912607892B09F089CF8091E800877FC1
:103DB0008093E8008091E80080FFFCCF80911B0198
:103DC0008093F1008091E8008E77B9CF8091210730
:103DD000813209F073CF8091250790912607892BB6
:103DE00009F06CCF8091E800877F8093E8000E9403
:103DF0008A048091230780931B010E942B1E5ECFB3
:103E000080912107813209F059CF8091E800877FA6
:103E10008093E8000E948A04809124078093FB0627
:103E20004DCF80912107813A09F048CF8091E80079
:103E3000877F8093E8008091E80080FFFCCF80912D
:103E4000FB06BECF803899F0823809F0C6C1809158
:103E500025078F70873008F0C0C18093E9008091FA
:103E6000EB0085FB882780F91092E90006C080915D
:103E70001D0790911E07911182609091E800977F35
:103E80009093E8008093F1001092F1008091E80097
:103E90008E779FC1882309F48DC1823009F09DC1BE
:103EA00080912307811190C1809125078F702FEF9A
:103EB000280F263008F091C18093E9002091EB0093
:103EC00020FF82C1933031F48091EB0080628093B7
:103ED000EB007AC19091EB0090619093EB0021E0B0
:103EE00030E001C0220F8A95EAF72093EA00109291
:103EF000EA008091EB008860EACF81116EC11091D9
:103F000023071F778091E3008078812B8093E30063
:103F10008091E800877F8093E8000E948A04809166
:103F2000E80080FFFCCF8091E30080688093E3008D
:103F300082E0111183E080931F074FC180588230C7
:103F400008F04BC120912307309124072C3DE3E07A
:103F50003E07A1F583E08A838AE289834FB7F8940C
:103F6000DE01139620E03EE051E2E32FF0E05093B3
:103F70005700E49120FF03C0E295EF703F5FEF70C0
:103F80008E2F90E0EA30C0F0C7968D939D932F5FFF
:103F9000243159F74FBF8091E800877F8093E80074
:103FA0006AE270E0CE0101960E9436058091E80039
:103FB0008B778093E80011C1C096E7CF80912507E9
:103FC00090912607432F55274330510509F44AC0E5
:103FD00078F54130510509F47AC08BE590E0E4E1D1
:103FE000F7E04230510509F0F8C02091E800277F42
:103FF0002093E80020912707309128078217930724
:1040000008F49C0140E02115310509F065C041111B
:1040100063C08091E80082FDC9CF80911F0788238B
:1040200029F2853019F28091E80083FFF2CFBECFEC
:104030004132510509F43CC04232510509F0CDC06E
:104040008330910508F0C9C0FC01EE0FFF1FEA574D
:10405000FE4F0190F081E02D8D579E4FDC018C9139
:1040600090E01AC0332721303105D1F021153105F8
:1040700061F02230310509F0B0C0E1E8F7E0E491E9
:104080008E2F90E0E1E8F7E007C0E7EAF7E0E4917F
:104090008E2F90E0E7EAF7E0009709F49EC0A5CFE5
:1040A000EDE9F7E0E4918E2F90E0EDE9F7E0F4CF51
:1040B0008330910508F091C0880F991FFC01E457E7
:1040C000FE4F0190F081E02D89E090E08ECF82E1FB
:1040D00090E0EFE6F7E089CF80911F07882309F48D
:1040E00065CF853009F462CF8091E80083FD5ECF13
:1040F0008091E80082FD8DCF8091E80080FF83CF22
:104100009091F3008091F2002115310519F088306B
:10411000910550F041E0089709F040E08091E800F7
:104120008E778093E8006FCF44914093F1003196F1
:10413000215031090196E8CF803809F04EC08091B6
:10414000E800877F8093E800809120078093F1004A
:104150009DCE811142C0109123071230F0F580915D
:10416000E800877F8093E800109320070E948A046C
:10417000112311F084E005C08091E30087FDFACFA0
:1041800081E080931F0742E061EC81E00E94A90476
:1041900042E261EC84E00E94A90442E261EC82E028
:1041A0000E94A90442E260EC83E00E94A90480918D
:1041B0001F0713C080912307813079F481E0933089
:1041C00009F080E080931E071092E9008091E800DA
:1041D000877F8093E8000E948A048091E80083FF33
:1041E0000AC08091E800877F8093E8008091EB000F
:1041F00080628093EB00AA96E3E00C94DA331F927E
:104200000F920FB60F9211242F933F934F935F930A
:104210006F937F938F939F93AF93BF93CF93DF93CE
:10422000EF93FF93D091E900DF708091EC00C82FED
:10423000C17080FDC0E81092E9008091F000877F96
:104240008093F00078940E94411E1092E9008091C2
:10425000F00088608093F000CD2BCF70C093E90010
:10426000FF91EF91DF91CF91BF91AF919F918F918E
:104270007F916F915F914F913F912F910F900FBE62
:104280000F901F901895EBEFE80FEF3308F06CC01C
:10429000F0E0E658FA4C0C9406340E94671681E070
:1042A00008958091E906807F8093E90681E08093FC
:1042B000E80608950E942B1E2FEF84E39CE0215016
:1042C00080409040E1F700C000000E9432129091BF
:1042D000E906892F8E7F90FF81608093E90680FD3B
:1042E000DECF817F8093E906DACF9091E906892FAE
:1042F0008D7F91FF82608093E90681FFD0CF80910E
:10430000E9068160EFCF9091E906892F8B7F92FFBC
:1043100084608093E90682FDF2CFC1CF9091E906D7
:10432000892F877F93FF88608093E90683FDE7CF1D
:10433000B6CF0E942B1E9091F506892F97FB87F927
:1043400080588093F506ABCF81E00E94261E0E9424
:104350002B1EA5CF895391E001C0990F8A95EAF7EA
:10436000892FF3CF8D51F7CF80E008950E942B1E47
:104370002FEF84E39CE0215080409040E1F700C0A3
:10438000000088E19CE00FB6F894A8958093600047
:104390000FBE90936000FFCF882391F19CEF980FA0
:1043A000913A40F4682F86ED92E00E94A4050E94A5
:1043B000F515089590E2980F983050F4877091E0C9
:1043C00001C0990F8A95EAF7892F0E941411EFCF47
:1043D0009BE5980F933028F490E080E00E94190646
:1043E000089598E5980F973128F490E080E00E94B6
:1043F00003060895803F20F00E94DB0D0E94811D7E
:104400000895CF93C82F882309F467C08CEF8C0FD1
:10441000813A08F0EBC08091E8068130C9F1882329
:1044200069F1823009F44FC01092E80680911B01B7
:10443000882309F4C8C08091F50687FFC4C0EC2F1B
:10444000E695E695E695F0E0EA52FD4F828190E030
:104450004C2F477021E030E002C0220F331F4A95F5
:10446000E2F782239323892B09F4B8C06C2F86EDE1
:1044700092E00E94A4050E94F515B0C080917203DD
:104480008232A1F68C2F0E944321811126C0CECF0B
:10449000809172038232B1F3C43171F038F4CB30C1
:1044A00049F0C03161F080E08170EFCFC93221F076
:1044B000C833C9F781E0F8CF1092E806F4CF82E064
:1044C0008093E806F7CFC93209F43FC0E8F4C4315D
:1044D000E1F128F4C73009F45BC0CF91089582EE72
:1044E0008C0F8A30D0F7CD51C093F902C33009F454
:1044F00046C0B0F5C13009F43FC081E191E0C2305F
:10450000B1F11092F902E9CFC03509F454C0B8F402
:104510008AE0CF3411F7E091F702F091F80230977A
:10452000E1F22081082E000C990B820F911D8F3F24
:10453000910509F00CF443C08FEF8083CECFC135D5
:10454000E1F181E0C23539F3C8CF8091F9028823C7
:1045500021F21092F9021092F8021092F702BDCFE8
:10456000C53099F078F084E191E0C63051F690932F
:10457000F8028093F702B1CF80E191E0F8CF83E1B8
:1045800091E0F5CF82E191E0F2CF85E191E0EFCFCC
:1045900081E08093100184E1809311018AE080938F
:1045A00013018EE18093120188E08093150188E267
:1045B0008093140192CF86EFAECF8FEFACCF97FFF1
:1045C000BCCF10828ACFE8EDF2E08EED92E021912F
:1045D000C21709F44BCF8E179F07C9F76C2F86EDD2
:1045E00092E00E94CE050E94F51577CF80E28C0FF5
:1045F000883068F4C77021E030E001C0220FCA950E
:10460000EAF780917203822B80937203ECCFEBE583
:10461000EC0FE33040F4F0E0EA5CFE4F808190E084
:104620000E9419065ACFE8E5EC0FE73150F4F0E0AC
:10463000EE0FFF1FE75CFE4F808191810E94030611
:104640004CCFC03F08F449CF8C2F0E94CB0E0E9464
:10465000811D43CF1F93CF93DF93182FD0E0C0E08D
:10466000893311F4C0E5D0E0812F0E940122209708
:1046700039F4812F0E94CC21DF91CF911F910895B1
:104680008FE99FE00197F1F700C000002197EFCF7D
:104690000F931F93CF93DF93C62FD42F022FFC01CC
:1046A00082818823A9F0609358070E94DE179093B7
:1046B000570780935607C77081E001C0880FCA95DD
:1046C000EAF70E945116DF91CF911F910F91089543
:1046D00080915807681332C0809156079091570710
:1046E0000E94CF17883C910548F510E21D0FCD17A9
:1046F000B9F080E28C0F883040F4C77081E001C0CF
:10470000880FCA95EAF70E944A16183048F481E0EB
:104710009D2F977001C0880F9A95EAF70E94511655
:10472000802F0E942A23183070F6D77081E001C0D4
:10473000880FDA95EAF70E944A16C5CFC77081E064
:1047400001C0880FCA95EAF7F6CFA5E0B0E0EBEA22
:10475000F3E20C94B0338C01FC0183819481892BAA
:1047600031F08081918189238F3F09F0BFC5259663
:10477000E1E10C94CC330E942A13F82E682F898132
:104780009A810E94591169817A818F2D0E941C1390
:104790007C01F8018281882309F49BC5970122518D
:1047A0003F452031310508F067C58FEF93E00E9447
:1047B0009E34811128C0FEEEEF0E5FE7852E52E099
:1047C000952EE11032C01C821B82442443944AE09F
:1047D000342E74018FEFE81AF80AC4010E949E3447
:1047E00089831A82882379F09FEF980F933058F5C8
:1047F0008A83498292E0890E911CC7010E949E34EF
:104800008B83811121C080915003877009F4AFCF51
:10481000F8018281882309F4AACF8091F60682FFED
:10482000A6CF82E00E94E21DA2CF811424E092066E
:1048300051F3C4010E949E34811101C0EA943FEFFC
:10484000831A930ABECF4701FE0131967F01F7011B
:104850002081222309F4BDCF213009F047C0918186
:104860008281913031F4F2E0EF0EF11C0E942A2394
:1048700007C0923049F422E0E20EF11C0E940122AE
:104880003FEFE31AF30AE3CF933031F432E0E30E63
:10489000F11C0E94CC21F4CF943021F08FEFE81A64
:1048A000F80AEECF92E0E90EF11C30E020E0B7010B
:1048B0006F5F7F4FF70141818053990B8A309105DB
:1048C00050F021503109E0F28FE99FE00197F1F7B4
:1048D00000C00000F6CF329EF001339EF00D11248F
:1048E0009C012E0F3F1F842F7B01E1CFE22FF0E0D0
:1048F000EC50FE4F5490822F86958695869590E0D9
:10490000FC01EC51FE4F64902770712C022E02C006
:10491000759467940A94E2F7E1E06E227724FC0133
:10492000EC52FE4FA490B12C022E02C0B594A79475
:104930000A94E2F7F1E0AF22BB24FC01EC53FE4FF6
:10494000C490D12C02C0D594C7942A95E2F721E0F7
:10495000C222DD246114710419F081EE0E9401224B
:10496000A114B10419F086EE0E940122852D0E9447
:104970002A23A114B10419F086EE0E94CC216114FF
:10498000710419F081EE0E94CC21C114D10409F404
:1049900077CF8CE26BCF81E00E941A1E0E94C91D66
:1049A00032CF81E00E94D51DF9CF82E0F5CF95EF9F
:1049B000E9169CE5F90609F46CC008F466C027E224
:1049C00045EE66EEF6EFEF16FCE5FF0609F47DC452
:1049D000882309F49CC41092580723E0E2162DE5C1
:1049E000F20608F05DC03AEFE3163CE5F30630F45A
:1049F000C70182509C45449708F05FC00E94A913EC
:104A00009093F6068093F506F2E1EF16FCE5FF06BB
:104A100009F478C108F0B6C039E0E3163CE5F306C6
:104A200009F44EC108F079C095E0E9169CE5F90655
:104A300009F436C108F05FC0F3E0EF16FCE5FF06AD
:104A400009F426C108F028C18091F506816032E0A2
:104A5000E3163CE5F30609F492C06091F506F09088
:104A6000F60684E090E00E94BC346F2D82E290E074
:104A70000E94BC340E942B1EC6CE27E245EE65EE96
:104A800024C426E241EE60EE20C427E245EE64EE47
:104A90001CC426E241EE62EE18C428E241E0EFCFEA
:104AA00085EAE8168DE5F80609F4A8CFF0F4E1E60A
:104AB000EE16EDE5FE0609F4A1CF96E1E9169CE5B8
:104AC000F90609F033C4809172038A7A91E009F4FF
:104AD00090E09093F60269E2811165E386ED92E041
:104AE0000E94CE050E94F5158ECEC7018D5A9D45B8
:104AF000039718F783CF87E0E8168CE5F80609F4EA
:104B0000DBC08091F506806198E0E9169CE5F90626
:104B1000B0F18091F506806432C0EDE0EE16ECE570
:104B2000FE0609F4D7C0A0F48091F5068E7F2BE035
:104B3000E2162CE5F20619F18091F5068C603CE056
:104B4000E3163CE5F306D8F08091F5068D7F17C09B
:104B50008FE0E8168CE5F80609F4CCC008F4BEC076
:104B6000E0E1EE16ECE5FE0609F4C8C08091F5061A
:104B70008F7BF1E1EF16FCE5FF0609F06ECF809325
:104B8000F5066BCF2FEFE2162CE5F20609F4C4C050
:104B9000D8F58AEFE8168CE5F80609F485C0D0F45C
:104BA000E4E1EE16ECE5FE0609F4C4C008F4B0C07A
:104BB00025E1E2162CE5F20609F04FCF8091F506CB
:104BC00082FB992790F921E0922790FB82F990FBD4
:104BD00083F9D5CF3CEFE3163CE5F30609F482C038
:104BE00008F466C09DEFE9169CE5F90609F47EC05D
:104BF0008091F6068360EEEFEE16ECE5FE0609F016
:104C00002CCF8093F60629CFF1E6EF16FDE5FF06DF
:104C100009F49BC0A0F431E0E3163DE5F30609F486
:104C200092C008F47DC060E092E0E9169DE5F906C7
:104C300009F013CF8EE090E00E94BC340ECFEDEA75
:104C4000EE16EDE5FE0601F168F49091F506892F68
:104C50008E7F90FF816025EAE2162DE5F20609F4C9
:104C60008ECFFBCE3EEAE3163DE5F30679F18FEAFF
:104C7000E8168DE5F80609F0F0CE9091F606892F3A
:104C8000877F93FF8860BDCF8091F6068860B9CF9B
:104C90008091F506826073CF8091F50684606FCFB6
:104CA0008091F50688606BCF8091F6068160A9CF70
:104CB0008091F6068260A5CF8091F50680625FCF75
:104CC0000E942B1E8091F506806859CF8091F606D0
:104CD000877F97CF8091F5068B7F51CF8091F50626
:104CE000877F4DCF8091F6068E7F8BCF8091F60621
:104CF0008D7F87CF8091F5068F7E41CF8091F5061D
:104D00008F7D3DCF0E942B1E8091F5068F7737CF88
:104D10008091F506837F33CF8091F6068C7F71CF2B
:104D20008091F606982F909591708E7F892B90FB3D
:104D300081F967CF0E942B1E9091F506892F97FB72
:104D400087F980581CCF61E075CF9091F506892FC7
:104D50008F7E94FF806113CF48ED56E063EE76E0DE
:104D60000E943C0650CD43EE56E068ED76E0F8CF69
:104D700049EA56E064EB76E0F3CF44EB56E069EAAB
:104D800076E0EECF4DE856E06BE976E0E9CF4BE90F
:104D900056E06DE876E0E4CF4FE756E061E776E075
:104DA000DFCF42E456E060E576E0DACF40E556E05A
:104DB00062E476E0D5CF61E081E00E94BF0623CDBA
:104DC00061E08DE0FACF0E942B1EEFEFF4E32CE0C0
:104DD000E150F0402040E1F700C000000E94321294
:104DE0008091F60682FB882780F991E089270E944E
:104DF000FE1DF8018281E080F180882309F445C01E
:104E0000C7010E942A13D82E682FC7010E9459118A
:104E1000B7018D2D0E941C130E94810F7C01882EEA
:104E2000F801D280B580B2943FE0B3228091500364
:104E30008770C1F0AD2CDD20B1F08F2D807F8034E4
:104E400021F080E28E0D883068F08091F60682FFB6
:104E500009C082E00E94E21D809150038770AA245D
:104E6000A3948111A12C9F2C92942FE09222FBE01D
:104E7000F91508F479C0E92DF0E0E754FA4C0C94E8
:104E8000063481E0B4CF80E0B2CFC7010E94251183
:104E9000D82EBECF2F2D2F70C22E8F2D807F19F0D0
:104EA000C29490EFC922DD20B9F0CC2069F080E2F5
:104EB0008E0D883010F0811009C080917203C82ACD
:104EC000C09272030E94F5158E2D4CC08091710323
:104ED000C82AC0927103F6CF8E2D0E94CC21CC201F
:104EE00009F442C080E28E0D883010F0811004C0B9
:104EF0008C2D0E94141106C0C09480917103C822A9
:104F0000C09271030E94F5152FC03F2D3F70C32E34
:104F10008F2D807F803219F0C29480EFC8228820C4
:104F200089F081E0881609F468C0DD2009F472C0B8
:104F3000BB2009F468C0F801858180FFC5CF8F7060
:104F4000858361C02091F60622FD35C0DD2069F120
:104F5000CC2039F080917203C82AC09272030E945B
:104F6000F51580E00E940122292D2850330B2430B2
:104F7000310510F40E942F06AA2009F4F8CB809185
:104F8000500380FDF4CBF8011282859585958595B7
:104F90000E941A1EC8010E94A52380915003859586
:104FA000859585950E94D51DE2CB80E00E94CC219D
:104FB000CC20D1F29DCFDD2099F0909173038C2D00
:104FC000892BB11003C00E945116CECFE1E0BE1272
:104FD000FACF22FFC9CF981739F280937303C4CF59
:104FE000B11006C00E940E118C2D0E944A16BCCF33
:104FF000F1E0BF1609F4B8CFF5CFDD2031F025E0A0
:105000002B1508F4B1CF8C2DDECF34E03B1508F41E
:10501000ABCFEACFBB2041F3F9E38F1209C02FEFEA
:1050200037EE83E0215030408040E1F700C00000BF
:105030008E2D0E94CC2198CF8F2D869586958370DA
:1050400061F0813009F090CFC7019370D11002C098
:1050500090E080E00E94030687CFC7019370D110D3
:1050600002C090E080E00E9419067ECF8E2DDD20E8
:1050700029F00E94CB0E0E94811D76CF0E94DB0D8D
:10508000FACF8F2D837091F5D1106ECF4E2D4295B2
:1050900046954770440F440F8E2D8F70042E01C02B
:1050A000880F0A94EAF72E2D2071E4FE07C02FE046
:1050B00030E001C0220F4A95EAF720953F2D369542
:1050C00036953370323069F050F4409174033130CA
:1050D00029F0822B84230E94261E46CF842B822B0C
:1050E000FACF282B809174038227F5CF8695DD2097
:1050F00011F08F2D8170882309F436CF4E2D429503
:1051000046954770440F440F8E2D8F70042E01C0BA
:10511000880F0A94EAF72E2D2071E4FE07C02FE0D5
:1051200030E001C0220F4A95EAF720953F2D3695D1
:1051300036953370323069F050F440915907313070
:1051400029F0822B84230E94C41D0ECF842B822B36
:10515000FACF282B809159078227F5CF9F2D9F707A
:10516000F92EDD2029F0892F0E941A1E8E2D2BCFBB
:105170008E2D0E944A168F2D0E94D51DF5CE8E2DA4
:10518000E2EF8E16B1F1E81570F0F0EF8F16D1F066
:1051900021EF821691F0DD2009F45EC0B11094CEAB
:1051A0008F2D8F712AC033EF831651F194EF89123E
:1051B000F2CF8091F60682FD2FC08F2D8F71DD20FA
:1051C000D9F21BC0DD2081F0E4E0EB1508F4CCCE71
:1051D0002F2D2F7181E090E001C0880F2A95EAF70A
:1051E000909159078927AFCFF5E0FB1508F4BCCEA5
:1051F000EFCF8F2D8F71D110BFCF0E941A1EB4CE6A
:1052000080E0DD2009F49FCF9F2D9F7181E001C0D8
:10521000880F9A95EAF797CFDD2099F02F2D2F71FF
:10522000F22E822F0E941A1E8091F60682FF07C07E
:1052300038E0F39EC00111248360809350038F2DCA
:10524000DCCF81E00E94E21D81E08B1508F08CCE5E
:1052500082E00E94E21D88CEBB2059F0893309F01C
:10526000E7CE9FEFE7EEF3E09150E040F040E1F74A
:10527000DDCE8F2D8F7180CFF0E1EF16FFE5FF06B9
:1052800009F489CB21E1E2162FE5F20609F48DCB72
:1052900093EFE9169CE5F90609F4F3CB08F087CB08
:1052A000F8EDEF16FCE5FF0609F4E7CB29EDE21671
:1052B0002CE5F20609F4F1CB37EDE3163CE5F306F5
:1052C00009F086CB26E241EE61EEC8010E94482338
:1052D0009ACA30E1E3163FE5F30609F462CB91E1A7
:1052E000E9169FE5F906A1F682E05CCB85E0DE01D8
:1052F000119601900D928A95E1F7F801228189813A
:105300009A81211138CA0E942511F82E3CCAF6E173
:10531000EF16FCE5FF0671F58091F60269E2811156
:1053200065E386ED92E00E94A405DCCB2AE5E21657
:105330002DE5F20609F4A5CD78F4E1148CE5F80624
:1053400009F441CD9EEDE9169CE5F90609F051CD31
:105350000E9467160E94B621ECE5EE16EDE5FE060A
:1053600009F43ECD08F48FCD27EAE2162DE5F206CA
:1053700089F33FCD8091720382723AECE3163CE5EB
:10538000F30609F409CDE0F5E5ECEE16ECE5FE06D2
:1053900009F4EECCE0F423ECE2162CE5F20609F475
:1053A000DBCC08F0E0CC82ECE8168CE5F80609F0DE
:1053B00020CD80915B0791E0892780935B07109255
:1053C0001A0180915A07816080935A071CCA97EC92
:1053D000E9169CE5F90609F4D5CC08F4CECCF8EC36
:1053E000EF16FCE5FF0609F4D2CC41E756E06FE783
:1053F00076E029ECE2162CE5F20609F4B1CCF9CC02
:105400003FECE3163CE5F30609F4DACCB8F4ECEC37
:10541000EE16ECE5FE0609F4C9CC08F4C2CC2DEC7E
:10542000E2162CE5F20609F4C6CC61E085E03EEC1C
:10543000E3163CE5F30609F4C0CCDBCC86EDE816B8
:105440008CE5F80648F461E082E191EDE9169CE50F
:10545000F90608F4B2CCD7C9EDE5EE16FE0609F45C
:10546000D2C9C7CC1F93CF93DF9380911D03807F58
:1054700009F049C080911A03882309F444C080913F
:105480004F03D0911E036091180370911903A091EE
:105490001B03B0911C03C62FC72316E0D81799F140
:1054A00090E0109711F0CF3F19F401968770F6CF76
:1054B000189F9001199F300D1124F901E15EFC4FF6
:1054C00041814713F2CF40814613EFCF4281411112
:1054D000ECCF438154814A1B5B0B483C510528F7B4
:1054E00080911D038F70806180931D03F901EC5D35
:1054F000FC4F80818F708061808388E193E00E94FF
:10550000A5230E941B11DF91CF911F910895A1E166
:10551000B0E0EDE8FAE20C94B7338C0185E0F801D5
:10552000DE011D9601900D928A95E1F7F801E28067
:1055300088E1A82E83E0B82E60911B0370911C03B4
:105540006115710509F426C1909118034091190362
:10555000892F84238F3F09F41DC120813181C380AD
:10556000D480F0901A03F601E61BF70BFF2009F434
:10557000DCC080911D03582F507FE83CF10508F0F6
:105580009FC051116BC0FE2C431314C0921312C064
:10559000E11010C08F70806180931D03C5010E94CF
:1055A000A52380911D03F80185838F2D6196EAE084
:1055B0000C94D333C114D10429F0822F83238F3F5D
:1055C00009F003C180E0F82FF170DF2E80FF3CC0AE
:1055D00080914F0340911E0356E0841315C02D8720
:1055E0003E878D859E850E945913292F22952F7005
:1055F0002230F0F0243018F59F70F1F0F801958119
:10560000907FD1F4D12C1EC090E0589FF001599F9B
:10561000F00D1124E15EFC4F6181361306C06081FC
:10562000261303C06281E6120FC001968770D5CFA2
:105630009F7011F0882331F3805E883018F3C80121
:105640000E94A523FD2CB1CFEE2009F4AECF8091AE
:105650001D03816080931D03F12CA7CF431306C067
:10566000921304C0F801EE2009F479C0C8010E9429
:105670006613882309F1EE20F9F080911D03803232
:1056800070F0209118033091190338872F83198601
:10569000DB86CA868C87CE0107960E94A52386E00A
:1056A000F801A8E1B3E001900D928A95E1F70E941C
:1056B000322AFF24F39479CFC8010E94A523F9CFA1
:1056C00051110AC088E193E00E94A52386E0F5010C
:1056D00011928A95E9F7C0CF43130FC092130DC002
:1056E000E1100BC0F8018583C8010E94A52386E064
:1056F000F50111928A95E9F758CFC8010E94661307
:105700008823D1F2EE20C1F280911D03803238F25D
:1057100020911803309119033A8329831B82DD827B
:10572000CC828E83CE010196B8CFE83CF105F8F625
:10573000FE2CEE2009F243131FC092131DC080916E
:105740001D0380FD10C0982F907F69F0F8018583BC
:10575000903F31F0982F907F905F8F70892B8583D9
:10576000C8010E94A52386E0F801A8E1B3E00190FA
:105770000D928A95E1F719CFC8010E946613811135
:105780008ECF80911D03816080931D03C8010E940C
:10579000A5230BCFEE2009F48FCFC8010E9466131A
:1057A000F82E882309F488CF86E0F801A8E1B3E059
:1057B00001900D928A95E1F7809118039091190359
:1057C0000E9459130E94322AF0CE81E08E25FBCE32
:1057D000A7E1B0E0EEEEFBE20C94BE334B8B5C8BAA
:1057E0006D8B7E8B8F8B6111109271031A8A198ACF
:1057F00085E0FE017396DE011D9601900D928A955B
:10580000E1F786E0FE013D96DE01179601900D92CC
:105810008A95E1F7CE0107960E94872A882359F0DE
:1058200016E080914F0390911E03891343C0679641
:10583000E3E00C94DA3386E0FE013796DE01119640
:1058400001900D928A95E1F78A859B85892B41F31A
:105850008F81988589238F3F19F320911E0330E0B3
:10586000C90101968770992740914F03481719067F
:1058700071F40E942B1E10921E0310924F0386E0BB
:10588000E8E1F3E0DF011D928A95E9F7C9CF96E0E0
:10589000929FD001939FB00D1124A15EBC4FFE01D9
:1058A000319601900D929A95E1F780931E030E9424
:1058B0001B11B6CF819FC0011124815E9C4F0E94B5
:1058C000872A882309F4B3CF80914F0390E0019693
:1058D0008770992780934F03A4CFAAE0B0E0E3E755
:1058E000FCE20C94B5338E010F5F1F4F8AE0F80184
:1058F00011928A95E9F797E6E92E91E0F92E680171
:10590000AA24A394B12CF70181917F018F3F09F460
:1059100046C0F894E82FE295EF70F0E021A18F7077
:10592000A50102C0440F551F8A95E2F7CA01922FC4
:10593000982B91A392A18095892382A3789400C08B
:10594000ECE6F1E021E030E0912C812C41914F3FD9
:1059500009F467C0A42FA295AF70B0E090968C9127
:1059600090E04F7002C0959587954A95E2F780FDCB
:1059700058C0C901882A992A220F331F51E0EB37FA
:10598000F50721F7F701319780818F3F11F00E94D1
:10599000270F80EA8A95F1F7F60191828082F2E082
:1059A000CF0ED11C4CE6E41641E0F40609F0ABCF73
:1059B0004AE050E0B80188E793E00E947834892BF0
:1059C00099F18AE0F801A8E7B3E001900D928A9579
:1059D000E1F781E0809377030E94DE1790937603CE
:1059E0008093750380917503909176030E94CF1781
:1059F0000397F0F04AE050E068E773E08FE893E047
:105A00000E947834892BC9F08AE0E8E7F3E0AFE838
:105A1000B3E001900D928A95E1F781E0109277034F
:105A200008C090E080E0A6CF809177038111DACFA3
:105A300080E02A96ECE00C94D13380E0EFCF1F9207
:105A40001FB61F9211248F939F93AF93BF938091A2
:105A5000F006811113C08091F1069091F206A09199
:105A6000F306B091F4064196A11DB11D8093F10695
:105A70009093F206A093F306B093F406BF91AF9112
:105A80009F918F911F901FBE1F901895CDB7DEB7C5
:105A9000E8970FB6F894DEBF0FBECDBF85B780681C
:105AA00085BF85B7806885BF84B7877F84BF0FB601
:105AB000F894A895809160008861809360001092AE
:105AC00060000FBE80E890E00FB6F894809361000C
:105AD000909361000FBE85E29FE09093D502809382
