:100000000C9430010C9477010C9477010C947701D7
:100010000C9477010C9477010C9477010C94770180
:100020000C9477010C9477010C94871C0C945B1D45
:100030000C94BE170C9477010C9477010C94770103
:100040000C9477010C9477010C9477010C94770150
:100050000C9477010C9415180C9477010C9477018B
:100060000C9477010C9477010C9477010C94770130
:100070000C9477010C9477010C9477010C94770120
:100080000C9477010C9477010C9477010C94770110
:100090000C9477010C9477010C9477010C94770100
:1000A0000C9477010C9477010C947701F300AE0067
:1000B0000000AB000153380025022D00240025006C
:1000C00026002E0221002200230000001E001F0037
:1000D0002000280000002700370000000100010078
:1000E00000000100010001000100010024042504BA
:1000F0002604010021042204230400001E041F041E
:1001000020040100000029004C00000012035400EC
:1001100065006E006B00650079002B002B0000006D
:1001200032034C0069007A00610072006400200014
:1001300054007200690063006B00200045006C00F1
:1001400065006300740072006F006E006900630058
:10015000730000000403090409023B00020100A02F
:10016000FA09040000010301010009211101000145
:100170002240000705810308000A09040100010369
:10018000000000092111010001227B000705820304
:1001900020000A1201100100000008EDFE0000011D
:1001A000000102000105010902A10185020901A166
:1001B0000005091901290815002501950875018117
:1001C000020501093009311581257F9502750881E5
:1001D0000609381581257F950175088106050C0AE9
:1001E00038021581257F950175088106C0C005017B
:1001F0000980A101850319012AB700150126B7005E
:10020000950175108100C0050C0901A10185041933
:10021000012AA002150126A002950175108100C0D7
:1002200005010906A101050719E029E715002501C7
:10023000950875018102950175088101050719006E
:1002400029FF150026FF009506750881000508198D
:10025000012905950575019102950175039101C06C
:1002600011241FBECFEFDAE0DEBFCDBF04B603FE20
:1002700027C08091580290915902A0915A02B091E2
:100280005B028730904BA740B04BD1F410925802DC
:100290001092590210925A0210925B0214BE84B757
:1002A000877F84BF0FB6F894A8958091600088611D
:1002B00080936000109260000FBEE0E0F8E30995C3
:1002C00011E0A0E0B1E0E6E4FFE302C005900D928A
:1002D000A839B107D9F722E0A8E9B1E001C01D9221
:1002E000A835B207E1F70E94C3190C947D1F0C9446
:1002F000000081110AC089EF90E0611102C08AEF0D
:1003000090E00E94F80181E00895813039F48BE299
:1003100091E06111F6CF8BE293E1F3CF823099F750
:100320008EE490E06111EDCF8BE490E0EACFCF93C3
:10033000DF939C013A9521153F4168F5EC01CC27EC
:10034000D170DC01AA27B270AC01442754709C0123
:100350002227387094FF11C080E1CD2B09F480E092
:10036000AB2B09F08062452B09F08064232B09F048
:100370008068FB01DF91CF91099481E0CD2B09F4D6
:1003800080E0AB2B09F08260452B09F08460232BC1
:1003900081F38860EECFDF91CF910895CF93DF9303
:1003A000EC01805E9109089720F06AE670E12097E1
:1003B00011F464E17EE0CE010E9497018C2FDF9161
:1003C000CF910C940D0DCF93DF93EC010E949F0D04
:1003D000CE01805E9109089720F061E770E12097D7
:1003E00011F46BE17EE0CE01DF91CF910C94970187
:1003F000CF93DF93EC010E94CE01CE01DF91CF912C
:100400000C94E30181E0089581E008950C940402C6
:1004100008950C9408021F93CF93DF9300D000D06F
:100420000F92CDB7DEB749835A836B833091D001E9
:1004300089819A8131111DC06623B9F02223A9F068
:100440000E94FF14182F682F89819A810E94AC1492
:1004500069817A81812F0F900F900F900F900F90EC
:10046000DF91CF911F910C94C9020E94D814182FCC
:10047000EFCF0E94FF1469817A81EDCFFC01262F16
:10048000408151816281738184810C940B02CF93EE
:10049000DF93EC0160E00E943E02BE01DF91CF914C
:1004A0000C9409020E94C9040C94EE040C94F1040B
:1004B00008950E948E100E9458022FEF84E39CE062
:1004C000215080409040E1F700C000000C943918A2
:1004D0000F931F93CF93DF938C0161E00E943E0244
:1004E000EC01B8010E9406028823A9F1B801CE01EF
:1004F0000E94EE09882379F1B801CE010E94400ADA
:10050000882349F1B801CE010E94630B882319F1B9
:10051000F8018281882361F0CB35FDE5DF0721F109
:1005200070F4C115ECE5DE07A1F0CF3DDC45C9F064
:10053000C801DF91CF911F910F910C940202CC352D
:100540008DE5D807A1F0CD35DD4591F70E94A615C0
:10055000EFCF0E94590280E0DF91CF911F910F9160
:1005600008950E941217F7CF0E94AF15E1CF0E94A5
:10057000B215DECF08950C94BA0281E008950C9470
:10058000BD02CF93C82F0E94BB028C2FCF910C9439
:10059000BF02E72FF0E096E0899FE00DF11D1124E6
:1005A000EE0FFF1FEE0FFF1FE60FF11DEE0FFF1FF7
:1005B000E455FF4F859194910895CF93DF930E9466
:1005C000C9020E94D703EC01811521E5920708F0CA
:1005D00042C0811530E5930708F09DC0883E910523
:1005E00030F5803E910508F092C0883A910588F474
:1005F000853A910508F084C08130910509F487C0DF
:10060000009709F484C0049708F081C0D0E0C0E0EE
:100610007EC08F3B9105D0F7C85AD0E0CC0FDD1FCC
:10062000CB5EDE4F0990D881C02DD46470C0811597
:10063000904250F4C11581E0D80708F068C0CD3E63
:10064000D10520F3D06563C0C11590E4D907F0F25D
:10065000DF70D06A5CC0811525E5920700F5811531
:1006600034E5930708F08BC0811543E5940708F043
:1006700073C0C11582E5D80708F469C0CE01837044
:10068000992721E030E002C0220F331F8A95E2F75C
:10069000C695C69580E2C89FE001112454C0C115DB
:1006A00099E5D907A8F4C11528E5D20708F06CC070
:1006B000C11536E5D30708F0A9CF8C2F0E946E0430
:1006C000C82FD0E0DC2FCC27CC27DF71D0621FC031
:1006D000C1154AE5D40708F45CC0CE0190568115D7
:1006E000904208F093CF8D2F8F710E946E0490E09E
:1006F000982F882788279F719C012C2BE901E6CF32
:10070000C55AD0E0CD5BDE4FC881D0E0D064CE01C9
:10071000DF91CF910895E4E096958795EA95E1F70A
:1007200083702C2F26952695237040E2249F9001FC
:100730001124382B8C2F8370C1E0D0E002C0CC0F85
:10074000DD1F8A95E2F7C22BD32BDC68E0CFDC2FCC
:10075000CC27C16FD06ADBCF8370992721E030E0CE
:1007600002C0220F331F8A95E2F7C695C69590E224
:10077000C99FE0011124C22BD32BDA68C8CFD82F30
:10078000CC27C46FD06AC3CFDC2FCC27C06FD06A10
:10079000BECF8C2F8F700E946E0434E0D695C79523
:1007A0003A95E1F7CF709C2FEC01D069B0CF823839
:1007B0009105B1F1B0F48133910509F475C048F4A5
:1007C0008932910509F469C08A32910509F473C030
:1007D00008958533910509F459C08933910501F1D4
:1007E0000895833E9105A9F138F4803E9105F9F012
:1007F000823E910549F10895863E9105A9F1873E13
:100800009105C9F1843E910519F520913A0221FF25
:100810001FC08091390284FD14C087EE90E00895D6
:10082000209139022370A1F080EE90E0089520918C
:10083000390220FD47C030913A0230FF09C024FF41
:1008400044C090E080E004C02091390222FDF7CF3F
:1008500008952091390222FD3BC030913A0230FDCB
:10086000E3CF24FFF5CFEDCF2091390223FFF0CF66
:1008700024FDE7CFD2CF2091390223FD2CC0309147
:100880003A0231FFEECF84EE90E0089520913902D4
:1008900025FFDECF89E290E008952091390225FFFF
:1008A000D7CF85E390E008952091390226FFD0CF7D
:1008B0008AE290E008952091390226FFC9CF81E3B2
:1008C00090E0089589E390E0089583EE90E0089524
:1008D00082EE90E0089586EE90E0089590913902BE
:1008E00092FF06C0282F28712830F9F4877F846092
:1008F00093FF06C0282F28712831F1F4877E846188
:1009000020913A0220FF06C0382F38713830D9F4D0
:10091000877F816021FF06C0282F28712831D1F4FC
:10092000877E816194FD877E0895282F247124306D
:10093000F9F68B7F8860DCCF282F2471243101F7F2
:100940008B7E8861DDCF382F3171313019F78E7F82
:100950008860E0CF282F2171213121F78E7E8861B8
:10096000E1CF0C9467160E9447058FE39CE901973D
:10097000F1F700C000000E94470580E00E94F304E8
:1009800080FF04C00E94B1040C94391808950C949F
:10099000B3040E946D16811102C00E9412170E94BA
:1009A000781680932D020E94801690933A028093CD
:1009B00039020E94C7040E947C16682F70E090E004
:1009C00080E00E94AE13609118027091190280912C
:1009D0001A0290911B020C94E81308950C94ED04F4
:1009E00008950C94F004E82FF0E0EF5BFD4F808158
:1009F0000895089580EA8A95F1F7089500C0089552
:100A00000C94FA04F894E82FE295EF70F0E031A12D
:100A1000282F2F7081E090E001C0880F2A95EAF717
:100A2000982F9095932391A392A1892B82A37894D8
:100A3000089587E30E94020584E90E94020585E388
:100A40000E94020586E30E94020586E60E940205D6
:100A500087E60E94020585E90E94020583E90E945B
:100A6000020582E90E94020587EF0E940205EBE37E
:100A7000F2E0A1E4B2E081E492E011921D928E17BF
:100A80009F07D9F786E00E94BE050C945202CF92D0
:100A9000DF92EF92FF920F931F93CF93DF93CAE4FD
:100AA000D1E00BE312E0D12CEE24E394F12C8991F8
:100AB000F894E82FE295EF70F0E021A18F70A70184
:100AC00002C0440F551F8A95E2F7CA01922F982B56
:100AD00091A392A18095892382A378940E94FE0419
:100AE000E6E4F1E030E020E0C12C4191A42FA29592
:100AF000AF70B0E090968C9190E04F7002C09595E9
:100B000087954A95E2F780FD35C08E2D022E01C0F3
:100B1000880F0A94EAF7C82A2F5F3F4F2430310527
:100B200021F7FE01319780810E9402050E94000595
:100B3000F8018081C81601F1C08281E0D82A0F5FD8
:100B40001F4FF1E0C035DF0709F0B1CF2D2D46E092
:100B500061E472E08BE392E00E94BF050E945602BE
:100B60008D2DDF91CF911F910F91FF90EF90DF902E
:100B7000CF90089580E0CFCF80E0E0CF0895FF923E
:100B80000F931F93CF93DF93F82E092F162FD72F94
:100B9000C42F222349F081E080939C010E94EE172C
:100BA00090939B0180939A0180919C018823A1F0EE
:100BB00080919A0190919B010E940618069760F01F
:100BC000EF2DF02FA12FBD2FCE0FDF2FD11DEC1752
:100BD000FD0741F410929C01DF91CF911F910F917D
:100BE000FF90089581918D93F2CF8091A30180FFB2
:100BF00012C06091050185E0689FB00111247595D0
:100C000067957595679560387105A8F5611571054B
:100C1000A1F1862F089581FF09C06091050185E04B
:100C2000689FB001112475956795EDCF609105011E
:100C300082FD0AC08091A2018823D1F09091040125
:100C400060910501891728F085E0689FB0011124A3
:100C5000DACF869FB001112485E0869F9001879F9F
:100C6000300D1124692F70E0C9010E940D1FCBCFF8
:100C700065E070E0CECF8FE7089581E00895809120
:100C8000A30180FF0CC06091010170E0759567952C
:100C9000759567956115710549F1862F089581FF56
:100CA00006C06091010170E075956795F3CF609182
:100CB000010182FD0BC09091A1019923A1F06091E7
:100CC000000180910101961738F0682F70E06038BC
:100CD000710500F38FE70895899FC001112470E02A
:100CE0000E940D1FF4CF61E070E0D7CF81E008953E
:100CF0008D3E31F40E94F50581958093A7010895FA
:100D00008E3E19F40E94F505F8CF8F3E31F40E9413
:100D1000F50581958093A6010895803F19F40E94FE
:100D2000F505F8CF893F29F40E943F068093A8017A
:100D300008958A3F21F40E943F068195F7CF8B3FAB
:100D400031F40E943F0681958093A90108958C3F5C
:100D500019F40E943F06F8CF9FE0980F983070F486
:100D6000815F990B21E030E001C0220F8A95EAF7FC
:100D70008091A501822B8093A50108958D3F31F4C8
:100D80008091A30181608093A30108958E3F21F497
:100D90008091A3018260F7CF8F3FB9F78091A301C3
:100DA0008460F1CF4091A6018D3E59F48091A70156
:100DB00087FF0DC01092A70141110BC01092A20134
:100DC00008C08E3E81F48091A70118169CF344233D
:100DD00081F08091A8019091A901892B09F05AC056
:100DE0001092A10108958F3E49F447FFF0CF109271
:100DF000A6018091A7018111ECCFE0CF803F19F4CB
:100E00001416ACF3E4CF9091A801893F29F4191688
:100E1000F4F61092A801DBCF8A3F19F497FFD7CFE1
:100E2000F8CF9091A9018B3F29F497FFD0CF109272
:100E3000A901CDCF8C3F19F41916CCF3C8CF9FE090
:100E4000980F983090F4815F990B21E030E0B90160
:100E500002C0660F771F8A95E2F7CB0180959091CB
:100E6000A50189238093A501B2CF8D3F31F48091F4
:100E7000A3018E7F8093A301AACF8E3F21F480919E
:100E8000A3018D7FF7CF8F3F09F0A1CF8091A30100
:100E90008B7FF0CF08950E94EE179C019091A601E0
:100EA0008091A701982B21F03093A00120939F01FE
:100EB0009091A8018091A901982B21F030939E0177
:100EC00020939D0184EA91E00C94A90BEF92FF928C
:100ED0000F931F93CF93DF9300D000D000D0CDB7F6
:100EE000DEB786E0E4EAF1E0DE01119601900D92B2
:100EF0008A95E1F7E090A601F090A7010091A80182
:100F00001091A9011092A6011092A7011092A801B8
:100F10001092A9018E2D8F2991F080919F019091BF
:100F2000A0010E940618AC019091A201992309F436
:100F30003FC0809106018417150608F447C0802F32
:100F4000812B91F080919D0190919E010E94061845
:100F5000AC019091A101992309F477C0809102011D
:100F60008417150608F47FC08091A6019091A7010F
:100F7000892B9091A801892B9091A901892B11F0BF
:100F80000E944B0786E0FE013196A4EAB1E0019091
:100F90000D928A95E1F726960FB6F894DEBF0FBE44
:100FA000CDBFDF91CF911F910F91FF90EF900895EA
:100FB000209107018AE0289F90011124241735070A
:100FC00008F0BDCF9F5F9093A20102C09F3FD1F771
:100FD000EE2059F00E94F5059FEF1E140CF491E0ED
:100FE000899F802D11248093A601FF2059F00E9433
:100FF000F5059FEF1F140CF491E0899F802D1124BB
:101000008093A7013091A601332309F498CF209152
:10101000A701222309F493CF45EB3403C001112427
:10102000992359F09093A60145EB240390011124D4
:10103000332339F03093A70182CF81E08093A6015A
:10104000F3CF81E08093A7017ACF209103018AE05A
:10105000289F900111242417350708F085CF9F5F42
:101060009093A10102C09F3FD1F7002359F00E9445
:101070003F069FEF10160CF491E0899F802D1124FC
:101080008093A801112359F00E943F069FEF11168B
:101090000CF491E0899F802D11248093A901309157
:1010A000A801332309F460CF2091A901222309F478
:1010B0005BCF45EB3403C0011124992359F0909381
:1010C000A80145EB240390011124332339F0309318
:1010D000A9014ACF81E08093A801F3CF81E08093FA
:1010E000A90142CF86E0E4EAF1E0DF011D928A9592
:1010F000E9F71092A2011092A1011092A3010895A4
:101100000C947901AF92BF92CF92DF92EF92FF924F
:101110000F931F93CF93DF93A3E6B1E020E631E076
:1011200080EBA82E81E0B82E66E671E041E050E049
:101130000D91802F82958F7090E0FC01C1A10F70FE
:101140007A01002E01C0EE0C0A94EAF7FE2DF0950C
:10115000CF23FC01C1A3C2A1CE29C2A3E9011991E9
:101160009E01E12FE295EF70F0E0F1A01F706A019F
:10117000012E01C0CC0C0A94EAF7EC2CE094EF208D
:10118000E1A2F2A0FC28F2A2EC0188A190E002C04A
:10119000959587950A95E2F78170E0A1F0E002C08D
:1011A000F595E7951A95E2F790E0E0FD92E0892B3E
:1011B000F50181935F016A177B0709F0B9CFDF91D1
:1011C000CF911F910F91FF90EF90DF90CF90BF9044
:1011D000AF9008956F927F928F929F92AF92BF923D
:1011E000CF92DF92EF92FF920F931F93CF93DF93F3
:1011F00000EB11E083E6C82E81E0D82E90E6E92EC0
:1012000091E0F92E2DEA822E21E0922ECAEAD1E059
:10121000712C612C34E0A32EB12CD801EC91EE0F8F
:10122000EE0FED938D01D6012D916D01A22FA295A8
:10123000AF70B0E090968C9190E02F7002C09595C1
:1012400087952A95E2F781709927D7014D917D0105
:10125000A42FA295AF70B0E090962C9130E04F7023
:1012600002C0359527954A95E2F7A90141705527A7
:1012700020FF02C042E050E0842BE82BD8011197F8
:10128000EC93EF70F0E0E05BFE4F8081F401908121
:10129000890F808320E0843044F088818F5F8883C9
:1012A00060E0872D0E94800821E0D4018C918D3F61
:1012B00044F488818150888361E0872D0E948008F2
:1012C00021E0F4018081082E000C990BB5010E94E9
:1012D0000D1FD4018D934D01622A73942196B3E0C2
:1012E0007B129BCF862DDF91CF911F910F91FF90A5
:1012F000EF90DF90CF90BF90AF909F908F907F90B6
:101300006F9008950F931F93CF93DF93C42FD22F25
:10131000FC0182818823C9F04093B5010E94EE1739
:101320009093B4018093B30180E28C0F883008F071
:1013300050C0C77081E001C0880FCA95EAF7DF91FD
:10134000CF911F910F910C94140E1091B5011413AD
:1013500035C08091B3019091B4010E940618883C79
:10136000910560F5C0E2CD0F1D17B9F080E2810F45
:10137000883040F4177081E001C0880F1A95EAF7B1
:101380000E941B0EC83048F481E09D2F977001C069
:10139000880F9A95EAF70E94140E802F0E940C0E77
:1013A000C830B8F4D77081E001C0880FDA95EAF749
:1013B000DF91CF911F910F910C941B0E80E28C0F47
:1013C000883038F4C77081E001C0880FCA95EAF709
:1013D000EFCFDF91CF911F910F9108950F939C0153
:1013E000CB01243F4CE5340759F1A8F4293DFCE535
:1013F0003F0701F12A3D4CE53407D1F1283D3C453A
:1014000091F406E221EE41EE68ED7CE50E9482094E
:1014100080E00F910895263FFCE53F07E9F0B0F02A
:10142000273F3C45F9F0FC018281882339F1109275
:10143000B501EFCF07E225EE45EE69ED7CE5E6CF9D
:1014400006E221EE40EE64EF7CE5E0CF07E225EE18
:1014500044EE65EF7CE5DACF06E221EE42EE66EF80
:101460007CE5D4CF07E225EE46EE67EF7CE5CECFF4
:1014700008E221E045EE6AED7CE5C8CF81E0C9CF06
:10148000CF93DF93EC01FB018281882309F419C11A
:10149000C230FCE5DF07C0F1C6319CE5D90730F06A
:1014A0009E012B5F3C452930310570F50E94801666
:1014B00090933A0280933902C031ECE5DE0709F4DB
:1014C000CFC008F05BC0C8308CE5D80709F4B6C0BF
:1014D00088F5C430ECE5DE0709F4A8C0C0F4C230DA
:1014E0008CE5D80709F49CC0809139028260C33032
:1014F000DC4509F498C08091390290913A020E942B
:101500008E160E948E1080E0DF91CF910895809119
:1015100039028061C630ECE5DE0709F484C08091B1
:1015200039028860C730DC4508F47DC080913902FB
:10153000806279C0CC308CE5D80709F489C070F49A
:10154000809139028C60CA30ECE5DE0709F46BC08B
:1015500008F478C0809139028E7F65C0CE308CE56A
:10156000D80709F479C0809139028B7FCF30DC45F0
:1015700008F459C0809139028F7E55C0CC3FECE50C
:10158000DE0709F457C030F5C3318CE5D80709F4FC
:101590006FC078F4C131ECE5DE0709F465C0C231F3
:1015A000DC4509F0A8CF0E948E10809139028F7718
:1015B0003AC0C5318CE5D80709F462C008F476C09A
:1015C00080913A028160CB3FDC4509F094CF809353
:1015D0003A0291CFC115FDE5DF0709F44DC088F44B
:1015E00080913A028D7FCE3F9CE5D90781F38091AF
:1015F0003A028E7FCF3FDC4550F380913A02836000
:10160000E6CFC230FDE5DF0709F459C008F444C055
:1016100080E0C330DD4509F06ECF0E9414176BCF18
:101620008091390281608093390265CF80913902BF
:101630008460F9CF80913A028260C9CF80913902EB
:101640008064F1CF0E948E10809139028068EBCFC8
:10165000809139028D7FE7CF80913902877FE3CF78
:10166000809139028F7DDFCF809139028F7BDBCF74
:1016700080913902837FD7CF80913A028C7FA7CFA8
:101680008091390282FB992790F921E0922790FB03
:1016900082F990FB83F9C7CF80913A02982F9095F9
:1016A00091708E7F892B90FB81F991CF0E948E10D3
:1016B00090913902892F97FB87F98058B4CF81E048
:1016C000ACCF81E021CFCF93DF93EB0186319C45F6
:1016D00011F50E94B5159A81992399F08A7A91E0C3
:1016E00009F490E09093B601811109C089E20E944B
:1016F0006F150E94F81580E0DF91CF91089585E382
:10170000F6CF8091B601811104C089E20E9476155E
:10171000F0CF85E3FBCF81E0EFCF9093BC018093C6
:10172000BB010895E091BB01F091BC01309721F01D
:101730000190F081E02D099480E00895E091BB01D3
:10174000F091BC01309721F00280F381E02D0994E3
:101750000895E091BB01F091BC01309739F022E08F
:10176000DC012C930480F581E02D099408952091EB
:10177000B9013091BA012817390771F09093BA0175
:101780008093B901E091BB01F091BC01309721F049
:101790000680F781E02D099408952091B7013091DA
:1017A000B8012817390771F09093B8018093B701F9
:1017B000E091BB01F091BC01309721F00084F185EC
:1017C000E02D099408950E94FA176093CC0170935C
:1017D000CD018093CE019093CF016093C8017093A7
:1017E000C9018093CA019093CB0108950E94FA1712
:1017F0006093CC017093CD018093CE019093CF0183
:101800006093C4017093C5018093C6019093C70192
:10181000089585B7806885BF85B7806885BF0895BE
:10182000089508950C94100C08950C94140C0E94C3
:10183000090C85E696E10E945D180E94110C0C943B
:10184000120C81E008950C94210C089508950E94D3
:10185000250C0C94260C0E94E5170E9419050E9485
:1018600082080C94150CAF92BF92CF92DF92EF9248
:10187000FF920F931F93CF93DF93CDB7DEB72A97D5
:101880000FB6F894DEBF0FBECDBF0E944705811191
:101890000E94E30B8EEBA82E81E0B82E10E000E052
:1018A000C02E802F0E94F304E82EF501F1905F0115
:1018B000F81609F453C080912D0281FD0E94F904AD
:1018C0008F2D8E25D12CFF24F394982F9F2109F47E
:1018D00040C00E94230C882399F0DE82CF82EF2043
:1018E00081E009F480E088870E94EE178160782FFC
:1018F0009A8789874E815F8168858A850E94D60C88
:10190000F801E254FE4F8081F826F0820E94EA0836
:1019100081110E94F60B0E9466070E94920B909123
:10192000BD01891791F10E94920B8093BD012A9607
:101930000FB6F894DEBF0FBECDBFDF91CF911F91E0
:101940000F91FF90EF90DF90CF90BF90AF900C94ED
:10195000C102D394FF0CF4E0DF12B7CF0F5F1F4F2B
:101960000630110509F09CCF8FEF89838A831B8293
:101970000E94EE178160782F9D838C8349815A8164
:101980006B818D810E94D60CC1CF2A960FB6F89438
:10199000DEBF0FBECDBFDF91CF911F910F91FF90A2
:1019A000EF90DF90CF90BF90AF900895DF92EF92CD
:1019B000FF920F931F93CF93DF93CDB7DEB72B9793
:1019C0000FB6F894DEBF0FBECDBF7A878B87F42E9B
:1019D000052F162FE72ED82E61110E94D5151E82D5
:1019E0001D827E2DEC82DD824F2D502F612F8D2D9B
:1019F0009E812B960FB6F894DEBF0FBECDBFDF9150
:101A0000CF911F910F91FF90EF90DF900C940413F2
:101A1000FC01808191810C944115CF93C82F8823BC
:101A200009F48BC08238C1F40E94920B81FD85C0FD
:101A300089E30E946F150E94F8152FEF81EE94E064
:101A4000215080409040E1F700C0000089E30E94EF
:101A50007615CF910C94F8158338A1F40E94920B5F
:101A600080FD6BC083E50E946F150E94F8152FEF73
:101A700081EE94E0215080409040E1F700C00000EA
:101A800083E5E5CF8438A1F40E94920B82FD55C016
:101A900087E40E946F150E94F8152FEF81EE94E005
:101AA000215080409040E1F700C0000087E4CFCF94
:101AB0008CEF8C0F813A90F46C2F809108019091FB
:101AC00009010E942B17882329F08C2F0E9476157C
:101AD0000E94F8158C2F0E946F15BBCF80E28C0FEF
:101AE000883048F4C77081E001C0880FCA95EAF7D2
:101AF0000E94B815AECFEBE5EC0FE33040F4F0E018
:101B0000EC56FE4F808190E0CF910C94B70BE8E546
:101B1000EC0FE73150F4F0E0EE0FFF1FEA59FE4FF3
:101B200080819181CF910C94CD0BCD3E30F08C2FE4
:101B30000E947806CF910C944B07CF91089588238B
:101B400009F452C0823871F40E94920B81FF4CC09C
:101B500089E30E946F150E94F81589E30E947615AB
:101B60000C94F815833859F40E94920B80FF3CC006
:101B700083E50E946F150E94F81583E5EFCF843846
:101B800059F40E94920B82FF2FC087E40E946F15C8
:101B90000E94F81587E4E2CF9CEF980F913AF0F29B
:101BA00090E2980F983050F4877091E001C0990F3F
:101BB0008A95EAF7892F0E94BE15D2CF9BE5980F30
:101BC000933020F490E080E00C94B70B98E5980FE8
:101BD000973120F490E080E00C94CD0B8D3E20F006
:101BE0000E94D2060C944B0708951F93CF93DF9366
:101BF000182FEB010E940D0D209731F4812FDF91FA
:101C0000CF911F910C949F0D8FE99FE00197F1F701
:101C100000C000002197F0CF70E060E0893311F43C
:101C200060E570E00C94F50D882321F00E94B81552
:101C30000C94F8150895882321F00E94BE150C9489
:101C4000F8150895BF92CF92DF92EF92FF920F9313
:101C50001F93CF93DF936C01D62FC72FFC01128106
:101C6000058102950F700E948D15E82E8823A1F042
:101C7000E12E112389F08C2F807F803429F080E2BF
:101C80008D0FE12C883040F082E00E9449160E94BE
:101C90008D1591E0E82EE926BC2EB2949FE0B92282
:101CA000FBE0FB1598F1EB2DF0E0E158F04E0C94C1
:101CB000211F0C2F0F70C07F11F00295007F1123A0
:101CC000A9F0002359F080E28D0F883010F0D11177
:101CD00009C0802F0E94B8150E94F8158D2F0E9410
:101CE0000D0D14C0802F0E94C815F6CF8D2F0E94B5
:101CF0009F0D002359F080E28D0F883010F0D11134
:101D00002CC0802F0E94BE150E94F8152B2D285044
:101D1000330B2430310520F40E94920B0E94C10243
:101D2000EE2009F48EC10E94891580FD8AC1F6015A
:101D300012820E9483150E941014C6010E94421054
:101D40000E948315DF91CF911F910F91FF90EF902B
:101D5000DF90CF90BF900C943114802F0E94CE154D
:101D6000D3CF2C2F2F70F22EC07FC03219F0F294F7
:101D700080EFF822DD2369F0D13049F1112391F190
:101D8000002351F1F601858180FFA8CF8F708583F4
:101D900023C0112381F0011106C00E94DB158F2999
:101DA0000E94140EB3CF0130C1F70E94DB158F29BA
:101DB0000E94E115ABCF011106C00E94EE158F2DD8
:101DC0000E941B0EA3CF013009F4A0CFF6CF112340
:101DD00029F0063008F09ACF8F2DE2CF053008F0B9
:101DE00095CFEDCF002359F3D93349F4FFEF27EE18
:101DF00033E0F15020403040E1F700C000008D2F6B
:101E00000E949F0D83CF8C2F86958695837069F0F5
:101E1000813009F07BCF8D2F9C2F9370111102C060
:101E200090E080E00E94CD0B71CF8D2F9C2F93709E
:101E3000111102C090E080E00E94B70B67CF8D2F98
:101E4000112329F00E9478060E944B075FCF0E9461
:101E5000D206FACF8C2F837009F041C0111156CFF2
:101E60004D2F429546954770440F440F0D2F0F702C
:101E700010E030E020E0042E04C0000F111F221FEC
:101E8000331F0A94D2F760E070E0CB01D4FF0FC09B
:101E90006FE070E080E090E004C0660F771F881F5D
:101EA000991F4A95D2F76095709580959095C69543
:101EB000C695C370602B712B822B932BC23049F0D7
:101EC00058F4C13019F00E94C21320CF0E94B01301
:101ED0001DCF0E94D4131ACF0E94AE1317CF869540
:101EE000112311F08C2F8170882309F40FCF4D2F0F
:101EF000429546954770440F440F0D2F0F7010E028
:101F000030E020E0042E04C0000F111F221F331FF9
:101F10000A94D2F760E070E0CB01D4FF0FC06FE00D
:101F200070E080E090E004C0660F771F881F991F63
:101F30004A95D2F76095709580959095C695C6950F
:101F4000C370602B712B822B932BC23049F058F455
:101F5000C13019F00E948714D9CE0E947514D6CED4
:101F60000E949914D3CE0E94EA13D0CECF701123D1
:101F700029F08C2F0E9410148D2F12CF8D2F0E94CC
:101F80001B0E8C2F0E943114C1CED23F89F160F418
:101F9000D03FC9F0D13F29F1112309F442C001110A
:101FA0009DCE8C2F8F7121C0D33F39F1D43FA1F743
:101FB000112369F1CF718C2F0E94101463E08C2FD4
:101FC0000E942E16A3CE112341F0053008F09ECEBC
:101FD0008C2F8F710E94541499CE063008F096CE43
:101FE000F7CF8C2F8F71112369F20E9410148ECEBF
:101FF0008C2F8F711123C9F3C5CF112329F08C2F9A
:102000008F710E94FB1382CE0E94F6137FCE81E077
:102010000E944916023008F479CE82E00E944916E7
:1020200075CE002359F0D93309F0E9CE8FEF97EE42
:10203000E3E081509040E040E1F7DFCE8C2F8F71DC
:10204000A1CFDF91CF911F910F91FF90EF90DF9083
:10205000CF90BF9008950F931F93CF93DF93EC0120
:10206000688179818A810E944B158C010E94AB1492
:102070000E94AD13B801CE01DF91CF911F910F9156
:102080000C94220ECF93DF93EC018B819C81892BE2
:1020900029F08881998189238F3F59F4DF91CF916D
:1020A0000895CE010E942B10CE01DF91CF910C94A8
:1020B0004702CE010E9468028111F3CF0E948D1564
:1020C000882361F38A81882349F382E0DF91CF91ED
:1020D0000C944916882321F00E94C8150C94F81519
:1020E0000895882321F00E94CE150C94F8150895C8
:1020F00090E080E00E94B70B90E080E00E94CD0B62
:102100000E94D5150E94D8150E94F8150E947208E9
:102110000C944B070E947D150C9478100E94C515F5
:102120000C948A10E92FE295EF70E250EE3070F4D3
:10213000F0E0E557F04E0C94211F803F19F020F499
:10214000883E20F481E00895843FE1F380E0089523
:10215000883EC0F3813FD1F7F5CF93FB882780F904
:1021600008950E9441150C949210CF93DF9300D0F4
:1021700000D00F92CDB7DEB70F900F900F900F9059
:102180000F90DF91CF910895CF93DF9300D000D0CF
:1021900000D0CDB7DEB726960FB6F894DEBF0FBEDF
:1021A000CDBFDF91CF9108951F93CF93DF93C0915F
:1021B000D10116E08091D2018C1304C0DF91CF9140
:1021C0001F910895D0E01C9FF0011D9FF00D112478
:1021D000ED52FE4F408151816281738184819581EE
:1021E0000E94C4102196C770E5CF40910302509120
:1021F000040260910502709106028091070290919D
:1022000008020C94C4101F93CF93DF9380910802AF
:10221000807FA9F480910502882389F08091D10103
:10222000C091D2016091030270910402A091060254
:10223000B0910702D62FD72316E0C81304C0DF9150
:10224000CF911F91089590E0109711F0DF3F19F49E
:1022500001968770F2CF189F9001199F300D1124BD
:10226000F901ED52FE4F41814713F2CF40814613F1
:10227000EFCF42814111ECCF438154814A1B5B0B6C
:10228000483C510528F7809108028F708061809347
:102290000802F901E852FE4F80818F7080618083CF
:1022A00083E092E00E944210DF91CF911F910C9445
:1022B000D410AF92BF92CF92DF92EF92FF920F9322
:1022C0001F93CF93DF93CDB7DEB761970FB6F89426
:1022D000DEBF0FBECDBF8C0185E0F801DE011D968B
:1022E00001900D928A95E1F7F80140815181E280D9
:1022F00083E0C82E82E0D82E60910602709107021A
:102300006115710509F461C19091030220910402E5
:10231000892F82238F3F09F458C1A380B480F090A5
:102320000502F501E61BF70BFF2009F4FCC08091C4
:102330000802382F307FE83CF10508F0B2C03111B7
:1023400079C0FE2C251323C0941321C0E1101FC0B7
:102350008F708061809308020E94F510C6010E9470
:10236000421080910802F80185838F2D61960FB687
:10237000F894DEBF0FBECDBFDF91CF911F910F91BB
:10238000FF90EF90DF90CF90BF90AF900895AB2873
:1023900029F0842F85238F3F09F033C180E0F82F87
:1023A000F170DF2E80FF3CC08091D1012091D201DD
:1023B00036E0821315C04D875E878D859E850E940D
:1023C0004115292F22952F702230F0F0243018F576
:1023D0009F70F1F0F8019581907FD1F4D12C1EC04F
:1023E00090E0389FF001399FF00D1124ED52FE4F1F
:1023F0006181651306C06081641303C062816E1140
:102400000FC001968770D5CF9F7011F0882331F3EC
:10241000805E883018F3C8010E944210FD2CA5CFC1
:10242000EE2009F4A2CF8091080281608093080217
:10243000F12C9BCF251306C0941304C0F801EE20A5
:1024400009F48DC04D875E878D859E850E94B110F1
:10245000882319F1EE2009F180910802803270F092
:10246000209103023091040238872F831986BB869E
:10247000AA868C87CE0107960E94421086E0F8015A
:10248000A3E0B2E001900D928A95E1F70E9403115A
:102490000E94F510FF24F39468CFC8010E944210F7
:1024A000F9CF311113C07A2DB98AA88A6E2D898986
:1024B0000E94B51083E092E00E94421086E0F6018F
:1024C00011928A95E9F70E94F510B2CF25130FC03B
:1024D00094130DC0E1100BC0F8018583C8010E9460
:1024E000421086E0F60111928A95E9F73ECF4D87BA
:1024F0005E878D859E850E94B110882371F2EE2043
:1025000061F280910802803208F4B8CF2091030272
:10251000309104023A8329831B82BD82AC828E8370
:10252000CE010196A9CFE83CF10508F041C0FE2C90
:10253000EE2009F4B2CF25132AC0941328C080914D
:10254000080280FD1BC0982F907FC1F0F8018583A1
:10255000903F31F0982F907F905F8F70892B85830B
:10256000C8010E94421086E0F801A3E0B2E00190A9
:102570000D928A95E1F70E94F510F7CE86E0F801FA
:10258000A3E0B2E001900D928A95E1F7EECE4D877F
:102590005E878D859E850E94B11081116FCF8091DD
:1025A0000802816080930802C8010E944210DDCEBB
:1025B0007A2DB98AA88A6E2D89890E94B51086E085
:1025C000F60111928A95E9F7D6CFEE2009F465CF8E
:1025D0004D875E878D859E850E94B110F82E8823D9
:1025E00009F45BCF86E0F801A3E0B2E001900D9220
:1025F0008A95E1F783E092E00E94080D0E940311A2
:10260000BACF81E08E25CBCE1F93CF93DF93CDB78A
:10261000DEB72C970FB6F894DEBF0FBECDBF4F8349
:10262000588769877A878B879C87CE0107960E9497
:102630005911882369F08A859B85892B39F04F8150
:102640005885842F85238F3F09F071C016E05FC045
:1026500086E0FE013796DE01119601900D928A9573
:10266000E1F78A859B85892B89F38F81988589235A
:102670008F3F61F32091D20130E0C901019687704C
:1026800099274091D1014817190671F40E948E10C4
:102690001092D2011092D10186E0E3E0F2E0DF0176
:1026A0001D928A95E9F7D2CF96E0929FD001939F31
:1026B000B00D1124AD52BE4FFE01319601900D9226
:1026C0009A95E1F78093D2010E94D410BFCF819FE9
:1026D000C00111248D529E4F0E9459118823E9F0A8
:1026E000E091D1011E9FF0011124ED52FE4F408177
:1026F000518162817381848195810E94C41080918F
:10270000D10190E00196877099278093D101809143
:10271000D1019091D2018913DACF2C960FB6F8949B
:10272000DEBF0FBECDBFDF91CF911F9108956985A8
:102730007A858B859C850E94C41088CF08950C945F
:102740009E130E949F1360931C0270931D0280933E
:102750001E0290931F020C94781008950C94A113FC
:102760000F931F9300911C0210911D0220911E02D5
:1027700030911F02602B712B822B932B1F910F9195
:102780000C94A1130F931F9300911C0210911D0232
:1027900020911E0230911F02602371238223932314
:1027A0001F910F910C94A1130F931F9300911C0282
:1027B00010911D0220911E0230911F026027712787
:1027C000822793271F910F910C94A1130C949E13B1
:1027D0000C94E6130E94E813609318027093190298
:1027E00080931A0290931B020C94781060E070E0C2
:1027F000CB010C94EA130F931F9341E050E060E08B
:1028000070E08A019B0104C0000F111F221F331FBB
:102810008A95D2F7C901B8011F910F910C94EA1360
:102820000F931F9341E050E060E070E004C0440F5C
:10283000551F661F771F8A95D2F7809118029091D5
:102840001902A0911A02B0911B028A019B01082B68
:10285000192B2A2B3B2BC901B8011F910F910C9406
:10286000EA130F931F9341E050E060E070E004C072
:10287000440F551F661F771F8A95D2F7CB01BA0107
:1028800060957095809590950091180210911902AD
:1028900020911A0230911B0260237123822393231B
:1028A0001F910F910C94EA130F931F9341E050E096
:1028B00060E070E004C0440F551F661F771F8A95C3
:1028C000D2F78091180290911902A0911A02B0914A
:1028D0001B028A019B01082719272A273B27C901C8
:1028E000B8011F910F910C94EA130F931F9300915D
:1028F00018021091190220911A0230911B02602BCC
:10290000712B822B932B1F910F910C94EA130F9331
:102910001F93009118021091190220911A02309110
:102920001B0260237123822393231F910F910C9428
:10293000EA130F931F93009118021091190220912E
:102940001A0230911B0260277127822793271F915B
:102950000F910C94EA130895990F990F890F982FEE
:10296000977041E001C0440F9A95EAF786958695E5
:10297000869595E0899FF0011124E75FFD4F30E0D7
:1029800020E070E05191DF011197CB01022E02C0CF
:10299000969587950A94E2F781708195852784231F
:1029A00085278C932F5F3F4F2530310559F70895C8
:1029B000990F990F890F982F977086958695869510
:1029C00025E0829FF0011124E75FFD4F50E040E0D9
:1029D00080E0219130E0092E02C0369527950A94B7
:1029E000E2F721703327042E01C0220F0A94EAF780
:1029F000822B4F5F5F4F4530510559F70895BF92C5
:102A0000CF92DF92EF92FF920F931F93CF93DF93BA
:102A10008C01C0901802D0901902E0901A02F09038
:102A20001B0280911C0290911D02A0911E02B09188
:102A30001F02C82AD92AEA2AFB2ACFE1D0E0BC2EFD
:102A4000D701C6010C2E04C0B695A795979587951A
:102A50000A94D2F780FD0EC0219788F7B12C8B2DF8
:102A6000DF91CF911F910F91FF90EF90DF90CF906A
:102A7000BF900895B8018C2F0E94DD02019761F389
:102A8000EECFCF93DF93EC010E94FF14BE01DF91E4
:102A9000CF910C94DD021F93CF93DF93EB019091C4
:102AA000D001992331F0CB01DF91CF911F910C948C
:102AB0004115882379F0CB010E94FF14182F682F4D
:102AC000CE010E94AC14BE01812FDF91CF911F91E6
:102AD0000C94DD02CB010E94D814182FF4CF682F7C
:102AE00080910801909109010C946117682F8091E1
:102AF0000801909109010C9463178091080190914D
:102B000009010C946517809120028595859585951E
:102B10000895809120028770089590912002977007
:102B200081E009F480E0089590913A0292FB222717
:102B300020F9281751F080FB92F990933A02809186
:102B4000390290913A020C948E16089580913A02BF
:102B500082FB882780F991E089270C94941581E005
:102B60000C94941580E00C94941580912C02089597
:102B700090912C02892B80932C020895809590913E
:102B80002C02982390932C02089510922C02089501
:102B900090912B02892B80932B0208958095909120
:102BA0002B02982390932B02089510922B020895E4
:102BB00010922A02089580912102089508950C949C
:102BC000DE1590913A0292FD08C09091210298176B
:102BD00021F0809321020C94DF1508958091210249
:102BE000882329F01092210280E00C94DF150895CB
:102BF000E0910801F091090180912C028083E0911D
:102C00000801F0910901808190912B02892B80832A
:102C1000E0910801F0910901808190912A02892BAD
:102C2000808390912102992381F0E0910801F09135
:102C300009018081892B808380910801909109018D
:102C40000E94191781110E94EE1580910801909140
:102C500009010C949E0B08950C942B1690913A0246
:102C600092FD10C098E0899F90011124622B60931F
:102C700020020E94101480912002859585958595EB
:102C80000C942C160C9410141092200280E00C94DA
:102C90002C16909120028095892380932002282F62
:102CA000277039F4282F082E000C330B92171306C7
:102CB00021F490913A0292FF07C0859585958595FC
:102CC0000E9431140C944416089580E008956FEF2B
:102CD0007FEF90E080E00C94671F90E080E00E941E
:102CE000431F21E08A3E9E4F09F020E0822F089585
:102CF00082E090E00C943B1F83E090E00C943B1F3B
:102D0000CF9384E090E00E943B1FC82F82E290E0C6
:102D10000E943B1F982F8C2FCF910895CF93C92FDE
:102D2000682F84E090E00E94491F6C2F82E290E0BF
:102D3000CF910C94491FAB01BC018FE090E00C9443
:102D40005B1FAB01BC0183E190E00C945B1F60E072
:102D500070E0CB010C94A11660E070E0CB010E9402
:102D60009B160C94A7166AEE7EEF90E080E00E941E
:102D7000671F60E082E090E00E94491F60E083E00E
:102D800090E00E94491F10921C0210921D021092A6
:102D90001E0210921F0260E084E090E00E94491F32
:102DA00060E082E290E00E94491F60E085E090E0F0
:102DB0000E94491F60E086E090E00E94491F6FEF8B
:102DC00087E090E00E94491F40E050E0BA0188E0AF
:102DD00090E00E945B1F60E08DE090E00E94491F40
:102DE00040E050E0BA0188E190E00E945B1F60E0A3
:102DF00087E190E00E94491F40E050E0BA018CE179
:102E000090E00E945B1F70E060E080E290E00E9432
:102E1000671F40E050E0BA0188E190E00E945B1F2C
:102E20000C94AC160C94B316682F8EE090E00C94C2
:102E3000491F9C012E5F3F4FAC01485F5F4F80E010
:102E40002417350709F40895F90191919F019923F9
:102E5000B9F38F5FF5CF662349F0FC0132960896EF
:102E60002191261729F0E817F907D1F780E0089596
:102E700081E008959C01FC0132969FEF80E0419132
:102E8000461751F09F3F19F4411101C0982F8F5FF1
:102E90008630A9F79F3F09F40895290F311D97FD4A
:102EA0003A95F90162830895FC01329608962191C2
:102EB000261303C0DF0111971C92E817F907B9F731
:102EC00008950C943A170C945417029626E0FC01CE
:102ED00011922A95E9F70895089508950C946D17B5
:102EE00080914F02843049F10E946E1780E00E9469
:102EF000C10210922E0288E190E020E40FB6F8940F
:102F0000A895809360000FBE2093600083B7817FF7
:102F1000846083BF83B7816083BF7894889583B7CB
:102F20008E7F83BF0FB6F894A8958091600088616A
:102F300080936000109260000FBE08950895CF93B3
:102F40000E946C170E9447050E949E17C0E08C2FBC
:102F50000E94F304811105C0CF5FC630C1F7CF9145
:102F6000089581E0FCCF08950C94B3170E948E1051
:102F70000E94920B0E94C1020C94B4171F921FB6BC
:102F80001F9211248F939F93AF93BF9380912E0232
:102F9000811113C08091470290914802A09149028B
:102FA000B0914A024196A11DB11D809347029093B2
:102FB0004802A0934902B0934A02BF91AF919F91FA
:102FC0008F911F901FBE1F90189582E084BD93E0E3
:102FD00095BD9AEF97BD80936E0008952FB7F89432
:102FE0008091470290914802A0914902B0914A0213
:102FF0002FBF08952FB7F89460914702709148024F
:103000008091490290914A022FBF08959C014FB7C9
:10301000F8948091470290914802A0914902B091A2
:103020004A024FBF821B930B089578941F921FB6DC
:103030001F9211248F939F93AF93BF938091470268
:1030400090914802A0914902B0914A020196A11DB7
:10305000B11D8093470290934802A0934902B09318
:103060004A02BF91AF919F918F911F901FBE1F90F9
:10307000189581E08093E00080E28093D800109260
:10308000C9008FE19EE40197F1F700C0000087E0DE
:1030900090EBDC018093580290935902A0935A025E
:1030A000B0935B0288E19CE00FB6F894A8958093FA
:1030B00060000FBE90936000FFCF909399018093C2
:1030C00098010895809137020895CF93DF9300D03F
:1030D0000F92CDB7DEB790914F02943019F58983E6
:1030E0007B836A8382E08093E9008FEF9091E80010
:1030F000815095FD06C095ED9A95F1F7000081117C
:10310000F5CF8091E80085FF0DC050E040E063E01E
:1031100070E0CE0101960E947C1A8091E8008E77C3
:103120008093E8000F900F900F90DF91CF9108955A
:10313000BC0184E00C946518BC0183E00C94651814
:103140009C0182E08093E9009FEF8091E80091501C
:1031500085FD06C085ED8A95F1F700009111F5CF48
:103160008091E80085FF0CC050E040E066E070E030
:10317000C9010E947C1A8091E8008E778093E80054
:103180000895CF93DF93EC0181E08093E9008FEF06
:103190009091E800815095FD06C095ED9A95F1F764
:1031A00000008111F5CF8091E80085FF14C050E048
:1031B00040E068E070E0CE010E947C1A8091E80057
:1031C0008E778093E80088E0FE01AFE2B2E00190E4
:1031D0000D928A95E1F7DF91CF91089580914E028B
:1031E000811109C00E940C1C0E94691C8091E200A0
:1031F00084608093E200089510924E02089508952D
:103200000895089542E061EC81E00E94881B42E24B
:1032100061EC82E00C94881B80915102833009F4A8
:103220005FC030F48130C1F1823009F49BC0089551
:103230008A3009F487C08B3009F46DC0893009F0F9
:103240004EC080915002813209F049C080915402F1
:1032500090915502029708F042C08091E800877F64
:103260008093E8008091E80082FF35C09091F300E0
:103270008091F200029729F48091F1008B7F8130D8
:1032800021F48091F100809337028091E8008B77E0
:103290008093E8000C94BC1B80915002813AF9F4B1
:1032A0008091E800877F8093E8008091540290919C
:1032B0005502892B61F468E08FE292E070E00E9491
:1032C000CB1A8091E8008B778093E800089560E046
:1032D00090E080E0F3CF80914F028111C3CF089539
:1032E00080915002813AD9F7809154029091550211
:1032F000892BA9F78091E800877F8093E80080916F
:10330000E80080FFFCCF809114018093F100809150
:10331000E8008E77BDCF80915002813201F7809115
:10332000540290915502892BD1F68091E800877F55
:103330008093E8000E94BC1B80915202809314018C
:103340000C948E1080915002813249F68091E800F1
:10335000877F8093E8000E94BC1B8091530280937A
:103360003802089580915002813A09F0B8CF8091D7
:10337000E800877F8093E8008091E80080FFFCCF21
:1033800080913802C2CF84B7877F84BF0FB6F8948C
:10339000A895809160008861809360001092600021
:1033A0000FBE80E890E00FB6F89480936100909390
:1033B00061000FBE0E94170C0E940C1C0E94691C29
:1033C0008091E20084608093E20078940E94F21E73
:1033D0000E942B0C8AE091E00E948D0B80914F029D
:1033E000853099F00E94330C0E94270CF7CF0E9481
:1033F000701780914D02882341F00E949F17882307
:1034000021F00E94661A0E948E1080914F02853032
:1034100071F30E94B617E6CF0C940E1A292F3327AA
:103420002330310519F168F42130310509F444C025
:103430002230310509F445C090E080E030E020E022
:1034400025C02132310549F122323105A9F780E446
:1034500090E020E232E061157105C1F08BE790E069
:1034600025EA31E06130710589F0E6CF9927813096
:10347000910581F0009729F00297F1F6ECE0F1E078
:1034800002C0E4E5F1E0849190E09F01FA0131830C
:1034900020830895E0E2F1E0F6CF89E090E02AE6AB
:1034A00031E06115710591F389E090E023E831E0A6
:1034B0006130710559F3C0CF82E190E023E931E03A
:1034C000E5CF8BE390E028E531E0E0CF80E189BDF6
:1034D00082E189BD09B400FEFDCF8091D8008F7DC7
:1034E0008093D8008091E00082608093E00080911A
:1034F000E00081FDFCCF0895AF92BF92CF92DF92A2
:10350000FF920F931F93CF93DF936C01EB018A011E
:103510000E94DB1BF82E811123C00115110539F023
:10352000F80180819181C81BD90BC80ED91EB12C1E
:10353000A12C2097A9F08091E80085FD22C0809100
:10354000E8008E778093E80001151105A1F0F801DD
:1035500080819181A80EB91EB182A08285E0F82EEB
:103560008F2DDF91CF911F910F91FF90DF90CF9022
:10357000BF90AF9008950E94DB1B8823D1F2F82EF4
:10358000EFCFF60181916F018093F1002197FFEF5A
:10359000AF1ABF0ACECFFC0180915602909157021C
:1035A00086179707A0F06115710529F49091E8003E
:1035B0009E779093E80090E06115710551F49111A8
:1035C00008C08091E80082FF34C080E00895BC010B
:1035D000F2CF80914F028823C1F18530C1F18091F3
:1035E000E80083FD30C08091E80082FDEACF809141
:1035F000E80080FFE1CF8091F3002091F200382FA6
:103600006115710519F02830310558F091E0283026
:10361000310509F090E02091E8002E772093E80032
:10362000CBCF81918093F100615071092F5F3F4FA3
:10363000E7CF80914F02882341F0853041F080919F
:10364000E80083FFBECF81E0089582E0089583E023
:103650000895FC01809156029091570286179707B2
:10366000A0F06115710529F48091E8008E778093B0
:10367000E80090E06115710551F4911108C0809146
:10368000E80082FF35C080E00895BC01F2CF809150
:103690004F028823C9F18530C9F18091E80083FD8C
:1036A00031C08091E80082FDEACF8091E80080FF80
:1036B000E1CF8091F3002091F200382F6115710560
:1036C00019F02830310558F091E02830310509F023
:1036D00090E08091E8008E778093E800CBCF8491D2
:1036E0008093F1003196615071092F5F3F4FE6CF13
:1036F00080914F02882341F0853041F08091E800AD
:1037000083FFBDCF81E0089582E0089583E00895AE
:10371000982F973028F08F708093E90081E008950A
:103720009093E900242F762F50E0981731F0709194
:10373000EC002091ED005091F00021FD02C09F5F50
:10374000E8CF3091EB003E7F3093EB003091ED00FD
:103750003D7F3093ED003091EB0031603093EB0012
:103760007093EC002093ED005093F0002091EE0058
:1037700027FDE5CF80E008958091500287FF13C0B8
:103780008091E80082FF06C08091E8008B778093EB
:10379000E80004C080914F028111F2CF089580911A
:1037A0004F028823D9F38091E80080FFF8CF809101
:1037B000E8008E77ECCF2091E4003091E50095E6AB
:1037C000A9012091EC00822F817020FF06C080911A
:1037D000E80080FF06C080E008952091E80022FD07
:1037E0001AC080914F02882389F0853089F080913A
:1037F000EB0085FD0FC02091E4003091E5004217F9
:103800005307F9F29150E1F684E0089582E00895BB
:1038100083E0089581E008950E947A1C0E94821C32
:10382000E0EEF0E0808181608083E8EDF0E080816F
:103830008F77808319BCA7EDB0E08C918E7F8C933D
:1038400080818F7E808310924E0208950F931F9384
:10385000CF93DF930E947A1C0E94821CC8EDD0E0B7
:1038600088818F77888388818068888388818F7D2D
:10387000888319BC10924F0210924B0210924D0295
:1038800010924C0200EE10E0F80180818B7F808363
:1038900088818160888342E060E080E00E94881B2C
:1038A000E1EEF0E080818E7F8083E2EEF0E08081C7
:1038B00081608083808188608083F80180818E7F31
:1038C0008083888180618883DF91CF911F910F91E0
:1038D0000895E8EDF0E080818F7E8083E7EDF0E0F1
:1038E00080818160808384E082BF81E080934E028A
:1038F0000C94261CE8EDF0E080818E7F808310928E
:10390000E20008951092DA001092E10008951F92EB
:103910000F920FB60F9211242F933F934F935F9303
:103920006F937F938F939F93AF93BF93EF93FF9387
:103930008091E10082FF0BC08091E20082FF07C00E
:103940008091E1008B7F8093E1000E94F11E8091C5
:10395000DA0080FF19C08091D80080FF15C08091E7
:10396000DA008E7F8093DA008091D90080FF96C0C4
:1039700080E189BD82E189BD09B400FEFDCF81E00F
:1039800080934F020E94EE188091E10080FF19C0E1
:103990008091E20080FF15C08091E2008E7F8093CD
:1039A000E2008091E20080618093E2008091D80083
:1039B00080628093D80019BC85E080934F020E94FA
:1039C00000198091E10084FF2BC08091E20084FF08
:1039D00027C080E189BD82E189BD89B5982F9170AA
:1039E00080FFFBCF8091D8008F7D8093D80080919D
:1039F000E1008F7E8093E1008091E2008F7E8093D2
:103A0000E2008091E20081608093E20080914B02AD
:103A1000882309F449C084E080934F020E94011971
:103A20008091E10083FF29C08091E20083FF25C0DF
:103A30008091E100877F8093E10082E080934F02D4
:103A400010924B028091E1008E7F8093E100809183
:103A5000E2008E7F8093E2008091E200806180939B
:103A6000E20042E060E080E00E94881B8091F0006C
:103A700088608093F0000E94FF18FF91EF91BF9142
:103A8000AF919F918F917F916F915F914F913F91F6
:103A90002F910F900FBE0F901F90189519BC109288
:103AA0004F020E94FC1870CF8091E30087FD93E0E5
:103AB00090934F02B3CF1F920F920FB60F92112423
:103AC0002F933F934F935F936F937F938F939F9326
:103AD000AF93BF93CF93DF93EF93FF93D091E90020
:103AE000DF708091EC00C82FC17080FDC0E810929B
:103AF000E9008091F000877F8093F00078940E9425
:103B00009F1D1092E9008091F00088608093F00082
:103B1000CD2BCF70C093E900FF91EF91DF91CF9152
:103B2000BF91AF919F918F917F916F915F914F91D5
:103B30003F912F910F900FBE0F901F9018951F93DC
:103B4000CF93DF93CDB7DEB7AA970FB6F894DEBF59
:103B50000FBECDBF80E592E02091F100FC012193E2
:103B6000CF01F2E088359F07B9F70E940C198091C8
:103B7000E80083FF1EC180915002909151029A305B
:103B800008F017C1E92FF0E0E756F04E0C94211F22
:103B9000803899F0823809F00CC1809154028F70FE
:103BA000873008F006C18093E9008091EB0085FB27
:103BB000882780F91092E90006C080914C0290910C
:103BC0004D02911182609091E800977F9093E800F8
:103BD0008093F1001092F1008091E8008E77E5C0AB
:103BE000882309F4D3C0823009F0E3C080915202E7
:103BF0008111D6C0809154028F702FEF280F26308C
:103C000008F0D7C08093E9002091EB0020FFC8C0E6
:103C1000933031F48091EB0080628093EB00C0C060
:103C20009091EB0090619093EB0021E030E001C0B7
:103C3000220F8A95EAF72093EA001092EA00809119
:103C4000EB008860EACF8111B4C0109152021F7757
:103C50008091E3008078812B8093E3008091E800DD
:103C6000877F8093E8000E94BC1B8091E80080FF62
:103C7000FCCF8091E30080688093E30082E0111123
:103C800083E080934F0295C08058823008F091C045
:103C900080915202909153028C3D23E09207A1F54E
:103CA00083E08A838AE289834FB7F894DE01139612
:103CB00020E03EE051E2E32FF0E050935700E49122
:103CC00020FF03C0E295EF703F5FEF708E2F90E012
:103CD000EA30C0F0C7968D939D932F5F243159F73A
:103CE0004FBF8091E800877F8093E8006AE270E030
:103CF000CE0101960E94CB1A8091E8008B778093C9
:103D0000E80057C0C096E7CF609154027091550209
:103D1000AE014F5F5F4F0E940C1ABC01892B09F462
:103D200048C09091E800977F9093E80089819A813C
:103D30000E94291BE1CF8038E1F58091E800877F60
:103D40008093E80080914B028093F10045CF811170
:103D500030C090915202923060F58091E800877FE8
:103D60008093E80090934B020E94BC1B80914B0211
:103D7000882311F084E005C08091E30087FDFACF2D
:103D800081E080934F020E94021913C08091520279
:103D9000813079F481E0933009F080E080934D0226
:103DA0001092E9008091E800877F8093E8000E94EC
:103DB000BC1B8091E80083FF0AC08091E800877FE8
:103DC0008093E8008091EB0080628093EB00AA96DC
:103DD0000FB6F894DEBF0FBECDBFDF91CF911F911C
:103DE00008950895CF9380914F028823A1F0C09148
:103DF000E900CF709091EC00892F817090FD80E8F0
:103E0000C82B1092E9008091E80083FD0E949F1D5D
:103E1000CF70C093E900CF91089597FB072E16F459
:103E2000009407D077FD09D00E94271F07FC05D01A
:103E30003EF4909581959F4F0895709561957F4FC1
:103E40000895EE0FFF1F0590F491E02D0994AA1B31
:103E5000BB1B51E107C0AA1FBB1FA617B70710F075
:103E6000A61BB70B881F991F5A95A9F780959095A7
:103E7000BC01CD010895F999FECF92BD81BDF89A9C
:103E8000992780B50895A8E1B0E042E050E00C9495
:103E90006F1F262FF999FECF92BD81BDF89A019729
:103EA00000B4021639F01FBA20BD0FB6F894FA9A82
:103EB000F99A0FBE08950396272F0E944A1F0E9469
:103EC000491F252F0E944A1F242F0C944A1F019638
:103ED000272F0E944A1F0C94491FDC01CB01FC01D3
:103EE000F999FECF06C0F2BDE1BDF89A319600B453
:103EF0000D9241505040B8F70895F894FFCF590EF5
:103F0000590EB10EB10E030F1F0F860E860E2A0F2B
:103F1000B60FC50FC50F9D109D10A610A610A810B6
:103F2000A610A610A6109D109D10AD10A610A610EC
:103F3000AD10C81DF01DD91EF01DD91E231E441E34
:063F4000D91E9B1EA71E06
:103F46002808641E140A321E22026218C118A0181C
:103F56009C18981801E200E900EA00B500B600B71F
:103F660000CD008301CC008A019201940121022335
:103F76000224022502260227022A02B300B4006F99
:103F8600007000818283959392F737943536666781
:103F960000FF0100010000FFFF0000010001FF001B
:103FA60097C6F134F0F4E200E900EA00B500B60085
:103FB600B700CD008301CC008A0192019401210251
:103FC600230224022502260227022A02B300B40095
:083FD6006F007000818283007E
:00000001FF
