:100000000C94BA020C9401030C9401030C940103A8
:100010000C9401030C9401030C9401030C94010350
:100020000C9401030C9401030C94DF200C949B208E
:100030000C9455250C9401030C9401030C940103BA
:100040000C9401030C9401030C9401030C94010320
:100050000C9401030C9431250C9401030C940103BE
:100060000C9401030C9401030C9401030C94010300
:100070000C9401030C9401030C9401030C940103F0
:100080000C9401030C9401030C9401030C940103E0
:100090000C9401030C9401030C9401030C940103D0
:1000A0000C9401030C9401030C9401030000000064
:1000B0000000000000000000000000000000000040
:1000C0000000000000000000000000000000000030
:1000D0007E0F00D4FFFFFFC7000000780000000083
:1000E000000000002A2B2800000000000000000093
:1000F0000000000000000029000000002C1E342039
:10010000212224342627252E362D3738271E1F205E
:100110002122232425263333362E37381F040506A3
:100120000708090A0B0C0D0E0F10111213141516E7
:100130001718191A1B1C1D2F3130232D35040506E5
:100140000708090A0B0C0D0E0F10111213141516C7
:100150001718191A1B1C1D2F3130354C00010101D5
:100160000101010101010202020202020202020374
:100170000303030303030304040404040404050544
:100180000505050606060606070707070708080807
:1001900008090909090A0A0A0B0B0B0C0C0C0D0DB6
:1001A0000D0E0E0E0F0F0F1010111111121213134E
:1001B0001414151516161717181819191A1A1B1BC7
:1001C0001C1D1D1E1E1F2020212222232424252623
:1001D00026272829292A2B2C2D2D2E2F303132325B
:1001E000333435363738393A3B3C3D3E3F40414267
:1001F000434445464748494A4C4D4E4F505153544D
:10020000555658595A5B5D5E5F6162646566686900
:100210006B6C6D6F7072737577787A7B7D7E808280
:10022000838587888A8C8E8F91939596989A9C9EC9
:10023000A0A2A3A5A7A9ABADAFB1B3B5B7BABCBED9
:10024000C0C2C4C6C9CBCDCFD1D4D6D8DBDDDFE2A6
:10025000E4E7E9EBEEF0F3F5F8FAFDFFFFAA7F55CE
:10026000402223252628292A2C2D2F3032333536BB
:10027000383A3B3D3E4042434547494A4C4E505137
:10028000535557595A5C5E6062646668696B6D6F5E
:1002900071737577797B7D7F81838587898A8C8E61
:1002A00090929496989A9C9E9FA1A3A5A7A8AAAC69
:1002B000AEAFB1B3B4B6B8B9BBBCBEBFC1C2C3C5A3
:1002C000C6C7C9CACBCCCDCED0D1D2D2D3D4D5D645
:1002D000D7D7D8D9D9DADADBDBDBDCDCDCDCDCDD78
:1002E000DDDDDDDCDCDCDCDCDBDBDBDADAD9D9D85C
:1002F000D7D7D6D5D4D3D2D2D1D0CECDCCCBCAC9F4
:10030000C7C6C5C3C2C1BFBEBCBBB9B8B6B4B3B122
:10031000AFAEACAAA8A7A5A3A19F9E9C9A989694BD
:1003200092908E8C8A89878583817F7D7B79777592
:1003300073716F6D6B6968666462605E5C5A595771
:10034000555351504E4C4A4947454342403E3D3B30
:100350003A3836353332302F2D2C2A2928262523BA
:10036000220101E2776E01043230307C0102E301A8
:1003700001510103E300737472010128006D696487
:1003800001012800706C01012800657261010128DB
:1003900000737472010128006A01012800747269F7
:1003A0006D0101280066696C0101280104323030BA
:1003B0007C6D010128006474010128007363616C85
:1003C00065010128006E6F64650101280070657287
:1003D000010128000102E30101510103E3002900AA
:1003E000F300625D6B5D0158655D635D665D5F5D39
:1003F000685D6A5D695D605D0100645D615D025319
:10040000035329000000BA00B6440253B700E000CD
:100410001A015F5D290000004B006C5D03534E0024
:100420002C0027010100005C0000CA5C00000000F5
:10043000CB5C00000000C35C1E0F0500047F3F1F63
:10044000643214643214783C1E1E140A0505010936
:1004500002A10185020901A1000509190129081558
:100460000025019508750181020501093009311542
:1004700081257F95027508810609381581257F95AC
:100480000175088106050C0A38021581257F950142
:1004900075088106C0C005010980A1018503190105
:1004A0002AB700150126B700950175108100C00517
:1004B0000C0901A101850419012AA002150126A039
:1004C00002950175108100C005010906A10105070B
:1004D00019E029E7150025019508750181029501AC
:1004E000750881010507190029FF150026FF0095F1
:1004F0000675088100050819012905950575019102
:1005000002950175039101C009023B00020100A0A0
:10051000FA09040000010301010009211101000191
:100520002240000705810308000A090401000103B5
:10053000000000092111010001227B000705820350
:1005400020000A12011001000000084D5909440161
:1005500000010200010C0359004D00440030003935
:100560000000000A0359004D0044004B0000000445
:100570000309040011241FBECFEFDAE0DEBFCDBFB8
:1005800004B603FE27C080917E0290917F02A09165
:100590008002B09181028730904BA740B04BD1F4DC
:1005A00010927E0210927F021092800210928102BD
:1005B00014BE84B7877F84BF0FB6F894A895809146
:1005C0006000886180936000109260000FBEE0E0E0
:1005D000F8E3099522E0A2E8B1E001C01D92AE3730
:1005E000B207E1F711E0A0E0B1E0E6E3FEE402C00B
:1005F00005900D92A238B107D9F70E94B6210C944C
:10060000E7260C940000E8EDF0E080818E7F808387
:100610001092E2001092DA001092E100A0EEB0E039
:100620008C9181608C9380818F77808319BCA7ED3A
:10063000B0E08C918E7F8C9380818F7E808310922E
:10064000640208952091E4003091E50095E6A90147
:100650002091EC00822F817020FF06C08091E8007D
:1006600080FF06C080E008952091E80022FD1AC0B6
:1006700080917102882389F0853089F08091EB00A8
:1006800085FD0FC02091E4003091E500421753072B
:10069000F9F29150E1F684E0089582E0089583E054
:1006A000089581E00895EF92FF920F931F93CF93E7
:1006B0007C018B010E942203C82F811117C08091F9
:1006C000E80085FD0BC08091E8008E778093E800FC
:1006D0000E942203882399F3C82F08C0F701819153
:1006E0007F018093F1000150110949F78C2FCF91C0
:1006F0001F910F91FF90EF9008958091730287FFF3
:1007000013C08091E80082FF06C08091E8008B77DB
:100710008093E80004C0809171028111F2CF0895A6
:10072000809171028823D9F38091E80080FFF8CF8F
:100730008091E8008E77ECCF982F9093E900242FDA
:10074000762F50E0891731F07091EC002091ED0088
:100750005091F00021FD07C09F5F973071F78093A3
:10076000E90081E008953091EB003E7F3093EB008B
:100770003091ED003D7F3093ED003091EB00316022
:100780003093EB007093EC002093ED005093F00059
:100790002091EE0027FDE0CF80E00895CF92DF9218
:1007A000EF92FF920F931F93CF93DF93C8EDD0E0AA
:1007B00088818F7E8883E7EDF0E08081816080838F
:1007C00084E082BF81E08093640288818E7F888389
:1007D00002EE10E0F80110821092DA0081EEC82ECD
:1007E000D12CF601108288818F7788838881806878
:1007F000888388818F7D888319BC10927102109242
:1008000072021092700210926F0290EEE92EF12C9B
:10081000F70180818B7F808388818160888342E0BB
:1008200060E080E00E949C03F60180818E7F8083DF
:10083000F801808181608083808188608083F701F6
:1008400080818E7F8083888180618883DF91CF91D2
:100850001F910F91FF90EF90DF90CF900895FC01D2
:100860008091790290917A0286179707A0F061151E
:10087000710529F49091E8009E779093E80090E04C
:100880006115710551F4911108C08091E80082FF53
:1008900034C080E00895BC01F2CF809171028823BA
:1008A000C1F18530C1F18091E80083FD30C08091B5
:1008B000E80082FDEACF8091E80080FFE1CF8091DF
:1008C000F3002091F200382F6115710519F02830DE
:1008D000310558F091E02830310509F090E0209181
:1008E000E8002E772093E800CBCF81918093F10030
:1008F000615071092F5F3F4FE7CF809171028823CC
:1009000041F0853041F08091E80083FFBECF81E067
:10091000089582E0089583E00895089580E00895A1
:100920008091660208959C014FB7F89480913E0231
:1009300090913F02A0914002B09141024FBF821BB3
:10094000930B08952FB7F89480913E0290913F0247
:10095000A0914002B09141022FBF089580912A02D8
:10096000811110922A02089580959091290298236E
:100970009093290208958091290290912802892B51
:1009800090912702892B8093840190912A029923C8
:1009900091F0892B8093840120E086E891E0FC01AE
:1009A0003191CF0131112F5FF1E08C389F07B9F7FA
:1009B00021110E94AE04E0913902F0913A02309781
:1009C00031F00280F381E02D84E891E009940895EC
:1009D000E6E8F1E09191891303C0DF0111971C92C1
:1009E00091E0EC38F907B1F70895A6E8B1E0EFEF30
:1009F00090E02D91821751F0EF3F19F4211101C0C1
:100A0000E92F9F5F9630A9F7EF3F09F408950E2E66
:100A1000000CFF0BEC57FE4F82830895E92FEE0F79
:100A20009E0F890F982F977086958695869525E05D
:100A3000829FF0011124E45EFD4F50E040E080E031
:100A4000219130E0092E02C0369527950A94E2F7ED
:100A500021703327042E01C0220F0A94EAF7822B5B
:100A60004F5F5F4F4530510559F70895E92FEE0F5D
:100A70009E0F890F982F977041E001C0440F9A95FF
:100A8000EAF786958695869595E0899FF001112471
:100A9000E45EFD4F30E020E070E05191DF011197FE
:100AA000CB01022E02C0969587950A94E2F78170D9
:100AB00081958527842385278C932F5F3F4F253091
:100AC000310559F7089580911B029091EA0198131E
:100AD00001C008958F5F8770FACF882321F00E94AC
:100AE000B4040C94BB040895882339F09091290232
:100AF000982B909329020C94BB0408952091DC015B
:100B00003091DD012817390771F09093DD01809352
:100B1000DC01E0913902F0913A02309721F0008433
:100B2000F185E02D099408952091DA013091DB01DF
:100B30002817390771F09093DB018093DA01E09177
:100B40003902F0913A02309721F00680F781E02DCA
:100B500009940895E0913902F0913A02309721F01A
:100B60000190F081E02D099480E00895CF93DF9308
:100B7000EC0181E0898B809129029F81892B8093F0
:100B80002902809128029885892B809328020E944F
:100B9000BB04EA81FB81309739F06C897D89CE01F5
:100BA0000696DF91CF910994DF91CF910895EF924E
:100BB000FF920F931F93CF93DF93EC018A858111EE
:100BC00039C0EB80FC8087E5F81A26E12E9DC00134
:100BD0002F9D900D1124DC01AE51BE4F1496ED9166
:100BE000FC911597309731F054966D917C91885116
:100BF0009E4F099586E18E9D80018F9D100D1124D9
:100C00000E511E4FF80187810E94B404F8018085BF
:100C1000982F9095809128028923809328020E9422
:100C2000BB04188219861B861E821D821092E10168
:100C30001092E001DF91CF911F910F91FF90EF9003
:100C40000895FA01811101C0FB01099480914B02C2
:100C5000982F9E7F29F48170826080934B020895C3
:100C60008635E8F381708465F8CFAF92BF92DF924A
:100C7000EF92FF920F931F93CF93DF93082F162FBE
:100C8000E901E42FF0E0E45AFE4F611110C0E49155
:100C90005E2F4E2F4983E8835A83DF91CF911F91B6
:100CA0000F91FF90EF90DF90BF90AF900895E62EE8
:100CB000F12C4491D42EE42FF0E026E0829FC00175
:100CC00011242FEF30E0B9010E949625802F90E08B
:100CD000880F991F55E5569FD001579FB00D1124DD
:100CE0008A1B9B0B982F990F890F5901AE18BF08CB
:100CF000AE9ED001AF9EB00DBE9EB00D11245B2FF5
:100D0000189F80011124012F11275901A01AB10A3F
:100D1000AE9E8001AF9E100DBE9E100D1124590194
:100D2000A81AB108AE9CC001AF9C900DBE9C900D5E
:100D30001124892F9927281B390B2E9FC0012F9F23
:100D4000900D3E9F900D1124E92F62307105A1F0A6
:100D500050F46115710509F49DCF6130710581F082
:100D6000EB2F512F97CF6430710569F080F066301A
:100D7000710509F48FCFF4CFE42F4B2F592F8ACF71
:100D8000E42F412F87CFEB2F542F492F83CF4B2FA9
:100D90005D2DE12F7FCF0E94A2049C0190915B0208
:100DA00080915C02982B21F03093580220935702D7
:100DB00090915D0280915E02982B21F03093550254
:100DC00020935402E0913902F0913A02309749F0B1
:100DD00082E0809359020480F581E02D89E592E05C
:100DE0000994089590E080E00E94940590E080E0EE
:100DF0000E947E0510922802109227020E94BB04D6
:100E000086E0E9E5F2E0DF011D928A95E9F71092AC
:100E10005602109253021092E3010C94CB06609399
:100E20002F027093300280933102909332020C941F
:100E3000F2060F931F9341E050E060E070E004C0C1
:100E4000440F551F661F771F8A95D2F7CB01BA0151
:100E5000609570958095909500912F0210913002C9
:100E60002091310230913202602371238223932337
:100E70001F910F910C940F07909126028095892362
:100E800080932602282F277039F4282F082E000C73
:100E9000330B9217130621F49091340292FF07C08E
:100EA0008595859585950E941907109226020895CB
:100EB0000F931F9341E050E060E070E004C0440FE6
:100EC000551F661F771F8A95D2F780912F02909148
:100ED0003002A0913102B09132028A019B01082BAD
:100EE000192B2A2B3B2BC901B8011F910F910C9490
:100EF0000F0760932B0270932C0280932D02909326
:100F00002E020C94F20640915B028D3E59F48091C2
:100F10005C0287FF0DC010925C0241110BC0109261
:100F2000560208C08E3E81F480915C0218169CF334
:100F3000442381F080915D0290915E02892B09F03B
:100F40005AC01092530208958F3E49F447FFF0CFE4
:100F500010925B0280915C028111ECCFE0CF803F68
:100F600019F41416ACF3E4CF90915D02893F29F493
:100F70001916F4F610925D02DBCF8A3F19F497FF41
:100F8000D7CFF8CF90915E028B3F29F497FFD0CF57
:100F900010925E02CDCF8C3F19F41916CCF3C8CF56
:100FA0009FE0980F983090F4815F990B21E030E03A
:100FB000B90102C0660F771F8A95E2F7CB018095D1
:100FC00090915A02892380935A02B2CF8D3F31F417
:100FD0008091E3018E7F8093E301AACF8E3F21F4BD
:100FE0008091E3018D7FF7CF8F3F09F0A1CF8091F2
:100FF000E3018B7FF0CF0895882309F452C0823833
:1010000071F40E94AA0581FF4CC089E30E94F50497
:101010000E94BB0489E30E94E8040C94BB0483385B
:1010200059F40E94AA0580FF3CC083E50E94F504A4
:101030000E94BB0483E5EFCF843859F40E94AA05CF
:1010400082FF2FC087E40E94F5040E94BB0487E45E
:10105000E2CF9CEF980F913AF0F290E2980F98301F
:1010600050F4877091E001C0990F8A95EAF7892FB3
:101070000E94B404D2CF9BE5980F933020F490E007
:1010800080E00C94940598E5980F973120F490E057
:1010900080E00C947E058D3E20F00E9483070C9426
:1010A000CB0608958091E30180FD16C081FD16C036
:1010B00082FD16C0809153028823A1F0883280F40B
:1010C00028E0829FC001112468E270E00E94AA25F6
:1010D000862F672B39F0089582E0089584E0089503
:1010E00088E0089581E008958091E30180FD14C0B7
:1010F00081FD14C082FD16C080915602882381F0C4
:10110000843180F422E3829FC001112464E170E005
:101110000E94AA25862F08958CE0089589E10895FC
:1011200085E0089582E308958D3E31F40E947408AD
:10113000819580935C0208958E3E19F40E94740894
:10114000F8CF8F3E31F40E947408819580935B0242
:101150000895803F19F40E947408F8CF893F29F45C
:101160000E94520880935D0208958A3F21F40E94F4
:1011700052088195F7CF8B3F31F40E945208819538
:1011800080935E0208958C3F19F40E945208F8CFB4
:101190009FE0980F983070F4815F990B21E030E068
:1011A00001C0220F8A95EAF780915A02822B809320
:1011B0005A0208958D3F31F48091E301816080935C
:1011C000E30108958E3F21F48091E3018260F7CF1F
:1011D0008F3FB9F78091E3018460F1CFF894E82F55
:1011E000E295EF70F0E031A1282F2F7081E090E0C0
:1011F00001C0880F2A95EAF7982F9095932391A321
:1012000092A1892B82A3789408959091330292FF42
:1012100006C0282F28712830F9F4877F846093FF57
:1012200006C0282F28712831F1F4877E846120912F
:10123000340220FF06C0382F38713830D9F4877F48
:10124000816021FF06C0282F28712831D1F4877EC4
:10125000816194FD877E0895282F24712430F9F64A
:101260008B7F8860DCCF282F2471243101F78B7E9F
:101270008861DDCF382F3171313019F78E7F88606A
:10128000E0CF282F2171213121F78E7E8861E1CFB7
:10129000CF93DF93972F70E023E0929F600D711D35
:1012A0001124FB0139E0839FE00DF11D1124EE0FA5
:1012B000FF1FE252FC4FC591D491CE01C238D10537
:1012C000B9F1E8F5C133D10509F499C050F5C93237
:1012D000D10509F48DC0CA32D10509F497C0C115F2
:1012E00021E5D20708F0BFC0C11530E5D30708F0EB
:1012F00016C1C83ED10508F09DC0C13ED10568F5B4
:10130000C83AD10508F089C0C53AD10508F0FFC038
:10131000C130D10511F1209709F443C02497E8F4B6
:1013200040C0C533D10509F45CC0C933D105B9F655
:1013300020913302237089F080EE90E00EC0C33E0E
:10134000D10591F168F4C03ED105F9F0C23ED10556
:1013500031F62091330222FD20C0DF91CF91089514
:10136000C63ED10561F1C73ED10581F1C43ED1052C
:1013700009F0B5CF2091340221FFEFCF80913302E5
:1013800084FD0FC087EE90E0E8CF2091330220FD6E
:1013900012C13091340230FFE0CF83EE90E024FFA1
:1013A000DCCF90E080E0D9CF2091330222FD06C14E
:1013B0003091340230FDC0CF24FFCFCFF2CF209147
:1013C000330223FFCACF24FDECCFDCCF20913302C0
:1013D00023FDF7C03091340231FFEECF84EE90E070
:1013E000BCCF2091330225FFB8CF89E290E0B5CF82
:1013F0002091330225FFB1CF85E390E0AECF20915D
:10140000330226FFAACF8AE290E0A7CF20913302D1
:1014100026FFA3CF81E390E0A0CFCF3BD10508F614
:10142000C85AD0E0CC0FDD1FC35BDE4F88819981A5
:10143000946493CFC11520E2D20760F4C11531E066
:10144000D30708F08ACFCE019065CD3ED10508F0D4
:1014500084CFA7CFC11580E4D80708F4A2CFCE016E
:101460009F70906A7ACFC11595E5D90710F5C1151F
:1014700024E5D20708F088C0C11533E5D30708F08A
:101480006FC0C11582E5D80708F465C09E012370BE
:10149000332781E090E002C0880F991F2A95E2F778
:1014A000C695C69520E2C29FE00111248C2B9D2B8E
:1014B00050C0C11599E5D907A0F4C11528E5D20798
:1014C00008F067C0C11536E5D30708F06ACF8C2F46
:1014D0000E94050990E0982F882788279F719062C5
:1014E0003CCFC1158AE5D80708F458C0CE01905604
:1014F0008115904208F055CF8D2F8F710E940509FC
:1015000090E0982F882788279F718C2BE8CFC55AA9
:10151000D0E0C65BDE4F888190E090641ECF9E01D4
:10152000E4E036952795EA95E1F723708C2F8695B0
:101530008695837030E2839FC0011124922BC37083
:1015400021E030E002C0220F331FCA95E2F7822B60
:10155000932B9C6802CF9C2F8827816F906AFDCEC9
:101560009E012370332781E090E002C0880F991F0D
:101570002A95E2F7C695C69530E2C39FE001112493
:101580008C2B9D2B9A68E9CE9C2F8827846F906ABC
:10159000E4CE9C2F8827806F906ADFCE8C2F8F70CF
:1015A0000E94050934E0D695C7953A95E1F7CF70CA
:1015B0009C2F9069D2CE89E390E0CFCE82EE90E06E
:1015C000CCCE86EE90E0C9CEBF92CF92DF92EF9262
:1015D000FF920F931F93CF93DF938C01C0902F0244
:1015E000D0903002E0903102F090320280912B02D4
:1015F00090912C02A0912D02B0912E02C82AD92AD6
:10160000EA2AFB2ACFE1D0E0BC2ED701C6010C2E7E
:1016100004C0B695A795979587950A94D2F780FD53
:101620000EC0219788F7B12C8B2DDF91CF911F91A0
:101630000F91FF90EF90DF90CF90BF900895B80189
:101640008C2F0E944809019761F3EECFCF93DF936F
:10165000EC010E94E40ABE01DF91CF910C9448098D
:101660000E94260B292F2F7092959F7092509E30CA
:1016700078F4E92FF0E0E751F94D0C94BE25803F56
:1016800019F020F4883E20F481E00895843FE1F3CE
:1016900080E00895883EC0F3813FD1F7F5CF822FD7
:1016A0008695869586950895CF93DF9300D00F9207
:1016B000CDB7DEB790917102943019F589837B83A1
:1016C0006A8382E08093E9008FEF9091E800815077
:1016D00095FD06C095ED9A95F1F700008111F5CFC3
:1016E0008091E80085FF0DC050E040E063E070E0CD
:1016F000CE0101960E9453038091E8008E7780937B
:10170000E8000F900F900F90DF91CF910895BC01EA
:1017100084E00C94540BBC0183E00C94540B9C01AA
:1017200082E08093E9009FEF8091E800915085FD71
:1017300006C085ED8A95F1F700009111F5CF8091F3
:10174000E80085FF0CC050E040E066E070E0C901B1
:101750000E9453038091E8008E778093E8000895FB
:10176000CF93DF93EC0181E08093E9008FEF9091BC
:10177000E800815095FD06C095ED9A95F1F70000BF
:101780008111F5CF8091E80085FF14C050E040E062
:1017900068E070E0CE010E9453038091E8008E77EC
:1017A0008093E80088E0FE01A7E6B2E001900D9288
:1017B0008A95E1F7DF91CF91089581E08093E00071
:1017C00080E28093D8001092C9008FE19EE40197D7
:1017D000F1F700C0000087E090EBDC0180937E020F
:1017E00090937F02A0938002B093810288E19CE0F5
:1017F0000FB6F894A895809360000FBE9093600098
:10180000FFCFCF93C82F882309F490C08238C1F44A
:101810000E94AA0581FD8AC089E30E94F5040E9406
:10182000BB042FEF81EE94E0215080409040E1F71F
:1018300000C0000089E30E94E804CF910C94BB042F
:101840008338A1F40E94AA0580FD70C083E50E9440
:10185000F5040E94BB042FEF81EE94E021508040FC
:101860009040E1F700C0000083E5E5CF8438A1F4A3
:101870000E94AA0582FD5AC087E40E94F5040E94D6
:10188000BB042FEF81EE94E0215080409040E1F7BF
:1018900000C0000087E4CFCF8CEF8C0F813A68F452
:1018A000E6E8F1E08191C817D9F121E0EC38F207C0
:1018B000C9F78C2F0E94F504C0CF80E28C0F8830CE
:1018C00068F4C77021E030E001C0220FCA95EAF742
:1018D00080912902822B80932902AFCFEBE5EC0F98
:1018E000E33040F4F0E0E65BFE4F808190E0CF9182
:1018F0000C949405E8E5EC0FE73150F4F0E0EE0FBE
:10190000FF1FE35BFE4F80819181CF910C947E0598
:10191000CD3E60F08C2F0E949408CF910C94CB06A2
:101920008C2F0E94E8040E94BB04C3CFCF9108957E
:101930001F93CF93DF93182FD0E0C0E0893311F4C9
:10194000C0E5D0E0812F0E94010C209731F4812F57
:10195000DF91CF911F910C94FC078FE99FE00197D5
:10196000F1F700C000002197F0CF0F931F93CF93A2
:10197000DF93C62FD42F022FFC0182818823A1F090
:1019800060937D020E94A20490937C0280937B026C
:10199000C77081E001C0880FCA95EAF7DF91CF9147
:1019A0001F910F910C94740580917D02681335C0CE
:1019B00080917B0290917C020E949304883C910567
:1019C00060F510E21D0FCD17B9F080E28C0F883062
:1019D00040F4C77081E001C0880FCA95EAF70E9401
:1019E0006D05183048F481E09D2F977001C0880F75
:1019F0009A95EAF70E947405802F0E94980C18307F
:101A000098F4D77081E001C0880FDA95EAF7DF918A
:101A1000CF911F910F910C946D05C77081E001C0AB
:101A2000880FCA95EAF7F3CFDF91CF911F910F91FD
:101A30000895AF92BF92CF92DF92EF92FF920F93F1
:101A40001F93CF93DF93EC018AE0A82EFE0124912F
:101A5000222309F494C0213009F03EC031968491CC
:101A6000813031F42296FE0184910E94980C07C0C7
:101A7000823039F42296FE0184910E94010C219655
:101A8000E5CF833031F42296FE0184910E94FC0759
:101A9000F6CF843009F071C02296FE01249190E0C7
:101AA00080E0FE0131962053330B2A30310548F097
:101AB000019728F3EFE9FFE03197F1F700C000004C
:101AC000F7CFA89EA001A99E500D1124C901840F33
:101AD000951F2491EF01E5CFE22FF0E0E452FF4F94
:101AE000B490822F86958695869590E0FC01E4530C
:101AF000FF4FE4902770F12C022E02C0F594E7947A
:101B00000A94E2F731E0E322FF24FC01E454FF4FA2
:101B1000C490D12C022E02C0D594C7940A94E2F747
:101B2000E1E0CE22DD24FC01E455FF4F049110E0FA
:101B300002C0159507952A95E2F701701127E11467
:101B4000F10419F081EE0E94010CC114D10419F0C6
:101B500086EE0E94010C8B2D0E94980CCD2819F066
:101B600086EE0E94FC07EF2819F081EE0E94FC0728
:101B7000012B09F484CF8CE278CFEF0180CFDF9185
:101B8000CF911F910F91FF90EF90DF90CF90BF907A
:101B9000AF900895CF9384E090E00E943C26C82F38
:101BA00082E290E00E943C26982F8C2FCF910895DE
:101BB000CF92DF92EF92FF926B017C010E9426068A
:101BC000B701A60188E090E0FF90EF90DF90CF9002
:101BD0000C94622680914F02882319F081508093E3
:101BE0004F0260914B0270914C0280914D02909196
:101BF0004E020C94D80D80914F02833018F48F5F01
:101C000080934F0260914B0270914C0280914D0283
:101C100090914E020C94D80DEBE4F2E083E08083C7
:101C200011828FEF8283838314826081718182812C
:101C300093810C94D80D6AEE7EEF90E080E00E94D4
:101C40006E2660E082E090E00E94502660E083E033
:101C500090E00E94502610922B0210922C021092BB
:101C60002D0210922E0260E084E090E00E94502647
:101C700060E082E290E00E94502660E085E090E023
:101C80000E94502660E086E090E00E9450266FEFB0
:101C900087E090E00E94502640E050E0BA0188E0E2
:101CA00090E00E94622660E08DE090E00E94502665
:101CB00040E050E0BA0188E190E00E94622660E0D6
:101CC00087E190E00E94502640E050E0BA018CE1AC
:101CD00090E00E94622670E060E080E290E00E9466
:101CE0006E2640E050E0BA0188E190E00E94622652
:101CF00040E050E0BA018FE090E00E94622640E0B0
:101D000050E0BA0183E190E00C946226CF93C09139
:101D10003402C2FB992790F9981781F080FBC2F931
:101D2000C09334026091330284E090E00E94502618
:101D30006C2F82E290E0CF910C945026CF910895C1
:101D400010922902E6E8F1E086E0DF011D928A9513
:101D5000E9F70C94F2061F93CF93DF93CDB7DEB76C
:101D6000AA970FB6F894DEBF0FBECDBF83E792E00F
:101D70002091F100FC012193CF01F2E08B379F0706
:101D8000B9F780917402833009F46FC0B8F48130E0
:101D900009F446C0823009F4B0C08091E80083FFA6
:101DA0007BC280917302909174029A3008F074C2E1
:101DB000E92FF0E0E950F94D0C94BE258A3009F482
:101DC0008BC08B3009F46EC0893039F78091730273
:101DD000813219F780917702909178020297E8F6A4
:101DE0008091E800877F8093E8008091E80082FF7F
:101DF00037C09091F3008091F200029729F480910E
:101E0000F1008B7F813021F48091F1008093660294
:101E10008091E8008B778093E8000E947D03BDCF1E
:101E200080917302813A09F0B8CF8091E800877FF2
:101E30008093E8008091770290917802892B61F479
:101E400068E087E692E070E00E942F048091E8004D
:101E50008B778093E800A1CF60E090E080E0F3CF43
:101E6000809171028111C1CF98CF80917302813A24
:101E700009F093CF8091770290917802892B09F035
:101E80008CCF8091E800877F8093E8008091E80004
:101E900080FFFCCF80911E018093F1008091E800CB
:101EA0008E77B9CF80917302813209F076CF80911D
:101EB000770290917802892B09F06FCF8091E8002A
:101EC000877F8093E8000E947D0380917502809354
:101ED0001E010E94A00E61CF80917302813209F031
:101EE0005CCF8091E800877F8093E8000E947D03AB
:101EF000809176028093650250CF80917302813A7F
:101F000009F04BCF8091E800877F8093E8008091B3
:101F1000E80080FFFCCF80916502BECF803899F049
:101F2000823809F0B9C1809177028F70873008F04C
:101F3000B3C18093E9008091EB0085FB882780F98D
:101F40001092E90006C080916F0290917002911189
:101F500082609091E800977F9093E8008093F10071
:101F60001092F1008091E8008E7792C1882309F4E5
:101F700080C1823009F090C180917502811183C1C6
:101F8000809177028F702FEF280F263008F084C1E0
:101F90008093E9002091EB0020FF75C1933031F46C
:101FA0008091EB0080628093EB006DC19091EB001B
:101FB00090619093EB0021E030E001C0220F8A9500
:101FC000EAF72093EA001092EA008091EB00886023
:101FD000EACF811161C1109175021F778091E300F2
:101FE0008078812B8093E3008091E800877F809345
:101FF000E8000E947D038091E80080FFFCCF809183
:10200000E30080688093E30082E0111183E0809315
:10201000710242C18058823008F03EC18091750241
:10202000909176028C3D23E09207A1F583E08A83AC
:102030008AE289834FB7F894DE01139620E03EE0F0
:1020400051E2E32FF0E050935700E49120FF03C0EA
:10205000E295EF703F5FEF708E2F90E0EA30C0F0B6
:10206000C7968D939D932F5F243159F74FBF809171
:10207000E800877F8093E8006AE270E0CE01019675
:102080000E942F048091E8008B778093E80004C1C0
:10209000C096E7CF4091770250917802292F3327DD
:1020A0002330310509F444C078F52130310509F4B5
:1020B0006FC08BE390E0E8E0F5E02230310509F0F5
:1020C000EBC02091E800277F2093E800209179025F
:1020D00030917A028217930708F49C0140E02115A1
:1020E000310509F064C0411162C08091E80082FDB1
:1020F000C9CF80917102882329F2853019F280912D
:10210000E80083FFF2CFBECF21323105A9F12232A0
:10211000310509F0C1C04115510509F443C04130F2
:10212000510509F0B9C08BE790E0EDE4F4E0C9CFC8
:10213000992781309105C1F0009759F0029709F075
:10214000ABC0E5E5F5E0E4918E2F90E0E5E5F5E044
:1021500007C0EFE6F5E0E4918E2F90E0EFE6F5E0C2
:10216000009709F499C0ADCFE3E6F5E0E4918E2F36
:1021700090E0E3E6F5E0F4CF4115510571F0413010
:10218000510509F089C089E090E0E3E3F5E099CFDB
:1021900082E190E0E3E4F5E094CF89E090E0EAE1C9
:1021A000F5E08FCF80E490E0E8ECF4E08ACF809116
:1021B0007102882309F466CF853009F463CF8091DA
:1021C000E80083FD5FCF8091E80082FD8ECF809193
:1021D000E80080FF84CF9091F3008091F2002115F8
:1021E000310519F08830910550F041E0089709F069
:1021F00040E08091E8008E778093E80070CF4491B2
:102200004093F1003196215031090196E8CF803892
:1022100009F042C08091E800877F8093E8008091B8
:1022200072028093F1009ECE811136C0109175022A
:10223000123090F58091E800877F8093E80010933A
:1022400072020E947D03112311F084E005C0809189
:10225000E30087FDFACF81E08093710242E061ECF8
:1022600081E00E949C0342E261EC82E00E949C03B8
:1022700013C080917502813079F481E0933009F0C8
:1022800080E0809370021092E9008091E800877FDF
:102290008093E8000E947D038091E80083FF0AC0DC
:1022A0008091E800877F8093E8008091EB00806256
:1022B0008093EB00AA960FB6F894DEBF0FBECDBF99
:1022C000DF91CF911F91089560914B02669570E068
:1022D0004BE050E085E091E00E942F26892B19F415
:1022E00081E0809351020E94A20490934602809361
:1022F0004502089580914B0280FD0BC0E2E9F1E0B8
:102300008DEA91E011821082128233968E179F0718
:10231000C9F76A9A3EB13B7F2EB124604FB7F8945B
:1023200082E991E0FC015191CF0168E02EB90000F3
:1023300000C057FF3EB9550F000000C000C000C0EC
:102340003EB900C06A9591F7F1E08D3A9F0751F7C9
:102350004FBF8FE594E00197F1F700C000000895AA
:102360004F925F926F927F928F929F92AF92BF92A5
:10237000CF92DF92EF92FF920F931F93CF93DF9351
:10238000FC016280448081E08483E1E6F2E07490A5
:10239000E0EEF2E0E491CDEAD1E032E9E32E31E083
:1023A000F32E4AEDC42E41E0D42E52E0A52EBB24DC
:1023B000B39488248A94912C55245A94E7190E2FAB
:1023C00010E082E0861530F080914C028883809185
:1023D0004D028983411021C01B821A8297014A81D4
:1023E000698188810E943506259683E0E80EF11CFC
:1023F000CC16DD0631F7DF91CF911F910F91FF9041
:10240000EF90DF90CF90BF90AF909F908F907F9094
:102410006F905F904F900C947A118B818823E9F034
:1024200081508B83859DC00111246C8170E00E94D6
:102430009625FB01FF27EF59FD4F8491E82FE719FF
:10244000E59DC0011124B8010E94962580914E029D
:10245000689FB00111247A83C1CF0E941F2620916A
:102460004E02269521582A9DA0012B9D500D112426
:10247000452F5527841795070CF0B0CF82E08615BD
:1024800088F40E941F26B4010E94AA2588830E9416
:102490001F2620914D022695622F70E00E94AA25EA
:1024A000280F29831A8280914E02893C20F088EC03
:1024B0008C838B8393CF8431D8F784E1F9CFEF926B
:1024C000FF921F93CF93DF93EC0182E9E82E81E026
:1024D000F82E10E08C81970140914E0260914D02E0
:1024E000810F0E943506145E83E0E80EF11C1C3F4C
:1024F00089F70E947A119A818C8190FF08C08F5FC2
:102500008C83DF91CF911F91FF90EF9008958150C0
:10251000F7CFBF92CF92DF92EF92FF920F931F936C
:10252000CF93DF93FC018281DD24DA9480FD02C029
:10253000DD24D39402E911E0D0E0C0E029E0B22E1E
:10254000F80111821082128294E0E92EF12CC12C44
:1025500080918F018C0D8A300CF43DC06B2D0E9450
:102560008825892F082E000C990B8C179D0791F454
:1025700080914E028E9DA0018F9D500D1124559586
:10258000479555954795980160914D0280914C0271
:102590000E943506CD0CF1E0EF1AF108C9F621963C
:1025A0000D5F1F4FC930D10559F60E947A118091F5
:1025B0008F0191E0D91215C0811111C088E080937C
:1025C0008F01DF91CF911F910F91FF90EF90DF90DE
:1025D000CF90BF90089587FFC5CF875FC3CF81504D
:1025E000EECF90E00196BE010E94AA25E8CF0F939E
:1025F0001F93CF93DF93C2E9D1E0FE0111821082D5
:102600001282339681E0ED3AF807C1F710E000E05E
:1026100080919001082E000C990B081719078CF176
:1026200080911101082E000C990B801791074CF135
:102630009E0140914E0260914D0280914C020E9499
:1026400035060F5F1F4F23960930110509F70E94C9
:102650007A118091100190919001980F90939001C0
:1026600020911101280F20931101121614F49830B3
:102670001CF0819580931001DF91CF911F910F91F4
:102680000895198218821A82DCCF8F929F92AF929E
:10269000BF92CF92DF92EF92FF920F931F93CF934F
:1026A000DF93EC014C81042F10E09801D8010E94C7
:1026B000D8269B01AC010E94A3264B015C01E0E2FD
:1026C000F0E0E01BF10BA5E5B0E0AC019B010E943E
:1026D000A3266B017C019F01DF010E94C4259B01A1
:1026E000AC010E94AE269B01AC01280D391D4A1D8C
:1026F0005B1DC701B6010E94B626F22E822F90E024
:1027000039E23F15D8F143E0249F9001112435951B
:102710002795122F109592E9C92E91E0D92E00E04D
:1027200085E5E82EEF188E2D01FD8F2D9601412FA6
:1027300060914D020E9435060F5F53E0C50ED11C1B
:10274000093089F70E947A119C8181E0992319F060
:10275000903219F48FEF8093120180911201890F4A
:102760008C83DF91CF911F910F91FF90EF90DF90BD
:10277000CF90BF90AF909F908F90089525E530E067
:10278000A901481B590BCA019A01220F331F280FB8
:10279000391F37FFBCCF2F5F3F4FB9CFEF92FF926A
:1027A0000F931F93CF93DF938C01C2E9D1E0F12CFB
:1027B000E12CF801948160914D0280914C02F4E08B
:1027C000EF16F104FCF49923F9F09E0140914E02BA
:1027D0000E9435062FEFE21AF20A239689E0E816E6
:1027E000F10439F70E947A11F801848190E0019692
:1027F000817099278483DF91CF911F910F91FF9072
:10280000EF900895992309F39E0140E0E1CF909164
:102810004B0290FF0CC0E2E9F1E0818360834283C8
:10282000339691E0ED3AF907C1F70C947A110895C7
:102830000F931F93CF93DF9300D00F92CDB7DEB7E6
:102840008C018091910181110AC09E012F5F3F4F41
:102850004FEF6FEF0E9435068A8180939101F80156
:102860006481613069F08091910140E0662361F0FC
:1028700040E0623011F44091910180E060E004C0DA
:102880006091910140E080E00E940714F80184818A
:1028900090E0019663E070E00E94AA2584830F9087
:1028A0000F900F90DF91CF911F910F910895CF93CB
:1028B000DF9300D00F92CDB7DEB790914B0290FF1F
:1028C0000AC09E012F5F3F4F0E9435064B816981F0
:1028D0008A810E9407140F900F900F90DF91CF9183
:1028E0000895CF93DF93EC01EC81F0E0EF59FD4FB9
:1028F0004491EBE4F2E0628181810E9457148C8163
:102900008F5F8C83DF91CF910895CF93DF93EC019C
:10291000EBE4F2E0438162818C810E9457148C8148
:102920008F5F8C83DF91CF9108958F929F92AF92AA
:10293000BF92CF92DF92EF92FF920F931F93CF93AC
:10294000DF939BE7E92E91E0F92E10E000E0D0E064
:10295000CC24C394D12C38E3A32E32E0B32ED7017C
:102960008D917D01F894E82FE295EF70F0E021A1C0
:102970008F70A60102C0440F551F8A95E2F7CA0165
:10298000922F982B91A392A18095892382A378946A
:1029900000C09601002E01C0220F0A94EAF7522FC0
:1029A0002095E5E3F2E08EE7882E81E0982EC0E0E6
:1029B0004191D4013D914D01832F82958F7090E01C
:1029C000DC0190968C9190E03F7002C095958795C0
:1029D0003A95E2F780FD3EC0852F842B481731F0F1
:1029E000BF0161507109DB018C93C1E0AE16BF06D7
:1029F000F9F6F701319780810E94EE08B0EABA95A6
:102A0000F1F7DC2B0F5F1F4F0330110509F0A7CF43
:102A1000DD2319F181E080938E010E94A20490933E
:102A20008D0180938C0180918C0190918D010E9489
:102A300093040697B0F08091350280934202809112
:102A400036028093430280913702809344021092B1
:102A50008E0107C0822F8423C1CF80918E01811106
:102A6000E2CF80911301C0E0A6E1FA2E8F3F09F07A
:102A7000A1C080912F0290913002A0913102B091BB
:102A80003202AD0166277727C0E041155105610587
:102A9000710519F0DB01CA01C0E1492F5A2F6B2FD4
:102AA0007727411551056105710519F0C85FDB01F4
:102AB000CA01AC01BD01E4E076956795579547954D
:102AC000EA95D1F7411551056105710519F0CC5F03
:102AD000DB01CA01AC01BD0132E0769567955795DF
:102AE00047953A95D1F7411551056105710519F0E2
:102AF000CE5FDB01CA01B695A79597958795892B7F
:102B00008A2B8B2B09F0CF5F809104018C1781F009
:102B1000C23009F469C008F058C0CC2309F460C081
:102B200048E166E181E0C13009F457C0C093040177
:102B30008D2FDF91CF911F910F91FF90EF90DF903C
:102B4000CF90BF90AF909F908F900895F29EF0012C
:102B5000F39EF00D1124EE51FE4FC288D388C114AC
:102B6000D10419F4B8ECCB2ED12CF29E8001F39E47
:102B7000100D11240E511E4FF80186818823C9F0D3
:102B8000858596850E949304C816D90690F4CF9D3A
:102B900060011124D80151968C91811105C0C601A4
:102BA0008E519E4F0E94B605C60188519E4F0E94CD
:102BB000D705CF5F2C2F30E080911301082E000C39
:102BC000990B8217930714F654CFC33089F046E669
:102BD00060E083E3C43009F0A9CF0E940714A6CFB8
:102BE00040E060E080E0F9CF40E06DE181E3F5CFC7
:102BF00040E060E08DE4F1CF5F926F927F928F9220
:102C00009F92AF92BF92CF92DF92EF92FF920F937B
:102C10001F93CF93DF9300D00F92CDB7DEB7182F5D
:102C2000762E042F622E90914B0290FF29C0E92F3F
:102C3000E695AE2FB0E0A15EBE4F8C91809350021E
:102C40009E7F923081F59E012F5F3F4F812F0E9422
:102C500035064B8169818A810E94071410934C02CA
:102C600070924D0200934E02662051F060914B022B
:102C700070914C0280914D0290914E020E94D80DAD
:102C80000F900F900F90DF91CF911F910F91FF90B8
:102C9000EF90DF90CF90BF90AF909F908F907F90FC
:102CA0006F905F900895823019F400914E02D6CF54
:102CB000863019F410914C02D1CF8930D9F3893183
:102CC00069F6E9518E2F8170582EE695F0E0E45AAE
:102CD000FD4FA590B490BB2482E9E82E81E0F82E48
:102CE000D12CC12C99E0892E912CC601B4010E94EF
:102CF0009625812F511013C0860F9701402F672D05
:102D00000E943506CA0CDB1C83E0E80EF11C8DEA3C
:102D1000E81681E0F80649F70E947A119FCF861BDA
:102D2000ECCFEBE4F2E0438128E0421B08F440E002
:102D300021E0628181810C94FC15EBE4F2E0438197
:102D400028E0420F08F44FEF21E0628181810C946A
:102D5000FC15EBE4F2E0628128E0621B08F460E01D
:102D600021E0438181810C94FC15EBE4F2E0628167
:102D700028E0620F08F46FEF21E0438181810C9419
:102D8000FC15EBE4F2E0818121E04381628188500F
:102D90000C94FC15EBE4F2E0818121E04381628137
:102DA000885F0C94FC1590914B0290FF36C0917097
:102DB000811129C0926090934B02662351F060917B
:102DC0004B0270914C0280914D0290914E020E94F4
:102DD000D80D60914B02669570E04BE050E085E0C5
:102DE00091E00E942F26892BA9F01092510281E0D8
:102DF0008093480220E040914E0260914D02809104
:102E00004C020C94FC158B3210F09465D4CF880FD3
:102E1000982BD1CF0E946411EACF089580914B0284
:102E20008695815009F48AE261E00C94D316809172
:102E30004B0286958F5F8B3208F081E061E00C9445
:102E4000D31690914B0290FF07C09695981720F0EB
:102E5000961710F40C94171761E00C94D3164F9248
:102E60005F926F927F928F929F92AF92BF92CF921A
:102E7000DF92EF92FF920F931F93CF93DF9300D0D7
:102E800000D00F92CDB7DEB77C01DC0113968D9197
:102E90009C911497892B41F01C911196DC90812F05
:102EA0008D218F3F09F042C60F900F900F900F9029
:102EB0000F90DF91CF911F910F91FF90EF90DF90D6
:102EC000CF90BF90AF909F908F907F906F905F90CA
:102ED0004F9008950E94E40A082F682F89819A81F3
:102EE0000E943605E12FF0E0B3E0DB9EE00DF11D1E
:102EF000112429E0029FE00DF11D1124EE0FFF1FA8
:102F0000E252FC4F05911491D70112968C918111D8
:102F10000EC0F801EF55FD45EE30F10508F093C005
:102F2000EF5FF84DD70112968C910C94BE258091DD
:102F300013018F3F71F352EEC52E51E0D52EB12C07
:102F4000A12C9924939480911301082E000C990BC5
:102F50008A159B05F4F2F6018681882309F18185A3
:102F600092858017910739F48091E0019091E101F9
:102F700080179107A9F0D6011F969C921F971C9667
:102F80001C930E931B9751968C91811103C0C6011F
:102F90000E94B605C60106960E94D7051092280227
:102FA000BFEFAB1ABB0AE6E1CE0ED11CCCCF882313
:102FB00009F449C084ED93E00E94190D44C08823B0
:102FC00009F441C08DEC93E0F7CF8823E1F185EC63
:102FD00093E0F2CF8823B9F18CEB93E0EDCF882317
:102FE00091F186EB93E0E8CF882369F185EA93E0DD
:102FF000E3CF882341F18DE993E0DECF882319F1F7
:1030000088E993E0D9CF8823F1F081E993E0D4CF28
:103010008823C9F08AE893E0CFCF8823A1F084E821
:1030200093E0CACF882379F08DE793E0C5CF88235A
:1030300009F4A6C00E94A2049093DF018093DE01F0
:1030400081EE0E94010CC80197558F3F910511F048
:1030500008F0B9C020911301022E000C330B281781
:10306000390714F480931301D70112962C9112970B
:1030700036E1389F5001399FB00C1124F501EE5113
:10308000FE4F6F01208B12969C918681992309F443
:103090008DC0128701878F5F86830E94A204D601AC
:1030A0001E969C938E931D9780912A0217968C935F
:1030B00017978091280290912902892B18968C935A
:1030C0001897ED91FC911197309739F054966D91C6
:1030D0007C91C50188519E4F09951093E1010093A1
:1030E000E001D70112968C91882309F432C5109221
:1030F0007D020230BCE51B0708F436C50631ECE55D
:103100001E0738F098012B5F3C452930310508F047
:103110002BC50E94CA0D9093340280933302003174
:10312000FCE51F0709F458C108F0E9C008303CE588
:10313000130709F443C108F0B8C004309CE519072F
:1031400009F434C108F09EC00230BCE51B0709F445
:1031500027C180913302826003301C4509F423C1EA
:10316000609133021091340284E090E00E94502676
:10317000612F82E290E00E9450260E94A00E4CC077
:1031800081EE0E94FC078091DE019091DF010E9498
:103190009304883C910508F056CF86E793E00CCF66
:1031A000882309F450CF81E693E006CF882309F401
:1031B00098CF8189882309F494CFC50188519E4F07
:1031C0000E94D7058ECF043FFCE51F0709F44BC0D2
:1031D00098F4093D3CE5130709F441C00A3D8CE52C
:1031E000180709F44CC0083D9CE5190709F079CF90
:1031F00026E241EE61EE0DC0063FACE51A07D9F1BB
:10320000B0F127E245EE66EE073FECE51E0709F058
:1032100068CFC7010E94B50C80912602877009F41F
:1032200043CED70112968C91882309F43DCE82E0DB
:103230000F900F900F900F900F90DF91CF911F91F3
:103240000F91FF90EF90DF90CF90BF90AF909F9045
:103250008F907F906F905F904F900C943C0727E287
:1032600045EE65EED6CF26E241EE60EED2CF27E204
:1032700045EE64EECECF26E241EE62EECACF28E202
:1032800041E0EFCF8091330280610630FCE51F07FB
:1032900009F489C080913302886007301C4508F426
:1032A00082C08091330280627EC0809133028D7F24
:1032B0000C303CE5130709F476C070F480913302BA
:1032C0008C600A309CE5190709F46DC008F47AC0D7
:1032D000809133028E7F67C080913302877F0E30EA
:1032E000BCE51B0709F45FC0809133028B7F0F3070
:1032F0001C4508F458C0809133028F7E54C00C3FA7
:10330000FCE51F0709F456C030F503313CE513070F
:1033100009F46AC078F401319CE5190709F460C02A
:1033200002311C4509F01CCF0E94A00E809133028F
:103330008F7739C00531BCE51B0709F45DC008F47F
:1033400071C08091340281600B3F1C4509F008CFA9
:103350008093340205CF01152DE5120709F448C00A
:1033600070F40E3F8CE5180799F1809134028E7F3E
:103370000F3F1C4568F3809134028360E9CF02302F
:10338000ADE51A0709F457C008F442C060E0033005
:103390001D4509F0E5CE8EE090E00E945026E0CE7B
:1033A00080913302816080933302DACE80913302C0
:1033B0008460F9CF809134028260CACF8091330259
:1033C0008064F1CF0E94A00E809133028068EBCF21
:1033D000809134028D7FBCCF809133028F7DE3CF0B
:1033E000809133028F7BDFCF80913302837FDBCFED
:1033F000809134028C7FACCF8091330282FB99277D
:1034000090F921E0922790FB82F990FB83F9CBCFD2
:1034100080913402982F909591708E7F892B90FB2C
:1034200081F996CF0E94A00E90913302892F97FBCD
:1034300087F98058B8CF61E0AECF882309F48CC3F8
:10344000809129028A7A91E009F490E09093E20158
:10345000811106C089E20E94F5040E94BB04DCCE03
:1034600085E3F9CF85E37DC3053CFCE51F0709F43F
:1034700095C041EC56E16AEC76E1063C2CE512077A
:1034800009F094C30E942106C7CE0A3C3CE513070D
:1034900009F493C070F4083CACE51A0709F488C03D
:1034A00045EB56E169EA76E1093CBCE51B0751F3BF
:1034B0007DC30B3CECE51E0709F484C04AEE5DE0D9
:1034C0006BEF7DE00C3CFCE51F07E1F26FC3023DB2
:1034D0002CE5120709F489C0B0F40F3C8CE51807FD
:1034E00009F47DC008F478C0003DACE51A0709F482
:1034F00079C06EE089E0013DBCE51B0709F056C3C9
:103500000E94211789CE053DECE51E0709F473C022
:1035100078F4033D2CE5120709F46AC061E088E104
:10352000043D3CE5130709F041C30E94D31674CE55
:10353000063D8CE5180709F461C06AE285E20E35A4
:103540009DE51907E9F232C380914B0280FF1BC051
:103550008E7F80934B0260914B0270914C02809160
:103560004D0290914E020E94D80D10925102AFEF81
:10357000B0E7E2E0A150B040E040E1F700C0000059
:103580000E947A1149CE816080934B0261E086955A
:10359000CCCF4EE057E167E177E174CF47E157E1E7
:1035A0006EE077E16FCF4AEC56E161EC76E16ACFED
:1035B00049EA56E165EB76E165CF41E956E16DE90F
:1035C00076E160CF4DE956E161E976E15BCF4BEF03
:1035D0005DE06AEE7DE056CF61E081E0A6CF65E078
:1035E00082E08ECF68E086E08BCF64E18FE088CF09
:1035F00067E185E185CF62E289E182CF61E083E224
:1036000094CF0C359DE5190701F10D351D4509F0E5
:10361000DDC28091340282FB882780F991E08927FE
:103620000E94860ED3C20E94A00EBFEFE4E3FCE02E
:10363000B150E040F040E1F700C000000E94DD0B17
:103640000E941B0EE9CD81E0EBCF80E0E9CFC801FD
:103650000E940E05D82EC9C2E12FEF70AE2E107F4A
:1036600019F0A29420EFA222DD20C9F0AA2069F06F
:1036700080E2800F883010F081100BC08091290209
:10368000A82AA09229020E94BB04802F0E94010C4C
:1036900015C080912802A82AA0922802F4CF802F7A
:1036A0000E94FC07AA2051F0005E083010F0811043
:1036B00043C08A2D0E94B4040E94BB04AB2DA850C5
:1036C000BB0B149710F40E94AA05CC20A9F080919E
:1036D000260280FD11C0F70112828595859585959A
:1036E0000E945807C7010E942F17809126028595D6
:1036F000859585950E94190785E0F701DE011196F1
:1037000001900D928A95E1F789819A810E940E05B8
:103710009A81E981F0E023E0929FE00DF11D1124F0
:1037200039E0839FE00DF11D1124EE0FFF1FE252DF
:10373000FC4F85919491B8CBA09480912802A82247
:10374000A0922802B9CFF12FFF709F2E107F103268
:1037500019F0929490EF9922882071F021E082165E
:1037600081F1DD20D9F1AA2091F1F701858180FF57
:103770008CCF8F7085832BC0DD20B1F090912A0211
:10378000892D892BA11003C00E94740597CF31E0C9
:10379000A312FACF2091340222FD90CF981709F49A
:1037A0008DCF80932A028ACFA11006C00E94AE045A
:1037B000892D0E946D0582CF81E0A81609F47ECF85
:1037C000F5CFDD2031F092E09A1508F477CF892DFE
:1037D000DBCFA1E0AA1508F471CFEACFAA2041F30C
:1037E000F9E38F1209C02FEF37EE83E0215030400C
:1037F0008040E1F700C00000802F0E94FC075ECFF0
:10380000812F86958695837061F0813009F056CFBF
:10381000C8019370D11002C090E080E00E947E0544
:103820004DCFC8019370D11002C090E080E00E949B
:10383000940544CF802FDD2029F00E9494080E9437
:10384000CB063CCF0E948307FACF812F837009F00B
:1038500066C0D11033CF802F829586958770880FF0
:10386000880F602F6F70462E512C712C612C082E02
:1038700004C0440C551C661C771C0A94D2F740E027
:1038800050E0BA0104FF0FC04FE050E060E070E08C
:1038900004C0440F551F661F771F8A95D2F74095C5
:1038A000509560957095812F8695869583708230AE
:1038B00019F1D8F400912B0210912C0220912D02C5
:1038C00030912E02813069F04429552966297729E3
:1038D000CB01BA0160237123822393230E947907CD
:1038E000EDCE402A512A622A732ACB01BA016429FB
:1038F000752986299729F2CF4429552966297729E0
:1039000000912B0210912C0220912D0230912E0259
:10391000CB01BA016027712782279327DFCF8695D5
:10392000DD2011F0812F8170882309F4C7CE802F0C
:10393000829586958770880F880F602F6F70462E4E
:10394000512C712C612C082E04C0440C551C661C93
:10395000771C0A94D2F740E050E0BA0104FF0FC090
:103960004FE050E060E070E004C0440F551F661F58
:10397000771F8A95D2F74095509560957095812F65
:10398000869586958370823019F1D8F400912F02C4
:10399000109130022091310230913202813069F071
:1039A0004429552966297729CB01BA01602371235F
:1039B000822393230E940F0781CE402A512A622A34
:1039C000732ACB01BA016429752986299729F2CF78
:1039D000442955296629772900912F021091300238
:1039E0002091310230913202CB01BA016027712758
:1039F00082279327DFCF1F70DD2029F0812F0E94BF
:103A00005807802FC1CE802F0E946D05812F0E9404
:103A1000190754CE802F92EF891609F454C09815D7
:103A200078F0A0EF8A1639F1B1EF8B1609F443C094
:103A3000DD2009F46BC0A11028CE812F8F7140C00A
:103A4000E3EF8E1609F444C0F4EF8F12F1CFDD20BE
:103A500009F451C01F71812F0E94580780913402D0
:103A600082FD07C0A8E01A9FC001112483608093E3
:103A70002602812F25C0DD20C9F021E02A1508F497
:103A80001DCE1F7161E070E080E090E004C0660F21
:103A9000771F881F991F1A95D2F700912F02109156
:103AA00030022091310230913202A0CF32E03A153B
:103AB00008F404CEE6CF812F8F71DD2009F4A7CF63
:103AC0000E945807FBCD812F8F71DD20C9F39FCF56
:103AD00060E070E0CB01DD2009F46CCF1F7161E084
:103AE00070E080E090E004C0660F771F881F991F88
:103AF0001A95D2F75FCF81E00E943C07B1E0BA157A
:103B000008F0DCCD82E00E943C07D8CDAA2059F015
:103B1000893309F071CEEFEFF7EE23E0E150F0408A
:103B20002040E1F767CE812F8F7171CF85E0F701DB
:103B3000DE01119601900D928A95E1F7D701129658
:103B40002C9189819A812111C5C90E940E05082FE7
:103B5000C9C906311C45D1F58091E201811182CCA1
:103B600089E20E94E80479CC0631ECE51E0709F4ED
:103B700064CC8091290282720D3CFCE51F0709F498
:103B800026CD08F0A4CC073C3CE5130709F40BCD87
:103B900008F07BCC043CACE51A0709F4FACC08F039
:103BA00063CC033CECE51E0709F4CECC0B35FDE5F8
:103BB0001F0709F448CD08F024CD01153CE5130793
:103BC00009F431CD0F3D1C4509F43ACDF70182814E
:103BD00000811181882309F43ACDC8010E94E40ACA
:103BE000D82E682FC8010E943605B8018D2D0E947D
:103BF00048098C01882ED7011296DC9012971596F1
:103C0000AC90A2944FE0A422809126028770A1F08C
:103C1000CD2CDD2091F0812F807F803421F080E257
:103C2000800F883048F082E00E943C078091260295
:103C30008770CC24C3948111C12CB12EB2943FE083
:103C4000B322BBE0BB1508F439CDEB2DF0E0E15F0A
:103C5000F84D0C94BE251F93CF93DF938091E9011B
:103C6000807FA9F48091E601882389F080911B026E
:103C7000D091EA016091E4017091E501A091E70122
:103C8000B091E801C62FC72316E0D81304C0DF9116
:103C9000CF911F91089590E0109711F0CF3F19F444
:103CA00001968770F2CF189F9001199F300D112453
:103CB000F901E551FE4F41814713F2CF4081461390
:103CC000EFCF42814111ECCF438154814A1B5B0B02
:103CD000483C510528F78091E9018F7080618093FD
:103CE000E901F901E051FE4F80818F70806180838E
:103CF00084EE91E00E942F17DF91CF911F910C94D9
:103D00006305AF92BF92CF92DF92EF92FF920F9333
:103D10001F93CF93DF93CDB7DEB761970FB6F894BB
:103D2000DEBF0FBECDBF8C0185E0F801DE011D9620
:103D300001900D928A95E1F7F80180819181E280EE
:103D400024EEA22E21E0B22E6091E7017091E801ED
:103D50006115710509F43EC13091E4014091E5011E
:103D6000232F24232F3F09F435C1C380D480F09042
:103D7000E601F601E61BF70BFF2009F4FBC02091DA
:103D8000E901522F507FE83CF10508F0BBC051110A
:103D900078C0FE2C491321C038131FC0E1101DC08C
:103DA0002F7020612093E901C5010E942F17809197
:103DB000E901F80185838F2D61960FB6F894DEBF77
:103DC0000FBECDBFDF91CF911F910F91FF90EF906C
:103DD000DF90CF90BF90AF900895CD2829F0282F85
:103DE00029232F3F09F014C120E0F22FF170DF2EBC
:103DF00020FF3DC020911B024091EA0156E02413B0
:103E000015C08D879E878D859E850E94260B292F44
:103E100022952F702230F8F0243020F59F70F9F0B1
:103E2000F8019581907FD9F4D12C1FC030E0529FCA
:103E3000F001539FF00D1124E551FE4F618196135F
:103E400006C06081861303C06281E61210C02F5F36
:103E50003F4F2770D4CF9F7011F0882329F3805EE5
:103E6000883010F3C8010E942F17FD2CA4CFEE203C
:103E700009F4A1CF8091E90181608093E901F12CDF
:103E80009ACF491312C0381310C0E1100EC0F801C8
:103E90002583C8010E942F1786E0F801A4EEB1E047
:103EA00001900D928A95E1F786CF8D879E878D854B
:103EB0009E850E94300B882309F1EE20F9F0809155
:103EC000E901803270F02091E4013091E5013887FA
:103ED0002F831986DB86CA868C87CE0107960E94BF
:103EE0002F1786E0F801A4EEB1E001900D928A95BB
:103EF000E1F70E942B1EFF24F3945DCFC8010E94BE
:103F00002F17F9CF51110AC084EE91E00E942F17AC
:103F100086E0F50111928A95E9F7B1CF49130FC0F8
:103F200038130DC0E1100BC0F8012583C8010E94B1
:103F30002F1786E0F50111928A95E9F73CCF8D871E
:103F40009E878D859E850E94300B8823B9F2EE20D6
:103F5000A9F28091E901803220F22091E4013091B0
:103F6000E5013A8329831B82DD82CC828E83CE01D8
:103F70000196B5CFE83CF105E0F6FE2CEE2009F401
:103F8000BDCF491316C0381314C08091E90180FDDC
:103F900083CF982F907F09F47FCFF8018583903FDE
:103FA00009F477CF982F907F905F8F70892B85834E
:103FB00070CF8D879E878D859E850E94300B8111E5
:103FC00090CF8091E90181608093E901C8010E944E
:103FD0002F17F1CEEE2009F491CF8D879E878D8526
:103FE0009E850E94300BF82E882309F487CF86E047
:103FF000F801A4EEB1E001900D928A95E1F780916D
:10400000E4019091E5010E94260B0E942B1ED3CE65
:1040100021E02E25EACE1F93CF93DF93CDB7DEB7F5
:1040200067970FB6F894DEBF0FBECDBF342F4B8B12
:10403000252F5C8B6D8B7E8B8F8B8E899F89611179
:10404000109228021A8A198A3D872E876F87998BCA
:10405000888B86E0FE013D96DE01179601900D9259
:104060008A95E1F7CE0107960E94811E882389F088
:1040700016E080911B029091EA01891349C067966E
:104080000FB6F894DEBF0FBECDBFDF91CF911F9169
:10409000089586E0FE013796DE01119601900D929B
:1040A0008A95E1F78A859B85892B11F38F81988505
:1040B00089238F3FE9F22091EA0130E0C90101969E
:1040C0008770992740911B024817190671F40E94C6
:1040D000A00E1092EA0110921B0286E0E4EEF1E0DD
:1040E000DF011D928A95E9F7C3CF96E0929FD00138
:1040F000939FB00D1124A551BE4FFE013196019042
:104100000D929A95E1F78093EA010E946305B0CF82
:10411000819FC001112485519E4F0E94811E8823DA
:1041200009F4ADCF80911B0290E00196877099272A
:1041300080931B029ECF1F920F920FB60F921124F5
:104140002F933F934F935F936F937F938F939F939F
:10415000AF93BF93CF93DF93EF93FF93D091E90099
:10416000DF708091EC00C82FC17080FDC0E8109214
:10417000E9008091F000877F8093F00078940E949E
:10418000AB0E1092E9008091F00088608093F000FF
:10419000CD2BCF70C093E900FF91EF91DF91CF91CC
:1041A000BF91AF919F918F917F916F915F914F914F
:1041B0003F912F910F900FBE0F901F9018951F9257
:1041C0000F920FB60F9211242F933F934F935F934B
:1041D0006F937F938F939F93AF93BF93EF93FF93CF
:1041E0008091E10082FF09C08091E20082FF05C05A
:1041F0008091E1008B7F8093E1008091DA0080FF65
:1042000024C08091D80080FF20C08091DA008E7F8A
:104210008093DA008091D90080FF9BC080E189BD46
:1042200082E189BD09B400FEFDCF81E08093710277
:1042300080916402811109C00E9403030E94CE0391
:104240008091E20084608093E2008091E10080FF31
:1042500017C08091E20080FF13C08091E2008E7F42
:104260008093E2008091E20080618093E20080917F
:10427000D80080628093D80019BC85E080937102D9
:104280008091E10084FF29C08091E20084FF25C075
:1042900080E189BD82E189BD89B5982F917080FF49
:1042A000FBCF8091D8008F7D8093D8008091E10072
:1042B0008F7E8093E1008091E2008F7E8093E20008
:1042C0008091E20081608093E200809172028823F5
:1042D00009F445C084E0809371028091E10083FF7E
:1042E00027C08091E20083FF23C08091E100877F97
:1042F0008093E10082E080937102109272028091BB
:10430000E1008E7F8093E1008091E2008E7F8093B8
:10431000E2008091E20080618093E20042E060E090
:1043200080E00E949C038091F00088608093F00000
:10433000FF91EF91BF91AF919F918F917F916F917D
:104340005F914F913F912F910F900FBE0F901F9053
:10435000189519BC109271021092640276CF809168
:10436000E30087FD93E090937102B7CFCDB7DEB73E
:1043700060970FB6F894DEBF0FBECDBF84B7877FBE
:1043800084BF0FB6F894A8958091600088618093EF
:104390006000109260000FBE80E890E00FB6F894C5
:1043A00080936100909361000FBE85B7806885BFE0
:1043B00085B7806885BF8EE894E0909383018093F1
:1043C00082010E9403030E94CE038091E200846078
:1043D0008093E2007894809171028823A1F010917B
:1043E000E9001F709091EC00892F817090FD80E8AA
:1043F000182B1092E9008091E80083FD0E94AB0E1B
:104400001F701093E90082E084BD93E095BD9AEFA0
:1044100097BD80936E0086E90E94EE0882E90E94B3
:10442000EE0881E90E94EE0885EF0E94EE0884EF15
:104430000E94EE0881EF0E94EE0810923502109261
:1044400042021092360210924302109237021092EA
:10445000440290E080E00E944A268A3E9E4F11F07E
:104460000E941B0E82E090E00E943C268093600236
:104470000E94CA0D90933402809333020E949514D7
:104480008FE39CE90197F1F700C000000E949514AA
:104490008091420280FF08C06FEF7FEF90E080E0E4
:1044A0000E946E260E94DD0B83E090E00E943C2675
:1044B000682F70E090E080E00E94790780914B02C5
:1044C000816080934B0261E086950E94D3168091B3
:1044D0003802811136C090E080E00E944A268A3E70
:1044E0009E4F21F00E941B0E0E940C0E88E090E06F
:1044F0000E94442660934B0270934C0280934D02BD
:1045000090934E026E7F71F40E940C0E88E090E052
:104510000E94442660934B0270934C0280934D029C
:1045200090934E020E9426061092510280914B02F7
:1045300080FF04C060E086950E94D31681E08093DE
:10454000380284E191E090933A028093390218E1B5
:10455000E12EF12C00E4C02EDD24D394BB24B394CF
:104560008091710210E102E1853009F4B9C10E9425
:104570009514882359F08FB7F89440913E025091DA
:104580003F0260914002709141028FBFE2E4F2E08D
:10459000A1E6B2E010E000E0202F91918D91891703
:1045A00009F4C6C18927482F4170942E80FDBAC1F5
:1045B00081FDBAC182FFBCC1B4E09B2E82E08F8333
:1045C0002887992181E009F480E089870E94A2046C
:1045D0008160782F9B878A874F81588569858B8575
:1045E0000E940B20F801EF59FD4F808198269082A0
:1045F000809151028823D1F180915002E0914B02C9
:10460000E695E81BE0934702823009F0A8C1F0E08C
:10461000E75BFB4FE4910E2F10E0F1E78F2EF4E102
:104620009F2E80914802882361F0109248020E94D8
:10463000A204909346028093450210924A0210927F
:1046400049020E94A204E0914502F09146028E1BAD
:104650009F0B8F3F9F4750F4E00FF11FF0934602EE
:10466000E093450285E492E0F401099586E0E9E5EE
:10467000F2E0DE01119601900D928A95E1F790909B
:104680005B0280905C0210915D0200915E021092CC
:104690005B0210925C0210925D0210925E02892D04
:1046A000882909F448C080915702909158020E94CD
:1046B00093049C0190915602992309F4CDC12333B0
:1046C0003105C8F19F3F19F09F5F909356029920E2
:1046D00059F00E9474089FEF19140CF491E0899F1F
:1046E000802D112480935B02882059F00E94740869
:1046F0009FEF18140CF491E0899F802D1124809372
:104700005C0230915B023323B1F020915C022223E2
:1047100091F045EB3403C0011124992309F48BC1B6
:1047200090935B0245EB240390011124332309F499
:1047300085C130935C02812F802B09F448C08091A1
:104740005402909155020E9493049C01909153024F
:10475000992309F47CC125363105C8F19F3F19F032
:104760009F5F90935302112359F00E9452089FEFCC
:1047700011160CF491E0899F802D112480935D0225
:10478000002359F00E9452089FEF10160CF491E09C
:10479000899F802D112480935E0230915D02332326
:1047A000B1F020915E02222391F045EB3403C00169
:1047B0001124992309F445C190935D0245EB24032C
:1047C00090011124332309F43FC130935E0280919C
:1047D0005B0290915C02892B90915D02892B9091F4
:1047E0005E02892B11F00E94CB0686E0FE01319615
:1047F000A9E5B2E001900D928A95E1F70E94AA0521
:1048000090915F02891709F4ABCE0E94AA058093AC
:104810005F02A6CE80917102843009F43DC01092EF
:10482000510280913D02811116C0B0923D028091EB
:104830004B02982F917090933C028E7F80934B0295
:10484000FFEF20E732E0F15020403040E1F700C0B8
:1048500000000E947A1110923B020FB6F894A895BE
:10486000E09260000FBEC092600083B7817F8460D9
:1048700083BF83B7816083BF7894889583B78E7F29
:1048800083BF0FB6F894A8958091600088618093EB
:104890006000109260000FBE80917002882301F1C9
:1048A0000E9495148091420290914302892B90912D
:1048B0004402892BA9F019BD09BD09B400FEFDCF42
:1048C0008091D8008F7D8093D8008091E000826035
:1048D0008093E0008091E00081FDFCCF0E94A00E5B
:1048E00080917102853009F495CF0E94A00E0E943C
:1048F000AA0510923D0280913C02882361F08091CC
:104900004B02816080934B0260E086950E94D31633
:104910000E9464112CCE809152028823C9F30E9418
:104920007A11F6CF80E04BCEA2E09A2E81E047CEFE
:104930000F5F1F4F0330110509F02ECE8FEF8C87CC
:104940008D871E860E94A2048160782F988B8F87A6
:104950004C855D856E8588890E940B2049CE863006
:1049600059F4F0E0EA5BFB4FE4910E2F10E0E5E82C
:104970008E2EE4E19E2E55CE893061F4E695F0E06E
:10498000ED5BFB4FE4910E2F10E07FE5872E72E187
:10499000972E47CE8F3061F4E695F0E0E05CFB4F58
:1049A000E4910E2F10E069E8862E62E1962E39CE52
:1049B000853159F4F0E0E35CFB4FE4910E2F10E0F9
:1049C00057EF852E52E1952E2CCE08E210E025E41B
:1049D000822E23E1922E883109F423CE833249F4CA
:1049E000EBE3F4E00591149148E1842E44E1942E28
:1049F00018CE04EF11E09EEC892E93E1992E8432BB
:104A000009F40FCE853281F48E2F63E00E947C255D
:104A1000E92FF0E0E85CFB4FE4910E2F10E030EB63
:104A2000832E31E1932EFDCD00ED17E08DE8882E29
:104A300084E0982EF6CDD0925B0274CED0925C02C8
:104A40007ACED0925D02BACED0925E02C0CE2D3226
:104A5000314008F085CEBBCE2D32314008F034CE47
:104A60006ACE78941F921FB61F9211248F939F9342
:104A7000AF93BF9380913E0290913F02A09140027C
:104A8000B09141020196A11DB11D80933E02909309
:104A90003F02A0934002B0934102BF91AF919F911A
:104AA0008F911F901FBE1F9018951F921FB61F92C7
:104AB00011248F939F93AF93BF9380913B028111F9
:104AC00013C080913E0290913F02A0914002B091AC
:104AD00041024196A11DB11D80933E0290933F0279
:104AE000A0934002B0934102BF91AF919F918F91EB
:104AF0001F901FBE1F901895991B79E004C0991F45
:104B0000961708F0961B881F7A95C9F78095089527
:104B100087FB082E062687FD819567FD61950E941B
:104B20007C250EF4919507FC81950895AA1BBB1B6B
:104B300051E107C0AA1FBB1FA617B70710F0A61B9D
:104B4000B70B881F991F5A95A9F780959095BC01BE
:104B5000CD01089597FB072E16F4009407D077FD3A
:104B600009D00E94962507FC05D03EF490958195CA
:104B70009F4F0895709561957F4F0895EE0FFF1F29
:104B80000590F491E02D09940E94D826332312F465
:104B90008A1B9B0B0C94CE250E94D826B7FF089544
:104BA000821B930B08958F929F92AF92BF92CF92E8
:104BB000DF92EF92FF92CF93DF93EC0168817981CE
:104BC0008A819B81611571058105910521F464E25B
:104BD00079ED8BE597E02DE133EF41E050E00E9465
:104BE000842649015A019B01AC01A7EAB1E40E9465
:104BF000A3266B017C01ACEEB4EFA50194010E94E9
:104C0000B126DC01CB018C0D9D1DAE1DBF1DB7FF74
:104C100003C00197A109B04888839983AA83BB8305
:104C20009F77DF91CF91FF90EF90DF90CF90BF9073
:104C3000AF909F908F9008950E94D325089580E0B3
:104C400091E00E94D3250895B0E0A0E08093000198
:104C500090930101A0930201B09303010895FC0118
:104C60004150504030F001900616D1F73197CF01F6
:104C70000895882799270895F999FECF92BD81BD9F
:104C8000F89A992780B50895A6E1B0E044E050E095
:104C90000C947626A8E1B0E042E050E00C94762631
:104CA000262FF999FECF92BD81BDF89A019700B4E5
:104CB000021639F01FBA20BD0FB6F894FA9AF99A85
:104CC0000FBE08950396272F0E9451260E9450265A
:104CD000252F0E945126242F0C9451260196272F10
:104CE0000E9451260C945026DC01CB01FC01F9995D
:104CF000FECF06C0F2BDE1BDF89A319600B40D9228
:104D000041505040B8F70895052E97FB1EF40094CB
:104D10000E949B2657FD07D00E94B62607FC03D0B1
:104D20004EF40C949B2650954095309521953F4F1D
:104D30004F4F5F4F089590958095709561957F4F87
:104D40008F4F9F4F08950E94D826A59F900DB49F26
:104D5000900DA49F800D911D11240895B7FF0C9410
:104D6000A3260E94A326821B930B0895A1E21A2E6C
:104D7000AA1BBB1BFD010DC0AA1FBB1FEE1FFF1FFF
:104D8000A217B307E407F50720F0A21BB30BE40B4F
:104D9000F50B661F771F881F991F1A9469F7609596
:104DA0007095809590959B01AC01BD01CF01089550
:104DB000A29FB001B39FC001A39F700D811D11245C
:104DC000911DB29F700D811D1124911D0895F894BD
:104DD000FFCF3F0B3F0B480B480B4A0B480B480BD0
:104DE000480B3F0B3F0B4F0B480B480B4F0B8E0FE5
:104DF000B60F4C11B60F4C11E90F0A104C110711E8
:104E00001411D717DF17E517EA17EF17F417F9177B
:104E1000FE17031808180D1812181718D0182C1B95
:104E20002C1BA31BA31B001C1A1C5E1B5E1B251C3A
:064E3000FB1C0A1D0A1D17
:104E360001000000FF01191A1B1C1D1E1F20212244
:104E4600010201FF9004B00B8F0B8B0B870B010047
:104E560001020202020606060909090909090F0FDD
:104E66000F0F0F0F151515181919191919191919E1
:104E760019192324252525252525818283E200E984
:104E860000EA00B500B600B700CD008301CC008A69
:104E960001920194012102230224022502260227FF
:104EA600022A02B300B4006F007000969291F5F4E6
:024EB600F10009
:00000001FF
