:100000000C948E010C94D5010C94D5010C94D5015F
:100010000C94D5010C94D5010C94D5010C94D50108
:100020000C94D5010C94D5010C94CC1D0C94A01EFD
:100030000C9403190C94D5010C94D5010C94D501A2
:100040000C94D5010C94D5010C94D5010C94D501D8
:100050000C94D5010C945A190C94D5010C94D5012B
:100060000C94D5010C94D5010C94D5010C94D501B8
:100070000C94D5010C94D5010C94D5010C94D501A8
:100080000C94D5010C94D5010C94D5010C94D50198
:100090000C94D5010C94D5010C94D5010C94D50188
:1000A0000C94D5010C94D5010C94D5010102E17892
:1000B0000103E100252500F30001530000AB0034EB
:1000C00002380034002D0024002500260000002105
:1000D000002200230000001E001F00200028410015
:1000E00000270037000000010001000000010000AF
:1000F00053000000004C004A0052004D002A0050FE
:100100000000004F0000004B0051004E00010000B5
:100110000001002C00000000000000000000002A88
:100120002B2800000000000000000000000000007C
:10013000000029000000002C1E3420212224342637
:1001400027252E362D3738271E1F20212223242530
:10015000263333362E37381F0405060708090A0BE5
:100160000C0D0E0F101112131415161718191A1B57
:100170001C1D2F3130232D350405060708090A0BF5
:100180000C0D0E0F101112131415161718191A1B37
:100190001C1D2F3130354C00000000000000000015
:1001A000000000000000000000000000000000004F
:1001B00000000000000000000000007E0F00D4FFDF
:1001C000FFFFC7000000781203540065006E006B4B
:1001D00000650079002B002B00000032034C006901
:1001E000007A00610072006400200054007200690F
:1001F0000063006B00200045006C00650063007424
:100200000072006F006E006900630073000000045C
:1002100003090409023B00020100A0FA09040000DE
:10022000010301010009211101000122400007051D
:10023000810308000A0904010001030000000921EC
:1002400011010001227B000705820320000A120130
:10025000100100000008EDFE000001000102000195
:1002600005010902A10185020901A1000509190181
:10027000290815002501950875018102050109303D
:1002800009311581257F9502750881060938158188
:10029000257F950175088106050C0A380215812510
:1002A0007F950175088106C0C005010980A10185FF
:1002B0000319012AB700150126B7009501751081B1
:1002C00000C0050C0901A101850419012AA002152D
:1002D0000126A002950175108100C005010906A143
:1002E00001050719E029E715002501950875018129
:1002F000029501750881010507190029FF150026DF
:10030000FF00950675088100050819012905950566
:1003100075019102950175039101C00011241FBE62
:10032000CFEFDAE0DEBFCDBF04B603FE27C0809179
:10033000580290915902A0915A02B0915B02873005
:10034000904BA740B04BD1F4109258021092590232
:1003500010925A0210925B0214BE84B7877F84BF4A
:100360000FB6F894A8958091600088618093600032
:10037000109260000FBEE0E0F8E3099511E0A0E004
:10038000B1E0E0EDF1E402C005900D92A839B107AB
:10039000D9F722E0A8E9B1E001C01D92A835B20763
:1003A000E1F70E94081B0C94C2200C9400000097F7
:1003B00021F0019759F081E00895FB0182818823A3
:1003C000D1F384EB90E00E94FC03F5CFFB01828126
:1003D000882389F38CEA90E0F6CF81110AC089EF77
:1003E00090E0611102C08AEF90E00E946C0281E00F
:1003F0000895813039F48BE291E06111F6CF8BE200
:1004000093E1F3CF823099F78EE490E06111EDCF64
:100410008BE490E0EACFCF93DF939C013A952115CE
:100420003F4168F5EC01CC27D170DC01AA27B270FE
:10043000AC01442754709C012227387094FF11C0EE
:1004400080E1CD2B09F480E0AB2B09F08062452BD5
:1004500009F08064232B09F08068FB01DF91CF91C4
:10046000099481E0CD2B09F480E0AB2B09F0826088
:10047000452B09F08460232B81F38860EECFDF9158
:10048000CF910895CF93DF93EC01805E9109089797
:1004900020F06FEA71E1209711F469E57FE0CE0169
:1004A0000E940B028C2FDF91CF910C94520ECF93B0
:1004B000DF93EC010E94E40ECE01805E9109089763
:1004C00020F066EB71E1209711F460E67FE0CE0149
:1004D000DF91CF910C940B02CF93DF93EC010E943C
:1004E0004202CE01DF91CF910C94570281E0089532
:1004F0000C94D70108950C947A021F93CF93DF9345
:1005000000D000D00F92CDB7DEB749835A836B83FA
:100510003091D00189819A8131111DC06623B9F0D3
:100520002223A9F00E944416182F682F89819A81EE
:100530000E94F11569817A81812F0F900F900F90A1
:100540000F900F90DF91CF911F910C940E040E9499
:100550001D16182FEFCF0E94441669817A81EDCFC6
:10056000FC01262F408151816281738184810C942A
:100570007D02CF93DF93EC0160E00E94B002BE01E8
:10058000DF91CF910C947B020E940E060C943306EF
:100590000C94360608950E94D3110E94CA022FEFD0
:1005A00084E39CE0215080409040E1F700C00000CF
:1005B0000C947E190F931F93CF93DF938C0161E00E
:1005C0000E94B002EC01B8010E9478028823A9F1D0
:1005D000B801CE010E94330B882379F1B801CE0116
:1005E0000E94850B882349F1B801CE010E94A80C16
:1005F000882319F1F8018281882361F0CB35FDE56C
:10060000DF0721F170F4C115ECE5DE07A1F0CF3D65
:10061000DC45C9F0C801DF91CF911F910F910C9477
:100620007602CC358DE5D807A1F0CD35DD4591F7C3
:100630000E94EB16EFCF0E94CB0280E0DF91CF91BA
:100640001F910F9108950E945718F7CF0E94F4163A
:10065000E1CF0E94F716DECFDF92EF92FF920F9369
:100660001F93CF93DF93E82FF0E0E95EFE4FD49025
:10067000282F26952695269530E0F901E954FE4F5E
:100680000491877010E0082E02C0159507950A9412
:10069000E2F701701127F901E955FE4FE490F12CC2
:1006A000082E02C0F594E7940A94E2F791E0E9225B
:1006B000FF24F901E956FE4FC491D0E002C0D59560
:1006C000C7958A95E2F7C170DD270115110519F06C
:1006D00081EE0E94520EE114F10419F086EE0E94A0
:1006E000520E8D2D0E94510FEF2819F086EE0E94B8
:1006F000E40E012B19F081EE0E94E40ECD2B51F097
:100700008CE2DF91CF911F910F91FF90EF90DF90DE
:100710000C94510FDF91CF911F910F91FF90EF90AB
:10072000DF900895EF92FF920F931F93CF93DF9383
:100730008C01F62E8AE0E82EF8018491882309F4D2
:1007400054C0813009F04DC0E8012196FE0184912A
:10075000813091F42196FE0184910E94510F8E0107
:100760000F5F1F4F8F2D815038F3EFE9FFE0319776
:10077000F1F700C00000F7CF823039F4E80122968B
:10078000FE0184910E94520EEACF833039F4E801D1
:100790002296FE0184910E94E40EE1CF8430F9F6A6
:1007A000E8012296FE01249190E080E0FE0131965E
:1007B0002053330B2A30310548F0019780F2EFE9DE
:1007C000FFE03197F1F700C00000F7CFE89EA001ED
:1007D000E99E500D1124C901840F951F2491EF014A
:1007E000E5CF0E942C03E801BACFDF91CF911F9192
:1007F0000F91FF90EF90089560E00C94920308959C
:100800000C94FF0381E008950C940204CF93C82F49
:100810000E9400048C2FCF910C940404E72FF0E089
:1008200096E0899FE00DF11D1124EE0FFF1FEE0FE2
:10083000FF1FE60FF11DEE0FFF1FE954FF4F8591DB
:1008400094910895CF93DF930E940E040E941C059B
:10085000EC01811521E5920708F042C0811530E5D1
:10086000930708F09DC0883E910530F5803E9105C4
:1008700008F092C0883A910588F4853A910508F00D
:1008800084C08130910509F487C0009709F484C0C1
:10089000049708F081C0D0E0C0E07EC08F3B910596
:1008A000D0F7C85AD0E0CC0FDD1FCB5EDE4F0990E9
:1008B000D881C02DD46470C08115904250F4C11508
:1008C00081E0D80708F068C0CD3ED10520F3D0659F
:1008D00063C0C11590E4D907F0F2DF70D06A5CC044
:1008E000811525E5920700F5811534E5930708F099
:1008F0008BC0811543E5940708F073C0C11582E5EC
:10090000D80708F469C0CE018370992721E030E050
:1009100002C0220F331F8A95E2F7C695C69580E282
:10092000C89FE001112454C0C11599E5D907A8F466
:10093000C11528E5D20708F06CC0C11536E5D3070C
:1009400008F0A9CF8C2F0E94B305C82FD0E0DC2F70
:10095000CC27CC27DF71D0621FC0C1154AE5D40770
:1009600008F45CC0CE0190568115904208F093CFF8
:100970008D2F8F710E94B30590E0982F88278827CC
:100980009F719C012C2BE901E6CFC55AD0E0CD5BCD
:10099000DE4FC881D0E0D064CE01DF91CF910895C1
:1009A000E4E096958795EA95E1F783702C2F2695DC
:1009B0002695237040E2249F90011124382B8C2F20
:1009C0008370C1E0D0E002C0CC0FDD1F8A95E2F752
:1009D000C22BD32BDC68E0CFDC2FCC27C16FD06AD1
:1009E000DBCF8370992721E030E002C0220F331F54
:1009F0008A95E2F7C695C69590E2C99FE001112459
:100A0000C22BD32BDA68C8CFD82FCC27C46FD06ABB
:100A1000C3CFDC2FCC27C06FD06ABECF8C2F8F7096
:100A20000E94B30534E0D695C7953A95E1F7CF70AB
:100A30009C2FEC01D069B0CF82389105B1F1B0F4B0
:100A40008133910509F475C048F48932910509F4A0
:100A500069C08A32910509F473C008958533910500
:100A600009F459C08933910501F10895833E910538
:100A7000A9F138F4803E9105F9F0823E910549F1E3
:100A80000895863E9105A9F1873E9105C9F1843EFE
:100A9000910519F520913A0221FF1FC0809139027A
:100AA00084FD14C087EE90E00895209139022370F0
:100AB000A1F080EE90E008952091390220FD47C01A
:100AC00030913A0230FF09C024FF44C090E080E03A
:100AD00004C02091390222FDF7CF089520913902F8
:100AE00022FD3BC030913A0230FDE3CF24FFF5CF29
:100AF000EDCF2091390223FFF0CF24FDE7CFD2CFF5
:100B00002091390223FD2CC030913A0231FFEECF03
:100B100084EE90E008952091390225FFDECF89E22E
:100B200090E008952091390225FFD7CF85E390E02A
:100B300008952091390226FFD0CF8AE290E00895EF
:100B40002091390226FFC9CF81E390E0089589E31F
:100B500090E0089583EE90E0089582EE90E008958D
:100B600086EE90E008959091390292FF06C0282FFA
:100B700028712830F9F4877F846093FF06C0282FFE
:100B800028712831F1F4877E846120913A0220FF98
:100B900006C0382F38713830D9F4877F816021FF43
:100BA00006C0282F28712831D1F4877E816194FDF9
:100BB000877E0895282F24712430F9F68B7F886072
:100BC000DCCF282F2471243101F78B7E8861DDCFA3
:100BD000382F3171313019F78E7F8860E0CF282FA0
:100BE0002171213121F78E7E8861E1CF0C94AC1701
:100BF0000E948C068FE39CE90197F1F700C000008A
:100C00000E948C0680E00E94380680FF04C00E948B
:100C1000F6050C947E1908950C94F8050E94B217FD
:100C2000811102C00E9457180E94BD1780932D02A7
:100C30000E94C51790933A02809339020E940C06D5
:100C40000E94C117682F70E090E080E00E94F314CA
:100C5000609118027091190280911A0290911B0202
:100C60000C942D1508950C94320608950C943506B5
:100C7000E82FF0E0EF5BFD4F80810895089580EA52
:100C80008A95F1F7089500C008950C943F06F894F2
:100C9000E82FE295EF70F0E031A1282F2F7081E06E
:100CA00090E001C0880F2A95EAF7982F909593233A
:100CB00091A392A1892B82A37894089587E30E943F
:100CC000470684E90E94470685E30E94470686E3BB
:100CD0000E94470686E60E94470687E60E9447066E
:100CE00085E90E94470683E90E94470682E90E943F
:100CF000470687EF0E944706EBE3F2E0A1E4B2E08B
:100D000081E492E011921D928E179F07D9F786E039
:100D10000E9403070C94C402CF92DF92EF92FF92DD
:100D20000F931F93CF93DF93CAE4D1E00BE312E05C
:100D3000D12CEE24E394F12C8991F894E82FE295DC
:100D4000EF70F0E021A18F70A70102C0440F551F82
:100D50008A95E2F7CA01922F982B91A392A18095D0
:100D6000892382A378940E944306E6E4F1E030E010
:100D700020E0C12C4191A42FA295AF70B0E09096D5
:100D80008C9190E04F7002C0959587954A95E2F757
:100D900080FD35C08E2D022E01C0880F0A94EAF71F
:100DA000C82A2F5F3F4F2430310521F7FE013197CC
:100DB00080810E9447060E944506F8018081C8167E
:100DC00001F1C08281E0D82A0F5F1F4FF1E0C035EA
:100DD000DF0709F0B1CF2D2D46E061E472E08BE32F
:100DE00092E00E9404070E94C8028D2DDF91CF91EE
:100DF0001F910F91FF90EF90DF90CF90089580E0CA
:100E0000CFCF80E0E0CF0895FF920F931F93CF9351
:100E1000DF93F82E092F162FD72FC42F222349F046
:100E200081E080939C010E94331990939B018093F1
:100E30009A0180919C018823A1F080919A01909160
:100E40009B010E944B19069760F0EF2DF02FA12F08
:100E5000BD2FCE0FDF2FD11DEC17FD0741F41092EF
:100E60009C01DF91CF911F910F91FF900895819187
:100E70008D93F2CF8091A30180FF12C06091050194
:100E800085E0689FB0011124759567957595679504
:100E900060387105A8F561157105A1F1862F0895D7
:100EA00081FF09C06091050185E0689FB0011124B0
:100EB00075956795EDCF6091050182FD0AC080911F
:100EC000A2018823D1F09091040160910501891756
:100ED00028F085E0689FB0011124DACF869FB00129
:100EE000112485E0869F9001879F300D1124692F82
:100EF00070E0C9010E945220CBCF65E070E0CECFF8
:100F00008FE7089581E008958091A30180FF0CC0D0
:100F10006091010170E0759567957595679561150C
:100F2000710549F1862F089581FF06C06091010186
:100F300070E075956795F3CF6091010182FD0BC05C
:100F40009091A1019923A1F060910001809101018C
:100F5000961738F0682F70E06038710500F38FE75E
:100F60000895899FC001112470E00E945220F4CF9F
:100F700061E070E0D7CF81E008958D3E31F40E94AA
:100F80003A0781958093A70108958E3E19F40E9437
:100F90003A07F8CF8F3E31F40E943A07819580934B
:100FA000A6010895803F19F40E943A07F8CF893FBF
:100FB00029F40E9484078093A80108958A3F21F4B0
:100FC0000E9484078195F7CF8B3F31F40E948407FC
:100FD00081958093A90108958C3F19F40E9484079C
:100FE000F8CF9FE0980F983070F4815F990B21E063
:100FF00030E001C0220F8A95EAF78091A501822B8B
:101000008093A50108958D3F31F48091A301816003
:101010008093A30108958E3F21F48091A301826003
:10102000F7CF8F3FB9F78091A3018460F1CF409152
:10103000A6018D3E59F48091A70187FF0DC0109243
:10104000A70141110BC01092A20108C08E3E81F48D
:101050008091A70118169CF3442381F08091A80188
:101060009091A901892B09F05AC01092A10108950D
:101070008F3E49F447FFF0CF1092A6018091A7015F
:101080008111ECCFE0CF803F19F41416ACF3E4CF1C
:101090009091A801893F29F41916F4F61092A8013D
:1010A000DBCF8A3F19F497FFD7CFF8CF9091A901F2
:1010B0008B3F29F497FFD0CF1092A901CDCF8C3F61
:1010C00019F41916CCF3C8CF9FE0980F983090F41C
:1010D000815F990B21E030E0B90102C0660F771FF4
:1010E0008A95E2F7CB0180959091A50189238093A1
:1010F000A501B2CF8D3F31F48091A3018E7F809303
:10110000A301AACF8E3F21F48091A3018D7FF7CF59
:101110008F3F09F0A1CF8091A3018B7FF0CF08957D
:101120000E9433199C019091A6018091A701982BF0
:1011300021F03093A00120939F019091A80180910C
:10114000A901982B21F030939E0120939D0184EA00
:1011500091E00C94EE0CEF92FF920F931F93CF93BC
:10116000DF9300D000D000D0CDB7DEB786E0E4EA50
:10117000F1E0DE01119601900D928A95E1F7E09081
:10118000A601F090A7010091A8011091A901109269
:10119000A6011092A7011092A8011092A9018E2D0C
:1011A0008F2991F080919F019091A0010E944B198D
:1011B000AC019091A201992309F43FC080910601EE
:1011C0008417150608F447C0802F812B91F0809179
:1011D0009D0190919E010E944B19AC019091A1013B
:1011E000992309F477C0809102018417150608F449
:1011F0007FC08091A6019091A701892B9091A801B1
:10120000892B9091A901892B11F00E94900886E00A
:10121000FE013196A4EAB1E001900D928A95E1F7C2
:1012200026960FB6F894DEBF0FBECDBFDF91CF91EB
:101230001F910F91FF90EF900895209107018AE090
:10124000289F900111242417350708F0BDCF9F5F18
:101250009093A20102C09F3FD1F7EE2059F00E9467
:101260003A079FEF1E140CF491E0899F802D112402
:101270008093A601FF2059F00E943A079FEF1F14A8
:101280000CF491E0899F802D11248093A701309167
:10129000A601332309F498CF2091A701222309F452
:1012A00093CF45EB3403C0011124992359F0909357
:1012B000A60145EB240390011124332339F0309328
:1012C000A70182CF81E08093A601F3CF81E08093D4
:1012D000A7017ACF209103018AE0289F9001112471
:1012E0002417350708F085CF9F5F9093A10102C0B6
:1012F0009F3FD1F7002359F00E9484079FEF1016FB
:101300000CF491E0899F802D11248093A801112372
:1013100059F00E9484079FEF11160CF491E0899F09
:10132000802D11248093A9013091A801332309F461
:1013300060CF2091A901222309F45BCF45EB340350
:10134000C0011124992359F09093A80145EB24037F
:1013500090011124332339F03093A9014ACF81E061
:101360008093A801F3CF81E08093A90142CF86E06A
:10137000E4EAF1E0DF011D928A95E9F71092A201FB
:101380001092A1011092A30108950C94ED01AF9267
:10139000BF92CF92DF92EF92FF920F931F93CF9362
:1013A000DF93A3E6B1E020E631E080EBA82E81E0F8
:1013B000B82E66E671E041E050E00D91802F8295F5
:1013C0008F7090E0FC01C1A10F707A01002E01C066
:1013D000EE0C0A94EAF7FE2DF095CF23FC01C1A391
:1013E000C2A1CE29C2A3E90119919E01E12FE29584
:1013F000EF70F0E0F1A01F706A01012E01C0CC0C6B
:101400000A94EAF7EC2CE094EF20E1A2F2A0FC2889
:10141000F2A2EC0188A190E002C0959587950A950B
:10142000E2F78170E0A1F0E002C0F595E7951A952A
:10143000E2F790E0E0FD92E0892BF50181935F01F6
:101440006A177B0709F0B9CFDF91CF911F910F91F8
:10145000FF90EF90DF90CF90BF90AF9008956F9284
:101460007F928F929F92AF92BF92CF92DF92EF9234
:10147000FF920F931F93CF93DF9300EB11E083E66E
:10148000C82E81E0D82E90E6E92E91E0F92E2DEAC3
:10149000822E21E0922ECAEAD1E0712C612C34E038
:1014A000A32EB12CD801EC91EE0FEE0FED938D0130
:1014B000D6012D916D01A22FA295AF70B0E090964C
:1014C0008C9190E02F7002C0959587952A95E2F750
:1014D00081709927D7014D917D01A42FA295AF70FE
:1014E000B0E090962C9130E04F7002C03595279572
:1014F0004A95E2F7A9014170552720FF02C042E05A
:1015000050E0842BE82BD8011197EC93EF70F0E0BA
:10151000E05BFE4F8081F4019081890F808320E0A1
:10152000843044F088818F5F888360E0872D0E943B
:10153000C50921E0D4018C918D3F44F4888181500C
:10154000888361E0872D0E94C50921E0F401808134
:10155000082E000C990BB5010E945220D4018D93E6
:101560004D01622A73942196B3E07B129BCF862DA6
:10157000DF91CF911F910F91FF90EF90DF90CF906F
:10158000BF90AF909F908F907F906F9008950F9332
:101590001F93CF93DF93C42FD22FFC018281882326
:1015A000C9F04093B5010E9433199093B401809320
:1015B000B30180E28C0F883008F050C0C77081E022
:1015C00001C0880FCA95EAF7DF91CF911F910F9163
:1015D0000C94590F1091B501141335C08091B301CB
:1015E0009091B4010E944B19883C910560F5C0E2CE
:1015F000CD0F1D17B9F080E2810F883040F41770CD
:1016000081E001C0880F1A95EAF70E94600FC83088
:1016100048F481E09D2F977001C0880F9A95EAF7F2
:101620000E94590F802F0E94510FC830B8F4D77014
:1016300081E001C0880FDA95EAF7DF91CF911F9121
:101640000F910C94600F80E28C0F883038F4C770D3
:1016500081E001C0880FCA95EAF7EFCFDF91CF9103
:101660001F910F9108950F939C01CB01243F4CE5EE
:10167000340759F1A8F4293DFCE53F0701F12A3D63
:101680004CE53407D1F1283D3C4591F406E221EECA
:1016900041EE68ED7CE50E94C70A80E00F91089555
:1016A000263FFCE53F07E9F0B0F0273F3C45F9F065
:1016B000FC018281882339F11092B501EFCF07E256
:1016C00025EE45EE69ED7CE5E6CF06E221EE40EE43
:1016D00064EF7CE5E0CF07E225EE44EE65EF7CE5C4
:1016E000DACF06E221EE42EE66EF7CE5D4CF07E2E8
:1016F00025EE46EE67EF7CE5CECF08E221E045EE31
:101700006AED7CE5C8CF81E0C9CFCF93DF93EC01D0
:10171000FB018281882309F419C1C230FCE5DF078F
:10172000C0F1C6319CE5D90730F09E012B5F3C45E6
:101730002930310570F50E94C51790933A028093C5
:101740003902C031ECE5DE0709F4CFC008F05BC018
:10175000C8308CE5D80709F4B6C088F5C430ECE58C
:10176000DE0709F4A8C0C0F4C2308CE5D80709F43C
:101770009CC0809139028260C330DC4509F498C076
:101780008091390290913A020E94D3170E94D3119E
:1017900080E0DF91CF910895809139028061C63059
:1017A000ECE5DE0709F484C0809139028860C73017
:1017B000DC4508F47DC080913902806279C0CC306C
:1017C0008CE5D80709F489C070F4809139028C60E7
:1017D000CA30ECE5DE0709F46BC008F478C08091EC
:1017E00039028E7F65C0CE308CE5D80709F479C008
:1017F000809139028B7FCF30DC4508F459C080914D
:1018000039028F7E55C0CC3FECE5DE0709F457C0A6
:1018100030F5C3318CE5D80709F46FC078F4C131D5
:10182000ECE5DE0709F465C0C231DC4509F0A8CF5C
:101830000E94D311809139028F773AC0C5318CE56F
:10184000D80709F462C008F476C080913A0281603A
:10185000CB3FDC4509F094CF80933A0291CFC1157C
:10186000FDE5DF0709F44DC088F480913A028D7FD1
:10187000CE3F9CE5D90781F380913A028E7FCF3F1E
:10188000DC4550F380913A028360E6CFC230FDE53B
:10189000DF0709F459C008F444C080E0C330DD45D7
:1018A00009F06ECF0E9459186BCF80913902816088
:1018B0008093390265CF809139028460F9CF80919D
:1018C0003A028260C9CF809139028064F1CF0E94D0
:1018D000D311809139028068EBCF809139028D7FDE
:1018E000E7CF80913902877FE3CF809139028F7DE6
:1018F000DFCF809139028F7BDBCF80913902837FEC
:10190000D7CF80913A028C7FA7CF8091390282FB9A
:10191000992790F921E0922790FB82F990FB83F9B7
:10192000C7CF80913A02982F909591708E7F892B26
:1019300090FB81F991CF0E94D31190913902892FA8
:1019400097FB87F98058B4CF81E0ACCF81E021CFFD
:10195000CF93DF93EB0186319C4511F50E94FA1677
:101960009A81992399F08A7A91E009F490E0909312
:10197000B601811109C089E20E94B4160E943D1788
:1019800080E0DF91CF91089585E3F6CF8091B60195
:10199000811104C089E20E94BB16F0CF85E3FBCF22
:1019A00081E0EFCF9093BC018093BB010895E0915B
:1019B000BB01F091BC01309721F00190F081E02D46
:1019C000099480E00895E091BB01F091BC0130974B
:1019D00021F00280F381E02D09940895E091BB018C
:1019E000F091BC01309739F022E0DC012C930480A7
:1019F000F581E02D099408952091B9013091BA0143
:101A00002817390771F09093BA018093B901E091DA
:101A1000BB01F091BC01309721F00680F781E02DE9
:101A2000099408952091B7013091B801281739071A
:101A300071F09093B8018093B701E091BB01F091F0
:101A4000BC01309721F00084F185E02D09940895C0
:101A50000E943F196093CC017093CD018093CE0119
:101A60009093CF016093C8017093C9018093CA011C
:101A70009093CB0108950E943F196093CC0170931D
:101A8000CD018093CE019093CF016093C4017093F8
:101A9000C5018093C6019093C701089585B78068FA
:101AA00085BF85B7806885BF0895089508950C9413
:101AB000550D08950C94590D0E944E0D8AEA97E138
:101AC0000E94A2190E94560D0C94570D81E00895B2
:101AD0000C94660D089508950E946A0D0C946B0D88
:101AE0000E942A190E945E060E94C7090C945A0D92
:101AF000AF92BF92CF92DF92EF92FF920F931F931C
:101B0000CF93DF93CDB7DEB72A970FB6F894DEBF39
:101B10000FBECDBF0E948C0681110E94280D8EEB56
:101B2000A82E81E0B82E10E000E0C02E802F0E9489
:101B30003806E82EF501F1905F01F81609F453C05C
:101B400080912D0281FD0E943E068F2D8E25D12C85
:101B5000FF24F394982F9F2109F440C00E94680D40
:101B6000882399F0DE82CF82EF2081E009F480E0C3
:101B700088870E9433198160782F9A8789874E81E0
:101B80005F8168858A850E941B0EF801E254FE4F32
:101B90008081F826F0820E942F0A81110E943B0D5D
:101BA0000E94AB080E94D70C9091BD01891791F15A
:101BB0000E94D70C8093BD012A960FB6F894DEBF21
:101BC0000FBECDBFDF91CF911F910F91FF90EF908E
:101BD000DF90CF90BF90AF900C940604D394FF0C8D
:101BE000F4E0DF12B7CF0F5F1F4F0630110509F089
:101BF0009CCF8FEF89838A831B820E943319816077
:101C0000782F9D838C8349815A816B818D810E94BD
:101C10001B0EC1CF2A960FB6F894DEBF0FBECDBF04
:101C2000DF91CF911F910F91FF90EF90DF90CF90B8
:101C3000BF90AF900895DF92EF92FF920F931F93A2
:101C4000CF93DF93CDB7DEB72B970FB6F894DEBFF7
:101C50000FBECDBF7A878B87F42E052F162FE72E68
:101C6000D82E61110E941A171E821D827E2DEC82D1
:101C7000DD824F2D502F612F8D2D9E812B960FB61B
:101C8000F894DEBF0FBECDBFDF91CF911F910F91B2
:101C9000FF90EF90DF900C944914FC0180819181BA
:101CA0000C948616CF93C82F882309F48BC08238F2
:101CB000C1F40E94D70C81FD85C089E30E94B4164F
:101CC0000E943D172FEF81EE94E02150804090401C
:101CD000E1F700C0000089E30E94BB16CF910C948D
:101CE0003D178338A1F40E94D70C80FD6BC083E5BB
:101CF0000E94B4160E943D172FEF81EE94E0215010
:101D000080409040E1F700C0000083E5E5CF8438D3
:101D1000A1F40E94D70C82FD55C087E40E94B4163E
:101D20000E943D172FEF81EE94E0215080409040BB
:101D3000E1F700C0000087E4CFCF8CEF8C0F813A31
:101D400090F46C2F80910801909109010E94701805
:101D5000882329F08C2F0E94BB160E943D178C2FE0
:101D60000E94B416BBCF80E28C0F883048F4C77055
:101D700081E001C0880FCA95EAF70E94FD16AECF38
:101D8000EBE5EC0FE33040F4F0E0EC56FE4F8081E1
:101D900090E0CF910C94FC0CE8E5EC0FE73150F4A7
:101DA000F0E0EE0FFF1FEA59FE4F80819181CF9145
:101DB0000C94120DCD3E30F08C2F0E94BD07CF91B8
:101DC0000C949008CF910895882309F452C082386A
:101DD00071F40E94D70C81FF4CC089E30E94B416B5
:101DE0000E943D1789E30E94BB160C943D1783386F
:101DF00059F40E94D70C80FF3CC083E50E94B416C2
:101E00000E943D1783E5EFCF843859F40E94D70C28
:101E100082FF2FC087E40E94B4160E943D1787E41A
:101E2000E2CF9CEF980F913AF0F290E2980F983041
:101E300050F4877091E001C0990F8A95EAF7892FD5
:101E40000E940317D2CF9BE5980F933020F490E0C7
:101E500080E00C94FC0C98E5980F973120F490E00A
:101E600080E00C94120D8D3E20F00E9417080C9417
:101E7000900808951F93CF93DF93182FEB010E94D2
:101E8000520E209731F4812FDF91CF911F910C9446
:101E9000E40E8FE99FE00197F1F700C00000219761
:101EA000F0CF70E060E0893311F460E570E00C94ED
:101EB0003A0F882321F00E94FD160C943D170895D7
:101EC000882321F00E9403170C943D170895BF92B8
:101ED000CF92DF92EF92FF920F931F93CF93DF93F6
:101EE0006C01D62FC72FFC011281058102950F705E
:101EF0000E94D216E82E8823A1F0E12E112389F04A
:101F00008C2F807F803429F080E28D0FE12C883087
:101F100040F082E00E948E170E94D21691E0E82ED7
:101F2000E926BC2EB2949FE0B922FBE0FB1598F1A4
:101F3000EB2DF0E0EC53FF4D0C9466200C2F0F704E
:101F4000C07F11F00295007F1123A9F0002359F002
:101F500080E28D0F883010F0D11109C0802F0E94CF
:101F6000FD160E943D178D2F0E94520E14C0802F27
:101F70000E940D17F6CF8D2F0E94E40E002359F01A
:101F800080E28D0F883010F0D1112CC0802F0E947C
:101F900003170E943D172B2D2850330B2430310599
:101FA00020F40E94D70C0E940604EE2009F48EC192
:101FB0000E94CE1680FD8AC1F60112820E94C816C8
:101FC0000E945515C6010E9487110E94C816DF9114
:101FD000CF911F910F91FF90EF90DF90CF90BF9026
:101FE0000C947615802F0E941317D3CF2C2F2F70AF
:101FF000F22EC07FC03219F0F29480EFF822DD2378
:1020000069F0D13049F1112391F1002351F1F6012A
:10201000858180FFA8CF8F70858323C0112381F035
:10202000011106C00E9420178F290E94590FB3CFBB
:102030000130C1F70E9420178F290E942617ABCFCD
:10204000011106C00E9433178F2D0E94600FA3CF8D
:10205000013009F4A0CFF6CF112329F0063008F0A3
:102060009ACF8F2DE2CF053008F095CFEDCF00232A
:1020700059F3D93349F4FFEF27EE33E0F150204014
:102080003040E1F700C000008D2F0E94E40E83CFA6
:102090008C2F86958695837069F0813009F07BCF0F
:1020A0008D2F9C2F9370111102C090E080E00E9450
:1020B000120D71CF8D2F9C2F9370111102C090E0E3
:1020C00080E00E94FC0C67CF8D2F112329F00E9425
:1020D000BD070E9490085FCF0E941708FACF8C2F8F
:1020E000837009F041C0111156CF4D2F429546958E
:1020F0004770440F440F0D2F0F7010E030E020E0C8
:10210000042E04C0000F111F221F331F0A94D2F7A0
:1021100060E070E0CB01D4FF0FC06FE070E080E0C2
:1021200090E004C0660F771F881F991F4A95D2F769
:102130006095709580959095C695C695C370602BF7
:10214000712B822B932BC23049F058F4C13019F017
:102150000E94071520CF0E94F5141DCF0E9419156B
:102160001ACF0E94F31417CF8695112311F08C2FEC
:102170008170882309F40FCF4D2F42954695477003
:10218000440F440F0D2F0F7010E030E020E0042EBC
:1021900004C0000F111F221F331F0A94D2F760E002
:1021A00070E0CB01D4FF0FC06FE070E080E090E002
:1021B00004C0660F771F881F991F4A95D2F7609554
:1021C000709580959095C695C695C370602B712BC0
:1021D000822B932BC23049F058F4C13019F00E9481
:1021E000CC15D9CE0E94BA15D6CE0E94DE15D3CE1C
:1021F0000E942F15D0CECF70112329F08C2F0E9472
:1022000055158D2F12CF8D2F0E94600F8C2F0E949D
:102210007615C1CED23F89F160F4D03FC9F0D13FED
:1022200029F1112309F442C001119DCE8C2F8F7129
:1022300021C0D33F39F1D43FA1F7112369F1CF7108
:102240008C2F0E94551563E08C2F0E947317A3CE2C
:10225000112341F0053008F09ECE8C2F8F710E9423
:10226000991599CE063008F096CEF7CF8C2F8F7146
:10227000112369F20E9455158ECE8C2F8F71112378
:10228000C9F3C5CF112329F08C2F8F710E944015FF
:1022900082CE0E943B157FCE81E00E948E170230D5
:1022A00008F479CE82E00E948E1775CE002359F093
:1022B000D93309F0E9CE8FEF97EEE3E081509040FB
:1022C000E040E1F7DFCE8C2F8F71A1CFDF91CF916E
:1022D0001F910F91FF90EF90DF90CF90BF900895E6
:1022E0000F931F93CF93DF93EC01688179818A81EB
:1022F0000E9490168C010E94F0150E94F214B80101
:10230000CE01DF91CF911F910F910C94670FCF9366
:10231000DF93EC018B819C81892B29F08881998145
:1023200089238F3F59F4DF91CF910895CE010E9408
:102330007011CE01DF91CF910C94B902CE010E94B1
:10234000DA028111F3CF0E94D216882361F38A81C9
:10235000882349F382E0DF91CF910C948E17882374
:1023600021F00E940D170C943D170895882321F049
:102370000E9413170C943D17089590E080E00E948E
:10238000FC0C90E080E00E94120D0E941A170E943F
:102390001D170E943D170E94B7090C9490080E94D7
:1023A000C2160C94BD110E940A170C94CF11E92F8C
:1023B000E295EF70E250EE3070F4F0E0E053FF4D44
:1023C0000C946620803F19F020F4883E20F481E0D0
:1023D0000895843FE1F380E00895883EC0F3813F93
:1023E000D1F7F5CF93FB882780F908950E948616D0
:1023F0000C94D711CF93DF9300D000D00F92CDB7BC
:10240000DEB70F900F900F900F900F90DF91CF914C
:102410000895CF93DF9300D000D000D0CDB7DEB7C2
:1024200026960FB6F894DEBF0FBECDBFDF91CF91D9
:1024300008951F93CF93DF93C091D10116E080914F
:10244000D2018C1304C0DF91CF911F910895D0E089
:102450001C9FF0011D9FF00D1124ED52FE4F408195
:10246000518162817381848195810E940912219634
:10247000C770E5CF409103025091040260910502BC
:102480007091060280910702909108020C94091243
:102490001F93CF93DF9380910802807FA9F48091EE
:1024A0000502882389F08091D101C091D201609109
:1024B000030270910402A0910602B0910702D62F88
:1024C000D72316E0C81304C0DF91CF911F91089560
:1024D00090E0109711F0DF3F19F401968770F2CF6A
:1024E000189F9001199F300D1124F901ED52FE4FF4
:1024F00041814713F2CF40814613EFCF4281411112
:10250000ECCF438154814A1B5B0B483C510528F7B3
:10251000809108028F70806180930802F901E8526F
:10252000FE4F80818F708061808383E092E00E9403
:102530008711DF91CF911F910C941912AF92BF9226
:10254000CF92DF92EF92FF920F931F93CF93DF937F
:10255000CDB7DEB761970FB6F894DEBF0FBECDBF23
:102560008C0185E0F801DE011D9601900D928A959F
:10257000E1F7F80140815181E28083E0C82E82E0DA
:10258000D82E60910602709107026115710509F459
:1025900061C19091030220910402892F82238F3F11
:1025A00009F458C1A380B480F0900502F501E61B40
:1025B000F70BFF2009F4FCC080910802382F307F10
:1025C000E83CF10508F0B2C0311179C0FE2C2513AA
:1025D00023C0941321C0E1101FC08F7080618093CD
:1025E00008020E943A12C6010E94871180910802D7
:1025F000F80185838F2D61960FB6F894DEBF0FBE6C
:10260000CDBFDF91CF911F910F91FF90EF90DF90A1
:10261000CF90BF90AF900895AB2829F0842F8523E9
:102620008F3F09F033C180E0F82FF170DF2E80FF7B
:102630003CC08091D1012091D20136E0821315C0B7
:102640004D875E878D859E850E948616292F22954F
:102650002F702230F0F0243018F59F70F1F0F8015F
:102660009581907FD1F4D12C1EC090E0389FF0016D
:10267000399FF00D1124ED52FE4F6181651306C0A4
:102680006081641303C062816E110FC00196877070
:10269000D5CF9F7011F0882331F3805E883018F316
:1026A000C8010E948711FD2CA5CFEE2009F4A2CF0E
:1026B00080910802816080930802F12C9BCF251342
:1026C00006C0941304C0F801EE2009F48DC04D87B4
:1026D0005E878D859E850E94F611882319F1EE2074
:1026E00009F180910802803270F02091030230914C
:1026F000040238872F831986BB86AA868C87CE0171
:1027000007960E94871186E0F801A3E0B2E00190ED
:102710000D928A95E1F70E9448120E943A12FF2416
:10272000F39468CFC8010E948711F9CF311113C00B
:102730007A2DB98AA88A6E2D89890E94FA1183E0C0
:1027400092E00E94871186E0F60111928A95E9F7DE
:102750000E943A12B2CF25130FC094130DC0E1109E
:102760000BC0F8018583C8010E94871186E0F6013D
:1027700011928A95E9F73ECF4D875E878D859E85BC
:102780000E94F611882371F2EE2061F28091080216
:10279000803208F4B8CF20910302309104023A83CA
:1027A00029831B82BD82AC828E83CE010196A9CF84
:1027B000E83CF10508F041C0FE2CEE2009F4B2CF50
:1027C00025132AC0941328C08091080280FD1BC0E5
:1027D000982F907FC1F0F8018583903F31F0982FBA
:1027E000907F905F8F70892B8583C8010E9487112D
:1027F00086E0F801A3E0B2E001900D928A95E1F73E
:102800000E943A12F7CE86E0F801A3E0B2E0019010
:102810000D928A95E1F7EECE4D875E878D859E8578
:102820000E94F61181116FCF809108028160809320
:102830000802C8010E948711DDCE7A2DB98AA88AC4
:102840006E2D89890E94FA1186E0F60111928A950F
:10285000E9F7D6CFEE2009F465CF4D875E878D85E9
:102860009E850E94F611F82E882309F45BCF86E03E
:10287000F801A3E0B2E001900D928A95E1F783E0C0
:1028800092E00E944D0E0E944812BACF81E08E2540
:10289000CBCE1F93CF93DF93CDB7DEB72C970FB678
:1028A000F894DEBF0FBECDBF4F83588769877A8704
:1028B0008B879C87CE0107960E949E12882369F021
:1028C0008A859B85892B39F04F815885842F8523F4
:1028D0008F3F09F071C016E05FC086E0FE013796B9
:1028E000DE01119601900D928A95E1F78A859B850C
:1028F000892B89F38F81988589238F3F61F32091FC
:10290000D20130E0C9010196877099274091D10129
:102910004817190671F40E94D3111092D201109237
:10292000D10186E0E3E0F2E0DF011D928A95E9F74C
:10293000D2CF96E0929FD001939FB00D1124AD525B
:10294000BE4FFE01319601900D929A95E1F780936A
:10295000D2010E941912BFCF819FC00111248D5254
:102960009E4F0E949E128823E9F0E091D1011E9FA4
:10297000F0011124ED52FE4F40815181628173813B
:10298000848195810E9409128091D10190E0019685
:10299000877099278093D1018091D1019091D201C4
:1029A0008913DACF2C960FB6F894DEBF0FBECDBFD9
:1029B000DF91CF911F91089569857A858B859C85DC
:1029C0000E94091288CF08950C94E3140E94E41425
:1029D00060931C0270931D0280931E0290931F024D
:1029E0000C94BD1108950C94E6140F931F9300915D
:1029F0001C0210911D0220911E0230911F02602BBB
:102A0000712B822B932B1F910F910C94E6140F9333
:102A10001F9300911C0210911D0220911E02309103
:102A20001F0260237123822393231F910F910C9423
:102A3000E6140F931F9300911C0210911D02209128
:102A40001E0230911F0260277127822793271F9152
:102A50000F910C94E6140C94E3140C942B150E9423
:102A60002D15609318027093190280931A029093A7
:102A70001B020C94BD1160E070E0CB010C942F158B
:102A80000F931F9341E050E060E070E08A019B01EA
:102A900004C0000F111F221F331F8A95D2F7C901EE
:102AA000B8011F910F910C942F150F931F9341E0C4
:102AB00050E060E070E004C0440F551F661F771FB0
:102AC0008A95D2F78091180290911902A0911A026A
:102AD000B0911B028A019B01082B192B2A2B3B2B3F
:102AE000C901B8011F910F910C942F150F931F93DB
:102AF00041E050E060E070E004C0440F551F661FE5
:102B0000771F8A95D2F7CB01BA01609570958095B1
:102B10009095009118021091190220911A0230919B
:102B20001B0260237123822393231F910F910C9426
:102B30002F150F931F9341E050E060E070E004C058
:102B4000440F551F661F771F8A95D2F78091180290
:102B500090911902A0911A02B0911B028A019B0167
:102B6000082719272A273B27C901B8011F910F9170
:102B70000C942F150F931F930091180210911902B6
:102B800020911A0230911B02602B712B822B932B08
:102B90001F910F910C942F150F931F930091180202
:102BA0001091190220911A0230911B0260237123A7
:102BB000822393231F910F910C942F150F931F9332
:102BC000009118021091190220911A0230911B02F3
:102BD00060277127822793271F910F910C942F153F
:102BE0000895990F990F890F982F977041E001C0B0
:102BF000440F9A95EAF786958695869595E0899F84
:102C0000F0011124E75FFD4F30E020E070E05191CA
:102C1000DF011197CB01022E02C0969587950A9489
:102C2000E2F7817081958527842385278C932F5F18
:102C30003F4F2530310559F70895990F990F890FA6
:102C4000982F977086958695869525E0829FF0014E
:102C50001124E75FFD4F50E040E080E0219130E03B
:102C6000092E02C0369527950A94E2F72170332782
:102C7000042E01C0220F0A94EAF7822B4F5F5F4FA8
:102C80004530510559F70895BF92CF92DF92EF92E8
:102C9000FF920F931F93CF93DF938C01C090180284
:102CA000D0901902E0901A02F0901B0280911C0251
:102CB00090911D02A0911E02B0911F02C82AD92A2C
:102CC000EA2AFB2ACFE1D0E0BC2ED701C6010C2EA8
:102CD00004C0B695A795979587950A94D2F780FD7D
:102CE0000EC0219788F7B12C8B2DDF91CF911F91CA
:102CF0000F91FF90EF90DF90CF90BF900895B801B3
:102D00008C2F0E942204019761F3EECFCF93DF93C3
:102D1000EC010E944416BE01DF91CF910C94220475
:102D20001F93CF93DF93EB019091D001992331F062
:102D3000CB01DF91CF911F910C948616882379F0F7
:102D4000CB010E944416182F682FCE010E94F11566
:102D5000BE01812FDF91CF911F910C942204CB01F2
:102D60000E941D16182FF4CF682F809108019091B2
:102D700009010C94A618682F80910801909109010F
:102D80000C94A81880910801909109010C94AA183C
:102D900080912002859585958595089580912002E2
:102DA0008770089590912002977081E009F480E087
:102DB000089590913A0292FB222720F9281751F0AA
:102DC00080FB92F990933A028091390290913A02F5
:102DD0000C94D317089580913A0282FB882780F9DA
:102DE00091E089270C94D91681E00C94D91680E0E3
:102DF0000C94D91680912C02089590912C02892B65
:102E000080932C020895809590912C0298239093A2
:102E10002C02089510922C02089590912B02892B78
:102E200080932B020895809590912B029823909384
:102E30002B02089510922B02089510922A020895F1
:102E400080912102089508950C94231790913A02DD
:102E500092FD08C090912102981721F080932102E1
:102E60000C942417089580912102882329F0109250
:102E7000210280E00C9424170895E0910801F0915C
:102E8000090180912C028083E0910801F0910901F1
:102E9000808190912B02892B8083E0910801F09131
:102EA0000901808190912A02892B808390912102CF
:102EB000992381F0E0910801F09109018081892B2B
:102EC000808380910801909109010E945E18811110
:102ED0000E94331780910801909109010C94E30C32
:102EE00008950C94701790913A0292FD10C098E0EA
:102EF000899F90011124622B609320020E94551536
:102F0000809120028595859585950C9471170C9478
:102F100055151092200280E00C94711790912002B8
:102F20008095892380932002282F277039F4282F39
:102F3000082E000C330B9217130621F490913A02DD
:102F400092FF07C08595859585950E9476150C940E
:102F50008917089580E008956FEF7FEF90E080E09B
:102F60000C94AC2090E080E00E94882021E08A3E12
:102F70009E4F09F020E0822F089582E090E00C94AB
:102F8000802083E090E00C948020CF9384E090E058
:102F90000E948020C82F82E290E00E948020982F1B
:102FA0008C2FCF910895CF93C92F682F84E090E0A4
:102FB0000E948E206C2F82E290E0CF910C948E20A4
:102FC000AB01BC018FE090E00C94A020AB01BC01F0
:102FD00083E190E00C94A02060E070E0CB010C94C1
:102FE000E61760E070E0CB010E94E0170C94EC174C
:102FF0006AEE7EEF90E080E00E94AC2060E082E02C
:1030000090E00E948E2060E083E090E00E948E209D
:1030100010921C0210921D0210921E0210921F02AA
:1030200060E084E090E00E948E2060E082E290E028
:103030000E948E2060E085E090E00E948E2060E09B
:1030400086E090E00E948E206FEF87E090E00E9483
:103050008E2040E050E0BA0188E090E00E94A0207D
:1030600060E08DE090E00E948E2040E050E0BA01E8
:1030700088E190E00E94A02060E087E190E00E945B
:103080008E2040E050E0BA018CE190E00E94A02048
:1030900070E060E080E290E00E94AC2040E050E010
:1030A000BA0188E190E00E94A0200C94F1170C94E2
:1030B000F817682F8EE090E00C948E209C012E5F14
:1030C0003F4FAC01485F5F4F80E02417350709F49C
:1030D0000895F90191919F019923B9F38F5FF5CF7D
:1030E000662349F0FC01329608962191261729F0B3
:1030F000E817F907D1F780E0089581E008959C0171
:10310000FC0132969FEF80E04191461751F09F3FBE
:1031100019F4411101C0982F8F5F8630A9F79F3FA6
:1031200009F40895290F311D97FD3A95F90162833D
:103130000895FC01329608962191261303C0DF0101
:1031400011971C92E817F907B9F708950C947F18A6
:103150000C949918029626E0FC0111922A95E9F741
:103160000895089508950C94B21880914F02843008
:1031700049F10E94B31880E00E94060410922E02CA
:1031800088E190E020E40FB6F894A8958093600061
:103190000FBE2093600083B7817F846083BF83B7B5
:1031A000816083BF7894889583B78E7F83BF0FB685
:1031B000F894A895809160008861809360001092D7
:1031C00060000FBE08950895CF930E94B1180E9429
:1031D0008C060E94E318C0E08C2F0E9438068111F3
:1031E00005C0CF5FC630C1F7CF91089581E0FCCF15
:1031F00008950C94F8180E94D3110E94D70C0E94D5
:1032000006040C94F9181F921FB61F9211248F9375
:103210009F93AF93BF9380912E02811113C0809131
:10322000470290914802A0914902B0914A0241960A
:10323000A11DB11D8093470290934802A0934902BB
:10324000B0934A02BF91AF919F918F911F901FBE83
:103250001F90189582E084BD93E095BD9AEF97BDCD
:1032600080936E0008952FB7F89480914702909153
:103270004802A0914902B0914A022FBF08952FB78A
:10328000F8946091470270914802809149029091B0
:103290004A022FBF08959C014FB7F89480914702CE
:1032A00090914802A0914902B0914A024FBF821BFF
:1032B000930B089578941F921FB61F9211248F9339
:1032C0009F93AF93BF938091470290914802A09142
:1032D0004902B0914A020196A11DB11D8093470297
:1032E00090934802A0934902B0934A02BF91AF91D4
:1032F0009F918F911F901FBE1F90189581E0809322
:10330000E00080E28093D8001092C9008FE19EE433
:103310000197F1F700C0000087E090EBDC0180939B
:10332000580290935902A0935A02B0935B0288E12D
:103330009CE00FB6F894A895809360000FBE909320
:103340006000FFCF90939901809398010895809138
:1033500037020895CF93DF9300D00F92CDB7DEB739
:1033600090914F02943019F589837B836A8382E0C0
:103370008093E9008FEF9091E800815095FD06C0A1
:1033800095ED9A95F1F700008111F5CF8091E80055
:1033900085FF0DC050E040E063E070E0CE01019693
:1033A0000E94C11B8091E8008E778093E8000F9007
:1033B0000F900F90DF91CF910895BC0184E00C94A1
:1033C000AA19BC0183E00C94AA199C0182E08093A5
:1033D000E9009FEF8091E800915085FD06C085EDE2
:1033E0008A95F1F700009111F5CF8091E80085FFF3
:1033F0000CC050E040E066E070E0C9010E94C11BD3
:103400008091E8008E778093E8000895CF93DF9352
:10341000EC0181E08093E9008FEF9091E80081500A
:1034200095FD06C095ED9A95F1F700008111F5CF55
:103430008091E80085FF14C050E040E068E070E053
:10344000CE010E94C11B8091E8008E778093E80036
:1034500088E0FE01AFE2B2E001900D928A95E1F7BB
:10346000DF91CF91089580914E02811109C00E9491
:10347000511D0E94AE1D8091E20084608093E200A5
:10348000089510924E02089508950895089542E017
:1034900061EC81E00E94CD1C42E261EC82E00C9480
:1034A000CD1C80915102833009F45FC030F481302B
:1034B000C1F1823009F49BC008958A3009F487C0B5
:1034C0008B3009F46DC0893009F04EC080915002F4
:1034D000813209F049C080915402909155020297BF
:1034E00008F042C08091E800877F8093E8008091D7
:1034F000E80082FF35C09091F3008091F2000297BE
:1035000029F48091F1008B7F813021F48091F100CA
:10351000809337028091E8008B778093E8000C94C9
:10352000011D80915002813AF9F48091E800877F73
:103530008093E8008091540290915502892B61F4A8
:1035400068E08FE292E070E00E94101C8091E80039
:103550008B778093E800089560E090E080E0F3CFFF
:1035600080914F028111C3CF089580915002813A1A
:10357000D9F78091540290915502892BA9F7809137
:10358000E800877F8093E8008091E80080FFFCCF0F
:10359000809114018093F1008091E8008E77BDCF77
:1035A00080915002813201F780915402909155022E
:1035B000892BD1F68091E800877F8093E8000E94F4
:1035C000011D80915202809314010C94D3118091BB
:1035D0005002813249F68091E800877F8093E800AD
:1035E0000E94011D809153028093380208958091BA
:1035F0005002813A09F0B8CF8091E800877F80932C
:10360000E8008091E80080FFFCCF80913802C2CFB3
:1036100084B7877F84BF0FB6F894A8958091600027
:10362000886180936000109260000FBE80E890E097
:103630000FB6F89480936100909361000FBE0E94D2
:103640005C0D0E94511D0E94AE1D8091E2008460BD
:103650008093E20078940E9437200E94700D8AE0E7
:1036600091E00E94D20C80914F02853099F00E9427
:10367000780D0E946C0DF7CF0E94B51880914D0215
:10368000882341F00E94E418882321F00E94AB1B9C
:103690000E94D31180914F02853071F30E94FB1874
:1036A000E6CF0C94531B292F33272330310519F112
:1036B00068F42130310509F444C02230310509F4A1
:1036C00045C090E080E030E020E025C021323105A7
:1036D00049F122323105A9F780E490E02BED32E088
:1036E00061157105C1F08BE790E020E632E06130B2
:1036F000710589F0E6CF99278130910581F0009717
:1037000029F00297F1F6E7ECF1E002C0EFE0F2E019
:10371000849190E09F01FA01318320830895EBEDBD
:10372000F1E0F6CF89E090E025E232E06115710525
:1037300091F389E090E02EE332E06130710559F3B6
:10374000C0CF82E190E02EE432E0E5CF8BE390E061
:1037500023E132E0E0CF80E189BD82E189BD09B497
:1037600000FEFDCF8091D8008F7D8093D80080919E
:10377000E00082608093E0008091E00081FDFCCF5A
:103780000895AF92BF92CF92DF92FF920F931F9353
:10379000CF93DF936C01EB018A010E94201DF82E6C
:1037A000811123C00115110539F0F8018081918143
:1037B000C81BD90BC80ED91EB12CA12C2097A9F07B
:1037C0008091E80085FD22C08091E8008E7780938B
:1037D000E80001151105A1F0F80180819181A80E82
:1037E000B91EB182A08285E0F82E8F2DDF91CF9196
:1037F0001F910F91FF90DF90CF90BF90AF900895F1
:103800000E94201D8823D1F2F82EEFCFF60181917E
:103810006F018093F1002197FFEFAF1ABF0ACECF5F
:10382000FC01809156029091570286179707A0F0ED
:103830006115710529F49091E8009E779093E80056
:1038400090E06115710551F4911108C08091E80074
:1038500082FF34C080E00895BC01F2CF80914F0216
:103860008823C1F18530C1F18091E80083FD30C02B
:103870008091E80082FDEACF8091E80080FFE1CFEF
:103880008091F3002091F200382F6115710519F035
:103890002830310558F091E02830310509F090E0EA
:1038A0002091E8002E772093E800CBCF8191809380
:1038B000F100615071092F5F3F4FE7CF80914F02B8
:1038C000882341F0853041F08091E80083FFBECF2E
:1038D00081E0089582E0089583E00895FC018091DD
:1038E00056029091570286179707A0F0611571054F
:1038F00029F48091E8008E778093E80090E06115CC
:10390000710551F4911108C08091E80082FF35C023
:1039100080E00895BC01F2CF80914F028823C9F165
:103920008530C9F18091E80083FD31C08091E800C5
:1039300082FDEACF8091E80080FFE1CF8091F30023
:103940002091F200382F6115710519F028303105EA
:1039500058F091E02830310509F090E08091E800BE
:103960008E778093E800CBCF84918093F1003196DD
:10397000615071092F5F3F4FE6CF80914F0288233E
:1039800041F0853041F08091E80083FFBDCF81E0B8
:10399000089582E0089583E00895982F973028F0E5
:1039A0008F708093E90081E008959093E900242FBF
:1039B000762F50E0981731F07091EC002091ED00D7
:1039C0005091F00021FD02C09F5FE8CF3091EB00E5
:1039D0003E7F3093EB003091ED003D7F3093ED0062
:1039E0003091EB0031603093EB007093EC0020934A
:1039F000ED005093F0002091EE0027FDE5CF80E030
:103A000008958091500287FF13C08091E80082FFE3
:103A100006C08091E8008B778093E80004C0809115
:103A20004F028111F2CF089580914F028823D9F37C
:103A30008091E80080FFF8CF8091E8008E77ECCF8E
:103A40002091E4003091E50095E6A9012091EC0079
:103A5000822F817020FF06C08091E80080FF06C0A1
:103A600080E008952091E80022FD1AC080914F0265
:103A7000882389F0853089F08091EB0085FD0FC0A7
:103A80002091E4003091E50042175307F9F291507C
:103A9000E1F684E0089582E0089583E0089581E0EE
:103AA00008950E94BF1D0E94C71DE0EEF0E08081D6
:103AB00081608083E8EDF0E080818F77808319BC9E
:103AC000A7EDB0E08C918E7F8C9380818F7E808378
:103AD00010924E0208950F931F93CF93DF930E948D
:103AE000BF1D0E94C71DC8EDD0E088818F778883F5
:103AF00088818068888388818F7D888319BC109233
:103B00004F0210924B0210924D0210924C0200EEA6
:103B100010E0F80180818B7F8083888181608883B9
:103B200042E060E080E00E94CD1CE1EEF0E08081A8
:103B30008E7F8083E2EEF0E08081816080838081EF
:103B400088608083F80180818E7F80838881806196
:103B50008883DF91CF911F910F910895E8EDF0E0F8
:103B600080818F7E8083E7EDF0E0808181608083BB
:103B700084E082BF81E080934E020C946B1DE8EDDF
:103B8000F0E080818E7F80831092E2000895109291
:103B9000DA001092E10008951F920F920FB60F9273
:103BA00011242F933F934F935F936F937F938F9342
:103BB0009F93AF93BF93EF93FF938091E10082FFB8
:103BC0000BC08091E20082FF07C08091E1008B7FF3
:103BD0008093E1000E9436208091DA0080FF19C0B6
:103BE0008091D80080FF15C08091DA008E7F80938D
:103BF000DA008091D90080FF96C080E189BD82E122
:103C000089BD09B400FEFDCF81E080934F020E9480
:103C1000331A8091E10080FF19C08091E20080FF9B
:103C200015C08091E2008E7F8093E2008091E200D7
:103C300080618093E2008091D80080628093D800F8
:103C400019BC85E080934F020E94451A8091E100E3
:103C500084FF2BC08091E20084FF27C080E189BDF2
:103C600082E189BD89B5982F917080FFFBCF80914B
:103C7000D8008F7D8093D8008091E1008F7E809363
:103C8000E1008091E2008F7E8093E2008091E2006B
:103C900081608093E20080914B02882309F449C03F
:103CA00084E080934F020E94461A8091E10083FFD6
:103CB00029C08091E20083FF25C08091E100877FC9
:103CC0008093E10082E080934F0210924B0280913A
:103CD000E1008E7F8093E1008091E2008E7F8093EF
:103CE000E2008091E20080618093E20042E060E0C7
:103CF00080E00E94CD1C8091F00088608093F000ED
:103D00000E94441AFF91EF91BF91AF919F918F91C3
:103D10007F916F915F914F913F912F910F900FBEC7
:103D20000F901F90189519BC10924F020E94411AD3
:103D300070CF8091E30087FD93E090934F02B3CF63
:103D40001F920F920FB60F9211242F933F934F9310
:103D50005F936F937F938F939F93AF93BF93CF9313
:103D6000DF93EF93FF93D091E900DF708091EC0037
:103D7000C82FC17080FDC0E81092E9008091F0006A
:103D8000877F8093F00078940E94E41E1092E900EF
:103D90008091F00088608093F000CD2BCF70C093AD
:103DA000E900FF91EF91DF91CF91BF91AF919F918A
:103DB0008F917F916F915F914F913F912F910F90D4
:103DC0000FBE0F901F9018951F93CF93DF93CDB721
:103DD000DEB7AA970FB6F894DEBF0FBECDBF80E561
:103DE00092E02091F100FC012193CF01F2E08835AF
:103DF0009F07B9F70E94511A8091E80083FF1EC106
:103E000080915002909151029A3008F017C1E92F29
:103E1000F0E0E252FF4D0C946620803899F0823831
:103E200009F00CC1809154028F70873008F006C1F0
:103E30008093E9008091EB0085FB882780F9109240
:103E4000E90006C080914C0290914D029111826070
:103E50009091E800977F9093E8008093F100109292
:103E6000F1008091E8008E77E5C0882309F4D3C083
:103E7000823009F0E3C0809152028111D6C0809156
:103E800054028F702FEF280F263008F0D7C0809390
:103E9000E9002091EB0020FFC8C0933031F48091FD
:103EA000EB0080628093EB00C0C09091EB009061CA
:103EB0009093EB0021E030E001C0220F8A95EAF7F1
:103EC0002093EA001092EA008091EB008860EACF2C
:103ED0008111B4C0109152021F778091E300807865
:103EE000812B8093E3008091E800877F8093E80036
:103EF0000E94011D8091E80080FFFCCF8091E300CB
:103F000080688093E30082E0111183E080934F0288
:103F100095C08058823008F091C0809152029091F3
:103F200053028C3D23E09207A1F583E08A838AE265
:103F300089834FB7F894DE01139620E03EE051E20A
:103F4000E32FF0E050935700E49120FF03C0E29587
:103F5000EF703F5FEF708E2F90E0EA30C0F0C796B1
:103F60008D939D932F5F243159F74FBF8091E800C7
:103F7000877F8093E8006AE270E0CE0101960E949C
:103F8000101C8091E8008B778093E80057C0C096A2
:103F9000E7CF6091540270915502AE014F5F5F4FC1
:103FA0000E94511BBC01892B09F448C09091E80084
:103FB000977F9093E80089819A810E946E1CE1CFDF
:103FC0008038E1F58091E800877F8093E800809158
:103FD0004B028093F10045CF811130C09091520285
:103FE000923060F58091E800877F8093E80090939D
:103FF0004B020E94011D80914B02882311F084E046
:1040000005C08091E30087FDFACF81E080934F02E5
:104010000E94471A13C080915202813079F481E0E6
:10402000933009F080E080934D021092E900809176
:10403000E800877F8093E8000E94011D8091E800DE
:1040400083FF0AC08091E800877F8093E800809119
:10405000EB0080628093EB00AA960FB6F894DEBF67
:104060000FBECDBFDF91CF911F9108950895CF93DB
:1040700080914F028823A1F0C091E900CF70909108
:10408000EC00892F817090FD80E8C82B1092E90028
:104090008091E80083FD0E94E41ECF70C093E90088
:1040A000CF91089597FB072E16F4009407D077FD63
:1040B00009D00E946C2007FC05D03EF490958195B4
:1040C0009F4F0895709561957F4F0895EE0FFF1FE4
:1040D0000590F491E02D0994AA1BBB1B51E107C088
:1040E000AA1FBB1FA617B70710F0A61BB70B881F88
:1040F000991F5A95A9F780959095BC01CD01089517
:10410000F999FECF92BD81BDF89A992780B508959F
:10411000A8E1B0E042E050E00C94B420262FF999D9
:10412000FECF92BD81BDF89A019700B4021639F016
:104130001FBA20BD0FB6F894FA9AF99A0FBE0895E7
:104140000396272F0E948F200E948E20252F0E94E9
:104150008F20242F0C948F200196272F0E948F20D0
:104160000C948E20DC01CB01FC01F999FECF06C036
:10417000F2BDE1BDF89A319600B40D924150504025
:10418000B8F70895F894FFCF9E0F9E0FF60FF60F25
:1041900048106410CB0FCB0F6F10FB100A110A11DF
:1041A000E211E211EB11EB11ED11EB11EB11EB113F
:1041B000E211E211F211EB11EB11F2110D1F351F9B
:1041C0001E20351F1E20681F891F1E20E01FEC1FA8
:1041D0002808641E140A321E2202A719061AE519BD
:1041E000E119DD1901E200E900EA00B500B600B707
:1041F00000CD008301CC008A0192019401210223A9
:104200000224022502260227022A02B300B4006F0C
:10421000007000818283959392F7379435366667F4
:1042200000FF0100010000FFFF0000010001FF008E
:1042300097C6F134F0F4E200E900EA00B500B600F8
:10424000B700CD008301CC008A01920194012102C4
:10425000230224022502260227022A02B300B40008
:084260006F00700081828300F1
:00000001FF
