:100000000C9466030C949E030C949E030C949E0324
:100010000C949E030C949E030C949E030C949E03DC
:100020000C949E030C949E030C94CB220C94872278
:100030000C942C2A0C949E030C949E030C949E0307
:100040000C949E030C949E030C949E030C949E03AC
:100050000C949E030C94A4230C949E030C949E0376
:100060000C949E030C949E030C949E030C949E038C
:100070000C949E030C949E030C949E030C949E037C
:100080000C949E030C949E030C949E030C949E036C
:100090000C949E030C949E030C949E030C949E035C
:1000A0000C949E030C949E030C949E0305010980FE
:1000B000A101850319012AB700150126B700950192
:1000C00075108100C0050C0901A101850419012AE0
:1000D000A002150126A002950175108100C005013E
:1000E0000906A1018506050719E029E71500250184
:1000F0009508750181020507190029EF15002501F2
:1001000095F075018102050819012905950575010C
:100110009102950175039101C00660FF0961A1017B
:100120000962150026FF00952075088102096315F4
:100130000026FF00952075089102C005010906A15F
:1001400001050719E029E7150025019508750181CA
:10015000029501750881010507190029FF15002680
:10016000FF00950675088100050819012905950508
:1001700075019102950175039101C0000000000016
:10018000000000000000000000000000000000006F
:100190000000000000000000000000000000007EE1
:1001A0000F00D4FFFFFFC700000078000000000030
:1001B0000000002A2B2800000000000000000000C2
:1001C00000000000000029000000002C1E34202147
:1001D0002224342627252E362D3738271E1F20218E
:1001E00022232425263333362E37381F04050607ED
:1001F00008090A0B0C0D0E0F101112131415161707
:1002000018191A1B1C1D2F3130232D350405060724
:1002100008090A0B0C0D0E0F1011121314151617E6
:1002200018191A1B1C1D2F3130354C00010101011A
:1002300001010101010202020202020202020303A1
:100240000303030303030404040404040405050571
:100250000505060606060607070707070808080833
:10026000090909090A0A0A0B0B0B0C0C0C0D0D0DE0
:100270000E0E0E0F0F0F1010111111121213131476
:1002800014151516161717181819191A1A1B1B1CEE
:100290001D1D1E1E1F202021222223242425262648
:1002A000272829292A2B2C2D2D2E2F30313232337D
:1002B0003435363738393A3B3C3D3E3F4041424386
:1002C0004445464748494A4C4D4E4F50515354556A
:1002D0005658595A5B5D5E5F616264656668696B1A
:1002E0006C6D6F7072737577787A7B7D7E80828398
:1002F0008587888A8C8E8F91939596989A9C9EA0DC
:10030000A2A3A5A7A9ABADAFB1B3B5B7BABCBEC0E8
:10031000C2C4C6C9CBCDCFD1D4D6D8DBDDDFE2E4B1
:10032000E7E9EBEEF0F3F5F8FAFDFF4400C103BC9A
:10033000E0420B34C1C412ACA1461A2482C8219CED
:10034000624A291443CC308C234E380404D03F50E9
:10035000308104C810030C40F18413B8D1061B305F
:10036000B28822A8920A2A38D00003B0B0820A28A4
:10037000910412A07186191852082190328A280817
:10038000130C3080F38D37F8D30F3F5C604105D4F8
:1003900040C30C4C214514C401C71B3CE24823B4A4
:1003A000C2CA2A2CA04002A480C2091C6144119434
:1003B00041C6180C2248208402CA27FCE24B2F7445
:1003C000C3CD36ECA34F3E68900106E070830D5814
:1003D000510515D031871CC0F28A2B207080011086
:1003E0003184108811061800F2871F78D20927F08F
:1003F000B28B2E68930D36E0738F3D74C0C106EC4E
:10040000A0430E6481C515DC61471D5442C924CC4C
:10041000224B2C1440C0008C2042080401C40FE47D
:1004200082CB2D6484D14588141248ACA4524AD0A2
:1004300034934CF4C4D34E4C24514470B49146943C
:1004400044D248B8D4124BDC64534D00F5934F248A
:1004500085D451481515546CA55556585411457CF2
:10046000E45147A0749249C404D34BE894134E0C52
:10047000255450165C1E001F00200021002200237E
:100480000024002500260027002D002E002A004C05
:10049000002B0014001A000800150017001C00189B
:1004A000000C00120013002F00300031004A003908
:1004B0000004001600070009000A000B000D000EE2
:1004C000000F0033003400280000004D00E1000060
:1004D000001D001B00060019000500110010003669
:1004E0000037003800E50052000000E000E300E2C1
:1004F000000000000000002C0000000000000001CF
:1005000051E400500051004F00165C3A003B003CA3
:10051000003D003E003F00400041004200430044D7
:100520000045004C004C000100C25CC35CC55CC6C9
:100530005CC75CC85CC95CCA5C01000000000000CC
:1005400000005CAA003900CB5CCC5C01000100011A
:10055000000100010001000F08010001000100007E
:1005600000A900E1000000010001000100010001FC
:1005700000145C0100010001000100A600AE004C67
:100580000501000100010000000000000001000062
:10059000000000000001000251BB00A800AB00A554
:1005A0000001000100010001000100010001000143
:1005B0000001000100010001000100035D010001D4
:1005C0000001000100010001000100010001000123
:1005D000000100010001000100045D0100010001B3
:1005E0000001000100010001000100010001000103
:1005F00000010001000000065D0100000001000193
:1006000000010001000100010001000100010001E2
:100610000001000100075D01000100010000000071
:10062000000000010000000000000001000100BC0B
:10063000000100055D09025B00030100A0FA090446
:100640000000010301010009211101000122400005
:1006500007058103080001090401000203000000EE
:100660000921110100012222000705820320000157
:100670000705030320000109040200010300000034
:10068000092111010001226D0007058403200001EA
:1006900012010002000000084B5412000100010288
:1006A00000011A0350006F007200740069006300BB
:1006B0006F0036003800200076003200000008038A
:1006C00054004B00430000000403090411241FBE22
:1006D000CFEFDAE0DEBFCDBF04B603FE18C08091D5
:1006E0004E0A90914F0AA091500AB091510A87305A
:1006F000904BA740B04B59F410924E0A10924F0AFB
:100700001092500A1092510AE0E0F8E309952AE0AD
:10071000A2EDB2E001C01D92AE34B207E1F712E0E3
:10072000A0E0B1E0E6E7F3E602C005900D92A23D3D
:10073000B107D9F70E94532A0C9465310C9400003C
:10074000E8EDF0E080818E7F80831092E2001092CD
:10075000DA001092E100A0EEB0E08C9181608C9301
:1007600080818F77808319BCA7EDB0E08C918E7F5C
:100770008C9380818F7E80831092EA090895209166
:10078000E4003091E50095E6A9012091EC00822F6C
:10079000817020FF06C08091E80080FF06C080E0E5
:1007A00008952091E80022FD1AC080910F0A882345
:1007B00089F0853089F08091EB0085FD0FC0209194
:1007C000E4003091E50042175307F9F29150E1F649
:1007D00084E0089582E0089583E0089581E008951B
:1007E000EF92FF920F931F93CF937C018B010E9496
:1007F000BF03C82F811117C08091E80085FD0BC091
:100800008091E8008E778093E8000E94BF038823E0
:1008100099F3C82F08C0F70181917F018093F100FF
:100820000150110949F78C2FCF911F910F91FF9023
:10083000EF9008958091110A87FF13C08091E8001E
:1008400082FF06C08091E8008B778093E80004C0A7
:1008500080910F0A8111F2CF089580910F0A8823A9
:10086000D9F38091E80080FFF8CF8091E8008E777F
:10087000ECCF982F9093E900242F762F50E0891722
:1008800031F07091EC002091ED005091F00021FDCD
:1008900007C09F5F973071F78093E90081E008956A
:1008A0003091EB003E7F3093EB003091ED003D7FC7
:1008B0003093ED003091EB0031603093EB0070939A
:1008C000EC002093ED005093F0002091EE0027FD06
:1008D000E0CF80E00895B0E0A0E0E1E7F4E00C9420
:1008E000DB2FC8EDD0E088818F7E8883E7EDF0E0D4
:1008F00080818160808384E082BF81E08093EA0907
:1009000088818E7F888302EE10E0F80110821092B9
:10091000DA0081EEC82ED12CF601108288818F7703
:10092000888388818068888388818F7D888319BCCB
:1009300010920F0A1092100A10920E0A10920D0ACD
:1009400090EEE92EF12CF70180818B7F80838881E6
:100950008160888342E060E080E00E943904F60113
:1009600080818E7F8083F801808181608083808197
:1009700088608083F70180818E7F80838881806199
:100980008883CDB7DEB7E8E00C94F72FFC018091A7
:10099000170A9091180A86179707A0F0611571053C
:1009A00029F49091E8009E779093E80090E061151B
:1009B000710551F4911108C08091E80082FF34C0A4
:1009C00080E00895BC01F2CF80910F0A8823C1F125
:1009D0008530C1F18091E80083FD30C08091E8004E
:1009E00082FDEACF8091E80080FFE1CF8091F300A3
:1009F0002091F200382F6115710519F0283031056A
:100A000058F091E02830310509F090E02091E8009D
:100A10002E772093E800CBCF81918093F100615035
:100A200071092F5F3F4FE7CF80910F0A882341F074
:100A3000853041F08091E80083FFBECF81E00895CA
:100A400082E0089583E00895089508958091EC0967
:100A500008952FB7F8946091E1097091E2098091AF
:100A6000E3099091E4092FBF0895209119012223F1
:100A7000C9F02091E50927FF15C0E62FE695E69518
:100A8000E695EE31D8F4E80FF92FF11D677021E0FB
:100A900030E001C0220F6A95EAF720958281282371
:100AA00022830895FC01329608962191621303C0B7
:100AB000DF0111971C92E817F907B9F70895209103
:100AC00019012223C1F02091E50927FF14C0E62F68
:100AD000E695E695E695EE31F8F4E80FF92FF11D6D
:100AE000677021E030E001C0220F6A95EAF7828149
:100AF000822B82830895FC0132962FEF30E04191E2
:100B0000641751F02F3F19F4411101C0232F3F5FAB
:100B10003630A9F72F3F09F40895820F911D27FD64
:100B20009A95FC01628308952091DE093091DF09D6
:100B30002817390771F09093DF098093DE09E0915F
:100B4000DC09F091DD09309721F00084F185E02D7A
:100B5000099508952091DA093091DB0928173907A2
:100B600071F09093DB098093DA09E091DC09F09150
:100B7000DD09309721F00680F781E02D0995089571
:100B8000E091DC09F091DD09309729F00190F081C6
:100B9000E02D0995089580E00895FA01811101C0C2
:100BA000FB0109950895E8E4FAE0248130E1231B74
:100BB00008F420E024838091470A81608093470AEB
:100BC0000895E8E4FAE0248130E1230F08F42FEFE0
:100BD00024838091470A81608093470A0895909109
:100BE000480A937071F08093490A60934A0A403B27
:100BF00008F04FEA40934B0A8091470A822B80937A
:100C0000470A0895E8E4FAE0438120E1421B08F432
:100C100040E0818121E0628190E00E94EF0508952B
:100C2000E8E4FAE0438120E1420F08F44FEF8181CC
:100C300021E0628190E00E94EF050895E8E4FAE087
:100C4000628120E1621B08F460E0818121E0438140
:100C500090E00E94EF050895E8E4FAE0628120E167
:100C6000620F08F46FEF818121E0438190E00E94E0
:100C7000EF050895E8E4FAE0818121E04381628193
:100C80008850990B0E94EF050895E8E4FAE081810D
:100C900090E021E04381628108960E94EF0508956B
:100CA0009091480A937061F081110BC09460909309
:100CB000480A109218018091470A862B8093470AB0
:100CC00008958B3210F0986AF2CF880F880F982B16
:100CD000EECF8091480A86958695815009F48AE284
:100CE00061E00E94500608958091480A8695869595
:100CF0008F5F8B3208F081E061E00E94500608951A
:100D0000EF92FF920F939701201B31092F3F31057E
:100D100019F010F02FEF30E02095382F320F08F443
:100D20003FEF832F0F91FF90EF900895EF92FF9286
:100D30000F939701201B31092F3F310519F010F057
:100D40002FEF30E0322F3095482F430F08F44FEF4C
:100D5000842F620F0F91FF90EF900895EF92FF9212
:100D60000F93972F093438F4B701601B71096F3F57
:100D7000710519F010F06FEF70E0485F5F4F41317F
:100D8000510540F0A901485F5F4F4131510510F016
:100D90006FEF70E06095482F460F08F44FEF842FF7
:100DA00037FF02C02D5F3F4F359527953595279525
:100DB0006091490A620F792F0F91FF90EF9008958B
:100DC000EF92FF920F931F930E0D1F2D111DF9012E
:100DD00037FF03C0F195E195F10924E0EE0FFF1F05
:100DE0002A95E1F7EF3FF10519F014F0EFEFF0E08D
:100DF0009A0157FF03C031952195310994E0220FE4
:100E0000331F9A95E1F72E173F070CF4F901E00F15
:100E1000F11FEF3FF10519F010F0EFEFF0E0E09572
:100E2000282F3E2F230F08F42FEF822F1F910F91B1
:100E3000FF90EF900895EF92FF920F93970195E046
:100E4000099F200D311D11242F3F310519F010F09D
:100E50002FEF30E02095382F320F08F43FEF832F2B
:100E60000F91FF90EF90089522E8241B08F420E0F2
:100E7000620F08954095282F429F412D1124842F01
:100E80000895E42FF0E0EE0FFF1FE552FE4F908132
:100E9000921B97FD9195292F38E1239F212D112435
:100EA000620F08950F931F9310E0F801EE0FFF1FDC
:100EB000E552FE4F9081945797FD9195000F111FB9
:100EC000F801E452FE4F00810052110B2003F001A3
:100ED000219FF00D112408E310E0091B110997FD73
:100EE000139540039001419F300D1124E20FF31F31
:100EF0009F01220F331F2E0F3F1F37FF02C02158C3
:100F00003F4F220F232F221F330B620F1F910F9190
:100F100008950F931F93522F10E0F801EE0FFF1F5B
:100F2000E452FE4FA081A052BB0B9D015203F00181
:100F3000539FF00D1124000F111FD801A552BE4F71
:100F40000C910457110B40039001419F300D112467
:100F50002E0F3F1F37FF02C0215C3F4F96E03595B3
:100F600027959A95E1F7620F1F910F9108950F93BE
:100F70001F93522F10E0F801EE0FFF1FE452FE4FB7
:100F8000A081A052BB0B9D015203F001539FF00DB5
:100F90001124000F111FD801A552BE4F0C91045708
:100FA000110B40039001419F300D11242E0F3F1F64
:100FB00037FF02C021583F4F220F232F221F330B30
:100FC000620F1F910F910895EF920F93972F23E0D7
:100FD000029FB0011124759567956E0D792F0F91C1
:100FE000EF900895322F50E0FA01EE0FFF1FE45208
:100FF000FE4F9081905297FD9195440F551FFA0135
:10100000E552FE4F2081231B330B290F311D97FD25
:101010003A95620F0895E42FF0E0EE0FFF1FE452BF
:10102000FE4F6081621B0895E42FF0E0EE0FFF1F7A
:10103000E552FE4F6081621B0895622F0895E42FF0
:10104000F0E0EE0FFF1FE552FE4F408134EE439F6C
:10105000412D1124E82FF0E050E0445E5F4FDA01AB
:10106000A21BB1099D01B7FF03C03195219531093C
:1010700093E0220F331F9A95E1F7AF01421B530B08
:101080009A0157FD20E0582F259F212D1124822FF2
:101090000895E42FF0E0EE0FFF1FE552FE4F408170
:1010A00034EE439F412D1124E72FF0E050E0445EE1
:1010B0005F4FDA01A21BB1099D01B7FF03C0319553
:1010C0002195310993E0220F331F9A95E1F7AF0183
:1010D000421B530B9A0157FD20E0279F212D11241D
:1010E000722F08950E943E1208950E94D41108950F
:1010F000FC019B01009729F480E077FF2BC080E87A
:101100000895AC0197FF04C044275527481B590B8D
:10111000B901640F751F37FD10C0241B350BC901C1
:10112000A5E0880F991FAA95E1F70E94143080E28C
:10113000861BF7FF0FC081950895CB0165E0880FEE
:10114000991F6A95E1F7BA01621B730B0E94143074
:1011500080E6EECF0895EF920F93CF93DF93D72FD2
:10116000C82FC9010E19BA010E947808602F681BA8
:101170007D2F8C2FDF91CF910F91EF9008950F93DA
:10118000CF93DF93D72FC82FC901BA010E947808E7
:10119000682F600F7D2F8C2FDF91CF910F910895D5
:1011A000EF920F931F93CF93DF93D62FC72F182F54
:1011B000C9010E19010FBA010E947808081B202FDF
:1011C000219F212D1124822F6D2F7C2FDF91CF9114
:1011D0001F910F91EF900895EF920F931F93CF936C
:1011E000DF93D62F172FC82FC9010E19070FBA0189
:1011F0000E947808702F781B719F712D11246D2F1C
:101200008C2FDF91CF911F910F91EF9008950F9345
:101210001F93CF93DF93D62FC72F182FC901212FEC
:10122000201B022FBA010E947808982F990F990F5E
:10123000891B800F282F219F212D1124822F6D2F94
:101240007C2FDF91CF911F910F9108950F931F93E2
:10125000CF93DF93D62F172FC82FC901272F201B1D
:10126000022FBA010E947808982F990F990F782FB2
:10127000791B700F719F712D11246D2F8C2FDF91B1
:10128000CF911F910F910895E82F86FDE0952E2FA5
:101290002F7086FD2F5FE695E695E695E670F0E007
:1012A000E758FE4F9181929F902D212D1124929508
:1012B0009F702295207F922B2081920F87FD919520
:1012C00080E8890F08950F931F93CF93DF938B01CD
:1012D000D82FC42F822F0E944409EC2FF0E0EE0F8C
:1012E000FF1FE552FE4F90819058890F87FD819531
:1012F000880F682F2CE0629F612D1124600F712FE1
:101300008D2FDF91CF911F910F910895409114017E
:101310005091150125E038E0429FC001439F900D98
:10132000529F900D1124875E994C909315018093E4
:101330001401890F0895AC018230910508F40895D5
:101340009FEF413E8EE1580740F49A0195E03695B3
:1013500027959A95E1F798E0920F61E0E62FE90F63
:10136000FF27FF1F9F0135952795822F229FF001B0
:10137000239FF00DF00D11244E175F0738F49FEFF7
:10138000920F961758F78FEF860F08952F3FE9F3C6
:1013900061E0620FF6CF0F93CF93DF93D72FC82F63
:1013A00047FD41958AE390E0841B910947FD9395A1
:1013B000889FB001899F700D700D1124229FC0017C
:1013C000239F900D900D1124860F971F0E949B095B
:1013D000982F990F890F682F600F7D2F8C2FDF9129
:1013E000CF910F91089530E020E0869F212D969FA8
:1013F000200D311D1124C9010895AF92BF92CF92E3
:10140000DF92FF920F931F93CF93DF93362F472FD7
:10141000E82FF0E0E55DFD4F71110FC0E4918E2FD4
:101420002E2F6E2F722FDF91CF911F910F91FF9072
:10143000DF90CF90BF90AF900895C72FD0E0249158
:10144000F22E022F10E056E0659FC0011124EFEF4D
:10145000F0E0BF010E94BD2F832F90E0880F991FFD
:1014600035E5369FD001379FB00D11248A1B9B0BA9
:10147000982F990F980F6F01CC1ADD0AC09ED001EA
:10148000C19EB00DD09EB00D11248B2F499FA0019D
:101490001124452F55276F01C41AD50AC09EA001FB
:1014A000C19E500DD09E500D11245F01A91AB108A4
:1014B000AC9E6001AD9ED00CBC9ED00C1124CD2CF6
:1014C000DD24EC19FD09E09FE001E19FD00DF09FC4
:1014D000D00D1124ED2F62307105A1F050F461158B
:1014E000710509F49ECF6130710581F0EB2F852FD6
:1014F00098CF6430710569F080F06630710509F4A9
:1015000090CFF4CFE22F2B2F8D2F8BCFE22F252FD3
:1015100088CFEB2F822F2D2F84CF2B2F8F2DE52FD0
:1015200080CFB0E0A0E0E7E9FAE00C94DC2F8C017A
:10153000FC01E158FD4F8081682349F1D0904A0AAF
:10154000D0914B0AC091490AEC2EF12C0E948609D9
:10155000282FC7018C549F4F68E671E00E94143019
:101560008E199F0997FD0396959587959595879573
:1015700023706C2F289F600D11247D2D8D2F0E94CC
:10158000FD09462F282F672FC8010E947508CDB787
:10159000DEB7E7E00C94F82F2F923F925F926F92A4
:1015A0007F928F929F92AF92BF92CF92DF92EF92F3
:1015B000FF920F931F93CF93DF93CDB7DEB72A9798
:1015C0000FB6F894DEBF0FBECDBF8B837E836D83D5
:1015D00020912E0181E1289F802D11248F838F5E21
:1015E00089838A83833510F032E53A8380911D0A1E
:1015F0008C83FF81EF2FF0E0FA87E987CF01880F16
:10160000991F9C0125523E4F69013B81832F90E039
:10161000FC013196F887EF838A8199859817E8F065
:1016200081E0E981E23508F080E02A960FB6F8946F
:10163000DEBF0FBECDBFDF91CF911F910F91FF9005
:10164000EF90DF90CF90BF90AF909F908F907F9062
:101650006F905F903F902F900895E985FA85E1584B
:10166000FD4F808190912F018923F1F02090490A4C
:1016700030904A0A2F813885235E354F39015B80CF
:1016800010E0FC815F16D0F020914B0A129F112DC3
:101690001124B101812F0E94FD09462F282F672FA9
:1016A00089859A850E94750829853A852F5F3F4F65
:1016B0003A87298732E0C30ED11CAECFF301819166
:1016C0003F01F601A080A81ABB088180F301878141
:1016D000881A9908AA9C9001AB9C300D300D1124FA
:1016E000889CC001899C900D900D1124820F931F3E
:1016F0000E949B09082F60914C0A21E0620F08F4B8
:101700006FEFF301EE0FFF1FED51FA4085899689C7
:101710000E94F3097C019401A501B101812FED81A3
:10172000FE8109951B015394182FABCFB0E0A0E0C8
:10173000ECE9FBE00C94DB2F8C01C0912E0181E1E0
:10174000C89FC02D112421E1D22EDC0ECD2C22E524
:101750002D1510F492E5C92E20914C0A31E0230F8B
:1017600008F42FEF30E050E040E06FEF7FEF80E0D3
:1017700090E00E9402317901D0E02C2FCC1550F07E
:1017800081E0F1E5FD1508F480E0CDB7DEB7E8E0D3
:101790000C94F72FFE01E158FD4F808190912F01AD
:1017A000892311F140911D0A4150042E000C550B64
:1017B00047FF1CC0C70160914C0A21E0620F08F48A
:1017C0006FEF0E94F309AC016091490A70914A0AD7
:1017D00080914B0AF80109950E94FD09462F282F98
:1017E000672FCE010E9475082196C7CFFA01E35EEC
:1017F000F54F818982130AC0FA01EE0FFF1FE35EE5
:10180000F54F818D928D8E159F05A8F2415051099B
:10181000CFCFB0E0A0E0EFE0FCE00C94DC2F7C0147
:10182000C0912E0181E1C89FC02D112411E11C0F30
:10183000012F133508F002E560914C0A6695669514
:1018400021E0620F08F46FEF8091190A90911A0A53
:101850000E94F309D82ED0E0C01748F081E012357D
:1018600008F080E0CDB7DEB7E7E00C94F82FFE017A
:10187000E158FD4F808190912F01892391F0609173
:10188000490A70914A0A80914B0A2D2D4C2FF7017D
:1018900009950E94FD09462F282F672FCE010E942F
:1018A00075082196D9CFB0E0A0E0E9E5FCE00C9402
:1018B000D82F6C01C0912E0181E1C89FC02D112449
:1018C00011E11C0FB12E133510F032E5B32E6091EB
:1018D0004C0A669566958091190A90911A0A0E94A1
:1018E000F309F82E80E48F0D0E94440990E8A92E98
:1018F000A80E8F2D0E94440920E8922E980ED0E069
:10190000CB1548F081E0123508F080E0CDB7DEB7A6
:10191000EBE00C94F42FFE01E158FD4F8081909193
:101920002F018923A1F06091490A70914A0A8091A0
:101930004B0AEF2C0C2F292D4A2DF60109950E94F8
:10194000FD09462F282F672FCE010E94750821968A
:10195000D7CFB0E0A0E0EFEAFCE00C94D62F5C011A
:10196000C0912E0181E1C89FC02D112411E11C0FEF
:10197000F12E133510F032E5F32E60914C0A669586
:101980008091190A90911A0A0E94F309782ED0E0EA
:10199000CF1548F081E0123508F080E0CDB7DEB712
:1019A000EDE00C94F22FFE01E158FD4F8081909103
:1019B0002F018923C9F1CE01880F991F80579E4FAF
:1019C000FC01E55BFF4F2081422F4457550B6A0114
:1019D000845B9F4FFC018081282F2052330B4901EB
:1019E000449F9001459F300D300D1124889CC0010B
:1019F000899C900D900D1124820F931F0E949B09CA
:101A0000082F6091490A70914A0A80914B0AE72C8D
:101A10009401A601F50109950E94FD09462F282F82
:101A2000672FCE010E9475082196B2CFB0E0A0E0EA
:101A3000ECE1FDE00C94DB2F7C01C0912E0181E1F3
:101A4000C89FC02D112411E11C0FD12E133510F0A9
:101A500032E5D32E60914C0A66958091190A9091D7
:101A60001A0A0E94F309C82ED0E0CD1548F081E093
:101A7000123508F080E0CDB7DEB7E8E00C94F72F20
:101A8000FE01E158FD4F808190912F01892311F1D2
:101A9000CE01880F991F80579E4FFC01E45BFF4FDA
:101AA00020812052330B855B9F4FFC0140814457BE
:101AB000550B6091490A70914A0A80914B0A0C2D8E
:101AC000F70109950E94FD09462F282F672FCE01A7
:101AD0000E9475082196C9CF80E00895F894E82FF8
:101AE000E295EF70F0E031A1282F2F7081E090E0B7
:101AF00001C0880F2A95EAF7982F9095932391A318
:101B000092A1892B82A3789408959091E50992FF80
:101B100006C0282F28712830F9F4877F846093FF4E
:101B200006C0282F28712831F1F4877E8461209126
:101B3000E60920FF06C0382F38713830D9F4877F86
:101B4000816021FF06C0282F28712831D1F4877EBB
:101B5000816194FD877E0895282F24712430F9F641
:101B60008B7F8860DCCF282F2471243101F78B7E96
:101B70008861DDCF382F3171313019F78E7F886061
:101B8000E0CF282F2171213121F78E7E8861E1CFAE
:101B9000CF93DF93EC0182389105B1F108F040C09A
:101BA0008133910509F49DC048F58932910509F406
:101BB0008DC08A9709F49CC0C11522E5D20708F0B0
:101BC000BDC0C11531E5D30708F024C1C83ED10519
:101BD00008F0A3C0C13ED10588F5C83AD10508F088
:101BE0008EC0C53AD10508F0F6C0C130D10531F13B
:101BF000209721F1C430D10508F545C08533910502
:101C000009F45FC0C997C1F68091E509837009F0B6
:101C100036C18091E60983FF11C0C9E2D0E00EC051
:101C2000833E910599F170F4803E910501F1823E69
:101C3000910511F68091E50982FD21C0CE01DF9169
:101C4000CF910895863E910561F1873E910571F12E
:101C5000843E910509F0B0CF8091E60981FFEECF77
:101C60008091E509C7EED0E084FD0DC0E7CF8091FB
:101C7000E50980FD33C09091E60990FFDFCFC3EE08
:101C8000D0E084FFDBCFD0E0C0E0D8CF8091E50981
:101C900082FDF2C09091E60990FDF1C084FFCECFA5
:101CA000F2CF8091E50983FDDDCFC8CF8091E509B2
:101CB00083FDE8C09091E60991FFF0CFC4EED0E03B
:101CC000BDCF8091E50985FFB9CFA7CF8091E50908
:101CD00085FDDBC08091E60983FFB0CFC9E3D0E08A
:101CE000ADCF8091E50986FFA9CFCAE2D0E0A6CFAB
:101CF0008091E50986FFA2CFC1E3D0E09FCFCF3B23
:101D0000D10508F6C85AD0E0CC0FDD1FC95CDE4F04
:101D10000990D881C02DD46491CFC11540E5D40776
:101D200008F064C0C11580E4D80708F05CC0CE019B
:101D30009A9581159F4108F481CFA5CFC11536E54D
:101D4000D30718F5C11545E5D40708F07CC0C115C7
:101D500084E5D80708F072C09E01237033279C2FBA
:101D600096959695C115D34508F459C0C1E0D0E0C9
:101D700002C0CC0FDD1F2A95E2F730E2939FC0012D
:101D80001124C82BD92BDA6859CFC1158AE5D80799
:101D900078F4C11529E5D20708F060C0C11538E50F
:101DA000D30708F470CFDC2FCC27C06FD06A46CFA2
:101DB000CE0190568115904208F065CF8D2F8F711E
:101DC0000E94850D90E0982F882788279F719C019D
:101DD0002C2BE90141C0C55AD0E0CC5CDE4FC88154
:101DE000D0E0D0642BCFDF70D06A28CFCE018370D3
:101DF000992721E030E002C0220F331F8A95E2F7D5
:101E0000C695C69580E2C89FE0011124C22BD32B52
:101E1000DD6814CFDC2FCC27C16FD06A0FCFC1E0B3
:101E2000D0E002C0CC0FDD1F2A95E2F720E2929F9E
:101E3000C0011124C82BD92BDC6800CFDC2FCC27A4
:101E4000C46FD06AFBCE8C2F0E94850DC82FD0E0C6
:101E5000DC2FCC27CC27DF71D062F0CE8C2F8F7097
:101E60000E94850D34E0D695C7953A95E1F7CF707D
:101E70009C2FEC01D069E2CEC2EED0E0DFCEC0EE06
:101E8000D0E0DCCEC6EED0E0D9CEC5E3D0E0D6CEF1
:101E9000809171068111109271060895809590913C
:101EA0007006982390937006089580914D06909146
:101EB0001C06981301C008958F5F8770FACF292FF1
:101EC000953078F58F3068F590E03FE0239F800DE6
:101ED000911D1124682F677023E0969587952A95A8
:101EE000E1F7FC01EE0FFF1FE80FF91FE850FA4F72
:101EF00050E040E080E0219130E0062E02C03695AF
:101F000027950A94E2F721703327042E01C0220F8F
:101F10000A94EAF7822B4F5F5F4F4330510559F720
:101F2000089580E00895292F953098F58F3088F531
:101F300090E03FE0239F800D911D1124282F2770F2
:101F400041E001C0440F2A95EAF723E09695879572
:101F50002A95E1F7FC01EE0FFF1FE80FF91FE8508B
:101F6000FA4F30E020E070E05191DF011197CB0192
:101F7000022E02C0969587950A94E2F781708195AA
:101F80008527842385278C932F5F3F4F233031058E
:101F900059F70895EAE1F1E08083618324E630E0B7
:101FA00042E050E0BF0180E60E949C2F089580939C
:101FB000E7097093E9096093E80980910F0A84307A
:101FC000F9F48093E9008FEF9091E800815095FD3E
:101FD00006C095ED9A95F1F700008111F5CF80913B
:101FE000E80085FF0DC050E040E063E070E087EE60
:101FF00099E00E94F0038091E8008E778093E800DA
:102000000895BC0184E00E94D70F0895BC0183E0CD
:102010000E94D70F0895CF93DF93EC0180911901AF
:102020008823B1F18091E50987FF32C060E284E046
:102030008093E9008FEF9091E800815095FD06C0F4
:1020400095ED9A95F1F700008111F5CF8091E800A8
:1020500085FF1BC08091190170E050E040E08111C4
:1020600004C050E040E068E070E0CE010E94F00360
:102070008091E8008E778093E80080E2FE01ADEE6B
:10208000B9E001900D928A95E1F7DF91CF91089523
:1020900068E081E0CDCF81E08093E00080E2809332
:1020A000D8001092C9008FE19EE40197F1F700C0BB
:1020B000000087E090EBDC0180934E0A90934F0A7A
:1020C000A093500AB093510A88E19CE00FB6F894AF
:1020D000A895809360000FBE90936000FFCFCF93D0
:1020E000DF93CFE7D2E060E0CE010E94DE302196A0
:1020F000C11584E0D807B9F7DF91CF9108951F93F8
:10210000CF93DF93122F8430E0F46530D0F44F305A
:10211000C0F4C42FD0E0CC0FDD1F9EE1699FC00D3D
:10212000D11D112496E9899FC00DD11D1124632F63
:10213000CE0187960E94DE30612FCE0188960E94E4
:10214000DE30DF91CF911F910895B0E0A0E0EBEA7F
:10215000F0E10C94D92F83E7C82E84E0D82E10E04C
:1021600000E07601C0E017C003301105B9F0F501B9
:10217000259134914D2F6C2F802F0E947F1082E08B
:10218000A80EB11CDF5FDF3079F7CF5F8EE1E80E7C
:10219000F11CC53049F05701D0E0E6CF21E030E036
:1021A0004D2F6C2F83E0E9CF0F5F1F4F86E9C80EDC
:1021B000D11C04301105A9F6CDB7DEB7EAE00C94C6
:1021C000F52FCF93C82F6FEF811162E283E290E089
:1021D0000E94DE306FEFC11169E084E290E00E945E
:1021E000DE306FEFC11163E285E290E00E94DE30E5
:1021F000CF91089580E00E94E11060E086E290E0D7
:102200000E94DE300E94A5100E946F1081E00E94A3
:10221000E11008950F931F93CF93DF93843030F52F
:10222000653020F54F3010F5C42FD0E0CC0FDD1F06
:102230002EE1629FC00DD11D112436E9839FC00D90
:10224000D11D1124CE0187960E94C030082F10E0C6
:10225000102F0027CE0188960E94C0309801282BAD
:10226000C901DF91CF911F910F91089590E080E017
:10227000F8CF462F843040F4753030F46F3020F4BE
:10228000672F0E940A11089590E080E00895CF9290
:10229000DF92FF920F931F93CF93DF936C01009116
:1022A000460A80917206082BC7E0D0E010E0FC2EB1
:1022B000C8010C2E02C0959587950A94E2F780FD1F
:1022C0000CC02197A0F7F12C8F2DDF91CF911F919A
:1022D0000F91FF90DF90CF900895B6018C2F0E9450
:1022E00039110E94C80D019761F3EECFCF93DF93B0
:1022F000EC010E944711BE010E9439110E94C80DD5
:10230000DF91CF910895FC0183819481892B29F07D
:102310008081918189238F3F51F480E00895843F2B
:10232000E1F717C0883EA8F0813FB9F712C080815D
:1023300091810E94761192959F70963099F358F48E
:10234000925F9F70923048F7803F19F040F7883EC7
:1023500020F781E008959A5FF4CF83E290E00E9435
:10236000C030823289F484E290E00E94C03089302B
:1023700059F485E290E00E94C03091E0833209F088
:1023800090E0892F8170089580E0FCCFCF9384E0A6
:1023900090E00E94C030C82F82E290E00E94C030DE
:1023A000982F8C2FCF910895A4E0B0E0EAEDF1E1F1
:1023B0000C94DE2FF62E042F122F8235910508F093
:1023C00059C0880F991F880F991FBC01655D7C4F0C
:1023D00044E050E0CE0101960E9491308981282F7F
:1023E000237030E0869586954A81942F9295990FB7
:1023F000990F907C692F682B842F86958695782F6E
:102400007370EFE5F1E02E9FC0012F9F900D3E9F6E
:10241000900D11248558974F680F791FFB01F082AA
:10242000542F52955F704B81E42FE295E07F6E2F21
:10243000652B542F52955F70752F7370680F791F3D
:10244000FB01008342954695469543705C81E52FDC
:10245000EE0FEE0F6E2F642B752F72957695769595
:102460007370860F971FFC0110832658374F81E049
:10247000F90180832496E5E00C94FA2FFF920F93E4
:102480001F93CF93DF93182F062FF42ED0E0C0E0D8
:102490002F2D402F612FCE010E94D4112196C235DD
:1024A000D105B1F7CDB7DEB7E5E00C94FA2F0F9365
:1024B0001F93CF93DF9380917A08882309F441C05A
:1024C00065EC8EEF0E94CA0F60E08DEF0E94CA0F8C
:1024D000D0E0C0E004EB10E0CE01B8010E9414305F
:1024E00080931A0182E1FE01E558F74FABE1B1E0BC
:1024F00001900D928A95E1F724E630E043E150E047
:102500006AE171E080E60E949C2F892BD1F46296EB
:10251000C63581E0D807E1F482EA80931A0189E0A8
:10252000E1EDF9E0ABE1B1E001900D928A95E1F7C0
:1025300024E630E04AE050E06AE171E080E60E9483
:102540009C2F10927A08DF91CF911F910F910895DF
:10255000C43BD10509F665EC8EEF0E94CA0F61E01D
:102560008DEF0E94CA0FB8CFA4E0B0E0EAEBF2E131
:102570000C94D92F0E94FC2E65EC8EEF0E94CA0F9E
:1025800064E08DEF0E94CA0F61E080E00E94CA0FF4
:102590006FEF81E00E94CA0F67E782E00E94CA0FD6
:1025A0008FE39CE90197F1F700C000000BE213E014
:1025B00023E7E22E24E0F22E3FE5C32EDD24D39460
:1025C000BB24BA94AA24A39444E050E0B801CE01FD
:1025D00001960E9491308981282F237030E08695E2
:1025E00086954A81942F9295990F990F907C692F27
:1025F000682B842F86958695782F73702C9DC0014B
:102600002D9D900D3C9D900D1124865E984F680F76
:10261000791FFB01B082542F52955F704B81E42FDC
:10262000E295E07F6E2F652B542F52955F70752FCA
:102630007370680F791FFB01B082429546954695ED
:1026400043705C81E52FEE0FEE0F6E2F642B752F1C
:102650007295769576957370860F971FFC01B08200
:102660002758374FF901A0820C5F1F4FE016F10683
:1026700009F0AACF65EC8EEF0E94CA0F62E08DEFE1
:102680000E94CA0F9AE1E92E97E0F92E10E0F701B7
:1026900061917F01812F0E94CA0F1F5F143BB9F720
:1026A00065EC8EEF0E94CA0F63E08DEF0E94CA0FA7
:1026B0008EECE82E87E0F82E10E0F70161917F01A3
:1026C000812F0E94CA0F1F5F1B3AB9F71092790839
:1026D0002496EAE00C94F52F1F93CF93DF93EC013F
:1026E000FC01E158FD4F80816823B1F00E948130E8
:1026F000182F0E9481308F77782F20E8720F08F40E
:102700007FEF612F80914B0A0E94FD09462F282FF1
:10271000672FCE010E947508DF91CF911F91089518
:1027200046E050E06CE170E088E49AE00E94CE3030
:102730001092470A0895CF93FC01C081C830B9F1C7
:10274000C93009F455C0C73009F055C081818138BE
:10275000C9F020F4803861F0CF910895823819F1E2
:102760008338D1F7828120E040914B0A638106C013
:102770008091490A20E0428160914A0A90E00E94DB
:10278000EF05EACF8281811108C010924D0A809135
:10279000470A81608093470ADFCF60E00E945006BD
:1027A000C0934D0AF4CF828180934C0AD5CF8181AA
:1027B000813891F030F4803879F680914B0A828329
:1027C000CBCF823891F0833839F68091490A8283E1
:1027D00080914A0A8383C0CF80914D0A882379F380
:1027E0008091480A86958695EACF80914C0AE7CF7A
:1027F0000E949013B1CF8FEF8083AECFE8E4FAE070
:1028000085E380838091310190913201A091330161
:1028100081839283A3838FE784838FEF85830E94D4
:10282000901308958091700690916F06892B809384
:10283000D402909171069923A1F0892B8093D40240
:10284000809119018823E1F18091E50987FF38C063
:102850008EE1E6EDF2E090E08150A0F591110E944A
:10286000480F40E250E06FE476E084ED92E00E9491
:102870009A30892B21F180E2E4EDF2E0AFE4B6E09A
:1028800001900D928A95E1F7E091DC09F091DD0964
:102890003097A9F080911901882359F08091E509BA
:1028A00087FF07C08091D4028093D50286E0809391
:1028B000D4020280F381E02D84ED92E00995089521
:1028C00086E0C7CF2191222339F29F5FC5CF90E0E8
:1028D00080E00E94AA0590E080E00E94940510929A
:1028E0006F060E94121408958093460A0E9467148E
:1028F00008958091460A982F9670963021F488604A
:102900000E9474140895877FFBCF21E030E001C05E
:10291000220F8A95EAF720958091460A82230E9429
:102920007414089590914E068095892380934E06E5
:10293000282F277091F4282F082E000C330B9217A4
:10294000130659F09091E60992FF07C08595859589
:1029500085950E94851410924E060895CF93C091DC
:10296000E609C2FB992790F9981791F080FBC2F90C
:10297000C093E6096091E50984E090E00E94DE30B2
:102980006C2F82E290E00E94DE3082E00E9492147E
:10299000CF91089521E030E001C0220F8A95EAF737
:1029A0008091460A822B0E947414089580937206C7
:1029B0000E94671408951092700680911901E6ED47
:1029C000F2E0882361F08091E50987FF08C08EE17D
:1029D000DF011D928A95E9F70E946714089586E049
:1029E000F7CFAAE2B0E0E7EFF4E10C94E02F81E149
:1029F0009AE02091F100DC012D93CD01BAE08931FC
:102A00009B07B9F78091120A833009F472C0B8F4B9
:102A1000813009F449C0823009F4B3C08091E800E4
:102A200083FF8BC28091110A9091120A9A3008F0AC
:102A300084C2E92FF0E0E959FE4C0C9428308A302A
:102A400009F48EC08B3009F471C0893039F7809158
:102A5000110A813219F78091150A9091160A009790
:102A600011F00297D9F68091E800877F8093E80003
:102A70008091E80082FF38C09091F3008091F200CD
:102A8000029731F48091F100813011F0863021F409
:102A90008091F1008093EC098091E8008B7780931E
:102AA000E8000E941A04BACF8091110A813A09F015
:102AB000B5CF8091E800877F8093E8008091150A68
:102AC0009091160A892B61F460E28DEE99E070E036
:102AD0000E94C6048091E8008B778093E8009ECF27
:102AE00060E090E080E0F3CF80910F0A8111C0CFC9
:102AF00095CF8091110A813A09F090CF8091150A03
:102B00009091160A892B09F089CF8091E800877F80
:102B10008093E8008091E80080FFFCCF809119014C
:102B20008093F1008091E8008E77B9CF8091110AEF
:102B3000813209F073CF8091150A9091160A892B82
:102B400009F06CCF8091E800877F8093E8000E94B5
:102B50001A048091130A809319010E94DB145ECF3E
:102B60008091110A813209F059CF8091E800877F66
:102B70008093E8000E941A048091140A8093EB0964
:102B80004DCF8091110A813A09F048CF8091E80039
:102B9000877F8093E8008091E80080FFFCCF8091E0
:102BA000EB09BECF803899F0823809F0C6C1809118
:102BB000150A8F70873008F0C0C18093E9008091BA
:102BC000EB0085FB882780F91092E90006C0809110
:102BD0000D0A90910E0A911182609091E800977F02
:102BE0009093E8008093F1001092F1008091E8004A
:102BF0008E779FC1882309F48DC1823009F09DC171
:102C00008091130A811190C18091150A8F702FEF66
:102C1000280F263008F091C18093E9002091EB0045
:102C200020FF82C1933031F48091EB008062809369
:102C3000EB007AC19091EB0090619093EB0021E062
:102C400030E001C0220F8A95EAF72093EA00109243
:102C5000EA008091EB008860EACF81116EC110918B
:102C6000130A1F778091E3008078812B8093E30023
:102C70008091E800877F8093E8000E941A04809189
:102C8000E80080FFFCCF8091E30080688093E30040
:102C900082E0111183E080930F0A4FC18058823087
:102CA00008F04BC12091130A3091140A2C3DE3E047
:102CB0003E07A1F583E08A838AE289834FB7F894BF
:102CC000DE01139620E03EE051E2E32FF0E0509366
:102CD0005700E49120FF03C0E295EF703F5FEF7073
:102CE0008E2F90E0EA30C0F0C7968D939D932F5FB2
:102CF000243159F74FBF8091E800877F8093E80027
:102D00006AE270E0CE0101960E94C6048091E8005C
:102D10008B778093E80011C1C096E7CF8091150AA8
:102D20009091160A432F55274330510509F44AC0A4
:102D300078F54130510509F47AC08BE590E0E5E380
:102D4000F6E04230510509F0F8C02091E800277FF5
:102D50002093E8002091170A3091180A82179307F0
:102D600008F49C0140E02115310509F065C04111CE
:102D700063C08091E80082FDC9CF80910F0A88234B
:102D800029F2853019F28091E80083FFF2CFBECF9F
:102D90004132510509F43CC04232510509F0CDC021
:102DA0008330910508F0C9C0FC01EE0FFF1FEC57FE
:102DB000FE4F0190F081E02D8F579E4FDC018C91EA
:102DC00090E01AC0332721303105D1F021153105AB
:102DD00061F02230310509F0B0C0E2EAF6E0E4919A
:102DE0008E2F90E0E2EAF6E007C0E8ECF6E0E4912E
:102DF0008E2F90E0E8ECF6E0009709F49EC0A5CF96
:102E0000EEEBF6E0E4918E2F90E0EEEBF6E0F4CFFF
:102E10008330910508F091C0880F991FFC01E65797
:102E2000FE4F0190F081E02D89E090E08ECF82E1AD
:102E300090E0E0E9F6E089CF80910F0A882309F459
:102E400065CF853009F462CF8091E80083FD5ECFC5
:102E50008091E80082FD8DCF8091E80080FF83CFD4
:102E60009091F3008091F2002115310519F088301E
:102E7000910550F041E0089709F040E08091E800AA
:102E80008E778093E8006FCF44914093F1003196A4
:102E9000215031090196E8CF803809F04EC0809169
:102EA000E800877F8093E8008091100A8093F1000A
:102EB0009DCE811142C01091130A1230F0F580911D
:102EC000E800877F8093E8001093100A0E941A049C
:102ED000112311F084E005C08091E30087FDFACF53
:102EE00081E080930F0A42E061EC81E00E943904A6
:102EF00042E261EC84E00E94390442E261EC82E04B
:102F00000E94390442E260EC83E00E94390480911F
:102F10000F0A13C08091130A813079F481E0933055
:102F200009F080E080930E0A1092E9008091E80099
:102F3000877F8093E8000E941A048091E80083FF55
:102F40000AC08091E800877F8093E8008091EB00C1
:102F500080628093EB00AA96E3E00C94FC2F0E9421
:102F6000DB142FEF84E39CE0215080409040E1F798
:102F700000C0000088E19CE00FB6F894A89580930B
:102F800060000FBE90936000FFCF882321F00E9465
:102F90004E0F0E9412140895882339F09091700604
:102FA000982B909370060E9412140895882351F173
:102FB0009CEF980F913A40F4682F84ED92E00E94C4
:102FC00035050E941214089590E2980F983050F43D
:102FD000877091E001C0990F8A95EAF7892F0E94C6
:102FE0004E0FEFCF9BE5980F933028F490E080E0F0
:102FF0000E94AA050895885A873120F490E080E065
:103000000E9494050895CF93C82F8823D9F18CEF9F
:103010008C0F813AC8F580911901882311F18091B4
:10302000E50987FF1EC0EC2FE695E695E695F0E0F2
:10303000EC52FD4F828190E04C2F477021E030E050
:1030400002C0220F331F4A95E2F782239323892B74
:1030500091F06C2F84ED92E00E9435050E941214CD
:103060000AC0E6EDF2E08CED92E02191C21789F3FF
:103070008E179F07D1F76C2F84ED92E00E945F05B9
:103080000E941214CF91089580E28C0F883068F46A
:10309000C77021E030E001C0220FCA95EAF78091A5
:1030A0007006822B80937006EBCFEBE5EC0FE330DC
:1030B00040F4F0E0EC5CFE4F808190E00E94AA05B5
:1030C000E1CFC85AC731F0F6EC2FF0E0EE0FFF1F4A
:1030D000E95CFE4F808191810E949405D3CF1F93BC
:1030E000CF93DF93182FEB010E940318209739F438
:1030F000812F0E94D617DF91CF911F9108958FE9FC
:103100009FE00197F1F700C000002197EFCF90E01A
:1031100080E00E94C830883E9E4F19F40E94AD1195
:10312000089580E0089568EE7EEF90E080E00E94D0
:10313000FC3060E082E090E00E94DE3060E083E0FE
:1031400090E00E94DE301092720660E084E090E031
:103150000E94DE3064E082E290E00E94DE3060E0B7
:1031600085E090E00E94DE3060E086E090E00E9422
:10317000DE306FEF87E090E00E94DE3040E050E00C
:10318000BA0188E090E00E94F03060E08DE090E0CD
:103190000E94DE3040E050E0BA0188E190E00E94F9
:1031A000F03060E087E190E00E94DE3040E050E0E7
:1031B000BA018CE190E00E94F03070E060E080E2C3
:1031C00090E00E94FC3040E050E0BA0188E190E0DD
:1031D0000E94F03080E00E94E1100E94FA1040E06E
:1031E00050E0BA018FE090E00E94F03040E050E003
:1031F000BA0183E190E00E94F0300895A5E0B0E0CC
:10320000E4E0F9E10C94D22F8C01FC0183819481DC
:10321000892B31F08081918189238F3F09F02BC761
:103220002596E1E10C94EE2F0E944711F82E682FAD
:1032300089819A810E94930F69817A818F2D0E94E2
:1032400039117C018091F605F80192818111D9C074
:1032500091110EC0F4E0EF16FDE5FF0609F4A5C0DC
:1032600008F05DC033E0E3163DE5F30609F47DC0E8
:10327000F8018281882309F483C6C70182519F45E2
:10328000409708F021C68FEF93E00E94C030811173
:103290007AC0FEEEEF0E5FE7852E52E0952EE1102C
:1032A0003AC11C821B82442443944AE0342E7401A8
:1032B0008FEFE81AF80AC4010E94C03089831A828D
:1032C000882309F460C09FEF980F933008F032C153
:1032D0008A83498292E0890E911CC7010E94C03006
:1032E0008B83882309F44FC0FE0131967F01F701DB
:1032F00020812223E1F2213009F05BC1918182819A
:10330000913009F019C1F2E0EF0EF11C70E060E0BD
:10331000893311F460E570E00E946F1814C186E0F3
:10332000E8168DE5F80609F44DC097E0E9169DE52D
:10333000F90609F09DCFA0900401B0900501D0904E
:10334000460A0E94DB1480E00E9474146EEEE62EA2
:1033500065E0F62EAE14BF0409F446C0C7010E9412
:10336000FE18F6E0EF1AF108F5CF0E94DB1480E0BA
:103370000E94741484EF92E09093F5058093F40515
:1033800081E08093F60580914E06877009F448CF5E
:10339000F8018281882309F443CF8091E60982FFF6
:1033A0003FCF82E00E9492143BCF0E94DB1480E06A
:1033B0000E9474148EEE95E09093F5058093F405C9
:1033C00082E0DFCFA0900601B0900701D090460ABE
:1033D0000E94DB1480E00E94741474EFE72E72E008
:1033E000F72EAE14BF0431F40E94DB148D2D0E9421
:1033F0007414C9CFC7010E94FE18E6E0EE0EF11C5E
:10340000F0CF970123503D4523303105C8F521E029
:1034100035E0E3163DE5F30609F420E0291709F449
:10342000B2CF813029F08230B9F01092F605ABCFDF
:103430008091F4059091F505E2E0843F9E0729F024
:10344000FC0136972281211105C0909307018093DA
:103450000601EBCFCF01F0CF8091F4059091F505F7
:10346000F5E08E3E9F0729F0FC013696228121115E
:1034700005C09093050180930401D7CFCF01F0CF11
:10348000813021F1823009F0F3CE20910601309194
:103490000701A091F405B091F505911105C095E0E3
:1034A000AE3EB90709F4E4CECD01069628173907D8
:1034B00009F4DECE86E0F80101900D928A95E1F7DD
:1034C0008091F4059091F505069720C020910401A4
:1034D00030910501A091F405B091F505911105C059
:1034E00082E0A43FB80709F4C3CECD0106972817A0
:1034F000390709F4BDCE86E0F80101900D928A9556
:10350000E1F78091F4059091F50506969093F50505
:103510008093F405ADCE811424E0920609F433CFF4
:10352000C4010E94C030811101C0EA943FEF831AA8
:10353000930AB5CE4701D8CE923049F422E0E20E8C
:10354000F11C0E9403188FEFE81AF80AD0CE9330CE
:1035500031F432E0E30EF11C0E94D617F4CF943020
:1035600021F08FEFE81AF80AEECF92E0E90EF11C95
:1035700030E020E0B7016F5F7F4FF701418180535A
:10358000990B8A30910550F021503109E0F28FE912
:103590009FE00197F1F700C00000F6CF329EF001E6
:1035A000339EF00D11249C012E0F3F1F842F7B01B1
:1035B000E1CFE22FF0E0E555FE4F5490822F869543
:1035C0008695869590E0FC01E556FE4F6490277045
:1035D000712C022E02C0759467940A94E2F7E1E020
:1035E0006E227724FC01E557FE4FA490B12C022EE9
:1035F00002C0B594A7940A94E2F7F1E0AF22BB248D
:10360000FC01E558FE4FC490D12C02C0D594C7945C
:103610002A95E2F721E0C222DD246114710419F039
:1036200081EE0E940318A114B10419F086EE0E94E5
:10363000031839E370E060E0531202C060E570E007
:10364000852D0E946F18A114B10419F086EE0E9416
:10365000D6176114710419F081EE0E94D617C114B7
:10366000D10409F470CF70E060E08CE255CE81E0C7
:103670000E94CA140E94791486CE81E00E948514AB
:10368000F9CF82E0F5CF82E0F9CFF5EAEF16FDE55C
:10369000FF0609F436C4F0F431E6E3163DE5F3061F
:1036A00009F42FC426E1E2162CE5F20609F0E4C184
:1036B000809170068A7A91E009F490E09093F70582
:1036C00069E2811165E384ED92E00E945F050E944A
:1036D000121459CEC7018D5A9D45039718F711C48E
:1036E0008091E5098062F7E0EF16FCE5FF0609F43A
:1036F000B1C08091E509806128E0E2162CE5F20670
:1037000008F4A8C08091E5098064A4C03DE0E316F8
:103710003CE5F30609F4D5C0B0F48091E5098E7F4D
:103720009BE0E9169CE5F90609F494C08091E5094F
:103730008C60ECE0EE16ECE5FE0608F48BC08091A0
:10374000E5098D7F87C0FFE0EF16FCE5FF0609F471
:10375000C8C008F4BAC030E1E3163CE5F30609F44A
:10376000C4C081E1E8168CE5F80609F0F9C3809140
:10377000E5098F7B6FC09FEFE9169CE5F90609F418
:10378000C2C0D8F5FAEFEF16FCE5FF0609F487C0D2
:10379000D0F434E1E3163CE5F30609F4C2C008F4C2
:1037A000AEC095E1E9169CE5F90609F0D9C3809110
:1037B000E50982FB992790F921E0922790FB82F995
:1037C00090FB83F947C0ECEFEE16ECE5FE0609F43A
:1037D00080C008F468C02DEFE2162CE5F20609F46B
:1037E0007CC08091E60983603EEFE3163CE5F3067A
:1037F00009F0B6C38093E609B3C381E6E8168DE508
:10380000F80609F499C0A0F4E1E0EE16EDE5FE0635
:1038100009F490C008F47BC060E022E0E2162DE5D8
:10382000F20609F09DC38EE090E00E94DE3098C35E
:103830003DEAE3163DE5F30611F178F49091E509D0
:10384000892F8E7F90FF816095EAE9169DE5F90644
:1038500009F086C38093E50983C3EEEAEE16EDE531
:10386000FE0659F1FFEAEF16FDE5FF0609F078C301
:103870009091E609892F877F93FF8860BBCF809165
:10388000E6098860B7CF8091E5098260E3CF809137
:10389000E5098460DFCF8091E5098860DBCF809106
:1038A000E6098160A7CF8091E6098260A3CF0E94DC
:1038B000DB148091E5098068CDCF8091E609877F90
:1038C00099CF8091E5098B7FC5CF8091E509877FEE
:1038D000C1CF8091E6098E7F8DCF8091E6098D7FE3
:1038E00089CF8091E5098F7EB5CF8091E5098F7DE5
:1038F000B1CF0E94DB148091E5098F77ABCF809127
:10390000E509837FA7CF8091E6098C7F73CF8091F3
:10391000E609982F909591708E7F892B90FB81F905
:1039200069CF0E94DB149091E509892F97FB87F9F5
:10393000805890CF61E077CF9091E509892F8F7EF5
:1039400094FF806187CF8091F70569E2811165E37B
:1039500084ED92E00E943505BACE97ECE9169CE51D
:10396000F90609F46AC008F463C0F8ECEF16FCE548
:10397000FF0609F467C042E056E060E176E029EC1A
:10398000E2162CE5F20609F02EC30E94CD05FBCC11
:103990003FECE3163CE5F30609F46BC0C8F4ECEC2D
:1039A000EE16ECE5FE0609F45CC008F455C02DECFB
:1039B000E2162CE5F20609F459C061E085E03EEC20
:1039C000E3163CE5F30609F00EC30E945006DBCC7B
:1039D00086EDE8168CE5F80640F461E082E191EDB1
:1039E000E9169CE5F90688F3CECCEDE5EE16FE0669
:1039F00009F4C9CCF8C28091480A91E089278093E4
:103A0000480A109218018091470A81608093470A02
:103A1000BACC49E656E064E776E0B7CF44E756E033
:103A200069E676E0B2CF4AE356E065E476E0ADCFF2
:103A300045E456E06AE376E0A8CF4EE156E06CE25A
:103A400076E0A3CF4CE256E06EE176E09ECF40E117
:103A500056E062E076E099CF43ED55E061EE75E027
:103A600094CF41EE55E063ED75E08FCF61E081E0EA
:103A7000ACCF61E08DE0A9CFFAE5EF16FDE5FF06DA
:103A800099F168F4E1143CE5F306B9F08EEDE8161F
:103A90008CE5F80609F0A7C20E9493180CC09CE5BB
:103AA000E9169DE5F906B1F008F1F7EAEF16FDE534
:103AB000FF0609F098C20E94AF170E94DB142FEF97
:103AC00034E38CE0215030408040E1F700C000003A
:103AD0000E944B108091E60982FB882780F991E0D3
:103AE00089270E94AE147FC281E0FBCF80E0F9CF2E
:103AF000C7010E945F0FD82E85C22F2D2F70C22EB6
:103B00008F2D807F19F0C29490EFC922DD20B9F08B
:103B1000CC2069F080E28E0D883010F0811009C051
:103B200080917006C82AC09270060E9412148E2DD1
:103B30004CC080916F06C82AC0926F06F6CF8E2DBA
:103B40000E94D617CC2009F442C080E28E0D883046
:103B500010F0811004C08C2D0E944E0F06C0C0943E
:103B600080916F06C822C0926F060E9412142FC067
:103B70003F2D3F70C32E8F2D807F803219F0C2946D
:103B800080EFC822882089F081E0881609F468C097
:103B9000DD2009F472C0BB2009F468C0F8018581FA
:103BA00080FFC5CF8F70858361C02091E60922FD1B
:103BB00035C0DD2069F1CC2039F080917006C82A2B
:103BC000C09270060E94121480E00E940318292DF2
:103BD0002850330B2430310510F40E94C005AA2070
:103BE00009F41ECB80914E0680FD1ACBF80112829B
:103BF0008595859585950E94CA14C8010E94FE1876
:103C000080914E068595859585950E94851408CBF3
:103C100080E00E94D617CC20D1F29DCFDD2099F014
:103C2000909171068C2D892BB11003C00E94CC1786
:103C3000CECFE1E0BE12FACF22FFC9CF981739F2FA
:103C400080937106C4CFB11006C00E94480F8C2D1E
:103C50000E94C517BCCFF1E0BF1609F4B8CFF5CF6D
:103C6000DD2031F025E02B1508F4B1CF8C2DDECF0F
:103C700034E03B1508F4ABCFEACFBB2041F3F9E3C6
:103C80008F1209C02FEF37EE83E021503040804083
:103C9000E1F700C000008E2D0E94D61798CF8F2D1F
:103CA00086958695837061F0813009F090CFC701C9
:103CB0009370D11002C090E080E00E94940587CFFD
:103CC000C7019370D11002C090E080E00E94AA0565
:103CD0007ECF8F2D837091F5D11079CF4E2D4295E7
:103CE00046954770440F440F8E2D8F70042E01C0EF
:103CF000880F0A94EAF72E2D2071E4FE07C02FE00A
:103D000030E001C0220F4A95EAF720953F2D369505
:103D100036953370323069F050F44091720631308C
:103D200029F0822B84230E94D61451CF842B822B1E
:103D3000FACF282B809172068227F5CF8695DD2059
:103D400011F08F2D8170882309F441CF4E2D4295BB
:103D500046954770440F440F8E2D8F70042E01C07E
:103D6000880F0A94EAF72E2D2071E4FE07C02FE099
:103D700030E001C0220F4A95EAF720953F2D369595
:103D800036953370323069F050F44091460A313044
:103D900029F0822B84230E94741419CF842B822B48
:103DA000FACF282B8091460A8227F5CF9F2D9F704E
:103DB000F92EDD2029F0892F0E94CA148E2D36CFCE
:103DC0008E2D0E94C5178F2D0E94851400CF8E2D39
:103DD000E2EF8E16B1F1E81570F0F0EF8F16D1F02A
:103DE00021EF821691F0DD2009F45EC0B1109FCE64
:103DF0008F2D8F712AC033EF831651F194EF891202
:103E0000F2CF8091E60982FD2FC08F2D8F71DD20CA
:103E1000D9F21BC0DD2081F0E4E0EB1508F4D7CE29
:103E20002F2D2F7181E090E001C0880F2A95EAF7CD
:103E30009091460A8927AFCFF5E0FB1508F4C7CE6D
:103E4000EFCF8F2D8F71D110BFCF0E94CA14BFCE7C
:103E500080E0DD2009F49FCF9F2D9F7181E001C09C
:103E6000880F9A95EAF797CFDD2099F02F2D2F71C3
:103E7000F22E822F0E94CA148091E60982FF07C0A9
:103E800038E0F39EC0011124836080934E068F2D8D
:103E9000DCCF81E00E94921481E08B1508F097CE70
:103EA00082E00E94921493CEBB2059F0893309F02E
:103EB000F2CE9FEFE7EEF3E09150E040F040E1F703
:103EC000E8CE8F2D8F7180CFF0E1EF16FFE5FF0672
:103ED00009F4CDCB21E1E2162FE5F20609F4D1CBAE
:103EE00093E0E9169DE5F90608F0CFCBEAEFEE1670
:103EF000ECE5FE0630F4C70182509C45449708F07B
:103F0000D1CB0E94C6119093E6098093E50982E126
:103F1000E8168CE5F80609F4ECCC08F02CCCE9E0C6
:103F2000EE16ECE5FE0609F4C2CC08F0EFCB25E076
:103F3000E2162CE5F20609F4AECC08F0D1CB83E012
:103F4000E8168CE5F80609F49ECC08F0A0CC809128
:103F5000E5098160E2E0EE16ECE5FE0609F47ACCB4
:103F60006091E509F090E60984E090E00E94DE307F
:103F70006F2D82E290E00E94DE300E94DB1403CAC3
:103F800030E1E3163FE5F30609F477CB81E1E8166B
:103F90008FE5F80609F477CBF6E1EF16FCE5FF06AE
:103FA00009F4D1CC8091700682723AECE3163CE5BC
:103FB000F30609F44CCD08F0EBCCE5ECEE16ECE59D
:103FC000FE0609F430CD08F0C8CC23ECE2162CE54F
:103FD000F20609F41ECD08F021CD82ECE8168CE53E
:103FE000F80609F408CDF8018281E080F180882389
:103FF00009F47ECDC7010E944711D82E682FC70152
:104000000E94930FB7018D2D0E9439110E94C80D97
:104010007C01882EF801D280B580B2943FE0B322B3
:1040200080914E068770C1F0AD2CDD20B1F08F2D50
:10403000807F803421F080E28E0D883068F080919E
:10404000E60982FF09C082E00E94921480914E0628
:104050008770AA24A3948111A12C9F2C92942FE005
:104060009222FBE0F91508F4B2CDE92DF0E0EF580B
:10407000FE4C0C94283085E0DE01119601900D92E3
:104080008A95E1F7F801228189819A812111CCC8B2
:104090000E945F0FF82ED0C81F93CF93DF938091BB
:1040A0001B06807F09F049C080911806882309F417
:1040B00044C080914D06D0911C0660911606709107
:1040C0001706A0911906B0911A06C62FC72316E04D
:1040D000D81799F190E0109711F0CF3F19F401969D
:1040E0008770F6CF189F9001199F300D1124F901A8
:1040F000E35EF94F41814713F2CF40814613EFCF82
:1041000042814111ECCF438154814A1B5B0B483CF7
:10411000510528F780911B068F70806180931B06E4
:10412000F901EE5DF94F80818F708061808386E1B7
:1041300096E00E94FE180E94550FDF91CF911F91CB
:104140000895A1E1B0E0E7EAF0E20C94D92F8C01E8
:1041500085E0F801DE011D9601900D928A95E1F748
:10416000F801E28086E1A82E86E0B82E609119065B
:1041700070911A066115710509F426C19091160611
:1041800040911706892F84238F3F09F41DC1208198
:104190003181C380D480F0901806F601E61BF70B3E
:1041A000FF2009F4DCC080911B06582F507FE83CAB
:1041B000F10508F09FC051116BC0FE2C431314C0D1
:1041C000921312C0E11010C08F70806180931B06A3
:1041D000C5010E94FE1880911B06F80185838F2D72
:1041E0006196EAE00C94F52FC114D10429F0822FD6
:1041F00083238F3F09F003C180E0F82FF170DF2E99
:1042000080FF3CC080914D0640911C0656E084130F
:1042100015C02D873E878D859E850E947611292F9A
:1042200022952F702230F0F0243018F59F70F1F0B5
:10423000F8019581907FD1F4D12C1EC090E0589F59
:10424000F001599FF00D1124E35EF94F618136139F
:1042500006C06081261303C06281E6120FC001967A
:104260008770D5CF9F7011F0882331F3805E88303E
:1042700018F3C8010E94FE18FD2CB1CFEE2009F4FE
:10428000AECF80911B06816080931B06F12CA7CFD7
:10429000431306C0921304C0F801EE2009F479C05C
:1042A000C8010E948311882309F1EE20F9F0809162
:1042B0001B06803270F02091160630911706388761
:1042C0002F831986DB86CA868C87CE0107960E94CB
:1042D000FE1886E0F801A6E1B6E001900D928A95FD
:1042E000E1F70E944C20FF24F39479CFC8010E948B
:1042F000FE18F9CF51110AC086E196E00E94FE181F
:1043000086E0F50111928A95E9F7C0CF43130FC0FB
:1043100092130DC0E1100BC0F8018583C8010E9403
:10432000FE1886E0F50111928A95E9F758CFC80189
:104330000E9483118823D1F2EE20C1F280911B06E6
:10434000803238F220911606309117063A8329837D
:104350001B82DD82CC828E83CE010196B8CFE83CF1
:10436000F105F8F6FE2CEE2009F243131FC092135C
:104370001DC080911B0680FD10C0982F907F69F0B2
:10438000F8018583903F31F0982F907F905F8F7078
:10439000892B8583C8010E94FE1886E0F801A6E1FA
:1043A000B6E001900D928A95E1F719CFC8010E94FD
:1043B000831181118ECF80911B06816080931B0633
:1043C000C8010E94FE180BCFEE2009F48FCFC80160
:1043D0000E948311F82E882309F488CF86E0F80123
:1043E000A6E1B6E001900D928A95E1F7809116065C
:1043F000909117060E9476110E944C20F0CE81E029
:104400008E25FBCEA7E1B0E0E8E0F2E20C94E02FCD
:104410004B8B5C8B6D8B7E8B8F8B611110926F063B
:104420001A8A198A85E0FE017396DE011D960190B5
:104430000D928A95E1F786E0FE013D96DE01179622
:1044400001900D928A95E1F7CE0107960E94A12076
:10445000882359F016E080914D0690911C0689132F
:1044600043C06796E3E00C94FC2F86E0FE0137968C
:10447000DE01119601900D928A95E1F78A859B8560
:10448000892B41F38F81988589238F3F19F32091E0
:104490001C0630E0C90101968770992740914D06AE
:1044A0004817190671F40E94DB1410921C06109232
:1044B0004D0686E0E6E1F6E0DF011D928A95E9F718
:1044C000C9CF96E0929FD001939FB00D1124A35EB7
:1044D000B94FFE01319601900D929A95E1F78093C4
:1044E0001C060E94550FB6CF819FC0011124835E28
:1044F000994F0E94A120882309F4B3CF80914D06E3
:1045000090E001968770992780934D06A4CF1F9263
:104510000F920FB60F9211242F933F934F935F93F7
:104520006F937F938F939F93AF93BF93CF93DF93BB
:10453000EF93FF93D091E900DF708091EC00C82FDA
:10454000C17080FDC0E81092E9008091F000877F83
:104550008093F00078940E94F1141092E900809109
:10456000F00088608093F000CD2BCF70C093E900FD
:10457000FF91EF91DF91CF91BF91AF919F918F917B
:104580007F916F915F914F913F912F910F900FBE4F
:104590000F901F9018951F920F920FB60F92112433
:1045A0002F933F934F935F936F937F938F939F933B
:1045B000AF93BF93EF93FF938091E10082FF09C017
:1045C0008091E20082FF05C08091E1008B7F8093A3
:1045D000E1008091DA0080FF24C08091D80080FF44
:1045E00020C08091DA008E7F8093DA008091D9001C
:1045F00080FF9DC080E189BD82E189BD09B400FED4
:10460000FDCF81E080930F0A8091EA09811109C0F2
:104610000E94A0030E946B048091E200846080935A
:10462000E2008091E10080FF17C08091E20080FFEE
:1046300013C08091E2008E7F8093E2008091E200BF
:1046400080618093E2008091D80080628093D800DE
:1046500019BC85E080930F0A8091E10084FF2BC094
:104660008091E20084FF27C080E189BD82E189BD9D
:1046700089B5982F917080FFFBCF8091D8008F7DF6
:104680008093D8008091E1008F7E8093E10080913B
:10469000E2008F7E8093E2008091E200816080934F
:1046A000E2008091100A882309F447C084E08093D7
:1046B0000F0A80910F0A8091E10083FF27C080914B
:1046C000E20083FF23C08091E100877F8093E100B7
:1046D00082E080930F0A1092100A8091E1008E7F91
:1046E0008093E1008091E2008E7F8093E2008091D0
:1046F000E20080618093E20042E060E080E00E949E
:1047000039048091F00088608093F000FF91EF9170
:10471000BF91AF919F918F917F916F915F914F91D9
:104720003F912F910F900FBE0F901F90189519BCBD
:1047300010920F0A1092EA0974CF8091E30087FD6E
:1047400093E090930F0AB5CF78941F921FB61F92F3
:1047500011248F939F93AF93BF938091E109909120
:10476000E209A091E309B091E4090196A11DB11DF0
:104770008093E1099093E209A093E309B093E409DF
:10478000BF91AF919F918F911F901FBE1F90189561
:104790009C014FB7F8948091E1099091E209A091B2
:1047A000E309B091E4094FBF821B930B08952FB723
:1047B000F8948091E1099091E209A091E309B09108
:1047C000E4092FBF0895B0E0A0E0E9EEF3E20C9415
:1047D000D42F182F80911701811323C09091480A7C
:1047E00093702091160130E081E09217130609F4CE
:1047F00080E081708093300180914D0A90912F016B
:10480000981739F080932F0140E060E080E00E942B
:1048100072081B3260F4E12FF0E0E358FE4C0C9478
:10482000283081E0E6CF80913001811102C0C0E0E4
:10483000D4C140E060E080E00E947208F8CFC091EF
:104840002E0181E1C89FC02D112401E10C0FF02E33
:10485000033510F062E5F62E6091490A70914A0A1C
:1048600080914B0A0E94FD09E62ED72EC82ED0E07B
:10487000CF1528F0C1E0023508F4AFC1D8CFFE0152
:10488000E158FD4F808190912F01892331F02C2D2B
:104890004E2D6D2DCE010E9475082196E9CFC09155
:1048A0002E0181E1C89FC02D112401E10C0FF02ED3
:1048B000033510F052E5F52ED0904A0AE0904B0AED
:1048C000D091490A6D2F7D2D8E2D0E94FD09C62E97
:1048D000B72EA82E60914C0A6D0F7D2D8E2D0E9453
:1048E000FD09E62ED72E982ED0E0CF1518F6FE0142
:1048F000E158FD4F908180912F01892359F0292D96
:104900004E2D6D2D90FD03C02A2D4C2D6B2DCE010B
:104910000E9475082196E9CFC0912E0181E1C89FC0
:10492000C02D112401E10C0FE02E033510F042E5FB
:10493000E42ED0904A0AC0904B0A20914C0A30E4F1
:10494000F32E3F2D329F312D1124F32ED0E0CE15C2
:1049500008F090CFFE01E158FD4F808190912F012A
:104960008923B9F0FE01EE0FFF1FE452FE4F808154
:1049700082958F706091490A8F9D600D11247D2D65
:104980008C2D0E94FD09462F282F672FCE010E94F3
:1049900075082196DCCFC0912E0181E1C89FC02D02
:1049A000112401E10C0FE02E033510F082E5E82E12
:1049B000D0904A0AC0904B0A20914C0AD0E4FD2EB8
:1049C0003F2D329F312D1124F32ED0E0CE1508F06B
:1049D00051CFFE01E158FD4F808190912F01892335
:1049E000D9F0FE01EE0FFF1FE552FE4F6081F69EEB
:1049F000B0011124B5E075956795BA95E1F78091FE
:104A0000490A680F7D2D8C2D0E94FD09462F282F05
:104A1000672FCE010E9475082196D8CFC0912E0134
:104A200081E1C89FC02D112401E10C0FF02E033548
:104A300010F072E5F72EE090490AD0914A0AD09022
:104A40004B0A60914C0A6695669566958091190AA5
:104A500090911A0A0E94F3090E944409805887FD28
:104A60008195880F282F3D2D239F212D1124822FE2
:104A70006E2D7D2F0E94FD09E62ED72EC82ED0E088
:104A8000CF1508F0F7CEFE01E158FD4F80819091DF
:104A90002F01892331F02C2D4E2D6D2DCE010E943A
:104AA00075082196EDCF89E498E00E94090C07C0B3
:104AB0008FE198E0FACF86E299E00E94160DC82FA8
:104AC0008CC087E099E0F9CF8CEE98E00E94A90CA9
:104AD000F6CF80ED98E0FACF8DE198E0E6CF84E163
:104AE00098E0E3CF8BE098E0E0CF82EF97E0DDCF76
:104AF00084EE97E0EBCF8BEC99E0DFCF8FEB98E083
:104B0000DCCF8BEA98E0E2CF87EB97E00E94530C72
:104B1000D6CF89E897E0FACF82E597E0F7CFC0914A
:104B20002E0181E1C89FC02D112401E10C0F80915D
:104B3000300181111FC060914C0A20E1620F08F41E
:104B40006FEF8091190A90911A0A0E94F3096AE0A6
:104B500070E00E94BD2F892B09F08CCE0E9486093F
:104B600062E50E94083060912F01892F90E00E9439
:104B7000910A80CE802F033508F082E5D0E0E82E40
:104B8000F12CCE15DF050CF075CE60912F01CE0112
:104B90000E94910A2196F5CFC0913001C11135C014
:104BA00060914C0A20E1620F08F46FEF8091190ABE
:104BB00090911A0A0E94F30965E070E00E94BD2FEF
:104BC000892B09F034CE0E94813062E570E00E94AA
:104BD000143060912F010E946C1380912E018F5F21
:104BE00080932E01C1110CC082E080931801809146
:104BF0003001811105C0111103C083E080931801B9
:104C0000CDB7DEB7EFE00C94F02FC0912E0181E11B
:104C1000C89FC02D112401E10C0F802F033508F02F
:104C200082E5D0E0E82EF12CCE15DF050CF022CE87
:104C300060912F01CE010E946C132196F5CFC09197
:104C40002E0181E1C89FC02D112401E10C0FF02E2F
:104C5000033510F062E5F62ED0904A0AE0904B0A38
:104C6000D091490A60914C0A669566956695809147
:104C7000190A90911A0A0E94F3090E944409805867
:104C800087FD8195880F682F2CE0629F612D11248C
:104C90006D0F7D2D8E2D0E94FD09E62ED72EC82E7C
:104CA000D0E0CF1508F0E6CDFE01E158FD4F808140
:104CB00090912F01892331F02C2D4E2D6D2DCE0199
:104CC0000E9475082196EDCF83E699E0EECE81E44F
:104CD00097E0EBCE80912E0101E1809F000D112421
:104CE0004091190A50911A0A60911B0A70911C0A8E
:104CF0008091980690919906A0919A06B0919B0692
:104D000084179507A607B70708F0B4CD0E94860957
:104D1000F82E0E94860992E5891BF0F7890FC82FAB
:104D2000D0E0FE01E158FD4F80912F019081892351
:104D300009F4A0CD20E040E060E0F1FC13C00E9447
:104D40008609F82E0E948609782F76952FE7720F34
:104D500008F47FEF6F2D80914B0A0E94FD09462FCA
:104D6000282F672FCE010E94750820914C0A30E150
:104D7000230F08F42FEF60E1822F90E00E94F309E7
:104D8000BC0184EF91E00E94BD2F8091190A90919F
:104D90001A0AA0911B0AB0911C0A860F971FA11D29
:104DA000B11D8093980690939906A0939A06B093AC
:104DB0009B0660CDB0902E0181E1B89EB02C1124ED
:104DC00051E1A52EAB0C8A2CA2E5AA1510F442E500
:104DD000842E80913001882361F040E060E080E023
:104DE0000E947208E1EAF6E08BE4DF011D928A95E9
:104DF000E9F780912E01811115C080919D06909157
:104E00009E060E94C82321E08931910508F420E024
:104E100020939C06499730F00E94D72390939E06DA
:104E200080939D06C12C912CD12C9FE0692E25E505
:104E3000522E3AEA732E05C0A0E1A91508F453C01A
:104E4000D12C2D2D30E06C9CE0011124FE01E057A7
:104E5000FE4FE20FF31FE080EB1408F43CC0E814AF
:104E600008F039C09394F12CF701E158FD4F80818F
:104E700090912F01892309F42EC0CF55D94FC20F2D
:104E8000D31F0881302F252D321B08F430E070919C
:104E90004A0A272D200F08F42FEF40914B0A822F4A
:104EA000880F820F8E5F282F249F212D1124822F9F
:104EB000672D631B0E94FD09462F282F672FC7010E
:104EC0000E94750880919C06882329F031E0031B1D
:104ED00008F400E00883D3948FE0D812B2CFC394D3
:104EE00095E0C912A9CFC1E0B1E5BA1508F075CEB9
:104EF0009ECC00914B0AE3E00E9FE0011124D69571
:104F0000C795D695C7955C2EA02EB12C8FEF90E05B
:104F1000B5010E941430762E80913001882371F003
:104F200040E060E080E00E947208E1EAF6E08BE495
:104F3000DF011D928A95E9F71092A00680919F06E5
:104F40008F5F80939F06F12CE12CAC1ABD0A67019C
:104F5000612CD701AF55B94F4D018091A00686292C
:104F600009F045C00E948130853595400CF03FC066
:104F7000F4010083F601E057FE4FE081EF3FD1F0EE
:104F8000D601AF55B94F2C91F0E0521608F040C051
:104F900030E02C1B3D0B2C9FC0012D9F900D3C9FA2
:104FA000900D1124B5010E94BD2F262F402FCF0157
:104FB0000E9475086394FFE0CF0ED11C25E06212B9
:104FC000CCCF3FEFE31AF30A8FE0E816F10409F0C3
:104FD000BECF80919F06781202C010929F068091EA
:104FE000A0068F5F8D31F0F48093A00620CCF601EF
:104FF000EF55F94F8081882309F4BCCF801708F062
:10500000B9CF90919F067912B5CF81508083B2CFEE
:10501000029FC0011124BE010E94BD2F462F20E037
:1050200060E0C5CF1092A0062EEC36E084E040EBA5
:1050300056E09FEF900FA1EAB6E0F901843041F409
:10504000DC966C91DC97061303C0DC969C93DC978E
:105050006081601710F090830787119631964A1788
:105060005B0761F781502F5031098111E4CFDFCB0D
:105070008AE397E00E94960B22CD84E397E0FACF73
:1050800080911D0A21E0382F321B08F430E0832F75
:105090006BE177E00E94CC0A12CD6BE177E080E013
:1050A000F9CF80911D0A21E0382F321B08F430E03F
:1050B000832F60EE76E0EECF60EE76E0F0CF809169
:1050C0001D0A21E0382F321B08F430E0832F6EEAEE
:1050D00076E0E0CF6EEA76E0E2CF80911D0A21E033
:1050E000382F321B08F430E0832F66E976E0D2CF08
:1050F00066E976E0D4CF80911D0A21E0382F321B7B
:1051000008F430E0832F60E876E0C4CF60E876E012
:10511000C6CF4F925F926F927F928F929F92AF9283
:10512000BF92CF92DF92EF92FF92CF93C09015077C
:10513000D0901607E0901707F09018078FB7F894F3
:105140004090E1095090E2096090E3097090E40911
:105150008FBF530142018C189D08AE08BF080E9402
:10516000290560931507709316078093170790938E
:105170001807A091EC06ECEEF6E02A2F30E04FEF96
:10518000C40ED41EE11CF11CC418D508E608F708AB
:10519000A3132AC02093EC0620911907C0E0211127
:1051A00008C02091480AC22FC37019F0C22FC695BB
:1051B000C69520911801213009F440C0222339F10D
:1051C000223009F468C0233009F470C0CF91FF90F9
:1051D000EF90DF90CF90BF90AF909F908F907F9097
:1051E0006F905F904F900895418D528D2A01712CE0
:1051F000612CC414D504E604F70420F421503F5F69
:105200003296C6CF480D591D528F418FF8CF10925C
:105210002E016093190A70931A0A80931B0A9093C7
:105220001C0A89E2ECEEF6E0ADE1BAE001900D92E5
:105230008A95E1F781E080931801C8CF8C2F0E94F6
:10524000E323CC2319F20E94C00581FF10C0F12C8A
:10525000E12C2FEF4FEF6FEFC7010E9475088FEF22
:10526000E81AF80A42E5E416F10499F7AFCF809105
:105270004D0A8111ABCFF12CE12C20E040E060E041
:10528000C7010E9475088FEFE81AF80A42E5E41694
:10529000F10499F79BCFC09317018091480A83705E
:1052A000809316010E94571283E0C5CF8091470A70
:1052B00081110E9490134091190A50911A0A60912D
:1052C0001B0A70911C0A2FB7F8948091E109909104
:1052D000E209A091E309B091E4092FBF841B950B6B
:1052E000A60BB70B4097A105B10508F46FCF10923C
:1052F00018016CCFAAE0B0E0E0E8F9E20C94D72FF7
:105300008E010F5F1F4F8AE0F80111928A95E9F72D
:1053100095E6E92E91E0F92E6801AA24A394B12C18
:10532000F70181917F018F3F09F446C0F894E82F7F
:10533000E295EF70F0E021A18F70A50102C0440F4B
:10534000551F8A95E2F7CA01922F982B91A392A13B
:105350008095892382A3789400C0EAE6F1E021E0F9
:1053600030E0912C812C41914F3F09F467C0A42F6C
:10537000A295AF70B0E090968C9190E04F7002C013
:10538000959587954A95E2F780FD58C0C901882A0E
:10539000992A220F331F51E0E937F50721F7F7016A
:1053A000319780818F3F11F00E946E0D80EA8A95BF
:1053B000F1F7F60191828082F2E0CF0ED11C4AE62D
:1053C000E41641E0F40609F0ABCF4AE050E0B80142
:1053D00086E796E00E949A30892B99F18AE0F801DD
:1053E000A6E7B6E001900D928A95E1F781E08093FF
:1053F00075060E94D723909374068093730680915C
:105400007306909174060E94C8230497F0F04AE056
:1054100050E066E776E08EE896E00E949A30892BAD
:10542000C9F08AE0E6E7F6E0AEE8B6E001900D925A
:105430008A95E1F781E01092750608C090E080E05F
:10544000A6CF809175068111DACF80E02A96ECE034
:105450000C94F32F80E0EFCF1F921FB61F92112400
:105460008F939F93AF93BF938091E009811113C0F5
:105470008091E1099091E209A091E309B091E409DA
:105480004196A11DB11D8093E1099093E209A0937B
:10549000E309B093E409BF91AF919F918F911F9061
:1054A0001FBE1F901895CDB7DEB7E7970FB6F894DB
:1054B000DEBF0FBECDBF85B7806885BF85B780686A
:1054C00085BF84B7877F84BF0FB6F894A895809175
:1054D0006000886180936000109260000FBE80E8D9
:1054E00090E00FB6F89480936100909361000FBE36
:1054F0008CE69DE09093D3028093D2020E94A00399
:105500000E946B048091E20084608093E2007894B2
:1055100080910F0A8823A1F01091E9001F709091EB
:10552000EC00892F817090FD80E8182B1092E90023
:105530008091E80083FD0E94F1141F701093E90030
:1055400082E084BD93E095BD9AEF97BD80936E0095
:105550000E94AD11811102C00E94FA1005E611E00F
:10556000D8018D918D018F3F11F00E946E0DB1E039
:105570000A361B07A9F70AE611E099E7E92E91E040
:10558000F92EF80181918F018F3F11F00E946E0D6D
:10559000E016F106B1F78AE0EEE8F6E0DF01282F29
:1055A0001D922A95E9F7E6E7F6E0DF011D928A955C
:1055B000E9F70E948718811102C00E94931882E0C7
:1055C00090E00E94C030809382060E94C6119093A2
:1055D000E6098093E5090E947A29EFEFFCE731970D
:1055E000F1F700C000000E947A2980918E0680FFAA
:1055F00008C06FEF7FEF90E080E00E94FC300E94D7
:105600004B1083E090E00E94C0300E94D6140E94AC
:10561000B41210921D0A8FEF9FEF9093370A809378
:10562000360A9093390A8093380A90933B0A809304
:105630003A0A90933D0A80933C0A90933F0A8093E4
:105640003E0A9093410A8093400A9093430A8093C4
:10565000420A9093450A8093440A1092EC06909374
:105660000607809305079093080780930707909398
:105670000A078093090790930C0780930B07909378
:105680000E0780930D079093100780930F07909358
:1056900012078093110790931407809313070E94B9
:1056A0008718811104C00E9493180E94FE1346E0DF
:1056B00050E06CE170E088E49AE00E94B030109213
:1056C000470A8091480A8C7F11F40E94FE1388E0FB
:1056D00091E09093DD098093DC0980910F0A853079
:1056E00089F400E4F02E83E0E82E00E112E18091DD
:1056F0000F0A853009F4ACC00E94DB140E94C0057B
:10570000109219070E947A2983E896E09EA78DA738
:10571000AEE8B6E0B9ABA8ABFC01219131918D9117
:105720009D9146E0ED38F40709F4E4C028173907E5
:10573000A1F3712C612CF12CA8A9B9A92D903D9051
:10574000B9ABA8ABEDA5FEA581919191FEA7EDA700
:105750008215930509F49AC19C01222533253BABA0
:105760002AAB6301E12C44244394512C8AA99BA9C0
:1057700084219521892B09F47BC142018220932049
:10578000EEA2FFA281E08114910409F480E088A7D1
:105790000E94D7238160782F9AA789A74EA15FA185
:1057A00068A58AA50E9402228114910439F0F601AD
:1057B000E057FE4F80818F3F09F0F3C01BA64BA539
:1057C000042F10E08091EC06800F912F911D099716
:1057D00074F1F8E0AF2EB12CA01AB10AB8016351F0
:1057E000794FA5018DEE96E00E94A730B8016B506D
:1057F000794FA50185EF96E00E94A730A501440FDF
:10580000551FB801660F771F6B5F784F85E097E0F3
:105810000E94A730B8016350794FA5018DEF96E043
:105820000E94A73088E05BA5851B8093EC068091E1
:10583000EC0690E0EFA5AE2FB0E09D01220F331FE4
:1058400025523E4FAA0FBB1FBD0164527E4FC2C0FE
:1058500080910F0A843009F439C00E948928809110
:10586000190781110DC00E94E32310921701809146
:10587000480A8370809316010E945712E092180123
:10588000F1E0F09319071092E00928E130E00FB63B
:10589000F894A895209360000FBEF092600083B743
:1058A000817F846083BF83B7816083BF789488954C
:1058B00083B78E7F83BF0FB6F894A8958091600060
:1058C000886180936000109260000FBE80910E0A84
:1058D000882309F40CCF0E947A29EEE8F6E0819142
:1058E0009191892B09F069C248E956E04E175F078C
:1058F000B1F7FDCE2817390709F01BCF0E94D72337
:105900008C01809180069091810608171907A1F0FB
:105910008FEF89A38AA31BA20E94D7238160782FCF
:105920009DA38CA349A15AA16BA18DA10E94022223
:1059300010938106009380060E9489280E94C0056A
:1059400090918D06891721F080938D060E9429057C
:1059500080910F0A843009F0C0CE83E08093E90083
:105960008091E80082FFB9CE8091E80090E085FF49
:1059700006C00E94BF03882309F4CDC091E0809146
:10598000E8008B778093E800992309F4A6CEE9819B
:10599000E150E33108F00EC2F0E0E855FE4C0C9403
:1059A00028308FA731E03BA70ACF90E0FC01E451FB
:1059B000F94FD9015C915183DB015C915187BFA5FF
:1059C000B18B880F991FFC01E451F94F128E118E93
:1059D00091E0842F41E0480FFBA59F1730F380939F
:1059E000EC06892809F444C08091480A8C7F8437EA
:1059F00009F03EC0F601E057FE4F80818F3FC1F1B4
:105A0000B12CA12C812C90E09C01220F331FA90105
:105A100045525E4F5DAB4CABD901A452BE4FBFABFC
:105A2000AEABF601EF55F94FFCA7EBA78501912C22
:105A3000F801E057FE4F80818F3F61F08F1030C03A
:105A4000E9102EC0ABA5BCA52C9130E2230F08F4C1
:105A50002FEF2C9393940F5F1F4F4FE09412E8CFDA
:105A600083945FE0A50EB11C8BE4A816B104F1F697
:105A7000E394440C551C9FEFC91AD90AAFE0EA120F
:105A800075CEEDA5FEA5329731822082F394BFE05A
:105A90006B0E711CE5E0FE124FCE0E9429054CCF23
:105AA00090E0ACA9BDA94C91FC01EE0FFF1FE5529F
:105AB000FE4F2081421B550BEEA9FFA92081880FC4
:105AC000991FFC01E452FE4F8081281B330B449F39
:105AD000B001459F700D700D1124229FC001239FBE
