:100000000C948B030C94C3030C94C3030C94C30390
:100010000C94C3030C94C3030C94C3030C94C30348
:100020000C94C3030C94C3030C948B160C94B8204B
:100030000C94DD2D0C94C3030C94C3030C94C303E4
:100040000C94C3030C94C3030C94C3030C94C30318
:100050000C94C3030C9464170C94C3030C94C30353
:100060000C94C3030C94C3030C94C3030C94C303F8
:100070000C94C3030C94C3030C94C3030C94C303E8
:100080000C94C3030C94C3030C94C3030C94C303D8
:100090000C94C3030C94C3030C94C3030C94C303C8
:1000A0000C94C3030C94C3030C94C303050109020D
:1000B000A10185020901A1000509190129081500FE
:1000C0002501950875018102050109300931158165
:1000D000257F95027508810609381581257F9501D0
:1000E00075088106050C0A38021581257F95017572
:1000F000088106C0C005010980A101850319012AF4
:10010000B700150126B700950175108100C0050CD8
:100110000901A101850419012AA002150126A002E6
:10012000950175108100C005010906A1018506052C
:100130000719E029E71500250195087501810205D9
:1001400007190029EF1500250195F07501810205B9
:10015000081901290595057501910295017503910D
:1001600001C00660FF0961A1010962150026FF00B8
:100170009520750881020963150026FF00952075FA
:10018000089102C005010906A101050719E029E748
:1001900015002501950875018102950175088101F9
:1001A0000507190029FF150026FF0095067508812F
:1001B000000508190129059505750191029501753C
:1001C000039101C0000000000000000000000000DA
:1001D000000000000000000000000000000000001F
:1001E00000000000000000007E0F00D4FFFFFFC7EA
:1001F0000000007800000000000000002A2B28000A
:1002000000000000000000000000000000000029C5
:10021000000000002C1E3420212224342627252E05
:10022000362D3738271E1F2021222324252633333D
:10023000362E37381F0405060708090A0B0C0D0E69
:100240000F101112131415161718191A1B1C1D2F35
:100250003130232D350405060708090A0B0C0D0E55
:100260000F101112131415161718191A1B1C1D2F15
:100270003130354C0001010101010101010102028F
:100280000202020202020203030303030303030444
:10029000040404040404050505050506060606060F
:1002A000070707070708080808090909090A0A0AC9
:1002B0000B0B0B0C0C0C0D0D0D0E0E0E0F0F0F106B
:1002C00010111111121213131414151516161717F5
:1002D000181819191A1A1B1B1C1D1D1E1E1F202061
:1002E000212222232424252626272829292A2B2CAB
:1002F0002D2D2E2F30313232333435363738393ACE
:100300003B3C3D3E3F404142434445464748494AC5
:100310004C4D4E4F50515354555658595A5B5D5E93
:100320005F616264656668696B6C6D6F707273752E
:1003300077787A7B7D7E8082838587888A8C8E8F92
:1003400091939596989A9C9EA0A2A3A5A7A9ABADC0
:10035000AFB1B3B5B7BABCBEC0C2C4C6C9CBCDCFAE
:10036000D1D4D6D8DBDDDFE2E4E7E9EBEEF0F3F55C
:10037000F8FAFDFF4400C103BCE0420B34C1C412D3
:10038000ACA1461A2482C8219C624A291443CC306D
:100390008C234E380404D03F50308104C810030C25
:1003A00040F18413B8D1061B30B28822A8920A2AE1
:1003B00038D00003B0B0820A28910412A0718619C7
:1003C0001852082190328A2808130C3080F38D3798
:1003D000F8D30F3F5C604105D440C30C4C21451459
:1003E000C401C71B3CE24823B4C2CA2A2CA0400265
:1003F000A480C2091C6144119441C6180C224820F3
:100400008402CA27FCE24B2F74C3CD36ECA34F3EC7
:1004100068900106E070830D58510515D031871C96
:10042000C0F28A2B207080011031841088110618C8
:1004300000F2871F78D20927F0B28B2E68930D3611
:10044000E0738F3D74C0C106ECA0430E6481C515F6
:10045000DC61471D5442C924CC224B2C1440C000FF
:100460008C2042080401C40FE482CB2D6484D14562
:1004700088141248ACA4524AD034934CF4C4D34EDE
:100480004C24514470B491469444D248B8D4124B91
:10049000DC64534D00F5934F2485D4514815155411
:1004A0006CA55556585411457CE45147A0749249A7
:1004B000C404D34BE894134E0C255450165C1E0014
:1004C0001F00200021002200230024002500260018
:1004D00027002D002E002A004A002B0014001A00CD
:1004E0000800150017001C0018000C001200130073
:1004F0002F00300031004B003900040016000700C7
:1005000009000A000B000D000E000F00330034003C
:10051000280000004E00E10000001D001B00060046
:100520001900050011001000360037003800E50002
:1005300052004D00E000E300E20000000000000077
:100540002C000000000000000151E40050005100A8
:100550004F00165C3A003B003C003D003E003F006F
:100560004000410042004300440045004C004C0064
:100570000100C25CC35CC55CC65CC75CC85CC95C8E
:10058000CA5C0100000000000000005CAA00390005
:10059000CB5CCC5C01000100010001000100010006
:1005A0000F080100010001000000A900E1000000A7
:1005B00001000100010001000100145C01000100C4
:1005C00001000100A600AE004C0501000100010081
:1005D0000000000000000100000000000000010019
:1005E0000251BB00A800AB00A50001000100010002
:1005F00001000100010001000100010001000100F3
:1006000001000100035D0100010001000100010083
:1006100001000100010001000100010001000100D2
:100620000100045D01000100010001000100010062
:1006300001000100010001000100010001000000B3
:10064000065D010000000100010001000100010041
:100650000100010001000100010001000100075D2F
:100660000100010001000000000000000100000086
:100670000000000001000100BC000100055D09024E
:100680005B00030100A0FA0904000001030101005E
:100690000921110100012240000705810308000122
:1006A00009040100020300000009211101000122D8
:1006B0002200070582032000010705030320000133
:1006C00009040200010300000009211101000122B8
:1006D000B60007058403200001120100020000009B
:1006E000084B5412000100010200011A0350006F70
:1006F0000072007400690063006F0036003800204B
:1007000000760032000000080354004B0043000054
:1007100000040309040011241FBECFEFDAE0DEBF9E
:10072000CDBF04B603FE18C08091680A9091690A93
:10073000A0916A0AB0916B0A8730904BA740B04BEA
:1007400059F41092680A1092690A10926A0A10927B
:100750006B0AE0E0F8E309952AE0A8EDB2E001C0F9
:100760001D92A836B207E1F712E0A0E0B1E0ECE29A
:10077000FDE602C005900D92A83DB107D9F70E9491
:10078000042E0C9401360C940000E8EDF0E080811A
:100790008E7F80831092E2001092DA001092E100C6
:1007A000A0EEB0E08C9181608C9380818F77808304
:1007B00019BCA7EDB0E08C918E7F8C9380818F7EE9
:1007C00080831092010A08952091E4003091E500A1
:1007D00095E6A9012091EC00822F817020FF06C0D0
:1007E0008091E80080FF06C080E008952091E80035
:1007F00022FD1AC08091260A882389F0853089F06D
:100800008091EB0085FD0FC02091E4003091E50060
:1008100042175307F9F29150E1F684E0089582E01F
:10082000089583E0089581E00895EF92FF920F9379
:100830001F93CF937C018B010E94E403C82F811189
:1008400017C08091E80085FD0BC08091E8008E778D
:100850008093E8000E94E403882399F3C82F08C01E
:10086000F70181917F018093F1000150110949F74F
:100870008C2FCF911F910F91FF90EF900895809151
:10088000280A87FF13C08091E80082FF06C080918C
:10089000E8008B778093E80004C08091260A8111DC
:1008A000F2CF08958091260A8823D9F38091E80039
:1008B00080FFF8CF8091E8008E77ECCF982F90934F
:1008C000E900242F762F50E0891731F07091EC0069
:1008D0002091ED005091F00021FD07C09F5F9730FF
:1008E00071F78093E90081E008953091EB003E7F3D
:1008F0003093EB003091ED003D7F3093ED0030916F
:10090000EB0031603093EB007093EC002093ED002E
:100910005093F0002091EE0027FDE0CF80E0089595
:10092000B0E0A0E0E6E9F4E00C947734C8EDD0E064
:1009300088818F7E8883E7EDF0E08081816080830D
:1009400084E082BF81E08093010A88818E7F888362
:1009500002EE10E0F80110821092DA0081EEC82E4B
:10096000D12CF601108288818F77888388818068F6
:10097000888388818F7D888319BC1092260A109203
:10098000270A1092250A1092240A90EEE92EF12CE3
:10099000F70180818B7F808388818160888342E03A
:1009A00060E080E00E945E04F60180818E7F80839B
:1009B000F801808181608083808188608083F70175
:1009C00080818E7F8083888180618883CDB7DEB708
:1009D000E8E00C949334FC0180912E0A90912F0A48
:1009E00086179707A0F06115710529F49091E8002A
:1009F0009E779093E80090E06115710551F4911194
:100A000008C08091E80082FF34C080E00895BC01F6
:100A1000F2CF8091260A8823C1F18530C1F18091FF
:100A2000E80083FD30C08091E80082FDEACF80912C
:100A3000E80080FFE1CF8091F3002091F200382F91
:100A40006115710519F02830310558F091E0283012
:100A5000310509F090E02091E8002E772093E8001E
:100A6000CBCF81918093F100615071092F5F3F4F8F
:100A7000E7CF8091260A882341F0853041F08091AC
:100A8000E80083FFBECF81E0089582E0089583E00F
:100A9000089508958091030A08952FB7F8946091FE
:100AA000F8097091F9098091FA099091FB092FBF1B
:100AB000089520911F012223C9F02091FC0927FFEE
:100AC00015C0E62FE695E695E695EE31D8F4E80FE9
:100AD000F92FF11D677021E030E001C0220F6A9507
:100AE000EAF720958281282322830895FC0132961B
:100AF00008962191621303C0DF0111971C92E81739
:100B0000F907B9F7089520911F012223C1F0209120
:100B1000FC0927FF14C0E62FE695E695E695EE3131
:100B2000F8F4E80FF92FF11D677021E030E001C003
:100B3000220F6A95EAF78281822B82830895FC0155
:100B400032962FEF30E04191641751F02F3F19F4A6
:100B5000411101C0232F3F5F3630A9F72F3F09F421
:100B60000895820F911D27FD9A95FC0162830895D7
:100B70002091F5093091F6092817390771F0909303
:100B8000F6098093F509E091F309F091F4093097A3
:100B900021F00084F185E02D099508952091F10957
:100BA0003091F2092817390771F09093F209809378
:100BB000F109E091F309F091F409309721F00680F2
:100BC000F781E02D09950895E091F309F091F4097A
:100BD000309729F00190F081E02D0995089580E08B
:100BE0000895FA01811101C0FB0109950895E2E61B
:100BF000FAE0248130E1231B08F420E02483809173
:100C0000610A81608093610A0895E2E6FAE0248136
:100C100030E1230F08F42FEF24838091610A816073
:100C20008093610A08959091620A937071F08093A5
:100C3000630A6093640A403B08F04FEA4093650AF8
:100C40008091610A822B8093610A0895E2E6FAE0BE
:100C5000438120E1421B08F440E0818121E0628170
:100C600090E00E9413060895E2E6FAE0438120E155
:100C7000420F08F44FEF818121E0628190E00E94F1
:100C800013060895E2E6FAE0628120E1621B08F4AF
:100C900060E0818121E0438190E00E941306089585
:100CA000E2E6FAE0628120E1620F08F46FEF8181F1
:100CB00021E0438190E00E9413060895E2E6FAE005
:100CC000818121E0438162818850990B0E94130643
:100CD0000895E2E6FAE0818190E021E043816281BB
:100CE00008960E94130608959091620A937061F02D
:100CF00081110BC094609093620A10921E01809142
:100D0000610A862B8093610A08958B3210F0986AED
:100D1000F2CF880F880F982BEECF8091620A8695CC
:100D20008695815009F48AE261E00E947406089574
:100D30008091620A869586958F5F8B3208F081E0FC
:100D400061E00E9474060895EF92FF920F9397015D
:100D5000201B31092F3F310519F010F02FEF30E043
:100D60002095382F320F08F43FEF832F0F91FF901B
:100D7000EF900895EF92FF920F939701201B310996
:100D80002F3F310519F010F02FEF30E0322F309562
:100D9000482F430F08F44FEF842F620F0F91FF90FD
:100DA000EF900895EF92FF920F93972F093438F444
:100DB000B701601B71096F3F710519F010F06FEFFB
:100DC00070E0485F5F4F4131510540F0A901485F35
:100DD0005F4F4131510510F06FEF70E06095482F83
:100DE000460F08F44FEF842F37FF02C02D5F3F4FAF
:100DF00035952795359527956091630A620F792F70
:100E00000F91FF90EF900895EF92FF920F931F9331
:100E10000E0D1F2D111DF90137FF03C0F195E1954E
:100E2000F10924E0EE0FFF1F2A95E1F7EF3FF105EE
:100E300019F014F0EFEFF0E09A0157FF03C031957D
:100E40002195310994E0220F331F9A95E1F72E176F
:100E50003F070CF4F901E00FF11FEF3FF10519F026
:100E600010F0EFEFF0E0E095282F3E2F230F08F46D
:100E70002FEF822F1F910F91FF90EF900895EF9227
:100E8000FF920F93970195E0099F200D311D1124CA
:100E90002F3F310519F010F02FEF30E02095382F5B
:100EA000320F08F43FEF832F0F91FF90EF900895DA
:100EB00022E8241B08F420E0620F08954095282FB3
:100EC000429F412D1124842F0895E42FF0E0EE0F6E
:100ED000FF1FEF51FE4F9081921B97FD9195292F97
:100EE00038E1239F212D1124620F08950F931F9342
:100EF00010E0F801EE0FFF1FEF51FE4F9081945765
:100F000097FD9195000F111FF801EE51FE4F0081E2
:100F10000052110B2003F001219FF00D112408E372
:100F200010E0091B110997FD139540039001419FA3
:100F3000300D1124E20FF31F9F01220F331F2E0FDC
:100F40003F1F37FF02C021583F4F220F232F221F80
:100F5000330B620F1F910F9108950F931F93522F20
:100F600010E0F801EE0FFF1FEE51FE4FA081A052DE
:100F7000BB0B9D015203F001539FF00D1124000F94
:100F8000111FD801AF51BE4F0C910457110B4003F4
:100F90009001419F300D11242E0F3F1F37FF02C0DB
:100FA000215C3F4F96E0359527959A95E1F7620FC2
:100FB0001F910F9108950F931F93522F10E0F80186
:100FC000EE0FFF1FEE51FE4FA081A052BB0B9D0103
:100FD0005203F001539FF00D1124000F111FD8018F
:100FE000AF51BE4F0C910457110B40039001419F2C
:100FF000300D11242E0F3F1F37FF02C021583F4FE5
:10100000220F232F221F330B620F1F910F91089580
:10101000EF920F93972F23E0029FB0011124759553
:1010200067956E0D792F0F91EF900895322F50E054
:10103000FA01EE0FFF1FEE51FE4F9081905297FD87
:101040009195440F551FFA01EF51FE4F2081231B4C
:10105000330B290F311D97FD3A95620F0895E42F48
:10106000F0E0EE0FFF1FEE51FE4F6081621B08950E
:10107000E42FF0E0EE0FFF1FEF51FE4F6081621B87
:101080000895622F0895E42FF0E0EE0FFF1FEF5157
:10109000FE4F408134EE439F412D1124E82FF0E0B4
:1010A00050E0445E5F4FDA01A21BB1099D01B7FF1A
:1010B00003C031952195310993E0220F331F9A9592
:1010C000E1F7AF01421B530B9A0157FD20E0582F67
:1010D000259F212D1124822F0895E42FF0E0EE0F9B
:1010E000FF1FEF51FE4F408134EE439F412D1124ED
:1010F000E72FF0E050E0445E5F4FDA01A21BB10938
:101100009D01B7FF03C031952195310993E0220F6E
:10111000331F9A95E1F7AF01421B530B9A0157FD1C
:1011200020E0279F212D1124722F08950E94DA13A9
:1011300008950E9470130895FC019B01009729F403
:1011400080E077FF2BC080E80895AC0197FF04C0D2
:1011500044275527481B590BB901640F751F37FDEC
:1011600010C0241B350BC901A5E0880F991FAA9553
:10117000E1F70E94B03480E2861BF7FF0FC0819533
:101180000895CB0165E0880F991F6A95E1F7BA01D0
:10119000621B730B0E94B03480E6EECF0895EF928D
:1011A0000F93CF93DF93D72FC82FC9010E19BA0120
:1011B0000E949C08602F681B7D2F8C2FDF91CF91A0
:1011C0000F91EF9008950F93CF93DF93D72FC82FF0
:1011D000C901BA010E949C08682F600F7D2F8C2FD7
:1011E000DF91CF910F910895EF920F931F93CF93BB
:1011F000DF93D62FC72F182FC9010E19010FBA017F
:101200000E949C08081B202F219F212D1124822F32
:101210006D2F7C2FDF91CF911F910F91EF9008954B
:10122000EF920F931F93CF93DF93D62F172FC82FD3
:10123000C9010E19070FBA010E949C08702F781B74
:10124000719F712D11246D2F8C2FDF91CF911F91E4
:101250000F91EF9008950F931F93CF93DF93D62FA5
:10126000C72F182FC901212F201B022FBA010E945E
:101270009C08982F990F990F891B800F282F219F69
:10128000212D1124822F6D2F7C2FDF91CF911F9163
:101290000F9108950F931F93CF93DF93D62F172F9E
:1012A000C82FC901272F201B022FBA010E949C08BA
:1012B000982F990F990F782F791B700F719F712DAF
:1012C00011246D2F8C2FDF91CF911F910F910895D5
:1012D000E82F86FDE0952E2F2F7086FD2F5FE69577
:1012E000E695E695E670F0E0E158FE4F9181929F19
:1012F000902D212D112492959F702295207F922B65
:101300002081920F87FD919580E8890F08950F93B2
:101310001F93CF93DF938B01D82FC42F822F0E946E
:101320006809EC2FF0E0EE0FFF1FEF51FE4F9081A8
:101330009058890F87FD8195880F682F2CE0629F58
:10134000612D1124600F712F8D2FDF91CF911F918F
:101350000F91089540911A0150911B0125E038E04A
:10136000429FC001439F900D529F900D1124875EB4
:10137000994C90931B0180931A01890F0895AC0139
:101380008230910508F408959FEF413E8EE15807A1
:1013900040F49A0195E0369527959A95E1F798E003
:1013A000920F61E0E62FE90FFF27FF1F9F013595A0
:1013B0002795822F229FF001239FF00DF00D11241D
:1013C0004E175F0738F49FEF920F961758F78FEF7D
:1013D000860F08952F3FE9F361E0620FF6CF0F9378
:1013E000CF93DF93D72FC82F47FD41958AE390E035
:1013F000841B910947FD9395889FB001899F700DCB
:10140000700D1124229FC001239F900D900D112477
:10141000860F971F0E94BF09982F990F890F682F79
:10142000600F7D2F8C2FDF91CF910F91089530E0C9
:1014300020E0869F212D969F200D311D1124C9018A
:101440000895AF92BF92CF92DF92FF920F931F93B6
:10145000CF93DF93362F472FE82FF0E0EC58FD4F66
:1014600071110FC0E4918E2F2E2F6E2F722FDF91EE
:10147000CF911F910F91FF90DF90CF90BF90AF90D1
:101480000895C72FD0E02491F22E022F10E056E0ED
:10149000659FC0011124EFEFF0E0BF010E945934B5
:1014A000832F90E0880F991F35E5369FD001379F35
:1014B000B00D11248A1B9B0B982F990F980F6F0169
:1014C000CC1ADD0AC09ED001C19EB00DD09EB00DD9
:1014D00011248B2F499FA0011124452F55276F01FF
:1014E000C41AD50AC09EA001C19E500DD09E500DB9
:1014F00011245F01A91AB108AC9E6001AD9ED00C09
:10150000BC9ED00C1124CD2CDD24EC19FD09E09FEC
:10151000E001E19FD00DF09FD00D1124ED2F62303E
:101520007105A1F050F46115710509F49ECF613089
:10153000710581F0EB2F852F98CF6430710569F02C
:1015400080F06630710509F490CFF4CFE22F2B2F95
:101550008D2F8BCFE22F252F88CFEB2F822F2D2F92
:1015600084CF2B2F8F2DE52F80CFB0E0A0E0EBEBC9
:10157000FAE00C9478348C01FC01EB57FD4F80812C
:10158000682349F1D090640AD091650AC091630A3A
:10159000EC2EF12C0E94AA09282FC7018C549F4FD2
:1015A00068E671E00E94B0348E199F0997FD03969A
:1015B000959587959595879523706C2F289F600D3D
:1015C00011247D2D8D2F0E94210A462F282F672F51
:1015D000C8010E949908CDB7DEB7E7E00C949434B7
:1015E0002F923F925F926F927F928F929F92AF92D3
:1015F000BF92CF92DF92EF92FF920F931F93CF9300
:10160000DF93CDB7DEB72A970FB6F894DEBF0FBED3
:10161000CDBF8B837E836D832091340181E1289F30
:10162000802D11248F838F5E89838A83833510F008
:1016300032E53A838091340A8C83FF81EF2FF0E00A
:10164000FA87E987CF01880F991F9C012F513E4FE0
:1016500069013B81832F90E0FC013196F887EF838D
:101660008A8199859817E8F081E0E981E23508F0F0
:1016700080E02A960FB6F894DEBF0FBECDBFDF9193
:10168000CF911F910F91FF90EF90DF90CF90BF907F
:10169000AF909F908F907F906F905F903F902F9032
:1016A0000895E985FA85EB57FD4F808190913501CA
:1016B0008923F1F02090630A3090640A2F813885E5
:1016C0002C5C354F39015B8010E0FC815F16D0F057
:1016D0002091650A129F112D1124B101812F0E94C2
:1016E000210A462F282F672F89859A850E949908FD
:1016F00029853A852F5F3F4F3A87298732E0C30E0D
:10170000D11CAECFF30181913F01F601A080A81A50
:10171000BB088180F3018781881A9908AA9C9001EF
:10172000AB9C300D300D1124889CC001899C900D1C
:10173000900D1124820F931F0E94BF09082F609102
:10174000660A21E0620F08F46FEFF301EE0FFF1F4E
:10175000E453FA40858996890E94170A7C01940116
:10176000A501B101812FED81FE8109951B015394E3
:10177000182FABCFB0E0A0E0E0ECFBE00C947734A6
:101780008C01C091340181E1C89FC02D112421E159
:10179000D22EDC0ECD2C22E52D1510F492E5C92EAB
:1017A0002091660A31E0230F08F42FEF30E050E07B
:1017B00040E06FEF7FEF80E090E00E949E3579017E
:1017C000D0E02C2FCC1550F081E0F1E5FD1508F4A8
:1017D00080E0CDB7DEB7E8E00C949334FE01EB5720
:1017E000FD4F808190913501892311F14091340A98
:1017F0004150042E000C550B47FF1CC0C7016091DF
:10180000660A21E0620F08F46FEF0E94170AAC012C
:101810006091630A7091640A8091650AF8010995E4
:101820000E94210A462F282F672FCE010E94990877
:101830002196C7CFFA01EC5CF54F818982130AC06B
:10184000FA01EE0FFF1FEC5CF54F818D928D8E1526
:101850009F05A8F241505109CFCFB0E0A0E0E3E3EB
:10186000FCE00C9478347C01C091340181E1C89F84
:10187000C02D112411E11C0F012F133508F002E5D2
:101880006091660A6695669521E0620F08F46FEF35
:101890008091300A9091310A0E94170AD82ED0E028
:1018A000C01748F081E0123508F080E0CDB7DEB710
:1018B000E7E00C949434FE01EB57FD4F808190914A
:1018C0003501892391F06091630A7091640A8091D7
:1018D000650A2D2D4C2FF70109950E94210A462FEC
:1018E000282F672FCE010E9499082196D9CFB0E00A
:1018F000A0E0EDE7FCE00C9474346C01C09134017D
:1019000081E1C89FC02D112411E11C0FB12E1335A8
:1019100010F032E5B32E6091660A66956695809167
:10192000300A9091310A0E94170AF82E80E48F0D38
:101930000E94680990E8A92EA80E8F2D0E946809C0
:1019400020E8922E980ED0E0CB1548F081E01235B9
:1019500008F080E0CDB7DEB7EBE00C949034FE01E8
:10196000EB57FD4F8081909135018923A1F0609163
:10197000630A7091640A8091650AEF2C0C2F292D5F
:101980004A2DF60109950E94210A462F282F672F1C
:10199000CE010E9499082196D7CFB0E0A0E0E3EDF8
:1019A000FCE00C9472345C01C091340181E1C89F69
:1019B000C02D112411E11C0FF12E133510F032E56A
:1019C000F32E6091660A66958091300A9091310AF3
:1019D0000E94170A782ED0E0CF1548F081E012352A
:1019E00008F080E0CDB7DEB7EDE00C948E34FE0158
:1019F000EB57FD4F8081909135018923C9F1CE01CC
:101A0000880F991F8A569E4FFC01E55BFF4F20818E
:101A1000422F4457550B6A01845B9F4FFC01808124
:101A2000282F2052330B4901449F9001459F300DD0
:101A3000300D1124889CC001899C900D900D1124BB
:101A4000820F931F0E94BF09082F6091630A709153
:101A5000640A8091650AE72C9401A601F5010995B5
:101A60000E94210A462F282F672FCE010E94990835
:101A70002196B2CFB0E0A0E0E0E4FDE00C94773432
:101A80007C01C091340181E1C89FC02D112411E176
:101A90001C0FD12E133510F032E5D32E6091660A5B
:101AA00066958091300A9091310A0E94170AC82EDB
:101AB000D0E0CD1548F081E0123508F080E0CDB7D8
:101AC000DEB7E8E00C949334FE01EB57FD4F8081C4
:101AD00090913501892311F1CE01880F991F8A5603
:101AE0009E4FFC01E45BFF4F20812052330B855B4E
:101AF0009F4FFC0140814457550B6091630A7091E0
:101B0000640A8091650A0C2DF70109950E94210A4B
:101B1000462F282F672FCE010E9499082196C9CF02
:101B20004091A906803F59F48091AA0687FF0DC015
:101B30001092AA0641110BC01092A10608C0813F65
:101B400081F48091AA0618169CF3442381F08091B9
:101B5000AB069091AC06892B09F05AC01092A006F2
:101B60000895823F49F447FFF0CF1092A906809173
:101B7000AA068111ECCFE0CF833F19F41416ACF321
:101B8000E4CF9091AB06893F29F41916F4F6109230
:101B9000AB06DBCF8A3F19F497FFD7CFF8CF9091F0
:101BA000AC068B3F29F497FFD0CF1092AC06CDCF77
:101BB0008C3F19F41916CCF3C8CF9CE0980F9530E0
:101BC00090F4845F990B21E030E0B90102C0660F08
:101BD000771F8A95E2F7CB0180959091A80689231B
:101BE0008093A806B2CF8D3F31F48091A2068E7FFC
:101BF0008093A206AACF8E3F21F48091A2068D7F0A
:101C0000F7CF8F3F09F0A1CF8091A2068B7FF0CF55
:101C100008958091A20680FF0CC06091190170E0C8
:101C200075956795759567956115710549F1862FCD
:101C3000089581FF06C06091190170E07595679560
:101C4000F3CF6091190182FD0BC09091A0069923FA
:101C5000A1F06091180180911901961738F0682F52
:101C600070E06038710500F38FE70895899FC00127
:101C7000112470E00E94B034F4CF61E070E0D7CF5F
:101C800081E008958091A20680FF0DC06091170148
:101C900070E0660F771F6038710570F5611571058A
:101CA00069F1862F089581FF07C06091170184E0D4
:101CB000689FB0011124EFCF82FF04C0609117012B
:101CC00088E0F6CF8091A106882399F02091160133
:101CD000609117018217A0F7869FC001112433E09D
:101CE000880F991F3A95E1F7622F70E00E94B03497
:101CF000D2CF68E070E0D5CF8FE7089581E00895F6
:101D0000803F31F40E94420E81958093AA06089587
:101D1000813F19F40E94420EF8CF823F31F40E94B5
:101D2000420E81958093A9060895833F19F40E947D
:101D3000420EF8CF893F29F40E94090E8093AB062A
:101D400008958A3F21F40E94090E8195F7CF8B3FB9
:101D500031F40E94090E81958093AC0608958C3F62
:101D600019F40E94090EF8CF9CE0980F953070F49A
:101D7000845F990B21E030E001C0220F8A95EAF7D9
:101D80008091A806822B8093A80608958D3F31F498
:101D90008091A20681608093A20608958E3F21F46F
:101DA0008091A2068260F7CF8F3FB9F78091A2069B
:101DB0008460F1CF80E00895F894E82FE295EF7009
:101DC000F0E031A1282F2F7081E090E001C0880F52
:101DD0002A95EAF7982F9095932391A392A1892BA6
:101DE00082A3789408959091FC0992FF06C0282F51
:101DF00028712830F9F4877F846093FF06C0282F6C
:101E000028712831F1F4877E84612091FD0920FF3B
:101E100006C0382F38713830D9F4877F816021FFB0
:101E200006C0282F28712831D1F4877E816194FD66
:101E3000877E0895282F24712430F9F68B7F8860DF
:101E4000DCCF282F2471243101F78B7E8861DDCF10
:101E5000382F3171313019F78E7F8860E0CF282F0D
:101E60002171213121F78E7E8861E1CFCF93DF93FD
:101E7000EC0182389105B1F108F040C08133910541
:101E800009F49DC048F58932910509F48DC08A97FF
:101E900009F49CC0C11521E5D20708F0C3C0C115E3
:101EA00030E5D30708F01EC1C83ED10508F0A3C035
:101EB000C03ED10588F5C83AD10508F08EC0C53AB4
:101EC000D10508F007C1C130D10531F1209721F1CA
:101ED000C430D10508F545C08533910509F45FC0CC
:101EE000C997C1F68091FC09837009F043C18091C4
:101EF000FD0983FF11C0C9E2D0E00EC0833E910509
:101F000099F170F4803E910501F1823E910511F640
:101F10008091FC0982FD21C0CE01DF91CF9108950F
:101F2000863E910561F1873E910571F1843E9105F0
:101F300009F0B0CF8091FD0981FFEECF8091FC09BF
:101F4000C7EED0E084FD0DC0E7CF8091FC0980FD95
:101F500033C09091FD0990FFDFCFC3EED0E084FF46
:101F6000DBCFD0E0C0E0D8CF8091FC0982FDFFC07C
:101F70009091FD0990FDFEC084FFCECFF2CF8091FD
:101F8000FC0983FDDDCFC8CF8091FC0983FDF5C03E
:101F90009091FD0991FFF0CFC4EED0E0BDCF8091CC
:101FA000FC0985FFB9CFA7CF8091FC0985FDE8C06A
:101FB0008091FD0983FFB0CFC9E3D0E0ADCF809120
:101FC000FC0986FFA9CFCAE2D0E0A6CF8091FC0928
:101FD00086FFA2CFC1E3D0E09FCFCF3BD10508F66B
:101FE000C85AD0E0CC0FDD1FC35CDE4F0990D8810A
:101FF000C02DD46491CFC11540E2D40758F4C11567
:1020000081E0D80708F088CFC03FD10508F4A9CFF8
:10201000D06582CFC11520E4D20708F4A2CFDF70CB
:10202000D06A7ACFC11535E5D30718F5C11544E557
:10203000D40708F084C0C11583E5D80708F06BC049
:10204000C11522E5D20708F461C0CE01837099273B
:1020500021E030E002C0220F331F8A95E2F7C695D7
:10206000C69580E2C89FE0011124C22BD32BDC6807
:1020700053CFC11539E5D307A8F4C11548E5D407F6
:1020800008F062C0C11586E5D80708F06ACF8C2F2A
:102090000E94F30EC82FD0E0DC2FCC27CC27DF71B5
:1020A000D0623ACFC1152AE5D20708F452C0CE015A
:1020B00090568115904208F054CF8D2F8F710E9459
:1020C000F30E90E0982F882788279F719C012C2B76
:1020D000E901E6CFC55AD0E0C65CDE4FC881D0E04A
:1020E000D0641ACFCE018370992721E030E002C07E
:1020F000220F331F8A95E2F7C695C69540E2C49F2A
:10210000E0011124C22BD32BDD6806CFDC2FCC27B6
:10211000C16FD06A01CFCE018370992721E030E0F2
:1021200002C0220F331F8A95E2F7C695C69540E29A
:10213000C49FE0011124C22BD32BDA68EDCEDC2F33
:10214000CC27C46FD06AE8CEDC2FCC27C06FD06A12
:10215000E3CE8C2F8F700E94F30E34E0D695C79596
:102160003A95E1F7CF709C2FEC01D069D5CEC2EE45
:10217000D0E0D2CEC0EED0E0CFCEC6EED0E0CCCE16
:10218000C5E3D0E0C9CE80917A06811110927A061B
:1021900008958095909179069823909379060895F3
:1021A0008091560690912506981301C008958F5F7F
:1021B0008770FACF292F953078F58F3068F590E049
:1021C0003FE0239F800D911D1124682F677023E04D
:1021D000969587952A95E1F7FC01EE0FFF1FE80F12
:1021E000F91FEF5FF94F50E040E080E0219130E0CF
:1021F000062E02C0369527950A94E2F72170332700
:10220000042E01C0220F0A94EAF7822B4F5F5F4F22
:102210004330510559F7089580E00895292F9530EE
:1022200098F58F3088F590E03FE0239F800D911D59
:102230001124282F277041E001C0440F2A95EAF7A6
:1022400023E0969587952A95E1F7FC01EE0FFF1F95
:10225000E80FF91FEF5FF94F30E020E070E0519197
:10226000DF011197CB01022E02C0969587950A9443
:10227000E2F7817081958527842385278C932F5FD2
:102280003F4F2330310559F70895E0E2F1E08083B4
:10229000618324E630E042E050E0BF0180E60E9426
:1022A000383408958093FE097093000A6093FF0903
:1022B0008091260A8430F9F48093E9008FEF9091A1
:1022C000E800815095FD06C095ED9A95F1F7000064
:1022D0008111F5CF8091E80085FF0DC050E040E00E
:1022E00063E070E08EEF99E00E9415048091E800B1
:1022F0008E778093E8000895BC0184E00E9452111B
:102300000895BC0183E00E94521108959C0184E06D
:102310008093E9009FEF8091E800915085FD06C011
:1023200085ED8A95F1F700009111F5CF8091E800D5
:1023300085FF0CC050E040E066E070E0C9010E94FB
:1023400015048091E8008E778093E8000895CF937C
:10235000DF93EC0180911F018823B1F18091FC098A
:1023600087FF32C060E284E08093E9008FEF9091B4
:10237000E800815095FD06C095ED9A95F1F70000B3
:102380008111F5CF8091E80085FF1BC080911F016E
:1023900070E050E040E0811104C050E040E068E0AF
:1023A00070E0CE010E9415048091E8008E77809342
:1023B000E80080E2FE01A4E0BAE001900D928A9567
:1023C000E1F7DF91CF91089568E081E0CDCF81E022
:1023D0008093E00080E28093D8001092C9008FE1E2
:1023E0009EE40197F1F700C0000087E090EBDC016C
:1023F0008093680A9093690AA0936A0AB0936B0A63
:1024000088E19CE00FB6F894A895809360000FBE19
:1024100090936000FFCFCF93DF93CFE7D2E060E0EF
:10242000CE010E947A352196C11584E0D807B9F70C
:10243000DF91CF9108951F93CF93DF93122F8430B4
:10244000E0F46530D0F44F30C0F4C42FD0E0CC0FAE
:10245000DD1F9EE1699FC00DD11D112496E9899F62
:10246000C00DD11D1124632FCE0187960E947A35AD
:10247000612FCE0188960E947A35DF91CF911F910E
:102480000895B0E0A0E0E7E4F2E10C9475348CEB41
:10249000C82E84E0D82E10E000E07601C0E017C01E
:1024A00003301105B9F0F501259134914D2F6C2FB2
:1024B000802F0E941B1282E0A80EB11CDF5FDF306C
:1024C00079F7CF5F8EE1E80EF11CC53049F0570176
:1024D000D0E0E6CF21E030E04D2F6C2F83E0E9CF54
:1024E0000F5F1F4F86E9C80ED11C04301105A9F6F5
:1024F000CDB7DEB7EAE00C949134CF93C82F6FEFDD
:10250000811162E283E290E00E947A356FEFC1119F
:1025100069E084E290E00E947A356FEFC11161E2D8
:1025200085E290E00E947A35CF91089580E00E9484
:102530007D1260E086E290E00E947A350E944112AE
:102540000E940B1281E00E947D1208950F931F9349
:10255000CF93DF93843030F5653020F54F3010F5A0
:10256000C42FD0E0CC0FDD1F2EE1629FC00DD11D26
:10257000112436E9839FC00DD11D1124CE01879609
:102580000E945C35082F10E0102F0027CE0188969E
:102590000E945C359801282BC901DF91CF911F91D2
:1025A0000F91089590E080E0F8CF462F843040F4FA
:1025B000753030F46F3020F4672F0E94A612089512
:1025C00090E080E00895CF92DF92FF920F931F93E7
:1025D000CF93DF936C010091600A80917B06082BFA
:1025E000C7E0D0E010E0FC2EC8010C2E02C095958B
:1025F00087950A94E2F780FD0CC02197A0F7F12C93
:102600008F2DDF91CF911F910F91FF90DF90CF9091
:102610000895B6018C2F0E94D5120E94360F0197A3
:1026200061F3EECFCF93DF93EC010E94E312BE0182
:102630000E94D5120E94360FDF91CF910895FC01C0
:1026400083819481892B29F08081918189238F3F17
:1026500051F480E00895843FE1F717C0883EA8F068
:10266000813FB9F712C0808191810E941213929527
:102670009F70963099F358F4925F9F70923048F7AC
:10268000803F19F040F7883E20F781E008959A5F77
:10269000F4CF83E290E00E945C35823289F484E2D8
:1026A00090E00E945C35893059F485E290E00E9408
:1026B0005C3591E0813209F090E0892F81700895B6
:1026C00080E0FCCFCF9384E090E00E945C35C82F7F
:1026D00082E290E00E945C35982F8C2FCF91089574
:1026E000A4E0B0E0E6E7F3E10C947A34F62E042F90
:1026F000122F8235910508F059C0880F991F880F55
:10270000991FBC016C587C4F44E050E0CE0101960B
:102710000E942D358981282F237030E0869586957B
:102720004A81942F9295990F990F907C692F682B6D
:10273000842F86958695782F7370EFE5F1E02E9FB4
:10274000C0012F9F900D3E9F900D11248057974FF1
:10275000680F791FFB01F082542F52955F704B81F7
:10276000E42FE295E07F6E2F652B542F52955F701A
:10277000752F7370680F791FFB0100834295469592
:10278000469543705C81E52FEE0FEE0F6E2F642BA4
:10279000752F7295769576957370860F971FFC014D
:1027A00010832157374F81E0F90180832496E5E0BB
:1027B0000C949634FF920F931F93CF93DF93182FAF
:1027C000062FF42ED0E0C0E02F2D402F612FCE0138
:1027D0000E9470132196C235D105B1F7CDB7DEB78F
:1027E000E5E00C9496340F931F93CF93DF93809181
:1027F0008F08882309F441C065EC8EEF0E944511D3
:1028000060E08DEF0E944511D0E0C0E004EB10E0E5
:10281000CE01B8010E94B0348093200182E1FE0114
:10282000E057F74FA1E2B1E001900D928A95E1F7F0
:1028300024E630E043E150E060E271E080E60E948F
:102840003834892BD1F46296C63581E0D807E1F49B
:1028500082EA8093200189E0E6EEF9E0A1E2B1E0AE
:1028600001900D928A95E1F724E630E04AE050E0CD
:1028700060E271E080E60E94383410928F08DF91A8
:10288000CF911F910F910895C43BD10509F665ECD6
:102890008EEF0E94451161E08DEF0E944511B8CF87
:1028A000A4E0B0E0E6E5F4E10C9475340E949833BE
:1028B00065EC8EEF0E94451164E08DEF0E9445119A
:1028C00061E080E00E9445116FEF81E00E944511B8
:1028D00067E782E00E9445118FE39CE90197F1F7D9
:1028E00000C0000004E713E02CEBE22E24E0F22EFF
:1028F0003FE5C32EDD24D394BB24BA94AA24A39429
:1029000044E050E0B801CE0101960E942D35898146
:10291000282F237030E0869586954A81942F9295D2
:10292000990F990F907C692F682B842F8695869537
:10293000782F73702C9DC0012D9D900D3C9D900DA6
:102940001124815D984F680F791FFB01B082542FCD
:1029500052955F704B81E42FE295E07F6E2F652BDF
:10296000542F52955F70752F7370680F791FFB019C
:10297000B08242954695469543705C81E52FEE0FF7
:10298000EE0F6E2F642B752F72957695769573707A
:10299000860F971FFC01B0822257374FF901A082A2
:1029A0000C5F1F4FE016F10609F0AACF65EC8EEF21
:1029B0000E94451162E08DEF0E9445119FE2E92ED1
:1029C00097E0F92E10E0F70161917F01812F0E94BD
:1029D00045111F5F143BB9F765EC8EEF0E9445115E
:1029E00063E08DEF0E94451183EEE82E87E0F82E1C
:1029F00010E0F70161917F01812F0E9445111F5F57
:102A00001B3AB9F710928E082496EAE00C949134A0
:102A10001F93CF93DF93EC01FC01EB57FD4F8081B7
:102A20006823B1F00E941D35182F0E941D358F7745
:102A3000782F20E8720F08F47FEF612F8091650AEC
:102A40000E94210A462F282F672FCE010E94990845
:102A5000DF91CF911F91089546E050E06CE170E066
:102A600082E69AE00E946A351092610A0895CF9337
:102A7000FC01C081C830B9F1C93009F455C0C73074
:102A800009F055C081818138C9F020F4803861F0A7
:102A9000CF910895823819F18338D1F7828120E0EF
:102AA0004091650A638106C08091630A20E04281FB
:102AB0006091640A90E00E941306EACF828181113E
:102AC00008C01092670A8091610A81608093610A50
:102AD000DFCF60E00E947406C093670AF4CF828162
:102AE0008093660AD5CF8181813891F030F48038A7
:102AF00079F68091650A8283CBCF823891F0833852
:102B000039F68091630A82838091640A8383C0CFFF
:102B10008091670A882379F38091620A8695869569
:102B2000EACF8091660AE7CF0E942C15B1CF8FEFD4
:102B30008083AECFE2E6FAE085E3808380913701BF
:102B400090913801A091390181839283A3838FE70B
:102B500084838FEF85830E942C15089580917906D8
:102B600090917806892B8093DA0290917A069923C6
:102B7000A1F0892B8093DA0280911F018823E1F173
:102B80008091FC0987FF38C08EE1ECEDF2E090E027
:102B90008150A0F591110E94C31040E250E068E519
:102BA00076E08AED92E00E943635892B21F180E2B1
:102BB000EAEDF2E0A8E5B6E001900D928A95E1F722
:102BC000E091F309F091F4093097A9F080911F0189
:102BD000882359F08091FC0987FF07C08091DA02B1
:102BE0008093DB0286E08093DA020280F381E02D9D
:102BF0008AED92E00995089586E0C7CF21912223BE
:102C000039F29F5FC5CF882321F00E94C9100E942E
:102C1000AE150895882339F090917906982B9093FA
:102C200079060E94AE15089590E080E00E94643518
:102C3000883E9E4F19F40E944913089580E008953C
:102C400068EE7EEF90E080E00E94983560E082E0E0
:102C500090E00E947A3560E083E090E00E947A354F
:102C600010927B0660E084E090E00E947A3564E098
:102C700082E290E00E947A3560E085E090E00E9478
:102C80007A3560E086E090E00E947A356FEF87E069
:102C900090E00E947A3540E050E0BA0188E090E090
:102CA0000E948C3560E08DE090E00E947A3540E033
:102CB00050E0BA0188E190E00E948C3560E087E145
:102CC00090E00E947A3540E050E0BA018CE190E05B
:102CD0000E948C3570E060E080E290E00E949835C0
:102CE00040E050E0BA0188E190E00E948C3580E03D
:102CF0000E947D120E94961240E050E0BA018FE0DF
:102D000090E00E948C3540E050E0BA0183E190E011
:102D10000E948C3508951F920F920FB60F921124C6
:102D20002F933F934F935F936F937F938F939F93D3
:102D3000AF93BF93EF93FF938091E10082FF09C0AF
:102D40008091E20082FF05C08091E1008B7F80933B
:102D5000E1008091DA0080FF24C08091D80080FFDC
:102D600020C08091DA008E7F8093DA008091D900B4
:102D700080FF9DC080E189BD82E189BD09B400FE6C
:102D8000FDCF81E08093260A8091010A811109C05C
:102D90000E94C5030E9490048091E20084608093A9
:102DA000E2008091E10080FF17C08091E20080FF87
:102DB00013C08091E2008E7F8093E2008091E20058
:102DC00080618093E2008091D80080628093D80077
:102DD00019BC85E08093260A8091E10084FF2BC016
:102DE0008091E20084FF27C080E189BD82E189BD36
:102DF00089B5982F917080FFFBCF8091D8008F7D8F
:102E00008093D8008091E1008F7E8093E1008091D3
:102E1000E2008F7E8093E2008091E20081608093E7
:102E2000E2008091270A882309F447C084E0809358
:102E3000260A8091260A8091E10083FF27C08091B5
:102E4000E20083FF23C08091E100877F8093E1004F
:102E500082E08093260A1092270A8091E1008E7FFB
:102E60008093E1008091E2008E7F8093E200809168
:102E7000E20080618093E20042E060E080E00E9436
:102E80005E048091F00088608093F000FF91EF91E4
:102E9000BF91AF919F918F917F916F915F914F9172
:102EA0003F912F910F900FBE0F901F90189519BC56
:102EB0001092260A1092010A74CF8091E30087FDD8
:102EC00093E09093260AB5CF78941F921FB61F9275
:102ED00011248F939F93AF93BF938091F8099091A2
:102EE000F909A091FA09B091FB090196A11DB11D44
:102EF0008093F8099093F909A093FA09B093FB091C
:102F0000BF91AF919F918F911F901FBE1F901895F9
:102F10009C014FB7F8948091F8099091F909A0911C
:102F2000FA09B091FB094FBF821B930B08952FB78D
:102F3000F8948091F8099091F909A091FA09B0915B
:102F4000FB092FBF0895B0E0A0E0E9EAF7E10C9497
:102F50007034182F80911D01811323C09091620A53
:102F6000937020911C0130E081E09217130609F460
:102F700080E08170809336018091670A90913501DD
:102F8000981739F08093350140E060E080E00E94BE
:102F900096081B3260F4E12FF0E0ED5FF94C0C94E1
:102FA000C43481E0E6CF80913601811102C0C0E0D7
:102FB000D4C140E060E080E00E949608F8CFC09164
:102FC000340181E1C89FC02D112401E10C0FF02EC6
:102FD000033510F062E5F62E6091630A7091640A81
:102FE0008091650A0E94210AE62ED72EC82ED0E0D5
:102FF000CF1528F0C1E0023508F4AFC1D8CFFE01EB
:10300000EB57FD4F808190913501892331F02C2DB4
:103010004E2D6D2DCE010E9499082196E9CFC091C9
:10302000340181E1C89FC02D112401E10C0FF02E65
:10303000033510F052E5F52ED090640AE090650A51
:10304000D091630A6D2F7D2D8E2D0E94210AC62EF0
:10305000B72EA82E6091660A6D0F7D2D8E2D0E94D1
:10306000210AE62ED72E982ED0E0CF1518F6FE01B5
:10307000EB57FD4F908180913501892359F0292D1F
:103080004E2D6D2D90FD03C02A2D4C2D6B2DCE01A4
:103090000E9499082196E9CFC091340181E1C89F2F
:1030A000C02D112401E10C0FE02E033510F042E594
:1030B000E42ED090640AC090650A2091660A30E43C
:1030C000F32E3F2D329F312D1124F32ED0E0CE155B
:1030D00008F090CFFE01EB57FD4F808190913501B4
:1030E0008923B9F0FE01EE0FFF1FEE51FE4F8081E4
:1030F00082958F706091630A8F9D600D11247D2DE4
:103100008C2D0E94210A462F282F672FCE010E9466
:1031100099082196DCCFC091340181E1C89FC02D70
:10312000112401E10C0FE02E033510F082E5E82EAA
:10313000D090640AC090650A2091660AD0E4FD2E02
:103140003F2D329F312D1124F32ED0E0CE1508F003
:1031500051CFFE01EB57FD4F8081909135018923BE
:10316000D9F0FE01EE0FFF1FEF51FE4F6081F69E7A
:10317000B0011124B5E075956795BA95E1F7809196
:10318000630A680F7D2D8C2D0E94210A462F282F5F
:10319000672FCE010E9499082196D8CFC0913401A3
:1031A00081E1C89FC02D112401E10C0FF02E0335E1
:1031B00010F072E5F72EE090630AD091640AD09087
:1031C000650A6091660A6695669566958091300AF3
:1031D0009091310A0E94170A0E946809805887FD61
:1031E0008195880F282F3D2D239F212D1124822F7B
:1031F0006E2D7D2F0E94210AE62ED72EC82ED0E0FC
:10320000CF1508F0F7CEFE01EB57FD4F808190916E
:103210003501892331F02C2D4E2D6D2DCE010E94CC
:1032200099082196EDCF8DE698E00E942D0C07C0FD
:1032300083E498E0FACF8AE499E00E943A0DC82F1F
:103240008CC08BE299E0F9CF80E199E00E94CD0C2F
:10325000F6CF84EF98E0FACF81E498E0E6CF88E3F8
:1032600098E0E3CF8FE298E0E0CF86E198E0DDCF11
:1032700088E098E0EBCF8FEE99E0DFCF83EE98E027
:10328000DCCF8FEC98E0E2CF8BED97E00E94770CDB
:10329000D6CF8DEA97E0FACF86E797E0F7CFC091D7
:1032A000340181E1C89FC02D112401E10C0F8091F0
:1032B000360181111FC06091660A20E1620F08F497
:1032C0006FEF8091300A9091310A0E94170A6AE0EC
:1032D00070E00E945934892B09F08CCE0E94AA0913
:1032E00062E50E94A43460913501892F90E00E942C
:1032F000B50A80CE802F033508F082E5D0E0E82EB5
:10330000F12CCE15DF050CF075CE60913501CE01A4
:103310000E94B50A2196F5CFC0913601C11135C082
:103320006091660A20E1620F08F46FEF8091300A25
:103330009091310A0E94170A65E070E00E945934AA
:10334000892B09F034CE0E941D3562E570E00E94A1
:10335000B034609135010E940815809134018F5F6F
:1033600080933401C1110CC082E080931E018091D2
:103370003601811105C0111103C083E080931E0145
:10338000CDB7DEB7EFE00C948C34C091340181E10D
:10339000C89FC02D112401E10C0F802F033508F0C8
:1033A00082E5D0E0E82EF12CCE15DF050CF022CE20
:1033B00060913501CE010E9408152196F5CFC0918C
:1033C000340181E1C89FC02D112401E10C0FF02EC2
:1033D000033510F062E5F62ED090640AE090650A9D
:1033E000D091630A6091660A6695669566958091AC
:1033F000300A9091310A0E94170A0E946809805889
:1034000087FD8195880F682F2CE0629F612D112424
:103410006D0F7D2D8E2D0E94210AE62ED72EC82EEF
:10342000D0E0CF1508F0E6CDFE01EB57FD4F8081CF
:1034300090913501892331F02C2D4E2D6D2DCE012B
:103440000E9499082196EDCF87E899E0EECE85E6B7
:1034500097E0EBCE8091340101E1809F000D1124B3
:103460004091300A5091310A6091320A7091330ACA
:103470008091AD069091AE06A091AF06B091B006D6
:1034800084179507A607B70708F0B4CD0E94AA09CC
:10349000F82E0E94AA0992E5891BF0F7890FC82F20
:1034A000D0E0FE01EB57FD4F8091350190818923DB
:1034B00009F4A0CD20E040E060E0F1FC13C00E94E0
:1034C000AA09F82E0E94AA09782F76952FE7720F85
:1034D00008F47FEF6F2D8091650A0E94210A462F24
:1034E000282F672FCE010E9499082091660A30E1AB
:1034F000230F08F42FEF60E1822F90E00E94170A5B
:10350000BC0184EF91E00E9459348091300A90917F
:10351000310AA091320AB091330A860F971FA11D7C
:10352000B11D8093AD069093AE06A093AF06B09305
:10353000B00660CDB090340181E1B89EB02C11246A
:1035400051E1A52EAB0C8A2CA2E5AA1510F442E598
:10355000842E80913601882361F040E060E080E0B5
:103560000E949608E6EBF6E08BE4DF011D928A9557
:10357000E9F780913401811115C08091B2069091D4
:10358000B3060E94881721E08931910508F420E0F4
:103590002093B106499730F00E9497179093B30695
:1035A0008093B206C12C912CD12C9FE0692E25E589
:1035B000522E3AEA732E05C0A0E1A91508F453C0B3
:1035C000D12C2D2D30E06C9CE0011124FE01EA5637
:1035D000FE4FE20FF31FE080EB1408F43CC0E81448
:1035E00008F039C09394F12CF701EB57FD4F80811F
:1035F00090913501892309F42EC0CA54D94FC20FC6
:10360000D31F0881302F252D321B08F430E0709134
:10361000640A272D200F08F42FEF4091650A822FAE
:10362000880F820F8E5F282F249F212D1124822F37
:10363000672D631B0E94210A462F282F672FC70181
:103640000E9499088091B106882329F031E0031B7C
:1036500008F400E00883D3948FE0D812B2CFC3946B
:1036600095E0C912A9CFC1E0B1E5BA1508F075CE51
:103670009ECC0091650AE3E00E9FE0011124D695EF
:10368000C795D695C7955C2EA02EB12C8FEF90E0F4
:10369000B5010E94B034762E80913601882371F0F6
:1036A00040E060E080E00E949608E6EBF6E08BE404
:1036B000DF011D928A95E9F71092B5068091B40654
:1036C0008F5F8093B406F12CE12CAC1ABD0A670120
:1036D000612CD701AA54B94F4D018091B5068629B6
:1036E00009F045C00E941D35853595400CF03FC05E
:1036F000F4010083F601EA56FE4FE081EF3FD1F07E
:10370000D601AA54B94F2C91F0E0521608F040C0EF
:1037100030E02C1B3D0B2C9FC0012D9F900D3C9F3A
:10372000900D1124B5010E945934262F402FCF014E
:103730000E9499086394FFE0CF0ED11C25E062122D
:10374000CCCF3FEFE31AF30A8FE0E816F10409F05B
:10375000BECF8091B406781202C01092B406809158
:10376000B5068F5F8D31F0F48093B50620CCF6015D
:10377000EA54F94F8081882309F4BCCF801708F000
:10378000B9CF9091B4067912B5CF81508083B2CF72
:10379000029FC0011124BE010E945934462F20E02F
:1037A00060E0C5CF1092B50623EE36E084E045EC2C
:1037B00056E09FEF900FA6EBB6E0F901843041F49C
:1037C000DC966C91DC97061303C0DC969C93DC9727
:1037D0006081601710F090830787119631964A1721
:1037E0005B0761F781502F5031098111E4CFDFCBA6
:1037F0008EE597E00E94BA0B22CD88E597E0FACFDC
:103800008091340A21E0382F321B08F430E0832FF6
:103810006FE377E00E94F00A12CD6FE377E080E07B
:10382000F9CF8091340A21E0382F321B08F430E0C0
:10383000832F64E077E0EECF64E077E0F0CF809113
:10384000340A21E0382F321B08F430E0832F62ED78
:1038500076E0E0CF62ED76E0E2CF8091340A21E0BD
:10386000382F321B08F430E0832F6AEB76E0D2CF9A
:103870006AEB76E0D4CF8091340A21E0382F321BF6
:1038800008F430E0832F64EA76E0C4CF64EA76E09F
:10389000C6CF4F925F926F927F928F929F92AF921C
:1038A000BF92CF92DF92EF92FF92CF93C0902A0700
:1038B000D0902B07E0902C07F0902D078FB7F8944D
:1038C0004090F8095090F9096090FA097090FB094E
:1038D0008FBF530142018C189D08AE08BF080E949B
:1038E0004D0560932A0770932B0780932C079093C4
:1038F0002D07A0910107E1E0F7E02A2F30E04FEF1C
:10390000C40ED41EE11CF11CC418D508E608F70843
:10391000A3132AC02093010720912E07C0E0211194
:1039200008C02091620AC22FC37019F0C22FC69539
:10393000C69520911E01213009F440C0222339F19F
:10394000223009F468C0233009F470C0CF91FF9091
:10395000EF90DF90CF90BF90AF909F908F907F902F
:103960006F905F904F900895418D528D2A01712C78
:10397000612CC414D504E604F70420F421503F5F01
:103980003296C6CF480D591D528F418FF8CF1092F5
:1039900034016093300A7093310A8093320A909315
:1039A000330A89E2E1E0F7E0A4E3BAE001900D9286
:1039B0008A95E1F781E080931E01C8CF8C2F0E9489
:1039C000A317CC2319F20E94E40581FF10C0F12C4B
:1039D000E12C2FEF4FEF6FEFC7010E9499088FEF97
:1039E000E81AF80A42E5E416F10499F7AFCF80919E
:1039F000670A8111ABCFF12CE12C20E040E060E0C0
:103A0000C7010E9499088FEFE81AF80A42E5E41608
:103A1000F10499F79BCFC0931D018091620A8370D6
:103A200080931C010E94F31383E0C5CF8091610A4B
:103A300081110E942C154091300A5091310A6091F9
:103A4000320A7091330A2FB7F8948091F809909157
:103A5000F909A091FA09B091FB092FBF841B950BBE
:103A6000A60BB70B4097A105B10508F46FCF1092D4
:103A70001E016CCF0E9497179C019091A90680911E
:103A8000AA06982B21F03093A6062093A5069091C4
:103A9000AB068091AC06982B21F03093A4062093BE
:103AA000A306E091F309F091F409309749F082E020
:103AB0008093A7060480F581E02D87EA96E00995BA
:103AC000089590E080E00E94CE0590E080E00E94A2
:103AD000B805109278060E94AE1586E0E7EAF6E097
:103AE000DF011D928A95E9F71092A1061092A006B7
:103AF0001092A2060E943A1D08958093600A0E94C7
:103B0000611D08958091600A982F9670963021F477
:103B100088600E947D1D0895877FFBCF21E030E003
:103B200001C0220F8A95EAF720958091600A8223CE
:103B30000E947D1D0895909157068095892380935A
:103B40005706282F277091F4282F082E000C330BCE
:103B50009217130659F09091FD0992FF07C08595C1
:103B6000859585950E948E1D109257060895CF93D6
:103B7000C091FD09C2FB992790F9981791F080FB3D
:103B8000C2F9C093FD096091FC0984E090E00E94B5
:103B90007A356C2F82E290E00E947A3582E00E94B2
:103BA0009B1DCF91089521E030E001C0220F8A953E
:103BB000EAF78091600A822B0E947D1D0895809310
:103BC0007B060E94611D08951092790680911F0165
:103BD000ECEDF2E0882361F08091FC0987FF08C0DA
:103BE0008EE1DF011D928A95E9F70E94611D08951B
:103BF00086E0F7CFAAE2B0E0E0E0FEE10C947C348E
:103C000088E29AE02091F100DC012D93CD01BAE029
:103C100080339B07B9F78091290A833009F472C079
:103C2000B8F4813009F449C0823009F4B3C08091FE
:103C3000E80083FF8BC28091280A9091290A9A306C
:103C400008F084C2E92FF0E0E25DF94C0C94C43432
:103C50008A3009F48EC08B3009F471C0893039F78D
:103C60008091280A813219F780912C0A90912D0AAF
:103C7000009711F00297D9F68091E800877F809332
:103C8000E8008091E80082FF38C09091F3008091B5
:103C9000F200029731F48091F100813011F086300A
:103CA00021F48091F1008093030A8091E8008B77E2
:103CB0008093E8000E943F04BACF8091280A813A9D
:103CC00009F0B5CF8091E800877F8093E80080916C
:103CD0002C0A90912D0A892B61F460E284E09AE02D
:103CE00070E00E94EB048091E8008B778093E800FD
:103CF0009ECF60E090E080E0F3CF8091260A8111B2
:103D0000C0CF95CF8091280A813A09F090CF809159
:103D10002C0A90912D0A892B09F089CF8091E80017
:103D2000877F8093E8008091E80080FFFCCF80913E
:103D30001F018093F1008091E8008E77B9CF8091C8
:103D4000280A813209F073CF80912C0A90912D0AB4
:103D5000892B09F06CCF8091E800877F8093E80081
:103D60000E943F0480912A0A80931F010E94E41D53
:103D70005ECF8091280A813209F059CF8091E80006
:103D8000877F8093E8000E943F0480912B0A8093F4
:103D9000020A4DCF8091280A813A09F048CF8091DC
:103DA000E800877F8093E8008091E80080FFFCCFE7
:103DB0008091020ABECF803899F0823809F0C6C1DE
:103DC00080912C0A8F70873008F0C0C18093E90081
:103DD0008091EB0085FB882780F91092E90006C0EE
:103DE0008091240A9091250A911182609091E800B7
:103DF000977F9093E8008093F1001092F1008091FA
:103E0000E8008E779FC1882309F48DC1823009F0C4
:103E10009DC180912A0A811190C180912C0A8F70D6
:103E20002FEF280F263008F091C18093E9002091F0
:103E3000EB0020FF82C1933031F48091EB0080626F
:103E40008093EB007AC19091EB0090619093EB002E
:103E500021E030E001C0220F8A95EAF72093EA00C2
:103E60001092EA008091EB008860EACF81116EC168
:103E700010912A0A1F778091E3008078812B80932C
:103E8000E3008091E800877F8093E8000E943F0470
:103E90008091E80080FFFCCF8091E30080688093F0
:103EA000E30082E0111183E08093260A4FC180581D
:103EB000823008F04BC120912A0A30912B0A2C3D08
:103EC000E3E03E07A1F583E08A838AE289834FB766
:103ED000F894DE01139620E03EE051E2E32FF0E09B
:103EE00050935700E49120FF03C0E295EF703F5FCD
:103EF000EF708E2F90E0EA30C0F0C7968D939D93BF
:103F00002F5F243159F74FBF8091E800877F80935E
:103F1000E8006AE270E0CE0101960E94EB04809115
:103F2000E8008B778093E80011C1C096E7CF8091BD
:103F30002C0A90912D0A432F55274330510509F43F
:103F40004AC078F54130510509F47AC08BE590E01C
:103F5000EEE7F6E04230510509F0F8C02091E800A4
:103F6000277F2093E80020912E0A30912F0A821794
:103F7000930708F49C0140E02115310509F065C064
:103F8000411163C08091E80082FDC9CF8091260A6B
:103F9000882329F2853019F28091E80083FFF2CF5F
:103FA000BECF4132510509F43CC04232510509F0FF
:103FB000CDC08330910508F0C9C0FC01EE0FFF1F92
:103FC000E657FE4F0190F081E02D89579E4FDC01AE
:103FD0008C9190E01AC0332721303105D1F02115A2
:103FE000310561F02230310509F0B0C0EBEEF6E0AA
:103FF000E4918E2F90E0EBEEF6E007C0E1E1F7E010
:10400000E4918E2F90E0E1E1F7E0009709F49EC083
:10401000A5CFE7E0F7E0E4918E2F90E0E7E0F7E04E
:10402000F4CF8330910508F091C0880F991FFC01EF
:10403000E057FE4F0190F081E02D89E090E08ECFB7
:1040400082E190E0E9EDF6E089CF8091260A8823AD
:1040500009F465CF853009F462CF8091E80083FDD3
:104060005ECF8091E80082FD8DCF8091E80080FFD7
:1040700083CF9091F3008091F2002115310519F062
:104080008830910550F041E0089709F040E08091B8
:10409000E8008E778093E8006FCF44914093F10061
:1040A0003196215031090196E8CF803809F04EC091
:1040B0008091E800877F8093E8008091270A8093B1
:1040C000F1009DCE811142C010912A0A1230F0F504
:1040D0008091E800877F8093E8001093270A0E9470
:1040E0003F04112311F084E005C08091E30087FDB7
:1040F000FACF81E08093260A42E061EC81E00E94E1
:104100005E0442E261EC84E00E945E0442E261EC03
:1041100082E00E945E0442E260EC83E00E945E0462
:104120008091260A13C080912A0A813079F481E0B7
:10413000933009F080E08093250A1092E900809185
:10414000E800877F8093E8000E943F048091E800A8
:1041500083FF0AC08091E800877F8093E800809108
:10416000EB0080628093EB00AA96E3E00C94983415
:104170001F920F920FB60F9211242F933F934F93DC
:104180005F936F937F938F939F93AF93BF93CF93DF
:10419000DF93EF93FF93D091E900DF708091EC0003
:1041A000C82FC17080FDC0E81092E9008091F00036
:1041B000877F8093F00078940E94FA1D1092E900A6
:1041C0008091F00088608093F000CD2BCF70C09379
:1041D000E900FF91EF91DF91CF91BF91AF919F9156
:1041E0008F917F916F915F914F913F912F910F90A0
:1041F0000FBE0F901F901895EBEFE80FEF3308F00C
:104200006CC0F0E0E85CF94C0C94C4340E942016B9
:1042100081E008958091F009807F8093F00981E02A
:104220008093EF0908950E94E41D2FEF84E39CE042
:10423000215080409040E1F700C000000E94E7114B
:104240009091F009892F8E7F90FF81608093F00913
:1042500080FDDECF817F8093F009DACF9091F00965
:10426000892F8D7F91FF82608093F00981FFD0CFED
:104270008091F0098160EFCF9091F009892F8B7FB9
:1042800092FF84608093F00982FDF2CFC1CF9091BC
:10429000F009892F877F93FF88608093F00983FD61
:1042A000E7CFB6CF0E94E41D9091FC09892F97FBC0
:1042B00087F980588093FC09ABCF81E00E94DF1D15
:1042C0000E94E41DA5CF895391E001C0990F8A9502
:1042D000EAF7892FF3CF8D51F7CF80E008950E9440
:1042E000E41D2FEF84E39CE0215080409040E1F7F3
:1042F00000C0000088E19CE00FB6F894A895809378
:1043000060000FBE90936000FFCF882391F19CEF77
:10431000980F913A40F4682F8AED92E00E94590577
:104320000E94AE15089590E2980F983050F487706F
:1043300091E001C0990F8A95EAF7892F0E94C91070
:10434000EFCF9BE5980F933028F490E080E00E9437
:10435000CE05089598E5980F973128F490E080E015
:104360000E94B8050895803F20F00E94900D0E94A1
:104370003A1D0895CF93C82F882309F467C08CEFA6
:104380008C0F813A08F0EBC08091EF098130C9F1C0
:10439000882369F1823009F44FC01092EF098091AF
:1043A0001F01882309F4C8C08091FC0987FFC4C09D
:1043B000EC2FE695E695E695F0E0E652FD4F82811A
:1043C00090E04C2F477021E030E002C0220F331FF5
:1043D0004A95E2F782239323892B09F4B8C06C2F06
:1043E0008AED92E00E9459050E94AE15B0C08091FE
:1043F00079068232A1F68C2F0E94FC20811126C002
:10440000CECF809179068232B1F3C43171F038F4A5
:10441000CB3049F0C03161F080E08170EFCFC9321C
:1044200021F0C833C9F781E0F8CF1092EF09F4CF3B
:1044300082E08093EF09F7CFC93209F43FC0E8F476
:10444000C431E1F128F4C73009F45BC0CF9108957D
:1044500082EE8C0F8A30D0F7CD51C0930006C33066
:1044600009F446C0B0F5C13009F43FC085E191E0E0
:10447000C230B1F110920006E9CFC03509F454C042
:10448000B8F48AE0CF3411F7E091FE05F091FF0512
:104490003097E1F22081082E000C990B820F911DBC
:1044A0008F3F910509F00CF443C08FEF8083CECF8E
:1044B000C135E1F181E0C23539F3C8CF8091000602
:1044C000882321F2109200061092FF051092FE053B
:1044D000BDCFC53099F078F088E191E0C63051F653
:1044E0009093FF058093FE05B1CF84E191E0F8CF72
:1044F00087E191E0F5CF86E191E0F2CF89E191E0AB
:10450000EFCF81E08093140184E1809315018AE06C
:10451000809317018EE18093160188E08093190142
:1045200088E28093180192CF86EFAECF8FEFACCFA9
:1045300097FFBCCF10828ACFECEDF2E082EE92E0E2
:104540002191C21709F44BCF8E179F07C9F76C2F23
:104550008AED92E00E9483050E94AE1577CF80E23B
:104560008C0F883068F4C77021E030E001C0220F62
:10457000CA95EAF780917906822B80937906ECCF71
:10458000EBE5EC0FE33040F4F0E0E65CFE4F8081B9
:1045900090E00E94CE055ACFE8E5EC0FE73150F4E9
:1045A000F0E0EE0FFF1FE35CFE4F808191810E94DF
:1045B000B8054CCFC03F08F449CF8C2F0E94800E25
:1045C0000E943A1D43CF1F93CF93DF93182FD0E063
:1045D000C0E0893311F4C0E5D0E0812F0E94BA21F8
:1045E000209739F4812F0E948521DF91CF911F916F
:1045F00008958FE99FE00197F1F700C0000021972F
:10460000EFCF0F931F93CF93DF93C62FD42F022F9B
:10461000FC0182818823A9F060935F0A0E949717AA
:1046200090935E0A80935D0AC77081E001C0880F95
:10463000CA95EAF70E940A16DF91CF911F910F9158
:10464000089580915F0A681332C080915D0A90914D
:104650005E0A0E948817883C910548F510E21D0FFC
:10466000CD17B9F080E28C0F883040F4C77081E03C
:1046700001C0880FCA95EAF70E940316183048F463
:1046800081E09D2F977001C0880F9A95EAF70E94EC
:104690000A16802F0E94E322183070F6D77081E04E
:1046A00001C0880FDA95EAF70E940316C5CFC770DC
:1046B00081E001C0880FCA95EAF7F6CFA5E0B0E027
:1046C000E4E6F3E20C946E348C01FC018381948166
:1046D000892B31F08081918189238F3F09F0C4C6F5
:1046E0002596E1E10C948A340E94E312F82E682F9B
:1046F00089819A810E940E1169817A818F2D0E9491
:10470000D5127C018091FC05F80192818111D4C001
:1047100091110EC0F4E0EF16FDE5FF0609F4A0C00C
:1047200008F058C033E0E3163DE5F30609F478C01D
:10473000F8018281882309F48AC6970122513F45F6
:104740002031310508F056C68FEF93E00E945C35AA
:10475000811174C0FEEEEF0E5FE7852E52E0952EBC
:10476000E11034C11C821B82442443944AE0342E5D
:1047700074018FEFE81AF80AC4010E945C3589833E
:104780001A82882309F45AC09FEF980F933008F0DB
:104790002CC18A83498292E0890E911CC7010E9434
:1047A0005C358B83882309F449C0FE0131967F0173
:1047B000F70120812223E1F2213009F055C19181D6
:1047C0008281913009F013C1F2E0EF0EF11C0E94DA
:1047D000E32214C186E0E8168DE5F80609F44DC021
:1047E00097E0E9169DE5F90609F0A2CFA090040133
:1047F000B0900501D090600A0E94E41D80E00E9404
:104800007D1D64EFE62E65E0F62EAE14BF0409F4BC
:1048100046C0C7010E945E23F6E0EF1AF108F5CF0B
:104820000E94E41D80E00E947D1D8AEF92E090933B
:10483000FB058093FA0581E08093FC058091570683
:10484000877009F44DCFF8018281882309F448CF9D
:104850008091FD0982FF44CF82E00E949B1D40CFE2
:104860000E94E41D80E00E947D1D84EF95E09093FE
:10487000FB058093FA0582E0DFCFA0900601B0909F
:104880000701D090600A0E94E41D80E00E947D1D17
:104890007AEFE72E72E0F72EAE14BF0431F40E94D7
:1048A000E41D8D2D0E947D1DC9CFC7010E945E238E
:1048B000E6E0EE0EF11CF0CF970123503D4523308A
:1048C0003105C8F521E035E0E3163DE5F30609F4CE
:1048D00020E0291709F4B2CF813029F08230B9F0F5
:1048E0001092FC05ABCF8091FA059091FB05E2E0B8
:1048F0008A3F9E0729F0FC0136972281211105C0CD
:104900009093070180930601EBCFCF01F0CF809108
:10491000FA059091FB05F5E0843F9F0729F0FC0123
:1049200036962281211105C09093050180930401E0
:10493000D7CFCF01F0CF813021F1823009F0F8CE0E
:104940002091060130910701A091FA05B091FB0575
:10495000911105C095E0A43FB90709F4E9CECD0156
:1049600006962817390709F4E3CE86E0F80101908E
:104970000D928A95E1F78091FA059091FB050697D3
:1049800020C02091040130910501A091FA05B09159
:10499000FB05911105C082E0AA3FB80709F4C8CE13
:1049A000CD0106972817390709F4C2CE86E0F80131
:1049B00001900D928A95E1F78091FA059091FB059F
:1049C00006969093FB058093FA05B2CE811424E0FD
:1049D000920609F433CFC4010E945C35811101C0F5
:1049E000EA943FEF831A930ABBCE4701DECE9230A2
:1049F00049F422E0E20EF11C0E94BA213FEFE31AD3
:104A0000F30AD6CE933031F432E0E30EF11C0E946B
:104A10008521F4CF943021F08FEFE81AF80AEECF19
:104A200092E0E90EF11C30E020E0B7016F5F7F4FAC
:104A3000F70141818053990B8A30910550F0215044
:104A40003109E0F28FE99FE00197F1F700C0000023
:104A5000F6CF329EF001339EF00D11249C012E0FF3
:104A60003F1F842F7B01E1CFE22FF0E0EC50FE4F9F
:104A70005490822F86958695869590E0FC01EC51A6
:104A8000FE4F64902770712C022E02C075946794BB
:104A90000A94E2F7E1E06E227724FC01EC52FE4F2B
:104AA000A490B12C022E02C0B594A7940A94E2F708
:104AB000F1E0AF22BB24FC01EC53FE4FC490D12C9B
:104AC00002C0D594C7942A95E2F721E0C222DD24E2
:104AD0006114710419F081EE0E94BA21A114B1048D
:104AE00019F086EE0E94BA21852D0E94E322A114BE
:104AF000B10419F086EE0E9485216114710419F049
:104B000081EE0E948521C114D10409F477CF8CE293
:104B10005ECE81E00E94D31D03C081E00E948E1D05
:104B20000E94821D8BCE82E0F5CF95EFE9169CE5C1
:104B3000F90609F46CC008F466C027E245EE66EE9B
:104B4000F6EFEF16FCE5FF0609F47DC4882309F4AF
:104B50009CC410925F0A23E0E2162DE5F20608F0ED
:104B60005DC03AEFE3163CE5F30630F4C70182502E
:104B70009C45449708F05FC00E9462139093FD0922
:104B80008093FC09F2E1EF16FCE5FF0609F478C119
:104B900008F0B6C039E0E3163CE5F30609F44EC16F
:104BA00008F079C095E0E9169CE5F90609F436C1EC
:104BB00008F05FC0F3E0EF16FCE5FF0609F426C13C
:104BC00008F028C18091FC09816032E0E3163CE5E1
:104BD000F30609F492C06091FC09F090FD0984E0AD
:104BE00090E00E947A356F2D82E290E00E947A3543
:104BF0000E94E41D23CE27E245EE65EE24C426E2A2
:104C000041EE60EE20C427E245EE64EE1CC426E2CD
:104C100041EE62EE18C428E241E0EFCF85EAE816E3
:104C20008DE5F80609F4A8CFF0F4E1E6EE16EDE51F
:104C3000FE0609F4A1CF96E1E9169CE5F90609F014
:104C400033C4809179068A7A91E009F490E09093D8
:104C5000FD0569E2811165E38AED92E00E9483051A
:104C60000E94AE15EBCDC7018D5A9D45039718F7ED
:104C700083CF87E0E8168CE5F80609F4DBC0809165
:104C8000FC09806198E0E9169CE5F906B0F1809195
:104C9000FC09806432C0EDE0EE16ECE5FE0609F496
:104CA000D7C0A0F48091FC098E7F2BE0E2162CE5A2
:104CB000F20619F18091FC098C603CE0E3163CE5BA
:104CC000F306D8F08091FC098D7F17C08FE0E816BD
:104CD0008CE5F80609F4CCC008F4BEC0E0E1EE169D
:104CE000ECE5FE0609F4C8C08091FC098F7BF1E178
:104CF000EF16FCE5FF0609F06ECF8093FC096BCF41
:104D00002FEFE2162CE5F20609F4C4C0D8F58AEFBD
:104D1000E8168CE5F80609F485C0D0F4E4E1EE1657
:104D2000ECE5FE0609F4C4C008F4B0C025E1E216C3
:104D30002CE5F20609F04FCF8091FC0982FB992700
:104D400090F921E0922790FB82F990FB83F9D5CF6F
:104D50003CEFE3163CE5F30609F482C008F466C0B4
:104D60009DEFE9169CE5F90609F47EC08091FD09E6
:104D70008360EEEFEE16ECE5FE0609F02CCF809393
:104D8000FD0929CFF1E6EF16FDE5FF0609F49BC00A
:104D9000A0F431E0E3163DE5F30609F492C008F40F
:104DA0007DC060E092E0E9169DE5F90609F013CFB9
:104DB0008EE090E00E947A350ECFEDEAEE16EDE53A
:104DC000FE0601F168F49091FC09892F8E7F90FF17
:104DD000816025EAE2162DE5F20609F48ECFFBCEBE
:104DE0003EEAE3163DE5F30679F18FEAE8168DE534
:104DF000F80609F0F0CE9091FD09892F877F93FF87
:104E00008860BDCF8091FD098860B9CF8091FC0991
:104E1000826073CF8091FC0984606FCF8091FC0920
:104E200088606BCF8091FD098160A9CF8091FD09D9
:104E30008260A5CF8091FC0980625FCF0E94E41D53
:104E40008091FC09806859CF8091FD09877F97CFB9
:104E50008091FC098B7F51CF8091FC09877F4DCFDA
:104E60008091FD098E7F8BCF8091FD098D7F87CF4B
:104E70008091FC098F7E41CF8091FC098F7D3DCFD1
:104E80000E94E41D8091FC098F7737CF8091FC0947
:104E9000837F33CF8091FD098C7F71CF8091FD0995
:104EA000982F909591708E7F892B90FB81F967CF19
:104EB0000E94E41D9091FC09892F97FB87F9805887
:104EC0001CCF61E075CF9091FC09892F8F7E94FFF4
:104ED000806113CF4DE856E068E976E00E94F10565
:104EE000ADCC48E956E06DE876E0F8CF4EE556E007
:104EF00069E676E0F3CF49E656E06EE576E0EECF80
:104F000042E456E060E576E0E9CF40E556E062E451
:104F100076E0E4CF44E356E066E276E0DFCF47EFA9
:104F200055E065E076E0DACF45E056E067EF75E002
:104F3000D5CF61E081E00E94740680CC61E08DE015
:104F4000FACF0E94E41DEFEFF4E32CE0E150F040D3
:104F50002040E1F700C000000E94E7118091FD09A8
:104F600082FB882780F991E089270E94B71DF8010C
:104F70008281E080F180882309F445C0C7010E9446
:104F8000E312D82E682FC7010E940E11B7018D2D94
:104F90000E94D5120E94360F7C01882EF801D28023
:104FA000B580B2943FE0B322809157068770C1F07C
:104FB000AD2CDD20B1F08F2D807F803421F080E298
:104FC0008E0D883068F08091FD0982FF09C082E073
:104FD0000E949B1D809157068770AA24A39481117B
:104FE000A12C9F2C92942FE09222FBE0F91508F45B
:104FF00079C0E92DF0E0E958F94C0C94C43481E013
:10500000B4CF80E0B2CFC7010E94DA10D82EBECF55
:105010002F2D2F70C22E8F2D807F19F0C29490EF0C
:10502000C922DD20B9F0CC2069F080E28E0D8830F5
:1050300010F0811009C080917906C82AC0927906C3
:105040000E94AE158E2D4CC080917806C82AC09261
:105050007806F6CF8E2D0E948521CC2009F442C01F
:1050600080E28E0D883010F0811004C08C2D0E94DB
:10507000C91006C0C09480917806C822C0927806F4
:105080000E94AE152FC03F2D3F70C32E8F2D807F05
:10509000803219F0C29480EFC822882089F081E024
:1050A000881609F468C0DD2009F472C0BB2009F439
:1050B00068C0F801858180FFC5CF8F70858361C08E
:1050C0002091FD0922FD35C0DD2069F1CC2039F0A9
:1050D00080917906C82AC09279060E94AE1580E0B8
:1050E0000E94BA21292D2850330B2430310510F4A9
:1050F0000E94E405AA2009F4F3CA8091570680FDB6
:10510000EFCAF80112828595859585950E94D31D79
:10511000C8010E945E2380915706859585958595E7
:105120000E948E1DDDCA80E00E948521CC20D1F234
:105130009DCFDD2099F090917A068C2D892BB110AE
:1051400003C00E940A16CECFE1E0BE12FACF22FFC2
:10515000C9CF981739F280937A06C4CFB11006C030
:105160000E94C3108C2D0E940316BCCFF1E0BF1625
:1051700009F4B8CFF5CFDD2031F025E02B1508F488
:10518000B1CF8C2DDECF34E03B1508F4ABCFEACFA6
:10519000BB2041F3F9E38F1209C02FEF37EE83E014
:1051A000215030408040E1F700C000008E2D0E9469
:1051B000852198CF8F2D86958695837061F08130FB
:1051C00009F090CFC7019370D11002C090E080E049
:1051D0000E94B80587CFC7019370D11002C090E03C
:1051E00080E00E94CE057ECF8E2DDD2029F00E942A
:1051F000800E0E943A1D76CF0E94900DFACF8F2D1F
:10520000837091F5D1106ECF4E2D42954695477023
:10521000440F440F8E2D8F70042E01C0880F0A9406
:10522000EAF72E2D2071E4FE07C02FE030E001C028
:10523000220F4A95EAF720953F2D36953695337023
:10524000323069F050F440917B06313029F0822BE6
:1052500084230E94DF1D46CF842B822BFACF282B7C
:1052600080917B068227F5CF8695DD2011F08F2D6A
:105270008170882309F436CF4E2D429546954770AC
:10528000440F440F8E2D8F70042E01C0880F0A9496
:10529000EAF72E2D2071E4FE07C02FE030E001C0B8
:1052A000220F4A95EAF720953F2D369536953370B3
:1052B000323069F050F44091600A313029F0822B8D
:1052C00084230E947D1D0ECF842B822BFACF282BA6
:1052D0008091600A8227F5CF9F2D9F70F92EDD20E7
:1052E00029F0892F0E94D31D8E2D2BCF8E2D0E9449
:1052F00003168F2D0E948E1DF5CE8E2DE2EF8E1699
:10530000B1F1E81570F0F0EF8F16D1F021EF8216B1
:1053100091F0DD2009F45EC0B11094CE8F2D8F7115
:105320002AC033EF831651F194EF8912F2CF8091A6
:10533000FD0982FD2FC08F2D8F71DD20D9F21BC09A
:10534000DD2081F0E4E0EB1508F4CCCE2F2D2F7199
:1053500081E090E001C0880F2A95EAF79091600AF9
:105360008927AFCFF5E0FB1508F4BCCEEFCF8F2D2A
:105370008F71D110BFCF0E94D31DB4CE80E0DD204D
:1053800009F49FCF9F2D9F7181E001C0880F9A95EE
:10539000EAF797CFDD2099F02F2D2F71F22E822F73
:1053A0000E94D31D8091FD0982FF07C038E0F39E63
:1053B000C00111248360809357068F2DDCCF81E0DC
:1053C0000E949B1D81E08B1508F08CCE82E00E942C
:1053D0009B1D88CEBB2059F0893309F0E7CE9FEFA3
:1053E000E7EEF3E09150E040F040E1F7DDCE8F2DA5
:1053F0008F7180CFF0E1EF16FFE5FF0609F489CB4E
:1054000021E1E2162FE5F20609F48DCB93EFE916C0
:105410009CE5F90609F4F3CB08F087CBF8EDEF161D
:10542000FCE5FF0609F4E7CB29EDE2162CE5F206D0
:1054300009F4F1CB37EDE3163CE5F30609F086CB32
:1054400026E241EE61EEC8010E940123F7C930E176
:10545000E3163FE5F30609F460CB91E1E9169FE519
:10546000F906A1F682E05ACB85E0DE0111960190A3
:105470000D928A95E1F7F801228189819A812111A3
:1054800033C90E94DA10F82E37C9F6E1EF16FCE5B1
:10549000FF0671F58091FD0569E2811165E38AEDF2
:1054A00092E00E945905DCCB2AE5E2162DE5F206D2
:1054B00009F4A5CD78F4E1148CE5F80609F441CDA2
:1054C0009EEDE9169CE5F90609F051CD0E942016E3
:1054D0000E946F21ECE5EE16EDE5FE0609F43ECDE7
:1054E00008F48FCD27EAE2162DE5F20689F33FCDC9
:1054F0008091790682723AECE3163CE5F30609F4F2
:1055000009CDE0F5E5ECEE16ECE5FE0609F4EECC8F
:10551000E0F423ECE2162CE5F20609F4DBCC08F00B
:10552000E0CC82ECE8168CE5F80609F020CD8091FD
:10553000620A91E089278093620A10921E0180918D
:10554000610A81608093610A79C997ECE9169CE54C
:10555000F90609F4D5CC08F4CECCF8ECEF16FCE54E
:10556000FF0609F4D2CC46E256E064E376E029EC8B
:10557000E2162CE5F20609F4B1CCF9CC3FECE316C7
:105580003CE5F30609F4DACCB8F4ECECEE16ECE505
:10559000FE0609F4C9CC08F4C2CC2DECE2162CE5C9
:1055A000F20609F4C6CC61E085E03EECE3163CE58A
:1055B000F30609F4C0CCDBCC86EDE8168CE5F806E2
:1055C00048F461E082E191EDE9169CE5F90608F402
:1055D000B2CC34C9EDE5EE16FE0609F42FC9C7CCEE
:1055E0001F93CF93DF9380912406807F09F049C0F9
:1055F00080912106882309F444C080915606D091F9
:10560000250660911F0670912006A0912206B09198
:105610002306C62FC72316E0D81799F190E01097FC
:1056200011F0CF3F19F401968770F6CF189F9001C3
:10563000199F300D1124F901EA5DF94F418147139B
:10564000F2CF40814613EFCF42814111ECCF43812D
:1056500054814A1B5B0B483C510528F78091240676
:105660008F70806180932406F901E55DF94F808198
:105670008F70806180838FE196E00E945E230E949C
:10568000D010DF91CF911F910895A1E1B0E0EBE43C
:10569000FBE20C9475348C0185E0F801DE011D9667
:1056A00001900D928A95E1F7F801E2808FE1A82E32
:1056B00086E0B82E6091220670912306611571056F
:1056C00009F426C190911F0640912006892F84235A
:1056D0008F3F09F41DC120813181C380D480F090B7
:1056E0002106F601E61BF70BFF2009F4DCC08091D0
:1056F0002406582F507FE83CF10508F09FC0511157
:105700006BC0FE2C431314C0921312C0E11010C0E2
:105710008F70806180932406C5010E945E23809172
:105720002406F80185838F2D6196EAE00C9491346C
:10573000C114D10429F0822F83238F3F09F003C1C4
:1057400080E0F82FF170DF2E80FF3CC0809156067C
:105750004091250656E0841315C02D873E878D8520
:105760009E850E941213292F22952F702230F0F06F
:10577000243018F59F70F1F0F8019581907FD1F4F5
:10578000D12C1EC090E0589FF001599FF00D1124BC
:10579000EA5DF94F6181361306C06081261303C0AC
:1057A0006281E6120FC001968770D5CF9F7011F00D
:1057B000882331F3805E883018F3C8010E945E238D
:1057C000FD2CB1CFEE2009F4AECF8091240681608C
:1057D00080932406F12CA7CF431306C0921304C074
:1057E000F801EE2009F479C0C8010E941F13882334
:1057F00009F1EE20F9F080912406803270F02091BA
:105800001F063091200638872F831986DB86CA86CB
:105810008C87CE0107960E945E2386E0F801AFE1F7
:10582000B6E001900D928A95E1F70E94F02AFF24DC
:10583000F39479CFC8010E945E23F9CF51110AC0B9
:105840008FE196E00E945E2386E0F50111928A9531
:10585000E9F7C0CF43130FC092130DC0E1100BC086
:10586000F8018583C8010E945E2386E0F50111924C
:105870008A95E9F758CFC8010E941F138823D1F2F7
:10588000EE20C1F280912406803238F220911F066A
:10589000309120063A8329831B82DD82CC828E835D
:1058A000CE010196B8CFE83CF105F8F6FE2CEE20CB
:1058B00009F243131FC092131DC08091240680FD7E
:1058C00010C0982F907F69F0F8018583903F31F0E8
:1058D000982F907F905F8F70892B8583C8010E94DD
:1058E0005E2386E0F801AFE1B6E001900D928A9563
:1058F000E1F719CFC8010E941F1381118ECF80914B
:105900002406816080932406C8010E945E230BCF89
:10591000EE2009F48FCFC8010E941F13F82E8823B0
:1059200009F488CF86E0F801AFE1B6E001900D926E
:105930008A95E1F780911F06909120060E9412132C
:105940000E94F02AF0CE81E08E25FBCEA7E1B0E0E8
:10595000ECEAFCE20C947C344B8B5C8B6D8B7E8B85
:105960008F8B6111109278061A8A198A85E0FE01E0
:105970007396DE011D9601900D928A95E1F786E0FF
:10598000FE013D96DE01179601900D928A95E1F792
:10599000CE0107960E94452B882359F016E080918E
:1059A000560690912506891343C06796E3E00C9450
:1059B000983486E0FE013796DE01119601900D9233
:1059C0008A95E1F78A859B85892B41F38F8198859C
:1059D00089238F3F19F32091250630E0C9010196F4
:1059E00087709927409156064817190671F40E944E
:1059F000E41D109225061092560686E0EFE1F6E0CF
:105A0000DF011D928A95E9F7C9CF96E0929FD001F8
:105A1000939FB00D1124AA5DB94FFE0131960190FC
:105A20000D929A95E1F7809325060E94D010B6CF8B
:105A3000819FC00111248A5D994F0E94452B8823C4
:105A400009F4B3CF8091560690E0019687709927AC
:105A500080935606A4CFAAE0B0E0E1E3FDE20C9407
:105A600073348E010F5F1F4F8AE0F80111928A95FF
:105A7000E9F79BE6E92E91E0F92E6801AA24A394A8
:105A8000B12CF70181917F018F3F09F446C0F89452
:105A9000E82FE295EF70F0E021A18F70A50102C020
:105AA000440F551F8A95E2F7CA01922F982B91A3B4
:105AB00092A18095892382A3789400C0E0E7F1E069
:105AC00021E030E0912C812C41914F3F09F467C0D7
:105AD000A42FA295AF70B0E090968C9190E04F709B
