:100000000C94BA020C9401030C9401030C940103A8
:100010000C9401030C9401030C9401030C94010350
:100020000C9401030C9401030C948A1F0C94461F3A
:100030000C9400240C9401030C9401030C94010310
:100040000C9401030C9401030C9401030C94010320
:100050000C9401030C94DC230C9401030C94010315
:100060000C9401030C9401030C9401030C94010300
:100070000C9401030C9401030C9401030C940103F0
:100080000C9401030C9401030C9401030C940103E0
:100090000C9401030C9401030C9401030C940103D0
:1000A0000C9401030C9401030C9401030000000064
:1000B0000000000000000000000000000000000040
:1000C0000000000000000000000000000000000030
:1000D0007E0F00D4FFFFFFC7000000780000000083
:1000E000000000002A2B2800000000000000000093
:1000F0000000000000000029000000002C1E342039
:10010000212224342627252E362D3738271E1F205E
:100110002122232425263333362E37381F040506A3
:100120000708090A0B0C0D0E0F10111213141516E7
:100130001718191A1B1C1D2F3130232D35040506E5
:100140000708090A0B0C0D0E0F10111213141516C7
:100150001718191A1B1C1D2F3130354C00010101D5
:100160000101010101010202020202020202020374
:100170000303030303030304040404040404050544
:100180000505050606060606070707070708080807
:1001900008090909090A0A0A0B0B0B0C0C0C0D0DB6
:1001A0000D0E0E0E0F0F0F1010111111121213134E
:1001B0001414151516161717181819191A1A1B1BC7
:1001C0001C1D1D1E1E1F2020212222232424252623
:1001D00026272829292A2B2C2D2D2E2F303132325B
:1001E000333435363738393A3B3C3D3E3F40414267
:1001F000434445464748494A4C4D4E4F505153544D
:10020000555658595A5B5D5E5F6162646566686900
:100210006B6C6D6F7072737577787A7B7D7E808280
:10022000838587888A8C8E8F91939596989A9C9EC9
:10023000A0A2A3A5A7A9ABADAFB1B3B5B7BABCBED9
:10024000C0C2C4C6C9CBCDCFD1D4D6D8DBDDDFE2A6
:10025000E4E7E9EBEEF0F3F5F8FAFDFFFFAA7F55CE
:10026000402223252628292A2C2D2F3032333536BB
:10027000383A3B3D3E4042434547494A4C4E505137
:10028000535557595A5C5E6062646668696B6D6F5E
:1002900071737577797B7D7F81838587898A8C8E61
:1002A00090929496989A9C9E9FA1A3A5A7A8AAAC69
:1002B000AEAFB1B3B4B6B8B9BBBCBEBFC1C2C3C5A3
:1002C000C6C7C9CACBCCCDCED0D1D2D2D3D4D5D645
:1002D000D7D7D8D9D9DADADBDBDBDCDCDCDCDCDD78
:1002E000DDDDDDDCDCDCDCDCDBDBDBDADAD9D9D85C
:1002F000D7D7D6D5D4D3D2D2D1D0CECDCCCBCAC9F4
:10030000C7C6C5C3C2C1BFBEBCBBB9B8B6B4B3B122
:10031000AFAEACAAA8A7A5A3A19F9E9C9A989694BD
:1003200092908E8C8A89878583817F7D7B79777592
:1003300073716F6D6B6968666462605E5C5A595771
:10034000555351504E4C4A4947454342403E3D3B30
:100350003A3836353332302F2D2C2A2928262523BA
:10036000220101E2776E01043230307C0102E301A8
:1003700001510103E300737472010128006D696487
:1003800001012800706C01012800657261010128DB
:1003900000737472010128006A01012800747269F7
:1003A0006D0101280066696C0101280104323030BA
:1003B0007C6D010128006474010128007363616C85
:1003C00065010128006E6F64650101280070657287
:1003D000010128000102E30101510103E3002900AA
:1003E000F300625D6B5D0158655D635D665D5F5D39
:1003F000685D6A5D695D605D0100645D615D025319
:10040000035329000000BA00B6440253B700E000CD
:100410001A015F5D290000004B006C5D03534E0024
:100420002C0027010100005C0000CA5C00000000F5
:10043000CB5C00000000C35C1E0F0500047F3F1F63
:10044000643214643214783C1E1E140A0505010936
:1004500002A10185020901A1000509190129081558
:100460000025019508750181020501093009311542
:1004700081257F95027508810609381581257F95AC
:100480000175088106050C0A38021581257F950142
:1004900075088106C0C005010980A1018503190105
:1004A0002AB700150126B700950175108100C00517
:1004B0000C0901A101850419012AA002150126A039
:1004C00002950175108100C005010906A10105070B
:1004D00019E029E7150025019508750181029501AC
:1004E000750881010507190029FF150026FF0095F1
:1004F0000675088100050819012905950575019102
:1005000002950175039101C009023B00020100A0A0
:10051000FA09040000010301010009211101000191
:100520002240000705810308000A090401000103B5
:10053000000000092111010001227B000705820350
:1005400020000A12011001000000084D5909440161
:1005500000010200010C0359004D00440030003935
:100560000000000A0359004D0044004B0000000445
:100570000309040011241FBECFEFDAE0DEBFCDBFB8
:1005800004B603FE27C080917A0290917B02A0916D
:100590007C02B0917D028730904BA740B04BD1F4E4
:1005A00010927A0210927B0210927C0210927D02CD
:1005B00014BE84B7877F84BF0FB6F894A895809146
:1005C0006000886180936000109260000FBEE0E0E0
:1005D000F8E3099522E0A0E8B1E001C01D92AA3736
:1005E000B207E1F711E0A0E0B1E0ECE8FBE402C003
:1005F00005900D92A038B107D9F70E9461200C94A4
:1006000092250C940000E8EDF0E080818E7F8083DD
:100610001092E2001092DA001092E100A0EEB0E039
:100620008C9181608C9380818F77808319BCA7ED3A
:10063000B0E08C918E7F8C9380818F7E808310922E
:10064000600208952091E4003091E50095E6A9014B
:100650002091EC00822F817020FF06C08091E8007D
:1006600080FF06C080E008952091E80022FD1AC0B6
:1006700080916D02882389F0853089F08091EB00AC
:1006800085FD0FC02091E4003091E500421753072B
:10069000F9F29150E1F684E0089582E0089583E054
:1006A000089581E00895EF92FF920F931F93CF93E7
:1006B0007C018B010E942203C82F811117C08091F9
:1006C000E80085FD0BC08091E8008E778093E800FC
:1006D0000E942203882399F3C82F08C0F701819153
:1006E0007F018093F1000150110949F78C2FCF91C0
:1006F0001F910F91FF90EF90089580916F0287FFF7
:1007000013C08091E80082FF06C08091E8008B77DB
:100710008093E80004C080916D028111F2CF0895AA
:1007200080916D028823D9F38091E80080FFF8CF93
:100730008091E8008E77ECCF982F9093E900242FDA
:10074000762F50E0891731F07091EC002091ED0088
:100750005091F00021FD07C09F5F973071F78093A3
:10076000E90081E008953091EB003E7F3093EB008B
:100770003091ED003D7F3093ED003091EB00316022
:100780003093EB007093EC002093ED005093F00059
:100790002091EE0027FDE0CF80E00895CF92DF9218
:1007A000EF92FF920F931F93CF93DF93C8EDD0E0AA
:1007B00088818F7E8883E7EDF0E08081816080838F
:1007C00084E082BF81E08093600288818E7F88838D
:1007D00002EE10E0F80110821092DA0081EEC82ECD
:1007E000D12CF601108288818F7788838881806878
:1007F000888388818F7D888319BC10926D02109246
:100800006E0210926C0210926B0290EEE92EF12CA7
:10081000F70180818B7F808388818160888342E0BB
:1008200060E080E00E949C03F60180818E7F8083DF
:10083000F801808181608083808188608083F701F6
:1008400080818E7F8083888180618883DF91CF91D2
:100850001F910F91FF90EF90DF90CF900895FC01D2
:10086000809175029091760286179707A0F0611526
:10087000710529F49091E8009E779093E80090E04C
:100880006115710551F4911108C08091E80082FF53
:1008900034C080E00895BC01F2CF80916D028823BE
:1008A000C1F18530C1F18091E80083FD30C08091B5
:1008B000E80082FDEACF8091E80080FFE1CF8091DF
:1008C000F3002091F200382F6115710519F02830DE
:1008D000310558F091E02830310509F090E0209181
:1008E000E8002E772093E800CBCF81918093F10030
:1008F000615071092F5F3F4FE7CF80916D028823D0
:1009000041F0853041F08091E80083FFBECF81E067
:10091000089582E0089583E00895089580E00895A1
:100920008091620208959C014FB7F89480913A0239
:1009300090913B02A0913C02B0913D024FBF821BBF
:10094000930B08952FB7F89480913A0290913B024F
:10095000A0913C02B0913D022FBF089580912602E4
:10096000811110922602089580912502909124020F
:10097000892B90912302892B8093820190912602EA
:10098000992391F0892B8093820120E084E891E003
:10099000FC013191CF0131112F5FF1E08A389F07BF
:1009A000B9F721110E94AE04E0913502F0913602B0
:1009B000309731F00280F381E02D82E891E00994D4
:1009C0000895E4E8F1E09191891303C0DF011197E4
:1009D0001C9291E0EA38F907B1F70895A4E8B1E074
:1009E000EFEF90E02D91821751F0EF3F19F42111B4
:1009F00001C0E92F9F5F9630A9F7EF3F09F40895F2
:100A00000E2E000CFF0BEE57FE4F82830895E92F48
:100A1000EE0F9E0F890F982F977086958695869575
:100A200025E0829FF0011124E85EFD4F50E040E098
:100A300080E0219130E0092E02C0369527950A9476
:100A4000E2F721703327042E01C0220F0A94EAF73F
:100A5000822B4F5F5F4F4530510559F70895E92FBD
:100A6000EE0F9E0F890F982F977041E001C0440F41
:100A70009A95EAF786958695869595E0899FF00187
:100A80001124E85EFD4F30E020E070E05191DF017D
:100A90001197CB01022E02C0969587950A94E2F732
:100AA000817081958527842385278C932F5F3F4F05
:100AB0002530310559F70895809117029091E6018C
:100AC000981301C008958F5F8770FACF882341F093
:100AD0008095909125028923809325020C94B4047B
:100AE0000895882339F090912502982B9093250240
:100AF0000C94B40408952091DA013091DB01281799
:100B0000390771F09093DB018093DA01E0913502AF
:100B1000F0913602309721F00084F185E02D0994A0
:100B200008952091D8013091D9012817390771F023
:100B30009093D9018093D801E0913502F09136026B
:100B4000309721F00680F781E02D09940895E09117
:100B50003502F0913602309721F00190F081E02DBE
:100B6000099480E00895FA01811101C0FB01099404
:100B700080914702982F9E7F29F481708260809334
:100B8000470208958635E8F381708465F8CFAF9207
:100B9000BF92DF92EF92FF920F931F93CF93DF9359
:100BA000082F162FE901E42FF0E0E45AFE4F6111FF
:100BB00010C0E4915E2F4E2F4983E8835A83DF9162
:100BC000CF911F910F91FF90EF90DF90BF90AF906A
:100BD0000895E62EF12C4491D42EE42FF0E026E087
:100BE000829FC00111242FEF30E0B9010E944124FF
:100BF000802F90E0880F991F55E5569FD001579F91
:100C0000B00D11248A1B9B0B982F990F890F590146
:100C1000AE18BF08AE9ED001AF9EB00DBE9EB00D07
:100C200011245B2F189F80011124012F11275901D6
:100C3000A01AB10AAE9E8001AF9E100DBE9E100D8F
:100C400011245901A81AB108AE9CC001AF9C900DA7
:100C5000BE9C900D1124892F9927281B390B2E9F9C
:100C6000C0012F9F900D3E9F900D1124E92F6230FF
:100C70007105A1F050F46115710509F49DCF613043
:100C8000710581F0EB2F512F97CF6430710569F01A
:100C900080F06630710509F48FCFF4CFE42F4B2F2D
:100CA000592F8ACFE42F412F87CFEB2F542F492F75
:100CB00083CF4B2F5D2DE12F7FCF0E94A2049C019B
:100CC0009091570280915802982B21F03093540252
:100CD000209353029091590280915A02982B21F04F
:100CE0003093510220935002E0913502F091360288
:100CF000309749F082E0809355020480F581E02D21
:100D000085E592E00994089590E080E00E949105C5
:100D100090E080E00E947B05109224021092230252
:100D20000E94B40486E0E5E5F2E0DF011D928A95B9
:100D3000E9F71092520210924F021092DF010C94C8
:100D40005D0660932B0270932C0280932D0290938A
:100D50002E020C9484060F931F9341E050E060E054
:100D600070E004C0440F551F661F771F8A95D2F7A5
:100D7000CB01BA01609570958095909500912B02FA
:100D800010912C0220912D0230912E0260237123AC
:100D9000822393231F910F910C94A106909122021C
:100DA0008095892380932202282F277039F4282FD9
:100DB000082E000C330B9217130621F49091300289
:100DC00092FF07C08595859585950E94AB06109288
:100DD000220208950F931F9341E050E060E070E01D
:100DE00004C0440F551F661F771F8A95D2F7809164
:100DF0002B0290912C02A0912D02B0912E028A011B
:100E00009B01082B192B2A2B3B2BC901B8011F91E1
:100E10000F910C94A106609327027093280280938F
:100E2000290290932A020C948406409157028D3E29
:100E300059F48091580287FF0DC010925802411159
:100E40000BC01092520208C08E3E81F4809158026D
:100E500018169CF3442381F08091590290915A0214
:100E6000892B09F05AC010924F0208958F3E49F421
:100E700047FFF0CF10925702809158028111ECCFBA
:100E8000E0CF803F19F41416ACF3E4CF90915902EF
:100E9000893F29F41916F4F610925902DBCF8A3FE4
:100EA00019F497FFD7CFF8CF90915A028B3F29F4CE
:100EB00097FFD0CF10925A02CDCF8C3F19F419165C
:100EC000CCF3C8CF9FE0980F983090F4815F990BD6
:100ED00021E030E0B90102C0660F771F8A95E2F782
:100EE000CB01809590915602892380935602B2CF10
:100EF0008D3F31F48091DF018E7F8093DF01AACF97
:100F00008E3F21F48091DF018D7FF7CF8F3F09F075
:100F1000A1CF8091DF018B7FF0CF0895882309F462
:100F200059C0823871F40E94A70581FF53C089E33C
:100F30000E94EE040E94B40489E30E94E1040C9430
:100F4000B404833859F40E94A70580FF43C083E5A9
:100F50000E94EE040E94B40483E5EFCF843859F474
:100F60000E94A70582FF36C087E40E94EE040E941B
:100F7000B40487E4E2CF9CEF980F913AF0F290E24C
:100F8000980F983088F4877021E030E0A90102C002
:100F9000440F551F8A95E2F7CA018095909125026A
:100FA000892380932502CBCF9BE5980F933020F4C3
:100FB00090E080E00C94910598E5980F973120F42B
:100FC00090E080E00C947B058D3E20F00E94150798
:100FD0000C945D0608958091DF0180FD16C081FDAF
:100FE00016C082FD16C080914F028823A1F088327E
:100FF00080F428E0829FC001112468E270E00E9422
:101000005524862F672B39F0089582E0089584E0F7
:10101000089588E0089581E008958091DF0180FDC2
:1010200014C081FD14C082FD16C080915202882335
:1010300081F0843180F422E3829FC001112464E1B5
:1010400070E00E945524862F08958CE0089589E170
:10105000089585E0089582E308958D3E31F40E945D
:101060000D0881958093580208958E3E19F40E94D0
:101070000D08F8CF8F3E31F40E940D0881958093C2
:1010800057020895803F19F40E940D08F8CF893F58
:1010900029F40E94EB078093590208958A3F21F4B6
:1010A0000E94EB078195F7CF8B3F31F40E94EB074D
:1010B000819580935A0208958C3F19F40E94EB07A2
:1010C000F8CF9FE0980F983070F4815F990B21E082
:1010D00030E001C0220F8A95EAF780915602822BF8
:1010E0008093560208958D3F31F48091DF01816035
:1010F0008093DF0108958E3F21F48091DF018260AB
:10110000F7CF8F3FB9F78091DF018460F1CFF8947A
:10111000E82FE295EF70F0E031A1282F2F7081E0E9
:1011200090E001C0880F2A95EAF7982F90959323B5
:1011300091A392A1892B82A37894089590912F0274
:1011400092FF06C0282F28712830F9F4877F846029
:1011500093FF06C0282F28712831F1F4877E84611F
:101160002091300220FF06C0382F38713830D9F472
:10117000877F816021FF06C0282F28712831D1F494
:10118000877E816194FD877E0895282F2471243005
:10119000F9F68B7F8860DCCF282F2471243101F78A
:1011A0008B7E8861DDCF382F3171313019F78E7F1A
:1011B0008860E0CF282F2171213121F78E7E886150
:1011C000E1CFCF93DF93972F70E023E0929F600DE4
:1011D000711D1124FB0139E0839FE00DF11D1124E5
:1011E000EE0FFF1FE252FC4FC591D491CE01C238E1
:1011F000D105B9F1E8F5C133D10509F499C050F52D
:10120000C932D10509F48DC0CA32D10509F497C09D
:10121000C11521E5D20708F0BFC0C11530E5D307DD
:1012200008F016C1C83ED10508F09DC0C03ED105EA
:1012300068F5C83AD10508F089C0C53AD10508F06B
:10124000FFC0C130D10511F1209709F443C02497A4
:10125000E8F440C0C533D10509F45CC0C933D105F9
:10126000B9F620912F02237089F080EE90E00EC035
:10127000C33ED10591F168F4C03ED105F9F0C23EFC
:10128000D10531F620912F0222FD20C0DF91CF91B0
:101290000895C63ED10561F1C73ED10581F1C43E36
:1012A000D10509F0B5CF2091300221FFEFCF809119
:1012B0002F0284FD0FC087EE90E0E8CF20912F022F
:1012C00020FD12C13091300230FFE0CF83EE90E07C
:1012D00024FFDCCF90E080E0D9CF20912F0222FDC7
:1012E00006C13091300230FDC0CF24FFCFCFF2CF06
:1012F00020912F0223FFCACF24FDECCFDCCF209119
:101300002F0223FDF7C03091300231FFEECF84EE83
:1013100090E0BCCF20912F0225FFB8CF89E290E06A
:10132000B5CF20912F0225FFB1CF85E390E0AECF5E
:1013300020912F0226FFAACF8AE290E0A7CF20912A
:101340002F0226FFA3CF81E390E0A0CFCF3BD105B2
:1013500008F6C85AD0E0CC0FDD1FC45BDE4F888191
:101360009981946493CFC11520E2D20760F4C1152E
:1013700031E0D30708F08ACFCE019065CD3ED1058C
:1013800008F084CFA7CFC11580E4D80708F4A2CF16
:10139000CE019F70906A7ACFC11595E5D90710F5F7
:1013A000C11524E5D20708F088C0C11533E5D3077D
:1013B00008F06FC0C11582E5D80708F465C09E012A
:1013C0002370332781E090E002C0880F991F2A958F
:1013D000E2F7C695C69520E2C29FE00111248C2B4E
:1013E0009D2B50C0C11599E5D907A0F4C11528E57A
:1013F000D20708F067C0C11536E5D30708F06ACFF9
:101400008C2F0E949E0890E0982F882788279F7134
:1014100090623CCFC1158AE5D80708F458C0CE01C8
:1014200090568115904208F055CF8D2F8F710E94F4
:101430009E0890E0982F882788279F718C2BE8CFF3
:10144000C55AD0E0C75BDE4F888190E090641ECF24
:101450009E01E4E036952795EA95E1F723708C2FFD
:1014600086958695837030E2839FC0011124922B6C
:10147000C37021E030E002C0220F331FCA95E2F7AB
:10148000822B932B9C6802CF9C2F8827816F906AB8
:10149000FDCE9E012370332781E090E002C0880FCB
:1014A000991F2A95E2F7C695C69530E2C39FE001E1
:1014B00011248C2B9D2B9A68E9CE9C2F8827846F52
:1014C000906AE4CE9C2F8827806F906ADFCE8C2FA5
:1014D0008F700E949E0834E0D695C7953A95E1F743
:1014E000CF709C2F9069D2CE89E390E0CFCE82EE70
:1014F00090E0CCCE86EE90E0C9CEBF92CF92DF9244
:10150000EF92FF920F931F93CF93DF938C01C090C4
:101510002B02D0902C02E0902D02F0902E028091B0
:10152000270290912802A0912902B0912A02C82A8C
:10153000D92AEA2AFB2ACFE1D0E0BC2ED701C60186
:101540000C2E04C0B695A795979587950A94D2F767
:1015500080FD0EC0219788F7B12C8B2DDF91CF91A4
:101560001F910F91FF90EF90DF90CF90BF90089563
:10157000B8018C2F0E94E108019761F3EECFCF9361
:10158000DF93EC010E947D0ABE01DF91CF910C94A4
:10159000E1080E94BF0A292F2F7092959F709250E8
:1015A0009E3078F4E92FF0E0EC56FA4D0C94692463
:1015B000803F19F020F4883E20F481E00895843FB4
:1015C000E1F380E00895883EC0F3813FD1F7F5CF85
:1015D000822F8695869586950895CF93DF9300D0C8
:1015E0000F92CDB7DEB790916D02943019F58983D3
:1015F0007B836A8382E08093E9008FEF9091E8001B
:10160000815095FD06C095ED9A95F1F70000811186
:10161000F5CF8091E80085FF0DC050E040E063E029
:1016200070E0CE0101960E9453038091E8008E770E
:101630008093E8000F900F900F90DF91CF91089565
:10164000BC0184E00C94ED0ABC0183E00C94ED0A2B
:101650009C0182E08093E9009FEF8091E800915027
:1016600085FD06C085ED8A95F1F700009111F5CF53
:101670008091E80085FF0CC050E040E066E070E03B
:10168000C9010E9453038091E8008E778093E8009F
:101690000895CF93DF93EC0181E08093E9008FEF11
:1016A0009091E800815095FD06C095ED9A95F1F76F
:1016B00000008111F5CF8091E80085FF14C050E053
:1016C00040E068E070E0CE010E9453038091E800A2
:1016D0008E778093E80088E0FE01A3E6B2E00190F7
:1016E0000D928A95E1F7DF91CF91089581E0809383
:1016F000E00080E28093D8001092C9008FE19EE460
:101700000197F1F700C0000087E090EBDC018093C7
:101710007A0290937B02A0937C02B0937D0288E1D1
:101720009CE00FB6F894A895809360000FBE90934C
:101730006000FFCFCF93C82F882309F490C0823870
:10174000C1F40E94A70581FD8AC089E30E94EE04CE
:101750000E94B4042FEF81EE94E02150804090402D
:10176000E1F700C0000089E30E94E104CF910C94EE
:10177000B4048338A1F40E94A70580FD70C083E5FE
:101780000E94EE040E94B4042FEF81EE94E02150F9
:1017900080409040E1F700C0000083E5E5CF843849
:1017A000A1F40E94A70582FD5AC087E40E94EE04BE
:1017B0000E94B4042FEF81EE94E0215080409040CD
:1017C000E1F700C0000087E4CFCF8CEF8C0F813AA7
:1017D00068F4E4E8F1E08191C817D9F121E0EA3832
:1017E000F207C9F78C2F0E94EE04C0CF80E28C0F65
:1017F000883068F4C77021E030E001C0220FCA953C
:10180000EAF780912502822B80932502AFCFEBE58A
:10181000EC0FE33040F4F0E0E75BFE4F808190E0B6
:10182000CF910C949105E8E5EC0FE73150F4F0E02E
:10183000EE0FFF1FE45BFE4F80819181CF910C94EE
:101840007B05CD3E60F08C2F0E942D08CF910C942B
:101850005D068C2F0E94E1040E94B404C3CFCF9197
:1018600008951F93CF93DF93182FD0E0C0E0893302
:1018700011F4C0E5D0E0812F0E949A0B209731F43B
:10188000812FDF91CF911F910C948E078FE99FE0FC
:101890000197F1F700C000002197F0CF0F931F933D
:1018A000CF93DF93C62FD42F022FFC018281882390
:1018B000A1F0609379020E94A20490937802809331
:1018C0007702C77081E001C0880FCA95EAF7DF91FF
:1018D000CF911F910F910C9471058091790268133B
:1018E00035C080917702909178020E949304883CE1
:1018F000910560F510E21D0FCD17B9F080E28C0F55
:10190000883040F4C77081E001C0880FCA95EAF7BB
:101910000E946605183048F481E09D2F977001C041
:10192000880F9A95EAF70E947105802F0E94310C6A
:10193000183098F4D77081E001C0880FDA95EAF783
:10194000DF91CF911F910F910C946605C77081E0D4
:1019500001C0880FCA95EAF7F3CFDF91CF911F91AD
:101960000F910895AF92BF92CF92DF92EF92FF92C4
:101970000F931F93CF93DF93EC018AE0A82EFE0113
:101980002491222309F494C0213009F03EC03196FD
:101990008491813031F42296FE0184910E94310CB1
:1019A00007C0823039F42296FE0184910E949A0B7E
:1019B0002196E5CF833031F42296FE0184910E9476
:1019C0008E07F6CF843009F071C02296FE01249173
:1019D00090E080E0FE0131962053330B2A30310530
:1019E00048F0019728F3EFE9FFE03197F1F700C0E5
:1019F0000000F7CFA89EA001A99E500D1124C90197
:101A0000840F951F2491EF01E5CFE22FF0E0E4521F
:101A1000FF4FB490822F86958695869590E0FC01C5
:101A2000E453FF4FE4902770F12C022E02C0F5948E
:101A3000E7940A94E2F731E0E322FF24FC01E45446
:101A4000FF4FC490D12C022E02C0D594C7940A94A3
:101A5000E2F7E1E0CE22DD24FC01E455FF4F0491E2
:101A600010E002C0159507952A95E2F7017011273D
:101A7000E114F10419F081EE0E949A0BC114D10413
:101A800019F086EE0E949A0B8B2D0E94310CCD2806
:101A900019F086EE0E948E07EF2819F081EE0E9461
:101AA0008E07012B09F484CF8CE278CFEF0180CF31
:101AB000DF91CF911F910F91FF90EF90DF90CF902A
:101AC000BF90AF900895CF9384E090E00E94E72408
:101AD000C82F82E290E00E94E724982F8C2FCF91AC
:101AE0000895CF92DF92EF92FF926B017C010E94EA
:101AF000B805B701A60188E090E0FF90EF90DF9075
:101B0000CF900C940D2580914B02882319F08150C1
:101B100080934B0260914702709148028091490284
:101B200090914A020C94710D80914B02833018F40D
:101B30008F5F80934B0260914702709148028091C1
:101B4000490290914A020C94710DE7E4F2E083E0BF
:101B5000808311828FEF82838383148260817181FD
:101B6000828193810C94710D6AEE7EEF90E080E0AB
:101B70000E94192560E082E090E00E94FB2460E072
:101B800083E090E00E94FB2410922702109228022A
:101B90001092290210922A0260E084E090E00E94F4
:101BA000FB2460E082E290E00E94FB2460E085E09C
:101BB00090E00E94FB2460E086E090E00E94FB241D
:101BC0006FEF87E090E00E94FB2440E050E0BA0114
:101BD00088E090E00E940D2560E08DE090E00E949A
:101BE000FB2440E050E0BA0188E190E00E940D251E
:101BF00060E087E190E00E94FB2440E050E0BA0101
:101C00008CE190E00E940D2570E060E080E290E0C1
:101C10000E94192540E050E0BA0188E190E00E945E
:101C20000D2540E050E0BA018FE090E00E940D25C4
:101C300040E050E0BA0183E190E00C940D25CF9391
:101C4000C0913002C2FB992790F9981781F080FB70
:101C5000C2F9C093300260912F0284E090E00E94AC
:101C6000FB246C2F82E290E0CF910C94FB24CF9167
:101C7000089510922502E4E8F1E086E0DF011D926C
:101C80008A95E9F70C9484061F93CF93DF93CDB721
:101C9000DEB7AA970FB6F894DEBF0FBECDBF8FE6B2
:101CA00092E02091F100FC012193CF01F2E087370F
:101CB0009F07B9F780917002833009F46FC0B8F4C0
:101CC000813009F446C0823009F4B0C08091E80048
:101CD00083FF7BC280916F02909170029A3008F06E
:101CE00074C2E92FF0E0EE55FA4D0C9469248A3065
:101CF00009F48BC08B3009F46EC0893039F78091BC
:101D00006F02813219F780917302909174020297E9
:101D1000E8F68091E800877F8093E8008091E800F2
:101D200082FF37C09091F3008091F200029729F46E
:101D30008091F1008B7F813021F48091F1008093BC
:101D400062028091E8008B778093E8000E947D0317
:101D5000BDCF80916F02813A09F0B8CF8091E80041
:101D6000877F8093E8008091730290917402892BA1
:101D700061F468E083E692E070E00E942F048091B5
:101D8000E8008B778093E800A1CF60E090E080E0EE
:101D9000F3CF80916D028111C1CF98CF80916F02F6
:101DA000813A09F093CF8091730290917402892B4C
:101DB00009F08CCF8091E800877F8093E8008091C4
:101DC000E80080FFFCCF80911D018093F10080919D
:101DD000E8008E77B9CF80916F02813209F076CF1B
:101DE0008091730290917402892B09F06FCF8091DA
:101DF000E800877F8093E8000E947D038091710254
:101E000080931D010E94390E61CF80916F02813253
:101E100009F05CCF8091E800877F8093E8000E9402
:101E20007D03809172028093610250CF80916F0296
:101E3000813A09F04BCF8091E800877F8093E800DA
:101E40008091E80080FFFCCF80916102BECF803896
:101E500099F0823809F0B9C1809173028F70873090
:101E600008F0B3C18093E9008091EB0085FB8827DF
:101E700080F91092E90006C080916B0290916C028B
:101E8000911182609091E800977F9093E800809391
:101E9000F1001092F1008091E8008E7792C18823C2
:101EA00009F480C1823009F090C1809171028111E2
:101EB00083C1809173028F702FEF280F263008F0B6
:101EC00084C18093E9002091EB0020FF75C193301D
:101ED00031F48091EB0080628093EB006DC19091B2
:101EE000EB0090619093EB0021E030E001C0220F05
:101EF0008A95EAF72093EA001092EA008091EB00BD
:101F00008860EACF811161C1109171021F778091C1
:101F1000E3008078812B8093E3008091E800877F45
:101F20008093E8000E947D038091E80080FFFCCF51
:101F30008091E30080688093E30082E0111183E0E8
:101F400080936D0242C18058823008F03EC180917A
:101F50007102909172028C3D23E09207A1F583E01B
:101F60008A838AE289834FB7F894DE01139620E0D2
:101F70003EE051E2E32FF0E050935700E49120FF60
:101F800003C0E295EF703F5FEF708E2F90E0EA3074
:101F9000C0F0C7968D939D932F5F243159F74FBFA3
:101FA0008091E800877F8093E8006AE270E0CE01CC
:101FB00001960E942F048091E8008B778093E800BF
:101FC00004C1C096E7CF4091730250917402292F4B
:101FD00033272330310509F444C078F52130310529
:101FE00009F46FC08BE390E0E8E0F5E022303105C2
:101FF00009F0EBC02091E800277F2093E8002091B2
:102000007502309176028217930708F49C0140E034
:102010002115310509F064C0411162C08091E800CA
:1020200082FDC9CF80916D02882329F2853019F293
:102030008091E80083FFF2CFBECF21323105A9F1B4
:102040002232310509F0C1C04115510509F443C0E0
:102050004130510509F0B9C08BE790E0EDE4F4E0C0
:10206000C9CF992781309105C1F0009759F00297A7
:1020700009F0ABC0E5E5F5E0E4918E2F90E0E5E5F1
:10208000F5E007C0EFE6F5E0E4918E2F90E0EFE693
:10209000F5E0009709F499C0ADCFE3E6F5E0E491EF
:1020A0008E2F90E0E3E6F5E0F4CF4115510571F095
:1020B0004130510509F089C089E090E0E3E3F5E0A3
:1020C00099CF82E190E0E3E4F5E094CF89E090E0FD
:1020D000EAE1F5E08FCF80E490E0E8ECF4E08ACF2D
:1020E00080916D02882309F466CF853009F463CFAF
:1020F0008091E80083FD5FCF8091E80082FD8ECF64
:102100008091E80080FF84CF9091F3008091F200ED
:102110002115310519F08830910550F041E00897FC
:1021200009F040E08091E8008E778093E80070CF5E
:1021300044914093F1003196215031090196E8CF46
:10214000803809F042C08091E800877F8093E800E2
:1021500080916E028093F1009ECE811136C0109165
:102160007102123090F58091E800877F8093E8003B
:1021700010936E020E947D03112311F084E005C0CC
:102180008091E30087FDFACF81E080936D0242E009
:1021900061EC81E00E949C0342E261EC82E00E94DB
:1021A0009C0313C080917102813079F481E09330F7
:1021B00009F080E080936C021092E9008091E800C1
:1021C000877F8093E8000E947D038091E80083FF71
:1021D0000AC08091E800877F8093E8008091EB003F
:1021E00080628093EB00AA960FB6F894DEBF0FBE14
:1021F000CDBFDF91CF911F91089560914702669501
:1022000070E04BE050E085E091E00E94DA24892BF9
:1022100019F481E080934D020E94A204909342023F
:102220008093410208958091470280FD0BC0E0E950
:10223000F1E08BEA91E011821082128233968E17C0
:102240009F07C9F76A9A3EB13B7F2EB124604FB712
:10225000F89480E991E0FC015191CF0168E02EB93A
:10226000000000C057FF3EB9550F000000C000C07D
:1022700000C03EB900C06A9591F7F1E08B3A9F0724
:1022800051F74FBF8FE594E00197F1F700C00000D0
:1022900008954F925F926F927F928F929F92AF922A
:1022A000BF92CF92DF92EF92FF920F931F93CF9343
:1022B000DF93FC016280448081E08483E1E6F2E008
:1022C0007490E0EEF2E0E491CBEAD1E030E9E32E65
:1022D00031E0F32E48EDC42E41E0D42E52E0A52E7D
:1022E000BB24B39488248A94912C55245A94E719DA
:1022F0000E2F10E082E0861530F08091480288832E
:10230000809149028983411021C01B821A82970162
:102310004A81698188810E94C705259683E0E80E7D
:10232000F11CCC16DD0631F7DF91CF911F910F9193
:10233000FF90EF90DF90CF90BF90AF909F908F90E5
:102340007F906F905F904F900C9413118B81882336
:10235000E9F081508B83859DC00111246C8170E070
:102360000E944124FB01FF27EF59FD4F8491E82F84
:10237000E719E59DC0011124B8010E944124809114
:102380004A02689FB00111247A83C1CF0E94CA24F7
:1023900020914A02269521582A9DA0012B9D500D7F
:1023A0001124452F5527841795070CF0B0CF82E0F4
:1023B000861588F40E94CA24B4010E94552488839B
:1023C0000E94CA24209149022695622F70E00E9443
:1023D0005524280F29831A8280914A02893C20F0D3
:1023E00088EC8C838B8393CF8431D8F784E1F9CF49
:1023F000EF92FF921F93CF93DF93EC0180E9E82ED9
:1024000081E0F82E10E08C81970140914A026091A2
:102410004902810F0E94C705145E83E0E80EF11C9B
:102420001C3F89F70E9413119A818C8190FF08C08C
:102430008F5F8C83DF91CF911F91FF90EF90089574
:102440008150F7CFBF92CF92DF92EF92FF920F931E
:102450001F93CF93DF93FC018281DD24DA9480FD0A
:1024600002C0DD24D39400E911E0D0E0C0E029E00F
:10247000B22EF80111821082128294E0E92EF12C22
:10248000C12C80918D018C0D8A300CF43DC06B2DD8
:102490000E943324892F082E000C990B8C179D075E
:1024A00091F480914A028E9DA0018F9D500D1124C0
:1024B00055954795559547959801609149028091AA
:1024C00048020E94C705CD0CF1E0EF1AF108C9F6E9
:1024D00021960D5F1F4FC930D10559F60E94131187
:1024E00080918D0191E0D91215C0811111C088E051
:1024F00080938D01DF91CF911F910F91FF90EF900D
:10250000DF90CF90BF90089587FFC5CF875FC3CF7F
:102510008150EECF90E00196BE010E945524E8CF95
:102520000F931F93CF93DF93C0E9D1E0FE01118297
:1025300010821282339681E0EB3AF807C1F710E07F
:1025400000E080918E01082E000C990B08171907E6
:102550008CF180911101082E000C990B80179107C6
:102560004CF19E0140914A026091490280914802DB
:102570000E94C7050F5F1F4F23960930110509F709
:102580000E9413118091100190918E01980F9093E9
:102590008E0120911101280F20931101121614F4BD
:1025A00098301CF0819580931001DF91CF911F919D
:1025B0000F910895198218821A82DCCF8F929F9210
:1025C000AF92BF92CF92DF92EF92FF920F931F9341
:1025D000CF93DF93EC014C81042F10E09801D801D8
:1025E0000E9483259B01AC010E944E254B015C019A
:1025F000E0E2F0E0E01BF10BA5E5B0E0AC019B01EF
:102600000E944E256B017C019F01DF010E946F2417
:102610009B01AC010E9459259B01AC01280D391D7D
:102620004A1D5B1DC701B6010E946125F22E822F53
:1026300090E039E23F15D8F143E0249F9001112446
:1026400035952795122F109590E9C92E91E0D92E36
:1026500000E085E5E82EEF188E2D01FD8F2D960107
:10266000412F609149020E94C7050F5F53E0C50EDC
:10267000D11C093089F70E9413119C8181E09923B4
:1026800019F0903219F48FEF8093120180911201AA
:10269000890F8C83DF91CF911F910F91FF90EF9065
:1026A000DF90CF90BF90AF909F908F90089525E5D9
:1026B00030E0A901481B590BCA019A01220F331FB0
:1026C000280F391F37FFBCCF2F5F3F4FB9CFEF9295
:1026D000FF920F931F93CF93DF938C01C0E9D1E05A
:1026E000F12CE12CF801948160914902809148021B
:1026F000F4E0EF16F104FCF49923F9F09E01409107
:102700004A020E94C7052FEFE21AF20A239689E0D7
:10271000E816F10439F70E941311F801848190E062
:102720000196817099278483DF91CF911F910F913A
:10273000FF90EF900895992309F39E0140E0E1CFC7
:102740009091470290FF0CC0E0E9F1E08183608343
:102750004283339691E0EB3AF907C1F70C941311D9
:1027600008950F931F93CF93DF9300D00F92CDB7AF
:10277000DEB78C0180918F0181110AC09E012F5F0D
:102780003F4F4FEF6FEF0E94C7058A8180938F0103
:10279000F8016481613069F080918F0140E0662327
:1027A00061F040E0623011F440918F0180E060E020
:1027B00004C060918F0140E080E00E94A013F80106
:1027C000848190E0019663E070E00E945524848348
:1027D0000F900F900F90DF91CF911F910F9108955F
:1027E000CF93DF9300D00F92CDB7DEB79091470221
:1027F00090FF0AC09E012F5F3F4F0E94C7054B818B
:1028000069818A810E94A0130F900F900F90DF9131
:10281000CF910895CF93DF93EC01EC81F0E0EF5975
:10282000FD4F4491E7E4F2E0628181810E94F01360
:102830008C818F5F8C83DF91CF910895CF93DF934D
:10284000EC01E7E4F2E0438162818C810E94F013A5
:102850008C818F5F8C83DF91CF9108958F929F92AF
:10286000AF92BF92CF92DF92EF92FF920F931F939E
:10287000CF93DF939AE7E92E91E0F92E10E000E084
:10288000D0E0CC24C394D12C34E3A32E32E0B32E79
:10289000D7018D917D01F894E82FE295EF70F0E07B
:1028A00021A18F70A60102C0440F551F8A95E2F73F
:1028B000CA01922F982B91A392A18095892382A37C
:1028C000789400C09601002E01C0220F0A94EAF706
:1028D000522F2095E1E3F2E08DE7882E81E0982EDB
:1028E000C0E04191D4013D914D01832F82958F70BD
:1028F00090E0DC0190968C9190E03F7002C095953D
:1029000087953A95E2F780FD3EC0852F842B4817C6
:1029100031F0BF0161507109DB018C93C1E0AE164B
:10292000BF06F9F6F701319780810E948708B0EA67
:10293000BA95F1F7DC2B0F5F1F4F0330110509F03B
:10294000A7CFDD2319F181E080938C010E94A204BE
:1029500090938B0180938A0180918A0190918B01E1
:102960000E9493040697B0F08091310280933E025A
:102970008091320280933F02809133028093400223
:1029800010928C0107C0822F8423C1CF80918C01CB
:102990008111E2CF80912B0290912C02A0912D0207
:1029A000B0912E02AD0166277727C0E04115510591
:1029B0006105710519F0DB01CA01C0E1492F5A2FE9
:1029C0006B2F7727411551056105710519F0C85F17
:1029D000DB01CA01AC01BD01E4E07695679557952E
:1029E0004795EA95D1F7411551056105710519F033
:1029F000CC5FDB01CA01AC01BD0132E07695679581
:102A0000579547953A95D1F74115510561057105DF
:102A100019F0CE5FDB01CA01B695A795979587950A
:102A2000892B8A2B8B2B09F0CF5F809104018C17A7
:102A300061F0C23031F1B8F4CC23F9F048E166E13D
:102A400081E0C130B9F0C09304018D2FDF91CF91A7
:102A50001F910F91FF90EF90DF90CF90BF90AF90BC
:102A60009F908F900895C33081F046E660E083E345
:102A7000C43049F70E94A013E6CF40E060E080E058
:102A8000F9CF40E06DE181E3F5CF40E060E08DE417
:102A9000F1CF5F926F927F928F929F92AF92BF928F
:102AA000CF92DF92EF92FF920F931F93CF93DF931A
:102AB00000D00F92CDB7DEB7182F762E042F622EDE
:102AC0009091470290FF29C0E92FE695AE2FB0E024
:102AD000A25EBE4F8C9180934C029E7F923081F516
:102AE0009E012F5F3F4F812F0E94C7054B81698157
:102AF0008A810E94A01310934802709249020093A9
:102B00004A02662051F0609147027091480280911C
:102B1000490290914A020E94710D0F900F900F9000
:102B2000DF91CF911F910F91FF90EF90DF90CF90A9
:102B3000BF90AF909F908F907F906F905F9008951F
:102B4000823019F400914A02D6CF863019F41091E0
:102B50004802D1CF8930D9F3893169F6E9518E2FF6
:102B60008170582EE695F0E0E45AFD4FA590B490A0
:102B7000BB2480E9E82E81E0F82ED12CC12C99E00D
:102B8000892E912CC601B4010E944124812F51103D
:102B900013C0860F9701402F672D0E94C705CA0CEE
:102BA000DB1C83E0E80EF11C8BEAE81681E0F806F6
:102BB00049F70E9413119FCF861BECCFE7E4F2E0A8
:102BC000438128E0421B08F440E021E062818181DA
:102BD0000C944915E7E4F2E0438128E0420F08F441
:102BE0004FEF21E0628181810C944915E7E4F2E026
:102BF000628128E0621B08F460E021E0438181816A
:102C00000C944915E7E4F2E0628128E0620F08F4D1
:102C10006FEF21E0438181810C944915E7E4F2E0F4
:102C2000818121E04381628188500C944915E7E459
:102C3000F2E0818121E043816281885F0C94491533
:102C40009091470290FF36C09170811129C0926027
:102C500090934702662351F06091470270914802B9
:102C60008091490290914A020E94710D6091470241
:102C7000669570E04BE050E085E091E00E94DA2438
:102C8000892BA9F010924D0281E08093440220E04C
:102C900040914A0260914902809148020C94491582
:102CA0008B3210F09465D4CF880F982BD1CF0E942F
:102CB000FD10EACF0895809147028695815009F46E
:102CC0008AE261E00C9420168091470286958F5F1E
:102CD0008B3208F081E061E00C942016909147025D
:102CE00090FF07C09695981720F0961710F40C9453
:102CF000641661E00C9420164F925F926F927F925F
:102D00008F929F92AF92BF92CF92DF92EF92FF92FB
:102D10000F931F93CF93DF9300D000D00F92CDB7C6
:102D2000DEB77C01DC0113968D919C911497892B61
:102D300041F01C911196DC90812F8D218F3F09F07D
:102D40003BC50F900F900F900F900F90DF91CF9198
:102D50001F910F91FF90EF90DF90CF90BF90AF90B9
:102D60009F908F907F906F905F904F9008950E94FA
:102D70007D0A082F682F89819A810E942F05E12FF3
:102D8000F0E0B3E0DB9EE00DF11D112429E0029F8D
:102D9000E00DF11D1124EE0FFF1FE252FC4F0591D3
:102DA0001491F801EF55FD45EE30F10508F0B6C07D
:102DB000E455FA4DD70112968C910C94692488231E
:102DC00009F449C084ED93E00E94B20C44C088230A
:102DD00009F441C08DEC93E0F7CF8823E1F185EC55
:102DE00093E0F2CF8823B9F18CEB93E0EDCF882309
:102DF00091F186EB93E0E8CF882369F185EA93E0CF
:102E0000E3CF882341F18DE993E0DECF882319F1E8
:102E100088E993E0D9CF8823F1F081E993E0D4CF1A
:102E20008823C9F08AE893E0CFCF8823A1F084E813
:102E300093E0CACF882379F08DE793E0C5CF88234C
:102E400009F456C00E94A2049093DD018093DC0136
:102E500081EE0E949A0BF7018281882309F4BFC496
:102E6000109279020230FCE51F0708F48EC106318A
:102E70002CE5120730F0C8018B5F9C45099708F0DC
:102E800084C10E94630D9093300280932F02003121
:102E90003CE5130709F448C108F0D6C008309CE5AA
:102EA000190709F437C108F0A5C00430BCE51B07B9
:102EB00009F424C108F090C00230FCE51F0709F4B2
:102EC00017C180912F02826003301C4509F413C1A1
:102ED00060912F021091300284E090E00E94FB2468
:102EE000612F82E290E00E94FB240E94390E3FC0D5
:102EF00081EE0E948E078091DC019091DD010E949D
:102F00009304883C910508F0A6CF86E793E05CCF58
:102F1000882309F4A0CF81E693E056CF043FBCE5B7
:102F20001B0709F44AC098F4093DFCE51F0709F4A2
:102F300040C00A3D2CE5120709F44BC0083D3CE5B2
:102F4000130709F088CF26E241EE61EE0DC0063F7F
:102F50008CE51807D1F1A8F127E245EE66EE073FB0
:102F6000ACE51A0709F077CFC7010E944E0C80919B
:102F70002202877009F4E5CEF7018281882309F4E3
:102F8000E0CE82E00F900F900F900F900F90DF91A6
:102F9000CF911F910F91FF90EF90DF90CF90BF9056
:102FA000AF909F908F907F906F905F904F900C9418
:102FB000CE0627E245EE65EED7CF26E241EE60EE83
:102FC000D3CF27E245EE64EECFCF26E241EE62EEAC
:102FD000CBCF28E241E0EFCF80912F028061063015
:102FE0003CE5130709F487C008F48CC080912F02D8
:102FF000806281C080912F028D7F0C309CE5190783
:1030000009F479C070F480912F028C600A30BCE51D
:103010001B0709F470C008F481C080912F028E7FD5
:103020006AC080912F02877F0E30FCE51F0709F4EC
:1030300062C080912F028B7F0F301C4508F45BC06B
:1030400080912F028F7E57C00C3F3CE5130709F497
:103050005DC030F503319CE5190709F46DC078F4C3
:103060000131BCE51B0709F463C002311C4509F0BE
:103070002FCF0E94390E80912F028F773CC00531EF
:10308000FCE51F0709F460C008F474C080913002A9
:1030900081600B3F1C4509F01BCF8093300218CF95
:1030A00001158DE5180709F44BC088F480913002B2
:1030B0008D7F0E3FACE51A0781F3809130028E7F41
:1030C0000F3F1C4550F3809130028360E6CF023001
:1030D000EDE51E0709F457C008F442C060E0033074
:1030E0001D4509F0F5CE8EE090E00E94FB24F0CE65
:1030F00080912F02816080932F02EACE80912F026F
:103100008460F9CF80912F028860F5CF80913002E2
:103110008260C3CF80912F028064EDCF0E94390E70
:1031200080912F028068E7CF80912F028F7DE3CFBF
:1031300080912F028F7BDFCF80912F02837FDBCFA7
:10314000809130028C7FA9CF80912F0282FB99273A
:1031500090F921E0922790FB82F990FB83F9CBCF85
:1031600080913002982F909591708E7F892B90FBE3
:1031700081F993CF0E94390E90912F02892F97FBEE
:1031800087F98058B8CF61E0AECF80912502063133
:103190003CE5130709F02EC38A7A91E009F490E028
:1031A0009093DE01811106C089E20E94EE040E9424
:1031B000B404DDCE85E3F9CF85E319C380914702DE
:1031C00080FF1BC08E7F8093470260914702709101
:1031D00048028091490290914A020E94710D10921A
:1031E0004D028FEF90E7A2E081509040A040E1F7C0
:1031F00000C000000E941311BACE81608093470284
:1032000061E086950E942016B2CE4BE556E164E659
:1032100076E10E94B305ABCE44E656E16BE576E17C
:10322000F8CF47E156E16EE076E1F3CF46EF55E1A6
:1032300062E076E1EECF4EED55E16AEE75E1E9CF61
:103240004AEE55E16EED75E1E4CF44E95DE063E8F7
:103250007DE0DFCF61E081E0D5CF65E082E00E94D4
:103260006E1685CE68E086E0FACF64E18FE0F7CF96
:1032700067E185E1F4CF62E289E1F1CF61E083E2C9
:10328000C1CF0C353DE5130701F10D351D4509F0A2
:10329000DCC28091300282FB882780F991E0892787
:1032A0000E941F0ED2C20E94390E9FEFA4E3BCE021
:1032B0009150A040B040E1F700C000000E94760BA2
:1032C0000E94B40D54CE81E0EBCF80E0E9CFC8017D
:1032D0000E940705D82ECAC2212F2F70A22E107F60
:1032E00019F0A29420EFA222DD20C9F0AA2069F0F3
:1032F00080E2800F883010F081100BC08091250291
:10330000A82AA09225020E94B404802F0E949A0B42
:1033100018C080912402A82AA0922402F4CF802F02
:103320000E948E07AA2069F0A094005E083010F079
:10333000811046C080912502A822A09225020E94F9
:10334000B404EB2DE850FF0B349710F40E94A7054E
:10335000CC20B1F08091220280FD12C0D7011296DC
:103360001C928595859585950E94EA06C7010E9465
:103370007C16809122028595859585950E94AB06E5
:1033800085E0F701DE01119601900D928A95E1F733
:1033900089819A810E9407059A81E981F0E0B3E072
:1033A0009B9FE00DF11D112429E0829FE00DF11D8E
:1033B0001124EE0FFF1FE252FC4F85919491C1CC76
:1033C00080912402A822A0922402B9CF312F3F700D
:1033D000932E107F103219F0929490EF992288204A
:1033E00089F081E0881699F1DD20F1F1AA20A9F198
:1033F000D70115968C91159780FF87CF8F70159602
:103400008C932BC0DD20B1F090912602892D892B61
:10341000A11003C00E94710594CFA1E0AA12FACFB7
:103420002091300222FD8DCF981709F48ACF809326
:10343000260287CFA11006C00E94AE04892D0E94EB
:1034400066057FCFB1E0AB1609F47BCFF5CFDD2069
:1034500031F0E2E0EA1508F474CF892DDBCFF1E01A
:10346000FA1508F46ECFEACFAA2041F3B9E38B1224
:1034700009C0EFEFF7EE23E0E150F0402040E1F724
:1034800000C00000802F0E948E075BCF812F8695A1
:103490008695837061F0813009F053CFC801937035
:1034A000D11002C090E080E00E947B054ACFC801A5
:1034B0009370D11002C090E080E00E94910541CF4E
:1034C000802FDD2029F00E942D080E945D0639CF53
:1034D0000E941507FACF812F837009F066C0D110C2
:1034E00030CF802F829586958770880F880F602F48
:1034F0006F70462E512C712C612C082E04C0440C88
:10350000551C661C771C0A94D2F740E050E0BA01C3
:1035100004FF0FC04FE050E060E070E004C0440FD3
:10352000551F661F771F8A95D2F740955095609575
:103530007095812F869586958370823019F1D8F425
:1035400000912702109128022091290230912A022D
:10355000813069F04429552966297729CB01BA01C0
:1035600060237123822393230E940B07EACE402A13
:10357000512A622A732ACB01BA0164297529862946
:103580009729F2CF442955296629772900912702E6
:10359000109128022091290230912A02CB01BA0110
:1035A0006027712782279327DFCF8695DD2011F0D2
:1035B000812F8170882309F4C4CE802F829586954F
:1035C0008770880F880F602F6F70462E512C712CDA
:1035D000612C082E04C0440C551C661C771C0A94F0
:1035E000D2F740E050E0BA0104FF0FC04FE050E0D6
:1035F00060E070E004C0440F551F661F771F8A9576
:10360000D2F74095509560957095812F8695869557
:103610008370823019F1D8F400912B0210912C02A2
:1036200020912D0230912E02813069F044295529D4
:1036300066297729CB01BA01602371238223932362
:103640000E94A1067ECE402A512A622A732ACB010B
:10365000BA016429752986299729F2CF4429552969
:103660006629772900912B0210912C0220912D02BE
:1036700030912E02CB01BA01602771278227932750
:10368000DFCF1F70DD2029F0812F0E94EA06802FF6
:10369000C1CE802F0E946605812F0E94AB0651CEBD
:1036A000802F32EF831609F454C0381578F090EF6C
:1036B000891639F1A1EF8A1609F443C0DD2009F417
:1036C0006BC0A11022CE812F8F7140C0B3EF8B163B
:1036D00009F444C0E4EF8E12F1CFDD2009F451C0AB
:1036E0001F71812F0E94EA068091300282FD07C07F
:1036F00038E0139FC0011124836080932202812F40
:1037000025C0DD20C9F0F1E0FA1508F41ACE1F71CA
:1037100061E070E080E090E004C0660F771F881FD2
:10372000991F1A95D2F700912B0210912C0220912B
:103730002D0230912E02A0CF22E02A1508F401CEEE
:10374000E6CF812F8F71DD2009F4A7CF0E94EA0612
:10375000F8CD812F8F71DD20C9F39FCF60E070E03D
:10376000CB01DD2009F46CCF1F7161E070E080E0D7
:1037700090E004C0660F771F881F991F1A95D2F733
:103780005FCF81E00E94CE0681E08A1508F0D9CD96
:1037900082E00E94CE06D5CDAA2059F0893309F0E7
:1037A00071CE9FEFA7EEB3E09150A040B040E1F79B
:1037B00067CE812F8F7171CF85E0F701DE01119601
:1037C00001900D928A95E1F7D70112962C9189818B
:1037D0009A812111CCCA0E940705082FD0CA063150
:1037E0001C4599F58091DE018111E6CC89E20E94A9
:1037F000E104DDCC82720D3CECE51E0709F425CD19
:1038000008F09AC0073C2CE5120709F40ACD08F02D
:103810006FC0043C9CE5190709F4F7CC08F059C0C7
:10382000033CBCE51B0709F4C9CC0B35BDE51B0700
:1038300009F449CD08F025CD0115FCE51F0709F471
:1038400032CD0F3D1C4509F43BCDD70112968C912A
:1038500012970D911C91882309F439CDC8010E945B
:103860007D0AD82E682FC8010E942F05B8018D2D22
:103870000E94E1088C01882EF701D280A580A294D5
:103880004FE0A422809122028770A1F0CD2CDD2090
:1038900091F0812F807F803421F080E2800F88308A
:1038A00048F082E00E94CE06809122028770CC24EC
:1038B000C3948111C12CB12EB2943FE0B322FBE03E
:1038C000FB1508F43ECDEB2DF0E0E654FA4D0C94D8
:1038D0006924053CECE51E0709F49ECC4EE056E158
:1038E00067E176E1063CFCE51F0709F492CC9DCF29
:1038F0000A3C2CE5120709F49ECC78F4083C9CE5C0
:10390000190709F493CC42E056E166EF75E1093CF2
:10391000ACE51A0709F47DCC88CF0B3CBCE51B074E
:1039200009F48ECC43E85DE064E97DE00C3CECE515
:103930001E0709F46ECC79CF023DFCE51F0709F4A0
:1039400094CCA0F40F3C3CE5130709F486CC08F4B2
:1039500081CC003D9CE5190709F484CC6EE089E038
:10396000013DACE51A0709F47ACC5FCF053DBCE513
:103970001B0709F480CC68F4033DFCE51F0709F43C
:1039800077CC61E088E1043D2CE5120709F43ACCDC
:103990004CCF063D3CE5130709F470CC0E358DE5A0
:1039A000180709F042CF6AE285E259CC1F93CF9302
:1039B000DF938091E501807FA9F48091E201882363
:1039C00089F080911702D091E6016091E001709139
:1039D000E101A091E301B091E401C62FC72316E0F5
:1039E000D81304C0DF91CF911F91089590E01097F4
:1039F00011F0CF3F19F401968770F2CF189F900114
:103A0000199F300D1124F901E951FE4F41814713EF
:103A1000F2CF40814613EFCF42814111ECCF438179
:103A200054814A1B5B0B483C510528F78091E50106
:103A30008F7080618093E501F901E451FE4F808130
:103A40008F708061808380EE91E00E947C16DF9110
:103A5000CF911F910C945C05AF92BF92CF92DF92F1
:103A6000EF92FF920F931F93CF93DF93CDB7DEB703
:103A700061970FB6F894DEBF0FBECDBF8C0185E015
:103A8000F801DE011D9601900D928A95E1F7F8018B
:103A900080819181E28020EEA22E21E0B22E609101
:103AA000E3017091E4016115710509F43EC13091A3
:103AB000E0014091E101232F24232F3F09F435C178
:103AC000C380D480F090E201F601E61BF70BFF20E3
:103AD00009F4FBC02091E501522F507FE83CF1052D
:103AE00008F0BBC0511178C0FE2C491321C0381317
:103AF0001FC0E1101DC02F7020612093E501C5019A
:103B00000E947C168091E501F80185838F2D6196D6
:103B10000FB6F894DEBF0FBECDBFDF91CF911F91DE
:103B20000F91FF90EF90DF90CF90BF90AF900895EE
:103B3000CD2829F0282F29232F3F09F014C120E098
:103B4000F22FF170DF2E20FF3DC02091170240912F
:103B5000E60156E0241315C08D879E878D859E85CE
:103B60000E94BF0A292F22952F702230F8F02430AE
:103B700020F59F70F9F0F8019581907FD9F4D12C50
:103B80001FC030E0529FF001539FF00D1124E95106
:103B9000FE4F6181961306C06081861303C0628167
:103BA000E61210C02F5F3F4F2770D4CF9F7011F0E7
:103BB000882329F3805E883010F3C8010E947C16A8
:103BC000FD2CA4CFEE2009F4A1CF8091E501816006
:103BD0008093E501F12C9ACF491312C0381310C01D
:103BE000E1100EC0F8012583C8010E947C1686E012
:103BF000F801A0EEB1E001900D928A95E1F786CF31
:103C00008D879E878D859E850E94C90A882309F12C
:103C1000EE20F9F08091E501803270F02091E00112
:103C20003091E10138872F831986DB86CA868C871D
:103C3000CE0107960E947C1686E0F801A0EEB1E066
:103C400001900D928A95E1F70E94D61CFF24F3940F
:103C50005DCFC8010E947C16F9CF51110AC080EED9
:103C600091E00E947C1686E0F50111928A95E9F7B1
:103C7000B1CF49130FC038130DC0E1100BC0F801CC
:103C80002583C8010E947C1686E0F50111928A9571
:103C9000E9F73CCF8D879E878D859E850E94C90A56
:103CA0008823B9F2EE20A9F28091E501803220F25A
:103CB0002091E0013091E1013A8329831B82DD826A
:103CC000CC828E83CE010196B5CFE83CF105E0F6BB
:103CD000FE2CEE2009F4BDCF491316C0381314C0D2
:103CE0008091E50180FD83CF982F907F09F47FCFED
:103CF000F8018583903F09F477CF982F907F905FEC
:103D00008F70892B858370CF8D879E878D859E854B
:103D10000E94C90A811190CF8091E5018160809352
:103D2000E501C8010E947C16F1CEEE2009F491CF86
:103D30008D879E878D859E850E94C90AF82E8823CF
:103D400009F487CF86E0F801A0EEB1E001900D9272
:103D50008A95E1F78091E0019091E1010E94BF0A0C
:103D60000E94D61CD3CE21E02E25EACE1F93CF93FE
:103D7000DF93CDB7DEB767970FB6F894DEBF0FBEFF
:103D8000CDBF342F4B8B252F5C8B6D8B7E8B8F8B18
:103D90008E899F896111109224021A8A198A3D879F
:103DA0002E876F87998B888B86E0FE013D96DE011A
:103DB000179601900D928A95E1F7CE0107960E9421
:103DC0002C1D882389F016E0809117029091E6015E
:103DD000891349C067960FB6F894DEBF0FBECDBFFA
:103DE000DF91CF911F91089586E0FE013796DE01A5
:103DF000119601900D928A95E1F78A859B85892B12
:103E000011F38F81988589238F3FE9F22091E60194
:103E100030E0C90101968770992740911702481731
:103E2000190671F40E94390E1092E60110921702E1
:103E300086E0E0EEF1E0DF011D928A95E9F7C3CF5D
:103E400096E0929FD001939FB00D1124A951BE4FCF
:103E5000FE01319601900D929A95E1F78093E6016B
:103E60000E945C05B0CF819FC001112489519E4FF3
:103E70000E942C1D882309F4ADCF8091170290E099
:103E8000019687709927809317029ECF1F920F92F9
:103E90000FB60F9211242F933F934F935F936F931D
:103EA0007F938F939F93AF93BF93CF93DF93EF93C2
:103EB000FF93D091E900DF708091EC00C82FC170B2
:103EC00080FDC0E81092E9008091F000877F809328
:103ED000F00078940E94440E1092E9008091F00066
:103EE00088608093F000CD2BCF70C093E900FF91E4
:103EF000EF91DF91CF91BF91AF919F918F917F9182
:103F00006F915F914F913F912F910F900FBE0F9046
:103F10001F9018951F920F920FB60F9211242F9396
:103F20003F934F935F936F937F938F939F93AF9341
:103F3000BF93EF93FF938091E10082FF09C08091CE
:103F4000E20082FF05C08091E1008B7F8093E10059
:103F50008091DA0080FF24C08091D80080FF20C0CB
:103F60008091DA008E7F8093DA008091D90080FF03
:103F70009BC080E189BD82E189BD09B400FEFDCF0F
:103F800081E080936D0280916002811109C00E94DE
:103F900003030E94CE038091E20084608093E200DC
:103FA0008091E10080FF17C08091E20080FF13C084
:103FB0008091E2008E7F8093E2008091E200806138
:103FC0008093E2008091D80080628093D80019BC71
:103FD00085E080936D028091E10084FF29C080918B
:103FE000E20084FF25C080E189BD82E189BD89B5F9
:103FF000982F917080FFFBCF8091D8008F7D8093A8
:10400000D8008091E1008F7E8093E1008091E200F2
:104010008F7E8093E2008091E20081608093E200D5
:1040200080916E02882309F445C084E080936D027C
:104030008091E10083FF27C08091E20083FF23C0CD
:104040008091E100877F8093E10082E080936D02A0
:1040500010926E028091E1008E7F8093E10080914A
:10406000E2008E7F8093E2008091E2008061809385
:10407000E20042E060E080E00E949C038091F0005A
:1040800088608093F000FF91EF91BF91AF919F9175
:104090008F917F916F915F914F913F912F910F90F1
:1040A0000FBE0F901F90189519BC10926D021092C0
:1040B000600276CF8091E30087FD93E090936D02DC
:1040C000B7CFCDB7DEB760970FB6F894DEBF0FBE9F
:1040D000CDBF84B7877F84BF0FB6F894A895809131
:1040E0006000886180936000109260000FBE80E8DD
:1040F00090E00FB6F89480936100909361000FBE3A
:1041000085B7806885BF85B7806885BF8EE894E0F5
:1041100090938101809380010E9403030E94CE034B
:104120008091E20084608093E200789480916D0237
:104130008823A1F01091E9001F709091EC00892F65
:10414000817090FD80E8182B1092E9008091E800C2
:1041500083FD0E94440E1F701093E90082E084BD2D
:1041600093E095BD9AEF97BD80936E0086E90E941B
:10417000870882E90E94870881E90E94870885EF05
:104180000E94870884EF0E94870881EF0E948708B9
:104190001092310210923E021092320210923F02AF
:1041A000109233021092400290E080E00E94F524C9
:1041B0008A3E9E4F11F00E94B40D82E090E00E9472
:1041C000E72480935C020E94630D909330028093F9
:1041D0002F020E942E148FE39CE90197F1F700C093
:1041E00000000E942E1480913E0280FF08C06FEFF5
:1041F0007FEF90E080E00E9419250E94760B83E01B
:1042000090E00E94E724682F70E090E080E00E9438
:104210000B078091470281608093470261E0869599
:104220000E94201680913402811136C090E080E017
:104230000E94F5248A3E9E4F21F00E94B40D0E94F8
:10424000A50D88E090E00E94EF24609347027093F0
:1042500048028093490290934A026E7F71F40E9453
:10426000A50D88E090E00E94EF24609347027093D0
:1042700048028093490290934A020E94B805109226
:104280004D028091470280FF04C060E086950E9445
:10429000201681E08093340283E191E0909336020E
:1042A0008093350218E1E12EF12C00E4C02EDD24CC
:1042B000D394BB24B39480916D0210E102E1853068
:1042C00009F4B9C10E942E14882359F08FB7F894CD
:1042D00040913A0250913B0260913C0270913D0244
:1042E0008FBFEEE3F2E0ADE5B2E010E000E0202F9A
:1042F00091918D91891709F4C6C18927482F417082
:10430000942E80FDBAC181FDBAC182FFBCC1B4E068
:104310009B2E82E08F832887992181E009F480E039
:1043200089870E94A2048160782F9B878A874F81AA
:10433000588569858B850E94B61EF801E35AFD4FAA
:1043400080819826908280914D028823D1F18091BE
:104350004C02E0914702E695E81BE093430282306D
:1043600009F0A8C1F0E0E75BFB4FE4910E2F10E0ED
:10437000FAE08F2EF4E19F2E80914402882361F0B1
:10438000109244020E94A204909342028093410240
:1043900010924602109245020E94A204E09141024E
:1043A000F09142028E1B9F0B8F3F9F4750F4E00F0E
:1043B000F11FF0934202E093410281E492E0F401A4
:1043C000099586E0E5E5F2E0DE01119601900D9297
:1043D0008A95E1F790905702809058021091590207
:1043E00000915A02109257021092580210925902EC
:1043F00010925A02892D882909F448C080915302ED
:10440000909154020E9493049C019091520299232E
:1044100009F4CDC123333105C8F19F3F19F09F5FE7
:1044200090935202992059F00E940D089FEF1914A1
:104430000CF491E0899F802D1124809357028820ED
:1044400059F00E940D089FEF18140CF491E0899F19
:10445000802D112480935802309157023323B1F0FC
:1044600020915802222391F045EB3403C00111241E
:10447000992309F48BC19093570245EB24039001D3
:104480001124332309F485C130935802812F802BE6
:1044900009F448C080915002909151020E94930407
:1044A0009C0190914F02992309F47CC12536310576
:1044B000C8F19F3F19F09F5F90934F02112359F06D
:1044C0000E94EB079FEF11160CF491E0899F802D5D
:1044D000112480935902002359F00E94EB079FEFAB
:1044E00010160CF491E0899F802D112480935A02BC
:1044F000309159023323B1F020915A02222391F0D6
:1045000045EB3403C0011124992309F445C190936C
:10451000590245EB240390011124332309F43FC1D0
:1045200030935A028091570290915802892B9091B2
:104530005902892B90915A02892B11F00E945D0635
:1045400086E0FE013196A5E5B2E001900D928A95D4
:10455000E1F70E94A70590915B02891709F4ABCEA1
:104560000E94A70580935B02A6CE80916D028430E5
:1045700009F43DC010924D0280913902811116C09C
:10458000B092390280914702982F9170909338022F
:104590008E7F80934702FFEF20E732E0F15020400A
:1045A0003040E1F700C000000E9413111092370262
:1045B0000FB6F894A895E09260000FBEC09260001C
:1045C00083B7817F846083BF83B7816083BF789422
:1045D000889583B78E7F83BF0FB6F894A895809196
:1045E0006000886180936000109260000FBE80912F
:1045F0006C02882301F10E942E1480913E0290915A
:104600003F02892B90914002892BA9F019BD09BD69
:1046100009B400FEFDCF8091D8008F7D8093D80033
:104620008091E00082608093E0008091E00081FD55
:10463000FCCF0E94390E80916D02853009F495CF30
:104640000E94390E0E94A70510923902809138020B
:10465000882361F08091470281608093470260E087
:1046600086950E9420160E94FD102CCE80914E024D
:104670008823C9F30E941311F6CF80E04BCEA2E04D
:104680009A2E81E047CE0F5F1F4F0330110509F0CE
:104690002ECE8FEF8C878D871E860E94A2048160AC
:1046A000782F988B8F874C855D856E8588890E94D1
:1046B000B61E49CE863059F4F0E0EA5BFB4FE49138
:1046C0000E2F10E0EEE18E2EE4E19E2E55CE8930C5
:1046D00061F4E695F0E0ED5BFB4FE4910E2F10E006
:1046E00078EF872E71E1972E47CE8F3061F4E695F3
:1046F000F0E0E05CFB4FE4910E2F10E062E2862ECA
:1047000062E1962E39CE853159F4F0E0E35CFB4F3F
:10471000E4910E2F10E050E9852E52E1952E2CCE1B
:1047200008E210E02EED822E22E1922E883109F46B
:1047300023CE833249F4EBE3F4E00591149141EB8D
:10474000842E43E1942E18CE04EF11E097E6892ED3
:1047500093E1992E843209F40FCE853281F48E2FA5
:1047600063E00E942724E92FF0E0E85CFB4FE4912E
:104770000E2F10E039E4832E31E1932EFDCD00EDB4
:1047800017E08DE8882E84E0982EF6CDD09257025F
:1047900074CED09258027ACED0925902BACED0922C
:1047A0005A02C0CE2D32314008F085CEBBCE2D321C
:1047B000314008F034CE6ACE78941F921FB61F9213
:1047C00011248F939F93AF93BF9380913A0290915E
:1047D0003B02A0913C02B0913D020196A11DB11D8A
:1047E00080933A0290933B02A0933C02B0933D0227
:1047F000BF91AF919F918F911F901FBE1F901895F1
:104800001F921FB61F9211248F939F93AF93BF9354
:1048100080913702811113C080913A0290913B023E
:10482000A0913C02B0913D024196A11DB11D809323
:104830003A0290933B02A0933C02B0933D02BF9199
:10484000AF919F918F911F901FBE1F901895991B3C
:1048500079E004C0991F961708F0961B881F7A9577
:10486000C9F78095089587FB082E062687FD819558
:1048700067FD61950E9427240EF4919507FC8195B0
:104880000895AA1BBB1B51E107C0AA1FBB1FA61797
:10489000B70710F0A61BB70B881F991F5A95A9F7E9
:1048A00080959095BC01CD01089597FB072E16F4D5
:1048B000009407D077FD09D00E94412407FC05D061
:1048C0003EF4909581959F4F0895709561957F4F27
:1048D0000895EE0FFF1F0590F491E02D09940E94BA
:1048E0008325332312F48A1B9B0B0C9479240E949A
:1048F0008325B7FF0895821B930B08958F929F9293
:10490000AF92BF92CF92DF92EF92FF92CF93DF935D
:10491000EC01688179818A819B816115710581052E
:10492000910521F464E279ED8BE597E02DE133EF19
:1049300041E050E00E942F2549015A019B01AC0142
:10494000A7EAB1E40E944E256B017C01ACEEB4EF06
:10495000A50194010E945C25DC01CB018C0D9D1DFD
:10496000AE1DBF1DB7FF03C00197A109B0488883E2
:104970009983AA83BB839F77DF91CF91FF90EF90BC
:10498000DF90CF90BF90AF909F908F9008950E943E
:104990007E24089580E091E00E947E240895B0E096
:1049A000A0E08093000190930101A0930201B093D5
:1049B00003010895FC014150504030F0019006166B
:1049C000D1F73197CF010895882799270895F9994C
:1049D000FECF92BD81BDF89A992780B50895A6E1D2
:1049E000B0E044E050E00C942125A8E1B0E042E0C2
:1049F00050E00C942125262FF999FECF92BD81BD60
:104A0000F89A019700B4021639F01FBA20BD0FB60C
:104A1000F894FA9AF99A0FBE08950396272F0E94E8
:104A2000FC240E94FB24252F0E94FC24242F0C949C
:104A3000FC240196272F0E94FC240C94FB24DC010B
:104A4000CB01FC01F999FECF06C0F2BDE1BDF89A99
:104A5000319600B40D9241505040B8F70895052E9C
:104A600097FB1EF400940E94462557FD07D00E9434
:104A7000612507FC03D04EF40C94462550954095D3
:104A8000309521953F4F4F4F5F4F089590958095FA
:104A9000709561957F4F8F4F9F4F08950E9483259A
:104AA000A59F900DB49F900DA49F800D911D112482
:104AB0000895B7FF0C944E250E944E25821B930B40
:104AC0000895A1E21A2EAA1BBB1BFD010DC0AA1F4F
:104AD000BB1FEE1FFF1FA217B307E407F50720F067
:104AE000A21BB30BE40BF50B661F771F881F991FE2
:104AF0001A9469F760957095809590959B01AC012B
:104B0000BD01CF010895A29FB001B39FC001A39F33
:104B1000700D811D1124911DB29F700D811D1124F6
:104B2000911D0895F894FFCFD80AD80AE10AE10A46
:104B3000E30AE10AE10AE10AD80AD80AE80AE10A26
:104B4000E10AE80A270F4F0FE5104F0FE510820F1B
:104B5000A30FE510A010AD10DF16E716ED16F21644
:104B6000F716FC16011706170B17101715171A174B
:104B70001F1788176C196C19E619E619461A601A7E
:0C4B8000A119A1196B1A411B501B501BFE
:104B8C0001000000FF01191A1B1C1D1E1F202122F1
:104B9C000102019004490B280B240B200B0100018E
:104BAC00020202020606060909090909090F0F0F7C
:104BBC000F0F0F1515151819191919191919191984
:104BCC00192324252525252525818283E200E9004A
:104BDC00EA00B500B600B700CD008301CC008A0115
:104BEC0092019401210223022402250226022702AB
:104BFC002A02B300B4006F007000969291F5F4F1A4
:00000001FF
